ARM GAS  C:\Users\cronos\AppData\Local\Temp\ccFFdJaf.s 			page 1


   1              		.syntax unified
   2              		.cpu cortex-m3
   3              		.fpu softvfp
   4              		.eabi_attribute 20, 1
   5              		.eabi_attribute 21, 1
   6              		.eabi_attribute 23, 3
   7              		.eabi_attribute 24, 1
   8              		.eabi_attribute 25, 1
   9              		.eabi_attribute 26, 1
  10              		.eabi_attribute 30, 1
  11              		.eabi_attribute 34, 1
  12              		.eabi_attribute 18, 4
  13              		.thumb
  14              		.syntax unified
  15              		.file	"cymetadata.c"
  16              		.text
  17              	.Ltext0:
  18              		.cfi_sections	.debug_frame
  19              		.global	cy_metadata
  20              		.global	cy_meta_flashprotect
  21              		.global	cy_meta_wonvl
  22              		.global	cy_meta_custnvl
  23              		.global	cy_meta_configecc
  24              		.section	.cyconfigecc,"a",%progbits
  25              		.align	2
  26              		.type	cy_meta_configecc, %object
  27              		.size	cy_meta_configecc, 4784
  28              	cy_meta_configecc:
  29 0000 07       		.byte	7
  30 0001 52       		.byte	82
  31 0002 00       		.byte	0
  32 0003 40       		.byte	64
  33 0004 09       		.byte	9
  34 0005 64       		.byte	100
  35 0006 00       		.byte	0
  36 0007 40       		.byte	64
  37 0008 05       		.byte	5
  38 0009 65       		.byte	101
  39 000a 00       		.byte	0
  40 000b 40       		.byte	64
  41 000c 27       		.byte	39
  42 000d 00       		.byte	0
  43 000e 01       		.byte	1
  44 000f 40       		.byte	64
  45 0010 43       		.byte	67
  46 0011 01       		.byte	1
  47 0012 01       		.byte	1
  48 0013 40       		.byte	64
  49 0014 6B       		.byte	107
  50 0015 02       		.byte	2
  51 0016 01       		.byte	1
  52 0017 40       		.byte	64
  53 0018 4F       		.byte	79
  54 0019 03       		.byte	3
  55 001a 01       		.byte	1
  56 001b 40       		.byte	64
  57 001c 57       		.byte	87
ARM GAS  C:\Users\cronos\AppData\Local\Temp\ccFFdJaf.s 			page 2


  58 001d 04       		.byte	4
  59 001e 01       		.byte	1
  60 001f 40       		.byte	64
  61 0020 43       		.byte	67
  62 0021 05       		.byte	5
  63 0022 01       		.byte	1
  64 0023 40       		.byte	64
  65 0024 1B       		.byte	27
  66 0025 06       		.byte	6
  67 0026 01       		.byte	1
  68 0027 40       		.byte	64
  69 0028 44       		.byte	68
  70 0029 07       		.byte	7
  71 002a 01       		.byte	1
  72 002b 40       		.byte	64
  73 002c 6C       		.byte	108
  74 002d 08       		.byte	8
  75 002e 01       		.byte	1
  76 002f 40       		.byte	64
  77 0030 48       		.byte	72
  78 0031 09       		.byte	9
  79 0032 01       		.byte	1
  80 0033 40       		.byte	64
  81 0034 59       		.byte	89
  82 0035 0A       		.byte	10
  83 0036 01       		.byte	1
  84 0037 40       		.byte	64
  85 0038 59       		.byte	89
  86 0039 0B       		.byte	11
  87 003a 01       		.byte	1
  88 003b 40       		.byte	64
  89 003c 71       		.byte	113
  90 003d 0C       		.byte	12
  91 003e 01       		.byte	1
  92 003f 40       		.byte	64
  93 0040 51       		.byte	81
  94 0041 0D       		.byte	13
  95 0042 01       		.byte	1
  96 0043 40       		.byte	64
  97 0044 6C       		.byte	108
  98 0045 0E       		.byte	14
  99 0046 01       		.byte	1
 100 0047 40       		.byte	64
 101 0048 3E       		.byte	62
 102 0049 0F       		.byte	15
 103 004a 01       		.byte	1
 104 004b 40       		.byte	64
 105 004c 59       		.byte	89
 106 004d 14       		.byte	20
 107 004e 01       		.byte	1
 108 004f 40       		.byte	64
 109 0050 52       		.byte	82
 110 0051 15       		.byte	21
 111 0052 01       		.byte	1
 112 0053 40       		.byte	64
 113 0054 20       		.byte	32
 114 0055 16       		.byte	22
ARM GAS  C:\Users\cronos\AppData\Local\Temp\ccFFdJaf.s 			page 3


 115 0056 01       		.byte	1
 116 0057 40       		.byte	64
 117 0058 4A       		.byte	74
 118 0059 17       		.byte	23
 119 005a 01       		.byte	1
 120 005b 40       		.byte	64
 121 005c 3C       		.byte	60
 122 005d 18       		.byte	24
 123 005e 01       		.byte	1
 124 005f 40       		.byte	64
 125 0060 66       		.byte	102
 126 0061 19       		.byte	25
 127 0062 01       		.byte	1
 128 0063 40       		.byte	64
 129 0064 65       		.byte	101
 130 0065 1A       		.byte	26
 131 0066 01       		.byte	1
 132 0067 40       		.byte	64
 133 0068 53       		.byte	83
 134 0069 1B       		.byte	27
 135 006a 01       		.byte	1
 136 006b 40       		.byte	64
 137 006c 06       		.byte	6
 138 006d 40       		.byte	64
 139 006e 01       		.byte	1
 140 006f 40       		.byte	64
 141 0070 11       		.byte	17
 142 0071 41       		.byte	65
 143 0072 01       		.byte	1
 144 0073 40       		.byte	64
 145 0074 0F       		.byte	15
 146 0075 42       		.byte	66
 147 0076 01       		.byte	1
 148 0077 40       		.byte	64
 149 0078 0A       		.byte	10
 150 0079 43       		.byte	67
 151 007a 01       		.byte	1
 152 007b 40       		.byte	64
 153 007c 06       		.byte	6
 154 007d 44       		.byte	68
 155 007e 01       		.byte	1
 156 007f 40       		.byte	64
 157 0080 02       		.byte	2
 158 0081 45       		.byte	69
 159 0082 01       		.byte	1
 160 0083 40       		.byte	64
 161 0084 0F       		.byte	15
 162 0085 48       		.byte	72
 163 0086 01       		.byte	1
 164 0087 40       		.byte	64
 165 0088 13       		.byte	19
 166 0089 49       		.byte	73
 167 008a 01       		.byte	1
 168 008b 40       		.byte	64
 169 008c 0B       		.byte	11
 170 008d 4C       		.byte	76
 171 008e 01       		.byte	1
ARM GAS  C:\Users\cronos\AppData\Local\Temp\ccFFdJaf.s 			page 4


 172 008f 40       		.byte	64
 173 0090 03       		.byte	3
 174 0091 4D       		.byte	77
 175 0092 01       		.byte	1
 176 0093 40       		.byte	64
 177 0094 0A       		.byte	10
 178 0095 50       		.byte	80
 179 0096 01       		.byte	1
 180 0097 40       		.byte	64
 181 0098 02       		.byte	2
 182 0099 51       		.byte	81
 183 009a 01       		.byte	1
 184 009b 40       		.byte	64
 185 009c 00       		.byte	0
 186 009d 40       		.byte	64
 187 009e 01       		.byte	1
 188 009f 60       		.byte	96
 189 00a0 09       		.byte	9
 190 00a1 10       		.byte	16
 191 00a2 18       		.byte	24
 192 00a3 C0       		.byte	-64
 193 00a4 19       		.byte	25
 194 00a5 40       		.byte	64
 195 00a6 60       		.byte	96
 196 00a7 04       		.byte	4
 197 00a8 61       		.byte	97
 198 00a9 04       		.byte	4
 199 00aa 80       		.byte	-128
 200 00ab 6B       		.byte	107
 201 00ac 83       		.byte	-125
 202 00ad 6B       		.byte	107
 203 00ae 84       		.byte	-124
 204 00af 0F       		.byte	15
 205 00b0 89       		.byte	-119
 206 00b1 72       		.byte	114
 207 00b2 8A       		.byte	-118
 208 00b3 38       		.byte	56
 209 00b4 8B       		.byte	-117
 210 00b5 72       		.byte	114
 211 00b6 8D       		.byte	-115
 212 00b7 38       		.byte	56
 213 00b8 8E       		.byte	-114
 214 00b9 0F       		.byte	15
 215 00ba 8F       		.byte	-113
 216 00bb 0F       		.byte	15
 217 00bc 84       		.byte	-124
 218 00bd 0F       		.byte	15
 219 00be 86       		.byte	-122
 220 00bf 0F       		.byte	15
 221 00c0 87       		.byte	-121
 222 00c1 38       		.byte	56
 223 00c2 88       		.byte	-120
 224 00c3 0F       		.byte	15
 225 00c4 8A       		.byte	-118
 226 00c5 72       		.byte	114
 227 00c6 06       		.byte	6
 228 00c7 04       		.byte	4
ARM GAS  C:\Users\cronos\AppData\Local\Temp\ccFFdJaf.s 			page 5


 229 00c8 18       		.byte	24
 230 00c9 0A       		.byte	10
 231 00ca 1F       		.byte	31
 232 00cb 01       		.byte	1
 233 00cc 20       		.byte	32
 234 00cd 01       		.byte	1
 235 00ce 22       		.byte	34
 236 00cf 0A       		.byte	10
 237 00d0 2C       		.byte	44
 238 00d1 0D       		.byte	13
 239 00d2 30       		.byte	48
 240 00d3 02       		.byte	2
 241 00d4 32       		.byte	50
 242 00d5 0C       		.byte	12
 243 00d6 34       		.byte	52
 244 00d7 01       		.byte	1
 245 00d8 35       		.byte	53
 246 00d9 01       		.byte	1
 247 00da 38       		.byte	56
 248 00db 20       		.byte	32
 249 00dc 3E       		.byte	62
 250 00dd 11       		.byte	17
 251 00de 40       		.byte	64
 252 00df 32       		.byte	50
 253 00e0 49       		.byte	73
 254 00e1 FF       		.byte	-1
 255 00e2 4A       		.byte	74
 256 00e3 FF       		.byte	-1
 257 00e4 4B       		.byte	75
 258 00e5 FF       		.byte	-1
 259 00e6 4D       		.byte	77
 260 00e7 A0       		.byte	-96
 261 00e8 4F       		.byte	79
 262 00e9 01       		.byte	1
 263 00ea 50       		.byte	80
 264 00eb 18       		.byte	24
 265 00ec 54       		.byte	84
 266 00ed 0B       		.byte	11
 267 00ee 58       		.byte	88
 268 00ef 04       		.byte	4
 269 00f0 59       		.byte	89
 270 00f1 04       		.byte	4
 271 00f2 5A       		.byte	90
 272 00f3 04       		.byte	4
 273 00f4 5B       		.byte	91
 274 00f5 04       		.byte	4
 275 00f6 5C       		.byte	92
 276 00f7 11       		.byte	17
 277 00f8 5D       		.byte	93
 278 00f9 11       		.byte	17
 279 00fa 5F       		.byte	95
 280 00fb 05       		.byte	5
 281 00fc 60       		.byte	96
 282 00fd 40       		.byte	64
 283 00fe 62       		.byte	98
 284 00ff 80       		.byte	-128
 285 0100 64       		.byte	100
ARM GAS  C:\Users\cronos\AppData\Local\Temp\ccFFdJaf.s 			page 6


 286 0101 40       		.byte	64
 287 0102 65       		.byte	101
 288 0103 40       		.byte	64
 289 0104 66       		.byte	102
 290 0105 80       		.byte	-128
 291 0106 68       		.byte	104
 292 0107 40       		.byte	64
 293 0108 6A       		.byte	106
 294 0109 50       		.byte	80
 295 010a 6B       		.byte	107
 296 010b A8       		.byte	-88
 297 010c 6C       		.byte	108
 298 010d 40       		.byte	64
 299 010e 6D       		.byte	109
 300 010f 20       		.byte	32
 301 0110 6E       		.byte	110
 302 0111 50       		.byte	80
 303 0112 6F       		.byte	111
 304 0113 A8       		.byte	-88
 305 0114 01       		.byte	1
 306 0115 08       		.byte	8
 307 0116 04       		.byte	4
 308 0117 20       		.byte	32
 309 0118 05       		.byte	5
 310 0119 14       		.byte	20
 311 011a 06       		.byte	6
 312 011b 80       		.byte	-128
 313 011c 07       		.byte	7
 314 011d 02       		.byte	2
 315 011e 09       		.byte	9
 316 011f 20       		.byte	32
 317 0120 0D       		.byte	13
 318 0121 08       		.byte	8
 319 0122 0E       		.byte	14
 320 0123 46       		.byte	70
 321 0124 10       		.byte	16
 322 0125 82       		.byte	-126
 323 0126 14       		.byte	20
 324 0127 04       		.byte	4
 325 0128 15       		.byte	21
 326 0129 04       		.byte	4
 327 012a 16       		.byte	22
 328 012b 02       		.byte	2
 329 012c 17       		.byte	23
 330 012d 01       		.byte	1
 331 012e 18       		.byte	24
 332 012f 04       		.byte	4
 333 0130 19       		.byte	25
 334 0131 09       		.byte	9
 335 0132 1A       		.byte	26
 336 0133 08       		.byte	8
 337 0134 1D       		.byte	29
 338 0135 04       		.byte	4
 339 0136 1E       		.byte	30
 340 0137 44       		.byte	68
 341 0138 1F       		.byte	31
 342 0139 10       		.byte	16
ARM GAS  C:\Users\cronos\AppData\Local\Temp\ccFFdJaf.s 			page 7


 343 013a 21       		.byte	33
 344 013b 20       		.byte	32
 345 013c 24       		.byte	36
 346 013d 51       		.byte	81
 347 013e 25       		.byte	37
 348 013f 58       		.byte	88
 349 0140 27       		.byte	39
 350 0141 42       		.byte	66
 351 0142 29       		.byte	41
 352 0143 04       		.byte	4
 353 0144 2B       		.byte	43
 354 0145 20       		.byte	32
 355 0146 2C       		.byte	44
 356 0147 04       		.byte	4
 357 0148 2E       		.byte	46
 358 0149 42       		.byte	66
 359 014a 2F       		.byte	47
 360 014b 10       		.byte	16
 361 014c 30       		.byte	48
 362 014d 88       		.byte	-120
 363 014e 31       		.byte	49
 364 014f 08       		.byte	8
 365 0150 35       		.byte	53
 366 0151 14       		.byte	20
 367 0152 36       		.byte	54
 368 0153 01       		.byte	1
 369 0154 37       		.byte	55
 370 0155 40       		.byte	64
 371 0156 3C       		.byte	60
 372 0157 11       		.byte	17
 373 0158 3D       		.byte	61
 374 0159 04       		.byte	4
 375 015a 3E       		.byte	62
 376 015b 80       		.byte	-128
 377 015c 40       		.byte	64
 378 015d 04       		.byte	4
 379 015e 42       		.byte	66
 380 015f 10       		.byte	16
 381 0160 43       		.byte	67
 382 0161 04       		.byte	4
 383 0162 47       		.byte	71
 384 0163 04       		.byte	4
 385 0164 4C       		.byte	76
 386 0165 80       		.byte	-128
 387 0166 4E       		.byte	78
 388 0167 04       		.byte	4
 389 0168 56       		.byte	86
 390 0169 01       		.byte	1
 391 016a 57       		.byte	87
 392 016b 14       		.byte	20
 393 016c 58       		.byte	88
 394 016d 40       		.byte	64
 395 016e 59       		.byte	89
 396 016f 01       		.byte	1
 397 0170 5B       		.byte	91
 398 0171 10       		.byte	16
 399 0172 63       		.byte	99
ARM GAS  C:\Users\cronos\AppData\Local\Temp\ccFFdJaf.s 			page 8


 400 0173 28       		.byte	40
 401 0174 68       		.byte	104
 402 0175 02       		.byte	2
 403 0176 69       		.byte	105
 404 0177 40       		.byte	64
 405 0178 75       		.byte	117
 406 0179 02       		.byte	2
 407 017a 79       		.byte	121
 408 017b 40       		.byte	64
 409 017c 80       		.byte	-128
 410 017d 80       		.byte	-128
 411 017e 81       		.byte	-127
 412 017f 40       		.byte	64
 413 0180 83       		.byte	-125
 414 0181 10       		.byte	16
 415 0182 C0       		.byte	-64
 416 0183 F4       		.byte	-12
 417 0184 C2       		.byte	-62
 418 0185 F2       		.byte	-14
 419 0186 C4       		.byte	-60
 420 0187 F9       		.byte	-7
 421 0188 CA       		.byte	-54
 422 0189 F0       		.byte	-16
 423 018a CC       		.byte	-52
 424 018b F8       		.byte	-8
 425 018c CE       		.byte	-50
 426 018d F0       		.byte	-16
 427 018e D0       		.byte	-48
 428 018f 46       		.byte	70
 429 0190 D2       		.byte	-46
 430 0191 20       		.byte	32
 431 0192 D6       		.byte	-42
 432 0193 0D       		.byte	13
 433 0194 D8       		.byte	-40
 434 0195 06       		.byte	6
 435 0196 DE       		.byte	-34
 436 0197 08       		.byte	8
 437 0198 E2       		.byte	-30
 438 0199 01       		.byte	1
 439 019a 02       		.byte	2
 440 019b 04       		.byte	4
 441 019c 03       		.byte	3
 442 019d 08       		.byte	8
 443 019e 04       		.byte	4
 444 019f 04       		.byte	4
 445 01a0 07       		.byte	7
 446 01a1 0D       		.byte	13
 447 01a2 0A       		.byte	10
 448 01a3 02       		.byte	2
 449 01a4 0B       		.byte	11
 450 01a5 08       		.byte	8
 451 01a6 0E       		.byte	14
 452 01a7 0D       		.byte	13
 453 01a8 0F       		.byte	15
 454 01a9 08       		.byte	8
 455 01aa 10       		.byte	16
 456 01ab 01       		.byte	1
ARM GAS  C:\Users\cronos\AppData\Local\Temp\ccFFdJaf.s 			page 9


 457 01ac 17       		.byte	23
 458 01ad 09       		.byte	9
 459 01ae 18       		.byte	24
 460 01af 05       		.byte	5
 461 01b0 1B       		.byte	27
 462 01b1 07       		.byte	7
 463 01b2 22       		.byte	34
 464 01b3 01       		.byte	1
 465 01b4 23       		.byte	35
 466 01b5 0F       		.byte	15
 467 01b6 27       		.byte	39
 468 01b7 09       		.byte	9
 469 01b8 2B       		.byte	43
 470 01b9 08       		.byte	8
 471 01ba 30       		.byte	48
 472 01bb 01       		.byte	1
 473 01bc 31       		.byte	49
 474 01bd 01       		.byte	1
 475 01be 32       		.byte	50
 476 01bf 04       		.byte	4
 477 01c0 33       		.byte	51
 478 01c1 02       		.byte	2
 479 01c2 34       		.byte	52
 480 01c3 08       		.byte	8
 481 01c4 35       		.byte	53
 482 01c5 04       		.byte	4
 483 01c6 36       		.byte	54
 484 01c7 02       		.byte	2
 485 01c8 37       		.byte	55
 486 01c9 08       		.byte	8
 487 01ca 3A       		.byte	58
 488 01cb 80       		.byte	-128
 489 01cc 3B       		.byte	59
 490 01cd 2A       		.byte	42
 491 01ce 3E       		.byte	62
 492 01cf 05       		.byte	5
 493 01d0 3F       		.byte	63
 494 01d1 40       		.byte	64
 495 01d2 40       		.byte	64
 496 01d3 46       		.byte	70
 497 01d4 49       		.byte	73
 498 01d5 FF       		.byte	-1
 499 01d6 4A       		.byte	74
 500 01d7 FF       		.byte	-1
 501 01d8 4B       		.byte	75
 502 01d9 FF       		.byte	-1
 503 01da 4D       		.byte	77
 504 01db A0       		.byte	-96
 505 01dc 4F       		.byte	79
 506 01dd 01       		.byte	1
 507 01de 50       		.byte	80
 508 01df 18       		.byte	24
 509 01e0 52       		.byte	82
 510 01e1 80       		.byte	-128
 511 01e2 58       		.byte	88
 512 01e3 04       		.byte	4
 513 01e4 59       		.byte	89
ARM GAS  C:\Users\cronos\AppData\Local\Temp\ccFFdJaf.s 			page 10


 514 01e5 04       		.byte	4
 515 01e6 5A       		.byte	90
 516 01e7 04       		.byte	4
 517 01e8 5B       		.byte	91
 518 01e9 04       		.byte	4
 519 01ea 5C       		.byte	92
 520 01eb 11       		.byte	17
 521 01ec 5D       		.byte	93
 522 01ed 11       		.byte	17
 523 01ee 5F       		.byte	95
 524 01ef 01       		.byte	1
 525 01f0 60       		.byte	96
 526 01f1 40       		.byte	64
 527 01f2 62       		.byte	98
 528 01f3 80       		.byte	-128
 529 01f4 64       		.byte	100
 530 01f5 40       		.byte	64
 531 01f6 65       		.byte	101
 532 01f7 40       		.byte	64
 533 01f8 66       		.byte	102
 534 01f9 80       		.byte	-128
 535 01fa 68       		.byte	104
 536 01fb 40       		.byte	64
 537 01fc 6A       		.byte	106
 538 01fd 50       		.byte	80
 539 01fe 6B       		.byte	107
 540 01ff A8       		.byte	-88
 541 0200 6C       		.byte	108
 542 0201 40       		.byte	64
 543 0202 6D       		.byte	109
 544 0203 20       		.byte	32
 545 0204 6E       		.byte	110
 546 0205 50       		.byte	80
 547 0206 6F       		.byte	111
 548 0207 A8       		.byte	-88
 549 0208 81       		.byte	-127
 550 0209 04       		.byte	4
 551 020a 88       		.byte	-120
 552 020b 14       		.byte	20
 553 020c 8F       		.byte	-113
 554 020d 05       		.byte	5
 555 020e 99       		.byte	-103
 556 020f 08       		.byte	8
 557 0210 9E       		.byte	-98
 558 0211 02       		.byte	2
 559 0212 A3       		.byte	-93
 560 0213 0A       		.byte	10
 561 0214 A4       		.byte	-92
 562 0215 01       		.byte	1
 563 0216 A6       		.byte	-90
 564 0217 1C       		.byte	28
 565 0218 AC       		.byte	-84
 566 0219 07       		.byte	7
 567 021a B0       		.byte	-80
 568 021b 10       		.byte	16
 569 021c B1       		.byte	-79
 570 021d 01       		.byte	1
ARM GAS  C:\Users\cronos\AppData\Local\Temp\ccFFdJaf.s 			page 11


 571 021e B2       		.byte	-78
 572 021f 08       		.byte	8
 573 0220 B3       		.byte	-77
 574 0221 08       		.byte	8
 575 0222 B4       		.byte	-76
 576 0223 01       		.byte	1
 577 0224 B5       		.byte	-75
 578 0225 02       		.byte	2
 579 0226 B6       		.byte	-74
 580 0227 06       		.byte	6
 581 0228 B7       		.byte	-73
 582 0229 04       		.byte	4
 583 022a B8       		.byte	-72
 584 022b 20       		.byte	32
 585 022c BE       		.byte	-66
 586 022d 11       		.byte	17
 587 022e BF       		.byte	-65
 588 022f 44       		.byte	68
 589 0230 C0       		.byte	-64
 590 0231 42       		.byte	66
 591 0232 C5       		.byte	-59
 592 0233 02       		.byte	2
 593 0234 C6       		.byte	-58
 594 0235 C5       		.byte	-59
 595 0236 C7       		.byte	-57
 596 0237 0E       		.byte	14
 597 0238 C8       		.byte	-56
 598 0239 1D       		.byte	29
 599 023a C9       		.byte	-55
 600 023b FF       		.byte	-1
 601 023c CA       		.byte	-54
 602 023d FF       		.byte	-1
 603 023e CB       		.byte	-53
 604 023f FF       		.byte	-1
 605 0240 CD       		.byte	-51
 606 0241 AF       		.byte	-81
 607 0242 CE       		.byte	-50
 608 0243 07       		.byte	7
 609 0244 CF       		.byte	-49
 610 0245 01       		.byte	1
 611 0246 D0       		.byte	-48
 612 0247 18       		.byte	24
 613 0248 D4       		.byte	-44
 614 0249 0B       		.byte	11
 615 024a D8       		.byte	-40
 616 024b 04       		.byte	4
 617 024c D9       		.byte	-39
 618 024d 04       		.byte	4
 619 024e DA       		.byte	-38
 620 024f 04       		.byte	4
 621 0250 DB       		.byte	-37
 622 0251 04       		.byte	4
 623 0252 DC       		.byte	-36
 624 0253 11       		.byte	17
 625 0254 DD       		.byte	-35
 626 0255 11       		.byte	17
 627 0256 DF       		.byte	-33
ARM GAS  C:\Users\cronos\AppData\Local\Temp\ccFFdJaf.s 			page 12


 628 0257 05       		.byte	5
 629 0258 E0       		.byte	-32
 630 0259 40       		.byte	64
 631 025a E2       		.byte	-30
 632 025b 80       		.byte	-128
 633 025c E4       		.byte	-28
 634 025d 40       		.byte	64
 635 025e E5       		.byte	-27
 636 025f 40       		.byte	64
 637 0260 E6       		.byte	-26
 638 0261 80       		.byte	-128
 639 0262 E8       		.byte	-24
 640 0263 40       		.byte	64
 641 0264 EA       		.byte	-22
 642 0265 50       		.byte	80
 643 0266 EB       		.byte	-21
 644 0267 A8       		.byte	-88
 645 0268 EC       		.byte	-20
 646 0269 40       		.byte	64
 647 026a ED       		.byte	-19
 648 026b 20       		.byte	32
 649 026c EE       		.byte	-18
 650 026d 50       		.byte	80
 651 026e EF       		.byte	-17
 652 026f A8       		.byte	-88
 653 0270 03       		.byte	3
 654 0271 08       		.byte	8
 655 0272 04       		.byte	4
 656 0273 60       		.byte	96
 657 0274 05       		.byte	5
 658 0275 0A       		.byte	10
 659 0276 0A       		.byte	10
 660 0277 02       		.byte	2
 661 0278 0E       		.byte	14
 662 0279 04       		.byte	4
 663 027a 0F       		.byte	15
 664 027b 80       		.byte	-128
 665 027c 10       		.byte	16
 666 027d 32       		.byte	50
 667 027e 16       		.byte	22
 668 027f 80       		.byte	-128
 669 0280 18       		.byte	24
 670 0281 04       		.byte	4
 671 0282 19       		.byte	25
 672 0283 01       		.byte	1
 673 0284 1A       		.byte	26
 674 0285 02       		.byte	2
 675 0286 1B       		.byte	27
 676 0287 58       		.byte	88
 677 0288 1D       		.byte	29
 678 0289 02       		.byte	2
 679 028a 1E       		.byte	30
 680 028b 14       		.byte	20
 681 028c 1F       		.byte	31
 682 028d 80       		.byte	-128
 683 028e 21       		.byte	33
 684 028f 01       		.byte	1
ARM GAS  C:\Users\cronos\AppData\Local\Temp\ccFFdJaf.s 			page 13


 685 0290 22       		.byte	34
 686 0291 54       		.byte	84
 687 0292 25       		.byte	37
 688 0293 05       		.byte	5
 689 0294 26       		.byte	38
 690 0295 01       		.byte	1
 691 0296 27       		.byte	39
 692 0297 05       		.byte	5
 693 0298 2A       		.byte	42
 694 0299 01       		.byte	1
 695 029a 2C       		.byte	44
 696 029b 08       		.byte	8
 697 029c 2E       		.byte	46
 698 029d 02       		.byte	2
 699 029e 2F       		.byte	47
 700 029f A0       		.byte	-96
 701 02a0 32       		.byte	50
 702 02a1 10       		.byte	16
 703 02a2 34       		.byte	52
 704 02a3 04       		.byte	4
 705 02a4 35       		.byte	53
 706 02a5 10       		.byte	16
 707 02a6 37       		.byte	55
 708 02a7 04       		.byte	4
 709 02a8 38       		.byte	56
 710 02a9 80       		.byte	-128
 711 02aa 39       		.byte	57
 712 02ab 02       		.byte	2
 713 02ac 3D       		.byte	61
 714 02ad AE       		.byte	-82
 715 02ae 40       		.byte	64
 716 02af 04       		.byte	4
 717 02b0 41       		.byte	65
 718 02b1 02       		.byte	2
 719 02b2 45       		.byte	69
 720 02b3 02       		.byte	2
 721 02b4 48       		.byte	72
 722 02b5 20       		.byte	32
 723 02b6 4F       		.byte	79
 724 02b7 20       		.byte	32
 725 02b8 50       		.byte	80
 726 02b9 40       		.byte	64
 727 02ba 51       		.byte	81
 728 02bb 08       		.byte	8
 729 02bc 52       		.byte	82
 730 02bd 20       		.byte	32
 731 02be 58       		.byte	88
 732 02bf 10       		.byte	16
 733 02c0 59       		.byte	89
 734 02c1 01       		.byte	1
 735 02c2 5A       		.byte	90
 736 02c3 80       		.byte	-128
 737 02c4 61       		.byte	97
 738 02c5 08       		.byte	8
 739 02c6 62       		.byte	98
 740 02c7 20       		.byte	32
 741 02c8 68       		.byte	104
ARM GAS  C:\Users\cronos\AppData\Local\Temp\ccFFdJaf.s 			page 14


 742 02c9 02       		.byte	2
 743 02ca 69       		.byte	105
 744 02cb 40       		.byte	64
 745 02cc 76       		.byte	118
 746 02cd 80       		.byte	-128
 747 02ce 79       		.byte	121
 748 02cf 40       		.byte	64
 749 02d0 84       		.byte	-124
 750 02d1 10       		.byte	16
 751 02d2 8A       		.byte	-118
 752 02d3 10       		.byte	16
 753 02d4 90       		.byte	-112
 754 02d5 40       		.byte	64
 755 02d6 91       		.byte	-111
 756 02d7 80       		.byte	-128
 757 02d8 94       		.byte	-108
 758 02d9 20       		.byte	32
 759 02da 95       		.byte	-107
 760 02db 04       		.byte	4
 761 02dc 96       		.byte	-106
 762 02dd 10       		.byte	16
 763 02de 99       		.byte	-103
 764 02df 1A       		.byte	26
 765 02e0 9A       		.byte	-102
 766 02e1 01       		.byte	1
 767 02e2 9C       		.byte	-100
 768 02e3 44       		.byte	68
 769 02e4 9E       		.byte	-98
 770 02e5 02       		.byte	2
 771 02e6 9F       		.byte	-97
 772 02e7 01       		.byte	1
 773 02e8 A0       		.byte	-96
 774 02e9 08       		.byte	8
 775 02ea A1       		.byte	-95
 776 02eb 50       		.byte	80
 777 02ec A3       		.byte	-93
 778 02ed 20       		.byte	32
 779 02ee A6       		.byte	-90
 780 02ef 01       		.byte	1
 781 02f0 A9       		.byte	-87
 782 02f1 10       		.byte	16
 783 02f2 AA       		.byte	-86
 784 02f3 80       		.byte	-128
 785 02f4 C0       		.byte	-64
 786 02f5 F2       		.byte	-14
 787 02f6 C2       		.byte	-62
 788 02f7 51       		.byte	81
 789 02f8 C4       		.byte	-60
 790 02f9 15       		.byte	21
 791 02fa CA       		.byte	-54
 792 02fb E1       		.byte	-31
 793 02fc CC       		.byte	-52
 794 02fd 64       		.byte	100
 795 02fe CE       		.byte	-50
 796 02ff F9       		.byte	-7
 797 0300 D0       		.byte	-48
 798 0301 85       		.byte	-123
ARM GAS  C:\Users\cronos\AppData\Local\Temp\ccFFdJaf.s 			page 15


 799 0302 D2       		.byte	-46
 800 0303 20       		.byte	32
 801 0304 D6       		.byte	-42
 802 0305 0D       		.byte	13
 803 0306 D8       		.byte	-40
 804 0307 06       		.byte	6
 805 0308 DE       		.byte	-34
 806 0309 08       		.byte	8
 807 030a E2       		.byte	-30
 808 030b 09       		.byte	9
 809 030c E6       		.byte	-26
 810 030d 02       		.byte	2
 811 030e 00       		.byte	0
 812 030f 40       		.byte	64
 813 0310 02       		.byte	2
 814 0311 03       		.byte	3
 815 0312 04       		.byte	4
 816 0313 09       		.byte	9
 817 0314 06       		.byte	6
 818 0315 10       		.byte	16
 819 0316 08       		.byte	8
 820 0317 1C       		.byte	28
 821 0318 0A       		.byte	10
 822 0319 22       		.byte	34
 823 031a 0C       		.byte	12
 824 031b 10       		.byte	16
 825 031c 0D       		.byte	13
 826 031d 02       		.byte	2
 827 031e 10       		.byte	16
 828 031f 14       		.byte	20
 829 0320 19       		.byte	25
 830 0321 01       		.byte	1
 831 0322 1A       		.byte	26
 832 0323 20       		.byte	32
 833 0324 1C       		.byte	28
 834 0325 30       		.byte	48
 835 0326 1E       		.byte	30
 836 0327 0C       		.byte	12
 837 0328 22       		.byte	34
 838 0329 20       		.byte	32
 839 032a 24       		.byte	36
 840 032b 2C       		.byte	44
 841 032c 26       		.byte	38
 842 032d 11       		.byte	17
 843 032e 30       		.byte	48
 844 032f 1F       		.byte	31
 845 0330 33       		.byte	51
 846 0331 01       		.byte	1
 847 0332 34       		.byte	52
 848 0333 40       		.byte	64
 849 0334 35       		.byte	53
 850 0335 02       		.byte	2
 851 0336 36       		.byte	54
 852 0337 20       		.byte	32
 853 0338 3E       		.byte	62
 854 0339 50       		.byte	80
 855 033a 3F       		.byte	63
ARM GAS  C:\Users\cronos\AppData\Local\Temp\ccFFdJaf.s 			page 16


 856 033b 14       		.byte	20
 857 033c 40       		.byte	64
 858 033d 43       		.byte	67
 859 033e 41       		.byte	65
 860 033f 05       		.byte	5
 861 0340 45       		.byte	69
 862 0341 0E       		.byte	14
 863 0342 46       		.byte	70
 864 0343 0B       		.byte	11
 865 0344 47       		.byte	71
 866 0345 0C       		.byte	12
 867 0346 48       		.byte	72
 868 0347 15       		.byte	21
 869 0348 49       		.byte	73
 870 0349 FF       		.byte	-1
 871 034a 4A       		.byte	74
 872 034b FF       		.byte	-1
 873 034c 4B       		.byte	75
 874 034d FF       		.byte	-1
 875 034e 4E       		.byte	78
 876 034f F0       		.byte	-16
 877 0350 4F       		.byte	79
 878 0351 44       		.byte	68
 879 0352 50       		.byte	80
 880 0353 0C       		.byte	12
 881 0354 54       		.byte	84
 882 0355 01       		.byte	1
 883 0356 58       		.byte	88
 884 0357 04       		.byte	4
 885 0358 59       		.byte	89
 886 0359 04       		.byte	4
 887 035a 5A       		.byte	90
 888 035b 04       		.byte	4
 889 035c 5B       		.byte	91
 890 035d 04       		.byte	4
 891 035e 5C       		.byte	92
 892 035f 03       		.byte	3
 893 0360 5D       		.byte	93
 894 0361 33       		.byte	51
 895 0362 5F       		.byte	95
 896 0363 01       		.byte	1
 897 0364 66       		.byte	102
 898 0365 C0       		.byte	-64
 899 0366 6A       		.byte	106
 900 0367 40       		.byte	64
 901 0368 6B       		.byte	107
 902 0369 02       		.byte	2
 903 036a 81       		.byte	-127
 904 036b 01       		.byte	1
 905 036c 84       		.byte	-124
 906 036d 14       		.byte	20
 907 036e 85       		.byte	-123
 908 036f 01       		.byte	1
 909 0370 86       		.byte	-122
 910 0371 43       		.byte	67
 911 0372 88       		.byte	-120
 912 0373 98       		.byte	-104
ARM GAS  C:\Users\cronos\AppData\Local\Temp\ccFFdJaf.s 			page 17


 913 0374 89       		.byte	-119
 914 0375 40       		.byte	64
 915 0376 8A       		.byte	-118
 916 0377 03       		.byte	3
 917 0378 8C       		.byte	-116
 918 0379 E0       		.byte	-32
 919 037a 8D       		.byte	-115
 920 037b 07       		.byte	7
 921 037c 8F       		.byte	-113
 922 037d 18       		.byte	24
 923 037e 90       		.byte	-112
 924 037f 31       		.byte	49
 925 0380 91       		.byte	-111
 926 0381 01       		.byte	1
 927 0382 92       		.byte	-110
 928 0383 02       		.byte	2
 929 0384 95       		.byte	-107
 930 0385 22       		.byte	34
 931 0386 96       		.byte	-106
 932 0387 EC       		.byte	-20
 933 0388 97       		.byte	-105
 934 0389 08       		.byte	8
 935 038a 99       		.byte	-103
 936 038b 40       		.byte	64
 937 038c 9A       		.byte	-102
 938 038d 01       		.byte	1
 939 038e 9D       		.byte	-99
 940 038f 04       		.byte	4
 941 0390 A1       		.byte	-95
 942 0391 01       		.byte	1
 943 0392 A2       		.byte	-94
 944 0393 02       		.byte	2
 945 0394 A5       		.byte	-91
 946 0395 01       		.byte	1
 947 0396 A9       		.byte	-87
 948 0397 08       		.byte	8
 949 0398 AB       		.byte	-85
 950 0399 21       		.byte	33
 951 039a AD       		.byte	-83
 952 039b 10       		.byte	16
 953 039c AF       		.byte	-81
 954 039d 80       		.byte	-128
 955 039e B0       		.byte	-80
 956 039f 10       		.byte	16
 957 03a0 B1       		.byte	-79
 958 03a1 40       		.byte	64
 959 03a2 B2       		.byte	-78
 960 03a3 0F       		.byte	15
 961 03a4 B3       		.byte	-77
 962 03a5 80       		.byte	-128
 963 03a6 B5       		.byte	-75
 964 03a7 3F       		.byte	63
 965 03a8 B6       		.byte	-74
 966 03a9 E0       		.byte	-32
 967 03aa B7       		.byte	-73
 968 03ab 08       		.byte	8
 969 03ac B9       		.byte	-71
ARM GAS  C:\Users\cronos\AppData\Local\Temp\ccFFdJaf.s 			page 18


 970 03ad 22       		.byte	34
 971 03ae BE       		.byte	-66
 972 03af 41       		.byte	65
 973 03b0 BF       		.byte	-65
 974 03b1 50       		.byte	80
 975 03b2 D4       		.byte	-44
 976 03b3 09       		.byte	9
 977 03b4 D8       		.byte	-40
 978 03b5 04       		.byte	4
 979 03b6 D9       		.byte	-39
 980 03b7 04       		.byte	4
 981 03b8 DB       		.byte	-37
 982 03b9 04       		.byte	4
 983 03ba DF       		.byte	-33
 984 03bb 01       		.byte	1
 985 03bc 00       		.byte	0
 986 03bd 20       		.byte	32
 987 03be 01       		.byte	1
 988 03bf 42       		.byte	66
 989 03c0 02       		.byte	2
 990 03c1 10       		.byte	16
 991 03c2 04       		.byte	4
 992 03c3 50       		.byte	80
 993 03c4 05       		.byte	5
 994 03c5 04       		.byte	4
 995 03c6 08       		.byte	8
 996 03c7 80       		.byte	-128
 997 03c8 0B       		.byte	11
 998 03c9 85       		.byte	-123
 999 03ca 0E       		.byte	14
 1000 03cb 28       		.byte	40
 1001 03cc 0F       		.byte	15
 1002 03cd 80       		.byte	-128
 1003 03ce 10       		.byte	16
 1004 03cf 10       		.byte	16
 1005 03d0 13       		.byte	19
 1006 03d1 02       		.byte	2
 1007 03d2 16       		.byte	22
 1008 03d3 80       		.byte	-128
 1009 03d4 19       		.byte	25
 1010 03d5 92       		.byte	-110
 1011 03d6 1E       		.byte	30
 1012 03d7 21       		.byte	33
 1013 03d8 1F       		.byte	31
 1014 03d9 01       		.byte	1
 1015 03da 21       		.byte	33
 1016 03db 20       		.byte	32
 1017 03dc 22       		.byte	34
 1018 03dd 04       		.byte	4
 1019 03de 26       		.byte	38
 1020 03df 64       		.byte	100
 1021 03e0 27       		.byte	39
 1022 03e1 40       		.byte	64
 1023 03e2 2E       		.byte	46
 1024 03e3 86       		.byte	-122
 1025 03e4 2F       		.byte	47
 1026 03e5 04       		.byte	4
ARM GAS  C:\Users\cronos\AppData\Local\Temp\ccFFdJaf.s 			page 19


 1027 03e6 30       		.byte	48
 1028 03e7 20       		.byte	32
 1029 03e8 36       		.byte	54
 1030 03e9 28       		.byte	40
 1031 03ea 37       		.byte	55
 1032 03eb 41       		.byte	65
 1033 03ec 39       		.byte	57
 1034 03ed 80       		.byte	-128
 1035 03ee 3C       		.byte	60
 1036 03ef 88       		.byte	-120
 1037 03f0 3D       		.byte	61
 1038 03f1 22       		.byte	34
 1039 03f2 3F       		.byte	63
 1040 03f3 80       		.byte	-128
 1041 03f4 40       		.byte	64
 1042 03f5 80       		.byte	-128
 1043 03f6 41       		.byte	65
 1044 03f7 08       		.byte	8
 1045 03f8 48       		.byte	72
 1046 03f9 20       		.byte	32
 1047 03fa 4B       		.byte	75
 1048 03fb 40       		.byte	64
 1049 03fc 50       		.byte	80
 1050 03fd 04       		.byte	4
 1051 03fe 53       		.byte	83
 1052 03ff 40       		.byte	64
 1053 0400 58       		.byte	88
 1054 0401 01       		.byte	1
 1055 0402 59       		.byte	89
 1056 0403 A0       		.byte	-96
 1057 0404 5A       		.byte	90
 1058 0405 08       		.byte	8
 1059 0406 5D       		.byte	93
 1060 0407 19       		.byte	25
 1061 0408 5E       		.byte	94
 1062 0409 80       		.byte	-128
 1063 040a 67       		.byte	103
 1064 040b 02       		.byte	2
 1065 040c 81       		.byte	-127
 1066 040d 10       		.byte	16
 1067 040e 84       		.byte	-124
 1068 040f 10       		.byte	16
 1069 0410 85       		.byte	-123
 1070 0411 08       		.byte	8
 1071 0412 87       		.byte	-121
 1072 0413 44       		.byte	68
 1073 0414 8C       		.byte	-116
 1074 0415 04       		.byte	4
 1075 0416 8D       		.byte	-115
 1076 0417 60       		.byte	96
 1077 0418 8F       		.byte	-113
 1078 0419 02       		.byte	2
 1079 041a 91       		.byte	-111
 1080 041b 80       		.byte	-128
 1081 041c 93       		.byte	-109
 1082 041d 01       		.byte	1
 1083 041e 94       		.byte	-108
ARM GAS  C:\Users\cronos\AppData\Local\Temp\ccFFdJaf.s 			page 20


 1084 041f 20       		.byte	32
 1085 0420 9A       		.byte	-102
 1086 0421 10       		.byte	16
 1087 0422 A0       		.byte	-96
 1088 0423 10       		.byte	16
 1089 0424 AC       		.byte	-84
 1090 0425 40       		.byte	64
 1091 0426 AE       		.byte	-82
 1092 0427 04       		.byte	4
 1093 0428 B7       		.byte	-73
 1094 0429 01       		.byte	1
 1095 042a C0       		.byte	-64
 1096 042b EF       		.byte	-17
 1097 042c C2       		.byte	-62
 1098 042d 7B       		.byte	123
 1099 042e C4       		.byte	-60
 1100 042f 1C       		.byte	28
 1101 0430 CA       		.byte	-54
 1102 0431 F0       		.byte	-16
 1103 0432 CC       		.byte	-52
 1104 0433 F4       		.byte	-12
 1105 0434 CE       		.byte	-50
 1106 0435 F8       		.byte	-8
 1107 0436 D0       		.byte	-48
 1108 0437 03       		.byte	3
 1109 0438 D2       		.byte	-46
 1110 0439 08       		.byte	8
 1111 043a D6       		.byte	-42
 1112 043b FF       		.byte	-1
 1113 043c D8       		.byte	-40
 1114 043d 10       		.byte	16
 1115 043e E2       		.byte	-30
 1116 043f 06       		.byte	6
 1117 0440 E6       		.byte	-26
 1118 0441 02       		.byte	2
 1119 0442 81       		.byte	-127
 1120 0443 9C       		.byte	-100
 1121 0444 85       		.byte	-123
 1122 0445 94       		.byte	-108
 1123 0446 87       		.byte	-121
 1124 0447 08       		.byte	8
 1125 0448 89       		.byte	-119
 1126 0449 08       		.byte	8
 1127 044a 8B       		.byte	-117
 1128 044b 40       		.byte	64
 1129 044c 8D       		.byte	-115
 1130 044d D1       		.byte	-47
 1131 044e 8F       		.byte	-113
 1132 044f 22       		.byte	34
 1133 0450 95       		.byte	-107
 1134 0451 10       		.byte	16
 1135 0452 97       		.byte	-105
 1136 0453 8C       		.byte	-116
 1137 0454 99       		.byte	-103
 1138 0455 A4       		.byte	-92
 1139 0456 9B       		.byte	-101
 1140 0457 10       		.byte	16
ARM GAS  C:\Users\cronos\AppData\Local\Temp\ccFFdJaf.s 			page 21


 1141 0458 A1       		.byte	-95
 1142 0459 8C       		.byte	-116
 1143 045a A3       		.byte	-93
 1144 045b 10       		.byte	16
 1145 045c A5       		.byte	-91
 1146 045d 61       		.byte	97
 1147 045e A7       		.byte	-89
 1148 045f 1E       		.byte	30
 1149 0460 A9       		.byte	-87
 1150 0461 30       		.byte	48
 1151 0462 AB       		.byte	-85
 1152 0463 8F       		.byte	-113
 1153 0464 AD       		.byte	-83
 1154 0465 9C       		.byte	-100
 1155 0466 B1       		.byte	-79
 1156 0467 0F       		.byte	15
 1157 0468 B3       		.byte	-77
 1158 0469 C1       		.byte	-63
 1159 046a B5       		.byte	-75
 1160 046b 30       		.byte	48
 1161 046c BB       		.byte	-69
 1162 046d 2C       		.byte	44
 1163 046e D4       		.byte	-44
 1164 046f 40       		.byte	64
 1165 0470 D9       		.byte	-39
 1166 0471 04       		.byte	4
 1167 0472 DB       		.byte	-37
 1168 0473 04       		.byte	4
 1169 0474 DD       		.byte	-35
 1170 0475 40       		.byte	64
 1171 0476 DF       		.byte	-33
 1172 0477 01       		.byte	1
 1173 0478 04       		.byte	4
 1174 0479 10       		.byte	16
 1175 047a 05       		.byte	5
 1176 047b 80       		.byte	-128
 1177 047c 06       		.byte	6
 1178 047d 60       		.byte	96
 1179 047e 0D       		.byte	13
 1180 047f 08       		.byte	8
 1181 0480 0E       		.byte	14
 1182 0481 45       		.byte	69
 1183 0482 14       		.byte	20
 1184 0483 01       		.byte	1
 1185 0484 15       		.byte	21
 1186 0485 10       		.byte	16
 1187 0486 16       		.byte	22
 1188 0487 09       		.byte	9
 1189 0488 17       		.byte	23
 1190 0489 09       		.byte	9
 1191 048a 1C       		.byte	28
 1192 048b 40       		.byte	64
 1193 048c 1D       		.byte	29
 1194 048d 0C       		.byte	12
 1195 048e 1E       		.byte	30
 1196 048f 40       		.byte	64
 1197 0490 1F       		.byte	31
ARM GAS  C:\Users\cronos\AppData\Local\Temp\ccFFdJaf.s 			page 22


 1198 0491 14       		.byte	20
 1199 0492 20       		.byte	32
 1200 0493 98       		.byte	-104
 1201 0494 22       		.byte	34
 1202 0495 18       		.byte	24
 1203 0496 23       		.byte	35
 1204 0497 48       		.byte	72
 1205 0498 24       		.byte	36
 1206 0499 20       		.byte	32
 1207 049a 25       		.byte	37
 1208 049b 10       		.byte	16
 1209 049c 29       		.byte	41
 1210 049d 25       		.byte	37
 1211 049e 2A       		.byte	42
 1212 049f 40       		.byte	64
 1213 04a0 2D       		.byte	45
 1214 04a1 04       		.byte	4
 1215 04a2 2E       		.byte	46
 1216 04a3 A7       		.byte	-89
 1217 04a4 2F       		.byte	47
 1218 04a5 08       		.byte	8
 1219 04a6 32       		.byte	50
 1220 04a7 10       		.byte	16
 1221 04a8 33       		.byte	51
 1222 04a9 08       		.byte	8
 1223 04aa 35       		.byte	53
 1224 04ab 05       		.byte	5
 1225 04ac 37       		.byte	55
 1226 04ad 41       		.byte	65
 1227 04ae 39       		.byte	57
 1228 04af 14       		.byte	20
 1229 04b0 3A       		.byte	58
 1230 04b1 02       		.byte	2
 1231 04b2 3B       		.byte	59
 1232 04b3 40       		.byte	64
 1233 04b4 3C       		.byte	60
 1234 04b5 98       		.byte	-104
 1235 04b6 3D       		.byte	61
 1236 04b7 02       		.byte	2
 1237 04b8 44       		.byte	68
 1238 04b9 80       		.byte	-128
 1239 04ba 45       		.byte	69
 1240 04bb 28       		.byte	40
 1241 04bc 4D       		.byte	77
 1242 04bd A8       		.byte	-88
 1243 04be 4E       		.byte	78
 1244 04bf 08       		.byte	8
 1245 04c0 4F       		.byte	79
 1246 04c1 40       		.byte	64
 1247 04c2 56       		.byte	86
 1248 04c3 99       		.byte	-103
 1249 04c4 60       		.byte	96
 1250 04c5 01       		.byte	1
 1251 04c6 63       		.byte	99
 1252 04c7 28       		.byte	40
 1253 04c8 64       		.byte	100
 1254 04c9 01       		.byte	1
ARM GAS  C:\Users\cronos\AppData\Local\Temp\ccFFdJaf.s 			page 23


 1255 04ca 66       		.byte	102
 1256 04cb 10       		.byte	16
 1257 04cc 67       		.byte	103
 1258 04cd 20       		.byte	32
 1259 04ce 8C       		.byte	-116
 1260 04cf 21       		.byte	33
 1261 04d0 94       		.byte	-108
 1262 04d1 70       		.byte	112
 1263 04d2 95       		.byte	-107
 1264 04d3 11       		.byte	17
 1265 04d4 96       		.byte	-106
 1266 04d5 04       		.byte	4
 1267 04d6 97       		.byte	-105
 1268 04d7 08       		.byte	8
 1269 04d8 9B       		.byte	-101
 1270 04d9 40       		.byte	64
 1271 04da 9D       		.byte	-99
 1272 04db 0C       		.byte	12
 1273 04dc 9E       		.byte	-98
 1274 04dd 82       		.byte	-126
 1275 04de 9F       		.byte	-97
 1276 04df 01       		.byte	1
 1277 04e0 A4       		.byte	-92
 1278 04e1 44       		.byte	68
 1279 04e2 A5       		.byte	-91
 1280 04e3 11       		.byte	17
 1281 04e4 A6       		.byte	-90
 1282 04e5 08       		.byte	8
 1283 04e6 AE       		.byte	-82
 1284 04e7 01       		.byte	1
 1285 04e8 B0       		.byte	-80
 1286 04e9 21       		.byte	33
 1287 04ea B1       		.byte	-79
 1288 04eb 20       		.byte	32
 1289 04ec C0       		.byte	-64
 1290 04ed F0       		.byte	-16
 1291 04ee C2       		.byte	-62
 1292 04ef F0       		.byte	-16
 1293 04f0 C4       		.byte	-60
 1294 04f1 F0       		.byte	-16
 1295 04f2 CA       		.byte	-54
 1296 04f3 FF       		.byte	-1
 1297 04f4 CC       		.byte	-52
 1298 04f5 D6       		.byte	-42
 1299 04f6 CE       		.byte	-50
 1300 04f7 FF       		.byte	-1
 1301 04f8 D0       		.byte	-48
 1302 04f9 E0       		.byte	-32
 1303 04fa D2       		.byte	-46
 1304 04fb 30       		.byte	48
 1305 04fc D8       		.byte	-40
 1306 04fd 7E       		.byte	126
 1307 04fe EE       		.byte	-18
 1308 04ff 80       		.byte	-128
 1309 0500 00       		.byte	0
 1310 0501 14       		.byte	20
 1311 0502 01       		.byte	1
ARM GAS  C:\Users\cronos\AppData\Local\Temp\ccFFdJaf.s 			page 24


 1312 0503 10       		.byte	16
 1313 0504 02       		.byte	2
 1314 0505 C9       		.byte	-55
 1315 0506 04       		.byte	4
 1316 0507 0A       		.byte	10
 1317 0508 05       		.byte	5
 1318 0509 10       		.byte	16
 1319 050a 06       		.byte	6
 1320 050b 51       		.byte	81
 1321 050c 0F       		.byte	15
 1322 050d 10       		.byte	16
 1323 050e 10       		.byte	16
 1324 050f 01       		.byte	1
 1325 0510 11       		.byte	17
 1326 0511 21       		.byte	33
 1327 0512 12       		.byte	18
 1328 0513 26       		.byte	38
 1329 0514 13       		.byte	19
 1330 0515 5A       		.byte	90
 1331 0516 15       		.byte	21
 1332 0517 02       		.byte	2
 1333 0518 17       		.byte	23
 1334 0519 1D       		.byte	29
 1335 051a 19       		.byte	25
 1336 051b 63       		.byte	99
 1337 051c 1B       		.byte	27
 1338 051d 14       		.byte	20
 1339 051e 24       		.byte	36
 1340 051f 1F       		.byte	31
 1341 0520 25       		.byte	37
 1342 0521 23       		.byte	35
 1343 0522 27       		.byte	39
 1344 0523 4C       		.byte	76
 1345 0524 28       		.byte	40
 1346 0525 1F       		.byte	31
 1347 0526 29       		.byte	41
 1348 0527 10       		.byte	16
 1349 0528 2D       		.byte	45
 1350 0529 10       		.byte	16
 1351 052a 30       		.byte	48
 1352 052b 07       		.byte	7
 1353 052c 32       		.byte	50
 1354 052d 60       		.byte	96
 1355 052e 33       		.byte	51
 1356 052f 1F       		.byte	31
 1357 0530 34       		.byte	52
 1358 0531 18       		.byte	24
 1359 0532 35       		.byte	53
 1360 0533 40       		.byte	64
 1361 0534 36       		.byte	54
 1362 0535 80       		.byte	-128
 1363 0536 37       		.byte	55
 1364 0537 20       		.byte	32
 1365 0538 3B       		.byte	59
 1366 0539 08       		.byte	8
 1367 053a 3E       		.byte	62
 1368 053b 04       		.byte	4
ARM GAS  C:\Users\cronos\AppData\Local\Temp\ccFFdJaf.s 			page 25


 1369 053c 3F       		.byte	63
 1370 053d 50       		.byte	80
 1371 053e 40       		.byte	64
 1372 053f 26       		.byte	38
 1373 0540 41       		.byte	65
 1374 0541 05       		.byte	5
 1375 0542 42       		.byte	66
 1376 0543 04       		.byte	4
 1377 0544 44       		.byte	68
 1378 0545 03       		.byte	3
 1379 0546 46       		.byte	70
 1380 0547 0E       		.byte	14
 1381 0548 47       		.byte	71
 1382 0549 C0       		.byte	-64
 1383 054a 48       		.byte	72
 1384 054b 24       		.byte	36
 1385 054c 49       		.byte	73
 1386 054d FF       		.byte	-1
 1387 054e 4A       		.byte	74
 1388 054f FF       		.byte	-1
 1389 0550 4B       		.byte	75
 1390 0551 FF       		.byte	-1
 1391 0552 4C       		.byte	76
 1392 0553 62       		.byte	98
 1393 0554 4D       		.byte	77
 1394 0555 A0       		.byte	-96
 1395 0556 4E       		.byte	78
 1396 0557 F0       		.byte	-16
 1397 0558 4F       		.byte	79
 1398 0559 41       		.byte	65
 1399 055a 50       		.byte	80
 1400 055b 0C       		.byte	12
 1401 055c 54       		.byte	84
 1402 055d 09       		.byte	9
 1403 055e 58       		.byte	88
 1404 055f 04       		.byte	4
 1405 0560 59       		.byte	89
 1406 0561 04       		.byte	4
 1407 0562 5A       		.byte	90
 1408 0563 04       		.byte	4
 1409 0564 5B       		.byte	91
 1410 0565 04       		.byte	4
 1411 0566 5C       		.byte	92
 1412 0567 56       		.byte	86
 1413 0568 5D       		.byte	93
 1414 0569 56       		.byte	86
 1415 056a 5F       		.byte	95
 1416 056b 01       		.byte	1
 1417 056c 66       		.byte	102
 1418 056d 40       		.byte	64
 1419 056e 67       		.byte	103
 1420 056f 02       		.byte	2
 1421 0570 69       		.byte	105
 1422 0571 10       		.byte	16
 1423 0572 6A       		.byte	106
 1424 0573 30       		.byte	48
 1425 0574 6B       		.byte	107
ARM GAS  C:\Users\cronos\AppData\Local\Temp\ccFFdJaf.s 			page 26


 1426 0575 10       		.byte	16
 1427 0576 6D       		.byte	109
 1428 0577 10       		.byte	16
 1429 0578 6E       		.byte	110
 1430 0579 10       		.byte	16
 1431 057a 6F       		.byte	111
 1432 057b 12       		.byte	18
 1433 057c 81       		.byte	-127
 1434 057d 40       		.byte	64
 1435 057e 82       		.byte	-126
 1436 057f 20       		.byte	32
 1437 0580 84       		.byte	-124
 1438 0581 79       		.byte	121
 1439 0582 85       		.byte	-123
 1440 0583 20       		.byte	32
 1441 0584 86       		.byte	-122
 1442 0585 06       		.byte	6
 1443 0586 8A       		.byte	-118
 1444 0587 59       		.byte	89
 1445 0588 8B       		.byte	-117
 1446 0589 1B       		.byte	27
 1447 058a 8C       		.byte	-116
 1448 058b 7F       		.byte	127
 1449 058c 90       		.byte	-112
 1450 058d 26       		.byte	38
 1451 058e 91       		.byte	-111
 1452 058f 09       		.byte	9
 1453 0590 92       		.byte	-110
 1454 0591 49       		.byte	73
 1455 0592 94       		.byte	-108
 1456 0593 20       		.byte	32
 1457 0594 95       		.byte	-107
 1458 0595 60       		.byte	96
 1459 0596 98       		.byte	-104
 1460 0597 27       		.byte	39
 1461 0598 99       		.byte	-103
 1462 0599 9F       		.byte	-97
 1463 059a 9A       		.byte	-102
 1464 059b 50       		.byte	80
 1465 059c 9B       		.byte	-101
 1466 059d 60       		.byte	96
 1467 059e 9D       		.byte	-99
 1468 059f FF       		.byte	-1
 1469 05a0 A0       		.byte	-96
 1470 05a1 04       		.byte	4
 1471 05a2 A1       		.byte	-95
 1472 05a3 1B       		.byte	27
 1473 05a4 A4       		.byte	-92
 1474 05a5 02       		.byte	2
 1475 05a6 A5       		.byte	-91
 1476 05a7 E0       		.byte	-32
 1477 05a8 A7       		.byte	-89
 1478 05a9 1F       		.byte	31
 1479 05aa A8       		.byte	-88
 1480 05ab 06       		.byte	6
 1481 05ac A9       		.byte	-87
 1482 05ad 12       		.byte	18
ARM GAS  C:\Users\cronos\AppData\Local\Temp\ccFFdJaf.s 			page 27


 1483 05ae AD       		.byte	-83
 1484 05af F8       		.byte	-8
 1485 05b0 AF       		.byte	-81
 1486 05b1 07       		.byte	7
 1487 05b2 B1       		.byte	-79
 1488 05b3 03       		.byte	3
 1489 05b4 B2       		.byte	-78
 1490 05b5 07       		.byte	7
 1491 05b6 B3       		.byte	-77
 1492 05b7 80       		.byte	-128
 1493 05b8 B4       		.byte	-76
 1494 05b9 3E       		.byte	62
 1495 05ba B5       		.byte	-75
 1496 05bb 78       		.byte	120
 1497 05bc B6       		.byte	-74
 1498 05bd 46       		.byte	70
 1499 05be B7       		.byte	-73
 1500 05bf 04       		.byte	4
 1501 05c0 B9       		.byte	-71
 1502 05c1 80       		.byte	-128
 1503 05c2 BA       		.byte	-70
 1504 05c3 A2       		.byte	-94
 1505 05c4 BB       		.byte	-69
 1506 05c5 20       		.byte	32
 1507 05c6 BF       		.byte	-65
 1508 05c7 04       		.byte	4
 1509 05c8 D6       		.byte	-42
 1510 05c9 02       		.byte	2
 1511 05ca D7       		.byte	-41
 1512 05cb 11       		.byte	17
 1513 05cc D8       		.byte	-40
 1514 05cd 04       		.byte	4
 1515 05ce D9       		.byte	-39
 1516 05cf 04       		.byte	4
 1517 05d0 DB       		.byte	-37
 1518 05d1 04       		.byte	4
 1519 05d2 DC       		.byte	-36
 1520 05d3 22       		.byte	34
 1521 05d4 DD       		.byte	-35
 1522 05d5 20       		.byte	32
 1523 05d6 DF       		.byte	-33
 1524 05d7 01       		.byte	1
 1525 05d8 00       		.byte	0
 1526 05d9 58       		.byte	88
 1527 05da 03       		.byte	3
 1528 05db 80       		.byte	-128
 1529 05dc 04       		.byte	4
 1530 05dd 04       		.byte	4
 1531 05de 06       		.byte	6
 1532 05df 40       		.byte	64
 1533 05e0 08       		.byte	8
 1534 05e1 15       		.byte	21
 1535 05e2 0E       		.byte	14
 1536 05e3 80       		.byte	-128
 1537 05e4 10       		.byte	16
 1538 05e5 A8       		.byte	-88
 1539 05e6 17       		.byte	23
ARM GAS  C:\Users\cronos\AppData\Local\Temp\ccFFdJaf.s 			page 28


 1540 05e7 14       		.byte	20
 1541 05e8 18       		.byte	24
 1542 05e9 40       		.byte	64
 1543 05ea 19       		.byte	25
 1544 05eb 44       		.byte	68
 1545 05ec 1A       		.byte	26
 1546 05ed 90       		.byte	-112
 1547 05ee 1B       		.byte	27
 1548 05ef 10       		.byte	16
 1549 05f0 1C       		.byte	28
 1550 05f1 84       		.byte	-124
 1551 05f2 1D       		.byte	29
 1552 05f3 08       		.byte	8
 1553 05f4 1E       		.byte	30
 1554 05f5 81       		.byte	-127
 1555 05f6 1F       		.byte	31
 1556 05f7 20       		.byte	32
 1557 05f8 20       		.byte	32
 1558 05f9 08       		.byte	8
 1559 05fa 22       		.byte	34
 1560 05fb 11       		.byte	17
 1561 05fc 23       		.byte	35
 1562 05fd 21       		.byte	33
 1563 05fe 26       		.byte	38
 1564 05ff A4       		.byte	-92
 1565 0600 28       		.byte	40
 1566 0601 15       		.byte	21
 1567 0602 29       		.byte	41
 1568 0603 42       		.byte	66
 1569 0604 2B       		.byte	43
 1570 0605 10       		.byte	16
 1571 0606 2D       		.byte	45
 1572 0607 80       		.byte	-128
 1573 0608 2F       		.byte	47
 1574 0609 18       		.byte	24
 1575 060a 30       		.byte	48
 1576 060b 08       		.byte	8
 1577 060c 31       		.byte	49
 1578 060d 01       		.byte	1
 1579 060e 32       		.byte	50
 1580 060f 50       		.byte	80
 1581 0610 36       		.byte	54
 1582 0611 14       		.byte	20
 1583 0612 37       		.byte	55
 1584 0613 02       		.byte	2
 1585 0614 38       		.byte	56
 1586 0615 10       		.byte	16
 1587 0616 3A       		.byte	58
 1588 0617 0A       		.byte	10
 1589 0618 3D       		.byte	61
 1590 0619 81       		.byte	-127
 1591 061a 3E       		.byte	62
 1592 061b 04       		.byte	4
 1593 061c 45       		.byte	69
 1594 061d 29       		.byte	41
 1595 061e 49       		.byte	73
 1596 061f 20       		.byte	32
ARM GAS  C:\Users\cronos\AppData\Local\Temp\ccFFdJaf.s 			page 29


 1597 0620 4A       		.byte	74
 1598 0621 04       		.byte	4
 1599 0622 4D       		.byte	77
 1600 0623 40       		.byte	64
 1601 0624 4E       		.byte	78
 1602 0625 08       		.byte	8
 1603 0626 56       		.byte	86
 1604 0627 81       		.byte	-127
 1605 0628 5B       		.byte	91
 1606 0629 20       		.byte	32
 1607 062a 5C       		.byte	92
 1608 062b 02       		.byte	2
 1609 062c 5F       		.byte	95
 1610 062d 54       		.byte	84
 1611 062e 67       		.byte	103
 1612 062f 02       		.byte	2
 1613 0630 68       		.byte	104
 1614 0631 02       		.byte	2
 1615 0632 6A       		.byte	106
 1616 0633 08       		.byte	8
 1617 0634 6B       		.byte	107
 1618 0635 08       		.byte	8
 1619 0636 70       		.byte	112
 1620 0637 A8       		.byte	-88
 1621 0638 72       		.byte	114
 1622 0639 0A       		.byte	10
 1623 063a 91       		.byte	-111
 1624 063b 40       		.byte	64
 1625 063c 94       		.byte	-108
 1626 063d 0A       		.byte	10
 1627 063e 95       		.byte	-107
 1628 063f 99       		.byte	-103
 1629 0640 96       		.byte	-106
 1630 0641 17       		.byte	23
 1631 0642 97       		.byte	-105
 1632 0643 09       		.byte	9
 1633 0644 98       		.byte	-104
 1634 0645 82       		.byte	-126
 1635 0646 9B       		.byte	-101
 1636 0647 14       		.byte	20
 1637 0648 9D       		.byte	-99
 1638 0649 80       		.byte	-128
 1639 064a 9E       		.byte	-98
 1640 064b D5       		.byte	-43
 1641 064c A1       		.byte	-95
 1642 064d 23       		.byte	35
 1643 064e A2       		.byte	-94
 1644 064f 08       		.byte	8
 1645 0650 A4       		.byte	-92
 1646 0651 50       		.byte	80
 1647 0652 A7       		.byte	-89
 1648 0653 20       		.byte	32
 1649 0654 C0       		.byte	-64
 1650 0655 3F       		.byte	63
 1651 0656 C2       		.byte	-62
 1652 0657 1E       		.byte	30
 1653 0658 C4       		.byte	-60
ARM GAS  C:\Users\cronos\AppData\Local\Temp\ccFFdJaf.s 			page 30


 1654 0659 6E       		.byte	110
 1655 065a CA       		.byte	-54
 1656 065b 7F       		.byte	127
 1657 065c CC       		.byte	-52
 1658 065d EF       		.byte	-17
 1659 065e CE       		.byte	-50
 1660 065f D7       		.byte	-41
 1661 0660 D0       		.byte	-48
 1662 0661 E0       		.byte	-32
 1663 0662 D2       		.byte	-46
 1664 0663 30       		.byte	48
 1665 0664 D6       		.byte	-42
 1666 0665 F4       		.byte	-12
 1667 0666 D8       		.byte	-40
 1668 0667 10       		.byte	16
 1669 0668 04       		.byte	4
 1670 0669 01       		.byte	1
 1671 066a 05       		.byte	5
 1672 066b 01       		.byte	1
 1673 066c 09       		.byte	9
 1674 066d 01       		.byte	1
 1675 066e 0A       		.byte	10
 1676 066f 02       		.byte	2
 1677 0670 0C       		.byte	12
 1678 0671 01       		.byte	1
 1679 0672 0D       		.byte	13
 1680 0673 01       		.byte	1
 1681 0674 13       		.byte	19
 1682 0675 02       		.byte	2
 1683 0676 16       		.byte	22
 1684 0677 02       		.byte	2
 1685 0678 1A       		.byte	26
 1686 0679 04       		.byte	4
 1687 067a 22       		.byte	34
 1688 067b 04       		.byte	4
 1689 067c 28       		.byte	40
 1690 067d 01       		.byte	1
 1691 067e 2F       		.byte	47
 1692 067f 02       		.byte	2
 1693 0680 30       		.byte	48
 1694 0681 02       		.byte	2
 1695 0682 31       		.byte	49
 1696 0683 01       		.byte	1
 1697 0684 32       		.byte	50
 1698 0685 01       		.byte	1
 1699 0686 34       		.byte	52
 1700 0687 04       		.byte	4
 1701 0688 35       		.byte	53
 1702 0689 02       		.byte	2
 1703 068a 3E       		.byte	62
 1704 068b 11       		.byte	17
 1705 068c 3F       		.byte	63
 1706 068d 10       		.byte	16
 1707 068e 54       		.byte	84
 1708 068f 18       		.byte	24
 1709 0690 56       		.byte	86
 1710 0691 04       		.byte	4
ARM GAS  C:\Users\cronos\AppData\Local\Temp\ccFFdJaf.s 			page 31


 1711 0692 58       		.byte	88
 1712 0693 04       		.byte	4
 1713 0694 59       		.byte	89
 1714 0695 04       		.byte	4
 1715 0696 5B       		.byte	91
 1716 0697 04       		.byte	4
 1717 0698 5C       		.byte	92
 1718 0699 36       		.byte	54
 1719 069a 5D       		.byte	93
 1720 069b 20       		.byte	32
 1721 069c 5F       		.byte	95
 1722 069d 01       		.byte	1
 1723 069e 80       		.byte	-128
 1724 069f 42       		.byte	66
 1725 06a0 81       		.byte	-127
 1726 06a1 20       		.byte	32
 1727 06a2 84       		.byte	-124
 1728 06a3 01       		.byte	1
 1729 06a4 85       		.byte	-123
 1730 06a5 10       		.byte	16
 1731 06a6 89       		.byte	-119
 1732 06a7 4F       		.byte	79
 1733 06a8 8A       		.byte	-118
 1734 06a9 B3       		.byte	-77
 1735 06aa 8B       		.byte	-117
 1736 06ab 30       		.byte	48
 1737 06ac 8C       		.byte	-116
 1738 06ad FF       		.byte	-1
 1739 06ae 8D       		.byte	-115
 1740 06af 03       		.byte	3
 1741 06b0 90       		.byte	-112
 1742 06b1 03       		.byte	3
 1743 06b2 91       		.byte	-111
 1744 06b3 70       		.byte	112
 1745 06b4 93       		.byte	-109
 1746 06b5 0F       		.byte	15
 1747 06b6 94       		.byte	-108
 1748 06b7 4C       		.byte	76
 1749 06b8 96       		.byte	-106
 1750 06b9 A3       		.byte	-93
 1751 06ba 97       		.byte	-105
 1752 06bb 0B       		.byte	11
 1753 06bc 98       		.byte	-104
 1754 06bd F3       		.byte	-13
 1755 06be 99       		.byte	-103
 1756 06bf 78       		.byte	120
 1757 06c0 9A       		.byte	-102
 1758 06c1 0C       		.byte	12
 1759 06c2 9B       		.byte	-101
 1760 06c3 07       		.byte	7
 1761 06c4 9D       		.byte	-99
 1762 06c5 02       		.byte	2
 1763 06c6 9E       		.byte	-98
 1764 06c7 40       		.byte	64
 1765 06c8 A0       		.byte	-96
 1766 06c9 4F       		.byte	79
 1767 06ca A2       		.byte	-94
ARM GAS  C:\Users\cronos\AppData\Local\Temp\ccFFdJaf.s 			page 32


 1768 06cb 90       		.byte	-112
 1769 06cc A4       		.byte	-92
 1770 06cd 04       		.byte	4
 1771 06ce A5       		.byte	-91
 1772 06cf 01       		.byte	1
 1773 06d0 A8       		.byte	-88
 1774 06d1 0C       		.byte	12
 1775 06d2 A9       		.byte	-87
 1776 06d3 30       		.byte	48
 1777 06d4 AC       		.byte	-84
 1778 06d5 08       		.byte	8
 1779 06d6 AD       		.byte	-83
 1780 06d7 7F       		.byte	127
 1781 06d8 B1       		.byte	-79
 1782 06d9 38       		.byte	56
 1783 06da B2       		.byte	-78
 1784 06db 7C       		.byte	124
 1785 06dc B3       		.byte	-77
 1786 06dd 40       		.byte	64
 1787 06de B4       		.byte	-76
 1788 06df 0F       		.byte	15
 1789 06e0 B5       		.byte	-75
 1790 06e1 03       		.byte	3
 1791 06e2 B6       		.byte	-74
 1792 06e3 8C       		.byte	-116
 1793 06e4 B7       		.byte	-73
 1794 06e5 04       		.byte	4
 1795 06e6 B9       		.byte	-71
 1796 06e7 80       		.byte	-128
 1797 06e8 BA       		.byte	-70
 1798 06e9 AA       		.byte	-86
 1799 06ea BF       		.byte	-65
 1800 06eb 04       		.byte	4
 1801 06ec C0       		.byte	-64
 1802 06ed 03       		.byte	3
 1803 06ee C5       		.byte	-59
 1804 06ef 40       		.byte	64
 1805 06f0 C9       		.byte	-55
 1806 06f1 FF       		.byte	-1
 1807 06f2 CA       		.byte	-54
 1808 06f3 07       		.byte	7
 1809 06f4 CB       		.byte	-53
 1810 06f5 FF       		.byte	-1
 1811 06f6 CC       		.byte	-52
 1812 06f7 40       		.byte	64
 1813 06f8 CD       		.byte	-51
 1814 06f9 20       		.byte	32
 1815 06fa CE       		.byte	-50
 1816 06fb F0       		.byte	-16
 1817 06fc CF       		.byte	-49
 1818 06fd 05       		.byte	5
 1819 06fe D0       		.byte	-48
 1820 06ff 08       		.byte	8
 1821 0700 D6       		.byte	-42
 1822 0701 02       		.byte	2
 1823 0702 D7       		.byte	-41
 1824 0703 12       		.byte	18
ARM GAS  C:\Users\cronos\AppData\Local\Temp\ccFFdJaf.s 			page 33


 1825 0704 D8       		.byte	-40
 1826 0705 04       		.byte	4
 1827 0706 D9       		.byte	-39
 1828 0707 04       		.byte	4
 1829 0708 DA       		.byte	-38
 1830 0709 04       		.byte	4
 1831 070a DB       		.byte	-37
 1832 070b 04       		.byte	4
 1833 070c DC       		.byte	-36
 1834 070d 66       		.byte	102
 1835 070e DD       		.byte	-35
 1836 070f 63       		.byte	99
 1837 0710 DF       		.byte	-33
 1838 0711 01       		.byte	1
 1839 0712 E0       		.byte	-32
 1840 0713 40       		.byte	64
 1841 0714 E1       		.byte	-31
 1842 0715 A8       		.byte	-88
 1843 0716 E2       		.byte	-30
 1844 0717 40       		.byte	64
 1845 0718 E3       		.byte	-29
 1846 0719 20       		.byte	32
 1847 071a 00       		.byte	0
 1848 071b 20       		.byte	32
 1849 071c 03       		.byte	3
 1850 071d 12       		.byte	18
 1851 071e 04       		.byte	4
 1852 071f 50       		.byte	80
 1853 0720 05       		.byte	5
 1854 0721 08       		.byte	8
 1855 0722 06       		.byte	6
 1856 0723 40       		.byte	64
 1857 0724 07       		.byte	7
 1858 0725 40       		.byte	64
 1859 0726 08       		.byte	8
 1860 0727 02       		.byte	2
 1861 0728 0A       		.byte	10
 1862 0729 10       		.byte	16
 1863 072a 0B       		.byte	11
 1864 072b 88       		.byte	-120
 1865 072c 0D       		.byte	13
 1866 072d 20       		.byte	32
 1867 072e 0E       		.byte	14
 1868 072f 61       		.byte	97
 1869 0730 11       		.byte	17
 1870 0731 20       		.byte	32
 1871 0732 13       		.byte	19
 1872 0733 01       		.byte	1
 1873 0734 16       		.byte	22
 1874 0735 02       		.byte	2
 1875 0736 17       		.byte	23
 1876 0737 2A       		.byte	42
 1877 0738 18       		.byte	24
 1878 0739 10       		.byte	16
 1879 073a 19       		.byte	25
 1880 073b 14       		.byte	20
 1881 073c 1B       		.byte	27
ARM GAS  C:\Users\cronos\AppData\Local\Temp\ccFFdJaf.s 			page 34


 1882 073d 01       		.byte	1
 1883 073e 1C       		.byte	28
 1884 073f 40       		.byte	64
 1885 0740 1D       		.byte	29
 1886 0741 20       		.byte	32
 1887 0742 1E       		.byte	30
 1888 0743 22       		.byte	34
 1889 0744 1F       		.byte	31
 1890 0745 11       		.byte	17
 1891 0746 21       		.byte	33
 1892 0747 02       		.byte	2
 1893 0748 23       		.byte	35
 1894 0749 04       		.byte	4
 1895 074a 24       		.byte	36
 1896 074b 84       		.byte	-124
 1897 074c 25       		.byte	37
 1898 074d 01       		.byte	1
 1899 074e 26       		.byte	38
 1900 074f 04       		.byte	4
 1901 0750 27       		.byte	39
 1902 0751 01       		.byte	1
 1903 0752 2A       		.byte	42
 1904 0753 80       		.byte	-128
 1905 0754 2D       		.byte	45
 1906 0755 48       		.byte	72
 1907 0756 2E       		.byte	46
 1908 0757 20       		.byte	32
 1909 0758 2F       		.byte	47
 1910 0759 21       		.byte	33
 1911 075a 31       		.byte	49
 1912 075b 04       		.byte	4
 1913 075c 32       		.byte	50
 1914 075d 08       		.byte	8
 1915 075e 33       		.byte	51
 1916 075f 01       		.byte	1
 1917 0760 35       		.byte	53
 1918 0761 04       		.byte	4
 1919 0762 36       		.byte	54
 1920 0763 11       		.byte	17
 1921 0764 37       		.byte	55
 1922 0765 42       		.byte	66
 1923 0766 39       		.byte	57
 1924 0767 98       		.byte	-104
 1925 0768 3C       		.byte	60
 1926 0769 80       		.byte	-128
 1927 076a 3E       		.byte	62
 1928 076b 4A       		.byte	74
 1929 076c 3F       		.byte	63
 1930 076d 10       		.byte	16
 1931 076e 45       		.byte	69
 1932 076f 08       		.byte	8
 1933 0770 4B       		.byte	75
 1934 0771 30       		.byte	48
 1935 0772 4E       		.byte	78
 1936 0773 80       		.byte	-128
 1937 0774 54       		.byte	84
 1938 0775 08       		.byte	8
ARM GAS  C:\Users\cronos\AppData\Local\Temp\ccFFdJaf.s 			page 35


 1939 0776 5A       		.byte	90
 1940 0777 02       		.byte	2
 1941 0778 5E       		.byte	94
 1942 0779 08       		.byte	8
 1943 077a 61       		.byte	97
 1944 077b 10       		.byte	16
 1945 077c 63       		.byte	99
 1946 077d 82       		.byte	-126
 1947 077e 6D       		.byte	109
 1948 077f 20       		.byte	32
 1949 0780 6F       		.byte	111
 1950 0781 16       		.byte	22
 1951 0782 76       		.byte	118
 1952 0783 2A       		.byte	42
 1953 0784 77       		.byte	119
 1954 0785 28       		.byte	40
 1955 0786 83       		.byte	-125
 1956 0787 40       		.byte	64
 1957 0788 84       		.byte	-124
 1958 0789 08       		.byte	8
 1959 078a 86       		.byte	-122
 1960 078b 40       		.byte	64
 1961 078c 8C       		.byte	-116
 1962 078d 04       		.byte	4
 1963 078e 8D       		.byte	-115
 1964 078f 01       		.byte	1
 1965 0790 8E       		.byte	-114
 1966 0791 80       		.byte	-128
 1967 0792 8F       		.byte	-113
 1968 0793 08       		.byte	8
 1969 0794 93       		.byte	-109
 1970 0795 80       		.byte	-128
 1971 0796 94       		.byte	-108
 1972 0797 8A       		.byte	-118
 1973 0798 95       		.byte	-107
 1974 0799 01       		.byte	1
 1975 079a 96       		.byte	-106
 1976 079b 04       		.byte	4
 1977 079c 97       		.byte	-105
 1978 079d 04       		.byte	4
 1979 079e 98       		.byte	-104
 1980 079f 80       		.byte	-128
 1981 07a0 9D       		.byte	-99
 1982 07a1 81       		.byte	-127
 1983 07a2 9E       		.byte	-98
 1984 07a3 15       		.byte	21
 1985 07a4 A1       		.byte	-95
 1986 07a5 08       		.byte	8
 1987 07a6 A2       		.byte	-94
 1988 07a7 40       		.byte	64
 1989 07a8 A4       		.byte	-92
 1990 07a9 08       		.byte	8
 1991 07aa A6       		.byte	-90
 1992 07ab 80       		.byte	-128
 1993 07ac A7       		.byte	-89
 1994 07ad 08       		.byte	8
 1995 07ae AA       		.byte	-86
ARM GAS  C:\Users\cronos\AppData\Local\Temp\ccFFdJaf.s 			page 36


 1996 07af 04       		.byte	4
 1997 07b0 AB       		.byte	-85
 1998 07b1 01       		.byte	1
 1999 07b2 B7       		.byte	-73
 2000 07b3 04       		.byte	4
 2001 07b4 C0       		.byte	-64
 2002 07b5 F7       		.byte	-9
 2003 07b6 C2       		.byte	-62
 2004 07b7 F6       		.byte	-10
 2005 07b8 C4       		.byte	-60
 2006 07b9 FA       		.byte	-6
 2007 07ba CA       		.byte	-54
 2008 07bb 78       		.byte	120
 2009 07bc CC       		.byte	-52
 2010 07bd F1       		.byte	-15
 2011 07be CE       		.byte	-50
 2012 07bf FE       		.byte	-2
 2013 07c0 D0       		.byte	-48
 2014 07c1 40       		.byte	64
 2015 07c2 D6       		.byte	-42
 2016 07c3 41       		.byte	65
 2017 07c4 D8       		.byte	-40
 2018 07c5 0D       		.byte	13
 2019 07c6 E0       		.byte	-32
 2020 07c7 10       		.byte	16
 2021 07c8 E2       		.byte	-30
 2022 07c9 40       		.byte	64
 2023 07ca EE       		.byte	-18
 2024 07cb 10       		.byte	16
 2025 07cc 02       		.byte	2
 2026 07cd 30       		.byte	48
 2027 07ce 04       		.byte	4
 2028 07cf 30       		.byte	48
 2029 07d0 0A       		.byte	10
 2030 07d1 10       		.byte	16
 2031 07d2 0B       		.byte	11
 2032 07d3 53       		.byte	83
 2033 07d4 0C       		.byte	12
 2034 07d5 30       		.byte	48
 2035 07d6 0D       		.byte	13
 2036 07d7 31       		.byte	49
 2037 07d8 0F       		.byte	15
 2038 07d9 4E       		.byte	78
 2039 07da 10       		.byte	16
 2040 07db 07       		.byte	7
 2041 07dc 14       		.byte	20
 2042 07dd 08       		.byte	8
 2043 07de 15       		.byte	21
 2044 07df 31       		.byte	49
 2045 07e0 16       		.byte	22
 2046 07e1 01       		.byte	1
 2047 07e2 17       		.byte	23
 2048 07e3 C6       		.byte	-58
 2049 07e4 18       		.byte	24
 2050 07e5 30       		.byte	48
 2051 07e6 19       		.byte	25
 2052 07e7 AC       		.byte	-84
ARM GAS  C:\Users\cronos\AppData\Local\Temp\ccFFdJaf.s 			page 37


 2053 07e8 1B       		.byte	27
 2054 07e9 43       		.byte	67
 2055 07ea 1F       		.byte	31
 2056 07eb 08       		.byte	8
 2057 07ec 20       		.byte	32
 2058 07ed 30       		.byte	48
 2059 07ee 24       		.byte	36
 2060 07ef 07       		.byte	7
 2061 07f0 28       		.byte	40
 2062 07f1 02       		.byte	2
 2063 07f2 29       		.byte	41
 2064 07f3 30       		.byte	48
 2065 07f4 2A       		.byte	42
 2066 07f5 04       		.byte	4
 2067 07f6 2B       		.byte	43
 2068 07f7 40       		.byte	64
 2069 07f8 2F       		.byte	47
 2070 07f9 8C       		.byte	-116
 2071 07fa 30       		.byte	48
 2072 07fb 0C       		.byte	12
 2073 07fc 32       		.byte	50
 2074 07fd 03       		.byte	3
 2075 07fe 33       		.byte	51
 2076 07ff 0F       		.byte	15
 2077 0800 34       		.byte	52
 2078 0801 10       		.byte	16
 2079 0802 35       		.byte	53
 2080 0803 F0       		.byte	-16
 2081 0804 36       		.byte	54
 2082 0805 20       		.byte	32
 2083 0806 37       		.byte	55
 2084 0807 8A       		.byte	-118
 2085 0808 38       		.byte	56
 2086 0809 0A       		.byte	10
 2087 080a 3B       		.byte	59
 2088 080b A8       		.byte	-88
 2089 080c 3E       		.byte	62
 2090 080d 54       		.byte	84
 2091 080e 40       		.byte	64
 2092 080f 06       		.byte	6
 2093 0810 47       		.byte	71
 2094 0811 40       		.byte	64
 2095 0812 49       		.byte	73
 2096 0813 FF       		.byte	-1
 2097 0814 4A       		.byte	74
 2098 0815 07       		.byte	7
 2099 0816 4B       		.byte	75
 2100 0817 FF       		.byte	-1
 2101 0818 4C       		.byte	76
 2102 0819 40       		.byte	64
 2103 081a 4D       		.byte	77
 2104 081b 20       		.byte	32
 2105 081c 4E       		.byte	78
 2106 081d F0       		.byte	-16
 2107 081e 4F       		.byte	79
 2108 081f 05       		.byte	5
 2109 0820 50       		.byte	80
ARM GAS  C:\Users\cronos\AppData\Local\Temp\ccFFdJaf.s 			page 38


 2110 0821 08       		.byte	8
 2111 0822 54       		.byte	84
 2112 0823 40       		.byte	64
 2113 0824 58       		.byte	88
 2114 0825 04       		.byte	4
 2115 0826 59       		.byte	89
 2116 0827 04       		.byte	4
 2117 0828 5A       		.byte	90
 2118 0829 04       		.byte	4
 2119 082a 5B       		.byte	91
 2120 082b 04       		.byte	4
 2121 082c 5C       		.byte	92
 2122 082d 33       		.byte	51
 2123 082e 5D       		.byte	93
 2124 082f 56       		.byte	86
 2125 0830 5F       		.byte	95
 2126 0831 01       		.byte	1
 2127 0832 60       		.byte	96
 2128 0833 40       		.byte	64
 2129 0834 61       		.byte	97
 2130 0835 A8       		.byte	-88
 2131 0836 62       		.byte	98
 2132 0837 40       		.byte	64
 2133 0838 63       		.byte	99
 2134 0839 20       		.byte	32
 2135 083a 83       		.byte	-125
 2136 083b 80       		.byte	-128
 2137 083c 84       		.byte	-124
 2138 083d 73       		.byte	115
 2139 083e 86       		.byte	-122
 2140 083f 0C       		.byte	12
 2141 0840 8F       		.byte	-113
 2142 0841 80       		.byte	-128
 2143 0842 92       		.byte	-110
 2144 0843 08       		.byte	8
 2145 0844 95       		.byte	-107
 2146 0845 1C       		.byte	28
 2147 0846 96       		.byte	-106
 2148 0847 35       		.byte	53
 2149 0848 97       		.byte	-105
 2150 0849 23       		.byte	35
 2151 084a 99       		.byte	-103
 2152 084b 40       		.byte	64
 2153 084c 9B       		.byte	-101
 2154 084d 03       		.byte	3
 2155 084e 9F       		.byte	-97
 2156 084f 1C       		.byte	28
 2157 0850 A0       		.byte	-96
 2158 0851 03       		.byte	3
 2159 0852 A2       		.byte	-94
 2160 0853 14       		.byte	20
 2161 0854 A3       		.byte	-93
 2162 0855 08       		.byte	8
 2163 0856 A4       		.byte	-92
 2164 0857 73       		.byte	115
 2165 0858 A5       		.byte	-91
 2166 0859 21       		.byte	33
ARM GAS  C:\Users\cronos\AppData\Local\Temp\ccFFdJaf.s 			page 39


 2167 085a A6       		.byte	-90
 2168 085b 04       		.byte	4
 2169 085c A7       		.byte	-89
 2170 085d 16       		.byte	22
 2171 085e A8       		.byte	-88
 2172 085f 4A       		.byte	74
 2173 0860 A9       		.byte	-87
 2174 0861 21       		.byte	33
 2175 0862 AA       		.byte	-86
 2176 0863 14       		.byte	20
 2177 0864 AB       		.byte	-85
 2178 0865 0E       		.byte	14
 2179 0866 B0       		.byte	-80
 2180 0867 10       		.byte	16
 2181 0868 B1       		.byte	-79
 2182 0869 80       		.byte	-128
 2183 086a B2       		.byte	-78
 2184 086b 0F       		.byte	15
 2185 086c B3       		.byte	-77
 2186 086d 0F       		.byte	15
 2187 086e B4       		.byte	-76
 2188 086f 60       		.byte	96
 2189 0870 B5       		.byte	-75
 2190 0871 1A       		.byte	26
 2191 0872 B7       		.byte	-73
 2192 0873 60       		.byte	96
 2193 0874 B8       		.byte	-72
 2194 0875 20       		.byte	32
 2195 0876 B9       		.byte	-71
 2196 0877 80       		.byte	-128
 2197 0878 BA       		.byte	-70
 2198 0879 08       		.byte	8
 2199 087a BB       		.byte	-69
 2200 087b 28       		.byte	40
 2201 087c BE       		.byte	-66
 2202 087d 11       		.byte	17
 2203 087e BF       		.byte	-65
 2204 087f 01       		.byte	1
 2205 0880 C0       		.byte	-64
 2206 0881 32       		.byte	50
 2207 0882 C1       		.byte	-63
 2208 0883 06       		.byte	6
 2209 0884 C5       		.byte	-59
 2210 0885 0E       		.byte	14
 2211 0886 C6       		.byte	-58
 2212 0887 BC       		.byte	-68
 2213 0888 C8       		.byte	-56
 2214 0889 0D       		.byte	13
 2215 088a C9       		.byte	-55
 2216 088b FF       		.byte	-1
 2217 088c CA       		.byte	-54
 2218 088d FF       		.byte	-1
 2219 088e CB       		.byte	-53
 2220 088f FF       		.byte	-1
 2221 0890 CE       		.byte	-50
 2222 0891 F0       		.byte	-16
 2223 0892 CF       		.byte	-49
ARM GAS  C:\Users\cronos\AppData\Local\Temp\ccFFdJaf.s 			page 40


 2224 0893 44       		.byte	68
 2225 0894 D0       		.byte	-48
 2226 0895 0C       		.byte	12
 2227 0896 D4       		.byte	-44
 2228 0897 18       		.byte	24
 2229 0898 D6       		.byte	-42
 2230 0899 04       		.byte	4
 2231 089a D8       		.byte	-40
 2232 089b 04       		.byte	4
 2233 089c D9       		.byte	-39
 2234 089d 04       		.byte	4
 2235 089e DA       		.byte	-38
 2236 089f 04       		.byte	4
 2237 08a0 DB       		.byte	-37
 2238 08a1 04       		.byte	4
 2239 08a2 DC       		.byte	-36
 2240 08a3 66       		.byte	102
 2241 08a4 DD       		.byte	-35
 2242 08a5 66       		.byte	102
 2243 08a6 DF       		.byte	-33
 2244 08a7 01       		.byte	1
 2245 08a8 E6       		.byte	-26
 2246 08a9 C0       		.byte	-64
 2247 08aa EA       		.byte	-22
 2248 08ab 40       		.byte	64
 2249 08ac EB       		.byte	-21
 2250 08ad 02       		.byte	2
 2251 08ae 01       		.byte	1
 2252 08af 08       		.byte	8
 2253 08b0 04       		.byte	4
 2254 08b1 0A       		.byte	10
 2255 08b2 05       		.byte	5
 2256 08b3 80       		.byte	-128
 2257 08b4 06       		.byte	6
 2258 08b5 04       		.byte	4
 2259 08b6 08       		.byte	8
 2260 08b7 08       		.byte	8
 2261 08b8 0A       		.byte	10
 2262 08b9 A0       		.byte	-96
 2263 08ba 0C       		.byte	12
 2264 08bb 08       		.byte	8
 2265 08bc 0E       		.byte	14
 2266 08bd 94       		.byte	-108
 2267 08be 10       		.byte	16
 2268 08bf 80       		.byte	-128
 2269 08c0 12       		.byte	18
 2270 08c1 08       		.byte	8
 2271 08c2 13       		.byte	19
 2272 08c3 08       		.byte	8
 2273 08c4 14       		.byte	20
 2274 08c5 04       		.byte	4
 2275 08c6 15       		.byte	21
 2276 08c7 01       		.byte	1
 2277 08c8 17       		.byte	23
 2278 08c9 14       		.byte	20
 2279 08ca 18       		.byte	24
 2280 08cb 10       		.byte	16
ARM GAS  C:\Users\cronos\AppData\Local\Temp\ccFFdJaf.s 			page 41


 2281 08cc 19       		.byte	25
 2282 08cd 28       		.byte	40
 2283 08ce 1A       		.byte	26
 2284 08cf 40       		.byte	64
 2285 08d0 1C       		.byte	28
 2286 08d1 80       		.byte	-128
 2287 08d2 1D       		.byte	29
 2288 08d3 08       		.byte	8
 2289 08d4 1F       		.byte	31
 2290 08d5 52       		.byte	82
 2291 08d6 20       		.byte	32
 2292 08d7 08       		.byte	8
 2293 08d8 21       		.byte	33
 2294 08d9 02       		.byte	2
 2295 08da 22       		.byte	34
 2296 08db 48       		.byte	72
 2297 08dc 23       		.byte	35
 2298 08dd 08       		.byte	8
 2299 08de 25       		.byte	37
 2300 08df 40       		.byte	64
 2301 08e0 26       		.byte	38
 2302 08e1 40       		.byte	64
 2303 08e2 27       		.byte	39
 2304 08e3 14       		.byte	20
 2305 08e4 29       		.byte	41
 2306 08e5 18       		.byte	24
 2307 08e6 2A       		.byte	42
 2308 08e7 02       		.byte	2
 2309 08e8 2F       		.byte	47
 2310 08e9 0A       		.byte	10
 2311 08ea 32       		.byte	50
 2312 08eb 58       		.byte	88
 2313 08ec 36       		.byte	54
 2314 08ed 80       		.byte	-128
 2315 08ee 37       		.byte	55
 2316 08ef 14       		.byte	20
 2317 08f0 38       		.byte	56
 2318 08f1 80       		.byte	-128
 2319 08f2 3A       		.byte	58
 2320 08f3 01       		.byte	1
 2321 08f4 3D       		.byte	61
 2322 08f5 80       		.byte	-128
 2323 08f6 3E       		.byte	62
 2324 08f7 10       		.byte	16
 2325 08f8 40       		.byte	64
 2326 08f9 38       		.byte	56
 2327 08fa 45       		.byte	69
 2328 08fb 02       		.byte	2
 2329 08fc 46       		.byte	70
 2330 08fd 40       		.byte	64
 2331 08fe 48       		.byte	72
 2332 08ff 04       		.byte	4
 2333 0900 49       		.byte	73
 2334 0901 10       		.byte	16
 2335 0902 4A       		.byte	74
 2336 0903 20       		.byte	32
 2337 0904 4D       		.byte	77
ARM GAS  C:\Users\cronos\AppData\Local\Temp\ccFFdJaf.s 			page 42


 2338 0905 20       		.byte	32
 2339 0906 4E       		.byte	78
 2340 0907 10       		.byte	16
 2341 0908 50       		.byte	80
 2342 0909 A0       		.byte	-96
 2343 090a 55       		.byte	85
 2344 090b 01       		.byte	1
 2345 090c 56       		.byte	86
 2346 090d 02       		.byte	2
 2347 090e 59       		.byte	89
 2348 090f 01       		.byte	1
 2349 0910 62       		.byte	98
 2350 0911 42       		.byte	66
 2351 0912 63       		.byte	99
 2352 0913 44       		.byte	68
 2353 0914 66       		.byte	102
 2354 0915 10       		.byte	16
 2355 0916 67       		.byte	103
 2356 0917 21       		.byte	33
 2357 0918 82       		.byte	-126
 2358 0919 02       		.byte	2
 2359 091a 84       		.byte	-124
 2360 091b 04       		.byte	4
 2361 091c 87       		.byte	-121
 2362 091d 40       		.byte	64
 2363 091e 88       		.byte	-120
 2364 091f 40       		.byte	64
 2365 0920 96       		.byte	-106
 2366 0921 C0       		.byte	-64
 2367 0922 98       		.byte	-104
 2368 0923 80       		.byte	-128
 2369 0924 9C       		.byte	-100
 2370 0925 20       		.byte	32
 2371 0926 A4       		.byte	-92
 2372 0927 A4       		.byte	-92
 2373 0928 A5       		.byte	-91
 2374 0929 01       		.byte	1
 2375 092a A6       		.byte	-90
 2376 092b 28       		.byte	40
 2377 092c A8       		.byte	-88
 2378 092d 82       		.byte	-126
 2379 092e AA       		.byte	-86
 2380 092f 20       		.byte	32
 2381 0930 AB       		.byte	-85
 2382 0931 10       		.byte	16
 2383 0932 AD       		.byte	-83
 2384 0933 10       		.byte	16
 2385 0934 AF       		.byte	-81
 2386 0935 20       		.byte	32
 2387 0936 B0       		.byte	-80
 2388 0937 90       		.byte	-112
 2389 0938 B2       		.byte	-78
 2390 0939 01       		.byte	1
 2391 093a C0       		.byte	-64
 2392 093b F4       		.byte	-12
 2393 093c C2       		.byte	-62
 2394 093d 7C       		.byte	124
ARM GAS  C:\Users\cronos\AppData\Local\Temp\ccFFdJaf.s 			page 43


 2395 093e C4       		.byte	-60
 2396 093f 7E       		.byte	126
 2397 0940 CA       		.byte	-54
 2398 0941 37       		.byte	55
 2399 0942 CC       		.byte	-52
 2400 0943 7E       		.byte	126
 2401 0944 CE       		.byte	-50
 2402 0945 39       		.byte	57
 2403 0946 D0       		.byte	-48
 2404 0947 06       		.byte	6
 2405 0948 D2       		.byte	-46
 2406 0949 24       		.byte	36
 2407 094a D6       		.byte	-42
 2408 094b 01       		.byte	1
 2409 094c D8       		.byte	-40
 2410 094d 7D       		.byte	125
 2411 094e E6       		.byte	-26
 2412 094f 20       		.byte	32
 2413 0950 04       		.byte	4
 2414 0951 0C       		.byte	12
 2415 0952 05       		.byte	5
 2416 0953 14       		.byte	20
 2417 0954 06       		.byte	6
 2418 0955 11       		.byte	17
 2419 0956 0D       		.byte	13
 2420 0957 1C       		.byte	28
 2421 0958 0F       		.byte	15
 2422 0959 02       		.byte	2
 2423 095a 10       		.byte	16
 2424 095b 09       		.byte	9
 2425 095c 12       		.byte	18
 2426 095d 10       		.byte	16
 2427 095e 13       		.byte	19
 2428 095f 03       		.byte	3
 2429 0960 15       		.byte	21
 2430 0961 10       		.byte	16
 2431 0962 17       		.byte	23
 2432 0963 0C       		.byte	12
 2433 0964 18       		.byte	24
 2434 0965 10       		.byte	16
 2435 0966 19       		.byte	25
 2436 0967 40       		.byte	64
 2437 0968 1A       		.byte	26
 2438 0969 0C       		.byte	12
 2439 096a 1D       		.byte	29
 2440 096b 09       		.byte	9
 2441 096c 1E       		.byte	30
 2442 096d 03       		.byte	3
 2443 096e 1F       		.byte	31
 2444 096f 10       		.byte	16
 2445 0970 20       		.byte	32
 2446 0971 10       		.byte	16
 2447 0972 21       		.byte	33
 2448 0973 20       		.byte	32
 2449 0974 24       		.byte	36
 2450 0975 14       		.byte	20
 2451 0976 28       		.byte	40
ARM GAS  C:\Users\cronos\AppData\Local\Temp\ccFFdJaf.s 			page 44


 2452 0977 1C       		.byte	28
 2453 0978 29       		.byte	41
 2454 0979 0C       		.byte	12
 2455 097a 2A       		.byte	42
 2456 097b 02       		.byte	2
 2457 097c 2B       		.byte	43
 2458 097d 11       		.byte	17
 2459 097e 2D       		.byte	45
 2460 097f 10       		.byte	16
 2461 0980 31       		.byte	49
 2462 0981 1F       		.byte	31
 2463 0982 33       		.byte	51
 2464 0983 40       		.byte	64
 2465 0984 35       		.byte	53
 2466 0985 20       		.byte	32
 2467 0986 36       		.byte	54
 2468 0987 1F       		.byte	31
 2469 0988 3F       		.byte	63
 2470 0989 14       		.byte	20
 2471 098a 40       		.byte	64
 2472 098b 35       		.byte	53
 2473 098c 41       		.byte	65
 2474 098d 06       		.byte	6
 2475 098e 45       		.byte	69
 2476 098f 0E       		.byte	14
 2477 0990 46       		.byte	70
 2478 0991 C0       		.byte	-64
 2479 0992 47       		.byte	71
 2480 0993 0B       		.byte	11
 2481 0994 48       		.byte	72
 2482 0995 19       		.byte	25
 2483 0996 49       		.byte	73
 2484 0997 FF       		.byte	-1
 2485 0998 4A       		.byte	74
 2486 0999 FF       		.byte	-1
 2487 099a 4B       		.byte	75
 2488 099b FF       		.byte	-1
 2489 099c 4E       		.byte	78
 2490 099d F0       		.byte	-16
 2491 099e 4F       		.byte	79
 2492 099f 44       		.byte	68
 2493 09a0 50       		.byte	80
 2494 09a1 0C       		.byte	12
 2495 09a2 54       		.byte	84
 2496 09a3 01       		.byte	1
 2497 09a4 58       		.byte	88
 2498 09a5 04       		.byte	4
 2499 09a6 59       		.byte	89
 2500 09a7 04       		.byte	4
 2501 09a8 5A       		.byte	90
 2502 09a9 04       		.byte	4
 2503 09aa 5B       		.byte	91
 2504 09ab 04       		.byte	4
 2505 09ac 5C       		.byte	92
 2506 09ad 26       		.byte	38
 2507 09ae 5D       		.byte	93
 2508 09af 62       		.byte	98
ARM GAS  C:\Users\cronos\AppData\Local\Temp\ccFFdJaf.s 			page 45


 2509 09b0 5F       		.byte	95
 2510 09b1 01       		.byte	1
 2511 09b2 66       		.byte	102
 2512 09b3 C0       		.byte	-64
 2513 09b4 6A       		.byte	106
 2514 09b5 40       		.byte	64
 2515 09b6 6B       		.byte	107
 2516 09b7 02       		.byte	2
 2517 09b8 82       		.byte	-126
 2518 09b9 1C       		.byte	28
 2519 09ba 85       		.byte	-123
 2520 09bb 80       		.byte	-128
 2521 09bc 8C       		.byte	-116
 2522 09bd 5C       		.byte	92
 2523 09be 8E       		.byte	-114
 2524 09bf 03       		.byte	3
 2525 09c0 91       		.byte	-111
 2526 09c1 40       		.byte	64
 2527 09c2 93       		.byte	-109
 2528 09c3 15       		.byte	21
 2529 09c4 94       		.byte	-108
 2530 09c5 61       		.byte	97
 2531 09c6 96       		.byte	-106
 2532 09c7 0E       		.byte	14
 2533 09c8 99       		.byte	-103
 2534 09c9 33       		.byte	51
 2535 09ca 9B       		.byte	-101
 2536 09cb 0C       		.byte	12
 2537 09cc 9E       		.byte	-98
 2538 09cd 23       		.byte	35
 2539 09ce 9F       		.byte	-97
 2540 09cf 08       		.byte	8
 2541 09d0 A2       		.byte	-94
 2542 09d1 08       		.byte	8
 2543 09d2 A5       		.byte	-91
 2544 09d3 03       		.byte	3
 2545 09d4 A7       		.byte	-89
 2546 09d5 14       		.byte	20
 2547 09d6 A8       		.byte	-88
 2548 09d7 61       		.byte	97
 2549 09d8 A9       		.byte	-87
 2550 09d9 33       		.byte	51
 2551 09da AA       		.byte	-86
 2552 09db 16       		.byte	22
 2553 09dc AB       		.byte	-85
 2554 09dd 04       		.byte	4
 2555 09de AD       		.byte	-83
 2556 09df 0A       		.byte	10
 2557 09e0 AF       		.byte	-81
 2558 09e1 34       		.byte	52
 2559 09e2 B0       		.byte	-80
 2560 09e3 0F       		.byte	15
 2561 09e4 B1       		.byte	-79
 2562 09e5 60       		.byte	96
 2563 09e6 B2       		.byte	-78
 2564 09e7 1A       		.byte	26
 2565 09e8 B3       		.byte	-77
ARM GAS  C:\Users\cronos\AppData\Local\Temp\ccFFdJaf.s 			page 46


 2566 09e9 0F       		.byte	15
 2567 09ea B4       		.byte	-76
 2568 09eb 60       		.byte	96
 2569 09ec B5       		.byte	-75
 2570 09ed 80       		.byte	-128
 2571 09ee B7       		.byte	-73
 2572 09ef 10       		.byte	16
 2573 09f0 B8       		.byte	-72
 2574 09f1 20       		.byte	32
 2575 09f2 B9       		.byte	-71
 2576 09f3 02       		.byte	2
 2577 09f4 BA       		.byte	-70
 2578 09f5 0A       		.byte	10
 2579 09f6 BB       		.byte	-69
 2580 09f7 08       		.byte	8
 2581 09f8 BE       		.byte	-66
 2582 09f9 10       		.byte	16
 2583 09fa BF       		.byte	-65
 2584 09fb 50       		.byte	80
 2585 09fc C0       		.byte	-64
 2586 09fd 02       		.byte	2
 2587 09fe C6       		.byte	-58
 2588 09ff 04       		.byte	4
 2589 0a00 C9       		.byte	-55
 2590 0a01 FF       		.byte	-1
 2591 0a02 CA       		.byte	-54
 2592 0a03 07       		.byte	7
 2593 0a04 CB       		.byte	-53
 2594 0a05 FF       		.byte	-1
 2595 0a06 CC       		.byte	-52
 2596 0a07 40       		.byte	64
 2597 0a08 CD       		.byte	-51
 2598 0a09 20       		.byte	32
 2599 0a0a CE       		.byte	-50
 2600 0a0b F0       		.byte	-16
 2601 0a0c CF       		.byte	-49
 2602 0a0d 05       		.byte	5
 2603 0a0e D0       		.byte	-48
 2604 0a0f 08       		.byte	8
 2605 0a10 D4       		.byte	-44
 2606 0a11 01       		.byte	1
 2607 0a12 D8       		.byte	-40
 2608 0a13 04       		.byte	4
 2609 0a14 D9       		.byte	-39
 2610 0a15 04       		.byte	4
 2611 0a16 DA       		.byte	-38
 2612 0a17 04       		.byte	4
 2613 0a18 DB       		.byte	-37
 2614 0a19 04       		.byte	4
 2615 0a1a DC       		.byte	-36
 2616 0a1b 22       		.byte	34
 2617 0a1c DD       		.byte	-35
 2618 0a1d 22       		.byte	34
 2619 0a1e DF       		.byte	-33
 2620 0a1f 01       		.byte	1
 2621 0a20 E0       		.byte	-32
 2622 0a21 40       		.byte	64
ARM GAS  C:\Users\cronos\AppData\Local\Temp\ccFFdJaf.s 			page 47


 2623 0a22 E1       		.byte	-31
 2624 0a23 A8       		.byte	-88
 2625 0a24 E2       		.byte	-30
 2626 0a25 40       		.byte	64
 2627 0a26 E3       		.byte	-29
 2628 0a27 20       		.byte	32
 2629 0a28 00       		.byte	0
 2630 0a29 08       		.byte	8
 2631 0a2a 04       		.byte	4
 2632 0a2b 40       		.byte	64
 2633 0a2c 07       		.byte	7
 2634 0a2d 40       		.byte	64
 2635 0a2e 08       		.byte	8
 2636 0a2f 20       		.byte	32
 2637 0a30 0A       		.byte	10
 2638 0a31 82       		.byte	-126
 2639 0a32 0C       		.byte	12
 2640 0a33 08       		.byte	8
 2641 0a34 0E       		.byte	14
 2642 0a35 22       		.byte	34
 2643 0a36 0F       		.byte	15
 2644 0a37 02       		.byte	2
 2645 0a38 10       		.byte	16
 2646 0a39 20       		.byte	32
 2647 0a3a 11       		.byte	17
 2648 0a3b 02       		.byte	2
 2649 0a3c 12       		.byte	18
 2650 0a3d 08       		.byte	8
 2651 0a3e 16       		.byte	22
 2652 0a3f 80       		.byte	-128
 2653 0a40 17       		.byte	23
 2654 0a41 20       		.byte	32
 2655 0a42 1A       		.byte	26
 2656 0a43 02       		.byte	2
 2657 0a44 1B       		.byte	27
 2658 0a45 40       		.byte	64
 2659 0a46 1C       		.byte	28
 2660 0a47 40       		.byte	64
 2661 0a48 1D       		.byte	29
 2662 0a49 20       		.byte	32
 2663 0a4a 1E       		.byte	30
 2664 0a4b 20       		.byte	32
 2665 0a4c 1F       		.byte	31
 2666 0a4d 0A       		.byte	10
 2667 0a4e 20       		.byte	32
 2668 0a4f 04       		.byte	4
 2669 0a50 21       		.byte	33
 2670 0a51 02       		.byte	2
 2671 0a52 22       		.byte	34
 2672 0a53 04       		.byte	4
 2673 0a54 25       		.byte	37
 2674 0a55 08       		.byte	8
 2675 0a56 26       		.byte	38
 2676 0a57 40       		.byte	64
 2677 0a58 27       		.byte	39
 2678 0a59 68       		.byte	104
 2679 0a5a 2A       		.byte	42
ARM GAS  C:\Users\cronos\AppData\Local\Temp\ccFFdJaf.s 			page 48


 2680 0a5b 80       		.byte	-128
 2681 0a5c 2B       		.byte	43
 2682 0a5d 48       		.byte	72
 2683 0a5e 2C       		.byte	44
 2684 0a5f 08       		.byte	8
 2685 0a60 2F       		.byte	47
 2686 0a61 22       		.byte	34
 2687 0a62 31       		.byte	49
 2688 0a63 0A       		.byte	10
 2689 0a64 32       		.byte	50
 2690 0a65 20       		.byte	32
 2691 0a66 33       		.byte	51
 2692 0a67 40       		.byte	64
 2693 0a68 36       		.byte	54
 2694 0a69 01       		.byte	1
 2695 0a6a 37       		.byte	55
 2696 0a6b 60       		.byte	96
 2697 0a6c 38       		.byte	56
 2698 0a6d 48       		.byte	72
 2699 0a6e 3F       		.byte	63
 2700 0a6f 04       		.byte	4
 2701 0a70 41       		.byte	65
 2702 0a71 08       		.byte	8
 2703 0a72 45       		.byte	69
 2704 0a73 20       		.byte	32
 2705 0a74 48       		.byte	72
 2706 0a75 18       		.byte	24
 2707 0a76 4A       		.byte	74
 2708 0a77 01       		.byte	1
 2709 0a78 4B       		.byte	75
 2710 0a79 04       		.byte	4
 2711 0a7a 4F       		.byte	79
 2712 0a7b 02       		.byte	2
 2713 0a7c 50       		.byte	80
 2714 0a7d 04       		.byte	4
 2715 0a7e 53       		.byte	83
 2716 0a7f 20       		.byte	32
 2717 0a80 56       		.byte	86
 2718 0a81 80       		.byte	-128
 2719 0a82 58       		.byte	88
 2720 0a83 02       		.byte	2
 2721 0a84 5A       		.byte	90
 2722 0a85 48       		.byte	72
 2723 0a86 5B       		.byte	91
 2724 0a87 10       		.byte	16
 2725 0a88 5D       		.byte	93
 2726 0a89 10       		.byte	16
 2727 0a8a 5E       		.byte	94
 2728 0a8b 81       		.byte	-127
 2729 0a8c 5F       		.byte	95
 2730 0a8d 08       		.byte	8
 2731 0a8e 81       		.byte	-127
 2732 0a8f 02       		.byte	2
 2733 0a90 8C       		.byte	-116
 2734 0a91 04       		.byte	4
 2735 0a92 C0       		.byte	-64
 2736 0a93 94       		.byte	-108
ARM GAS  C:\Users\cronos\AppData\Local\Temp\ccFFdJaf.s 			page 49


 2737 0a94 C2       		.byte	-62
 2738 0a95 AB       		.byte	-85
 2739 0a96 C4       		.byte	-60
 2740 0a97 5E       		.byte	94
 2741 0a98 CA       		.byte	-54
 2742 0a99 7D       		.byte	125
 2743 0a9a CC       		.byte	-52
 2744 0a9b BF       		.byte	-65
 2745 0a9c CE       		.byte	-50
 2746 0a9d 4A       		.byte	74
 2747 0a9e D0       		.byte	-48
 2748 0a9f 22       		.byte	34
 2749 0aa0 D2       		.byte	-46
 2750 0aa1 0C       		.byte	12
 2751 0aa2 D6       		.byte	-42
 2752 0aa3 FF       		.byte	-1
 2753 0aa4 00       		.byte	0
 2754 0aa5 1D       		.byte	29
 2755 0aa6 01       		.byte	1
 2756 0aa7 0D       		.byte	13
 2757 0aa8 03       		.byte	3
 2758 0aa9 30       		.byte	48
 2759 0aaa 04       		.byte	4
 2760 0aab 1D       		.byte	29
 2761 0aac 07       		.byte	7
 2762 0aad 02       		.byte	2
 2763 0aae 08       		.byte	8
 2764 0aaf 02       		.byte	2
 2765 0ab0 0A       		.byte	10
 2766 0ab1 04       		.byte	4
 2767 0ab2 0C       		.byte	12
 2768 0ab3 0D       		.byte	13
 2769 0ab4 0E       		.byte	14
 2770 0ab5 10       		.byte	16
 2771 0ab6 10       		.byte	16
 2772 0ab7 02       		.byte	2
 2773 0ab8 12       		.byte	18
 2774 0ab9 0D       		.byte	13
 2775 0aba 15       		.byte	21
 2776 0abb 14       		.byte	20
 2777 0abc 17       		.byte	23
 2778 0abd 2B       		.byte	43
 2779 0abe 18       		.byte	24
 2780 0abf 02       		.byte	2
 2781 0ac0 19       		.byte	25
 2782 0ac1 24       		.byte	36
 2783 0ac2 1A       		.byte	26
 2784 0ac3 08       		.byte	8
 2785 0ac4 1B       		.byte	27
 2786 0ac5 1B       		.byte	27
 2787 0ac6 1D       		.byte	29
 2788 0ac7 08       		.byte	8
 2789 0ac8 1F       		.byte	31
 2790 0ac9 34       		.byte	52
 2791 0aca 20       		.byte	32
 2792 0acb 01       		.byte	1
 2793 0acc 22       		.byte	34
ARM GAS  C:\Users\cronos\AppData\Local\Temp\ccFFdJaf.s 			page 50


 2794 0acd 02       		.byte	2
 2795 0ace 26       		.byte	38
 2796 0acf 10       		.byte	16
 2797 0ad0 28       		.byte	40
 2798 0ad1 1D       		.byte	29
 2799 0ad2 2C       		.byte	44
 2800 0ad3 1D       		.byte	29
 2801 0ad4 30       		.byte	48
 2802 0ad5 0F       		.byte	15
 2803 0ad6 33       		.byte	51
 2804 0ad7 03       		.byte	3
 2805 0ad8 34       		.byte	52
 2806 0ad9 10       		.byte	16
 2807 0ada 37       		.byte	55
 2808 0adb 3C       		.byte	60
 2809 0adc 3A       		.byte	58
 2810 0add 02       		.byte	2
 2811 0ade 3B       		.byte	59
 2812 0adf 80       		.byte	-128
 2813 0ae0 3E       		.byte	62
 2814 0ae1 10       		.byte	16
 2815 0ae2 56       		.byte	86
 2816 0ae3 02       		.byte	2
 2817 0ae4 57       		.byte	87
 2818 0ae5 20       		.byte	32
 2819 0ae6 58       		.byte	88
 2820 0ae7 04       		.byte	4
 2821 0ae8 59       		.byte	89
 2822 0ae9 04       		.byte	4
 2823 0aea 5B       		.byte	91
 2824 0aeb 04       		.byte	4
 2825 0aec 5C       		.byte	92
 2826 0aed 44       		.byte	68
 2827 0aee 5D       		.byte	93
 2828 0aef 40       		.byte	64
 2829 0af0 5F       		.byte	95
 2830 0af1 01       		.byte	1
 2831 0af2 80       		.byte	-128
 2832 0af3 84       		.byte	-124
 2833 0af4 81       		.byte	-127
 2834 0af5 D4       		.byte	-44
 2835 0af6 84       		.byte	-124
 2836 0af7 04       		.byte	4
 2837 0af8 85       		.byte	-123
 2838 0af9 C1       		.byte	-63
 2839 0afa 87       		.byte	-121
 2840 0afb 06       		.byte	6
 2841 0afc 88       		.byte	-120
 2842 0afd 56       		.byte	86
 2843 0afe 89       		.byte	-119
 2844 0aff 10       		.byte	16
 2845 0b00 8A       		.byte	-118
 2846 0b01 09       		.byte	9
 2847 0b02 8B       		.byte	-117
 2848 0b03 C4       		.byte	-60
 2849 0b04 8C       		.byte	-116
 2850 0b05 84       		.byte	-124
ARM GAS  C:\Users\cronos\AppData\Local\Temp\ccFFdJaf.s 			page 51


 2851 0b06 8D       		.byte	-115
 2852 0b07 10       		.byte	16
 2853 0b08 90       		.byte	-112
 2854 0b09 07       		.byte	7
 2855 0b0a 91       		.byte	-111
 2856 0b0b 98       		.byte	-104
 2857 0b0c 92       		.byte	-110
 2858 0b0d 38       		.byte	56
 2859 0b0e 93       		.byte	-109
 2860 0b0f 23       		.byte	35
 2861 0b10 94       		.byte	-108
 2862 0b11 01       		.byte	1
 2863 0b12 95       		.byte	-107
 2864 0b13 09       		.byte	9
 2865 0b14 97       		.byte	-105
 2866 0b15 C6       		.byte	-58
 2867 0b16 98       		.byte	-104
 2868 0b17 0A       		.byte	10
 2869 0b18 99       		.byte	-103
 2870 0b19 C4       		.byte	-60
 2871 0b1a 9A       		.byte	-102
 2872 0b1b 10       		.byte	16
 2873 0b1c 9B       		.byte	-101
 2874 0b1d 10       		.byte	16
 2875 0b1e 9C       		.byte	-100
 2876 0b1f 60       		.byte	96
 2877 0b20 A0       		.byte	-96
 2878 0b21 04       		.byte	4
 2879 0b22 A1       		.byte	-95
 2880 0b23 D4       		.byte	-44
 2881 0b24 A2       		.byte	-94
 2882 0b25 80       		.byte	-128
 2883 0b26 A4       		.byte	-92
 2884 0b27 80       		.byte	-128
 2885 0b28 A5       		.byte	-91
 2886 0b29 E7       		.byte	-25
 2887 0b2a A6       		.byte	-90
 2888 0b2b 04       		.byte	4
 2889 0b2c A7       		.byte	-89
 2890 0b2d 18       		.byte	24
 2891 0b2e A8       		.byte	-88
 2892 0b2f 84       		.byte	-124
 2893 0b30 AD       		.byte	-83
 2894 0b31 C4       		.byte	-60
 2895 0b32 AF       		.byte	-81
 2896 0b33 10       		.byte	16
 2897 0b34 B0       		.byte	-80
 2898 0b35 80       		.byte	-128
 2899 0b36 B2       		.byte	-78
 2900 0b37 7F       		.byte	127
 2901 0b38 B3       		.byte	-77
 2902 0b39 78       		.byte	120
 2903 0b3a B4       		.byte	-76
 2904 0b3b 08       		.byte	8
 2905 0b3c B5       		.byte	-75
 2906 0b3d 07       		.byte	7
 2907 0b3e B6       		.byte	-74
ARM GAS  C:\Users\cronos\AppData\Local\Temp\ccFFdJaf.s 			page 52


 2908 0b3f 02       		.byte	2
 2909 0b40 B7       		.byte	-73
 2910 0b41 98       		.byte	-104
 2911 0b42 B8       		.byte	-72
 2912 0b43 08       		.byte	8
 2913 0b44 BB       		.byte	-69
 2914 0b45 28       		.byte	40
 2915 0b46 BE       		.byte	-66
 2916 0b47 51       		.byte	81
 2917 0b48 D4       		.byte	-44
 2918 0b49 09       		.byte	9
 2919 0b4a D8       		.byte	-40
 2920 0b4b 04       		.byte	4
 2921 0b4c D9       		.byte	-39
 2922 0b4d 04       		.byte	4
 2923 0b4e DB       		.byte	-37
 2924 0b4f 04       		.byte	4
 2925 0b50 DC       		.byte	-36
 2926 0b51 44       		.byte	68
 2927 0b52 DD       		.byte	-35
 2928 0b53 40       		.byte	64
 2929 0b54 DF       		.byte	-33
 2930 0b55 01       		.byte	1
 2931 0b56 02       		.byte	2
 2932 0b57 08       		.byte	8
 2933 0b58 03       		.byte	3
 2934 0b59 51       		.byte	81
 2935 0b5a 04       		.byte	4
 2936 0b5b 04       		.byte	4
 2937 0b5c 05       		.byte	5
 2938 0b5d 10       		.byte	16
 2939 0b5e 06       		.byte	6
 2940 0b5f 0B       		.byte	11
 2941 0b60 07       		.byte	7
 2942 0b61 40       		.byte	64
 2943 0b62 08       		.byte	8
 2944 0b63 10       		.byte	16
 2945 0b64 0A       		.byte	10
 2946 0b65 80       		.byte	-128
 2947 0b66 0E       		.byte	14
 2948 0b67 A8       		.byte	-88
 2949 0b68 0F       		.byte	15
 2950 0b69 02       		.byte	2
 2951 0b6a 10       		.byte	16
 2952 0b6b 28       		.byte	40
 2953 0b6c 12       		.byte	18
 2954 0b6d 01       		.byte	1
 2955 0b6e 13       		.byte	19
 2956 0b6f 02       		.byte	2
 2957 0b70 17       		.byte	23
 2958 0b71 19       		.byte	25
 2959 0b72 1A       		.byte	26
 2960 0b73 80       		.byte	-128
 2961 0b74 1B       		.byte	27
 2962 0b75 10       		.byte	16
 2963 0b76 1C       		.byte	28
 2964 0b77 08       		.byte	8
ARM GAS  C:\Users\cronos\AppData\Local\Temp\ccFFdJaf.s 			page 53


 2965 0b78 1D       		.byte	29
 2966 0b79 40       		.byte	64
 2967 0b7a 1E       		.byte	30
 2968 0b7b 20       		.byte	32
 2969 0b7c 1F       		.byte	31
 2970 0b7d 02       		.byte	2
 2971 0b7e 21       		.byte	33
 2972 0b7f 04       		.byte	4
 2973 0b80 22       		.byte	34
 2974 0b81 80       		.byte	-128
 2975 0b82 24       		.byte	36
 2976 0b83 06       		.byte	6
 2977 0b84 26       		.byte	38
 2978 0b85 4C       		.byte	76
 2979 0b86 27       		.byte	39
 2980 0b87 02       		.byte	2
 2981 0b88 2C       		.byte	44
 2982 0b89 02       		.byte	2
 2983 0b8a 2D       		.byte	45
 2984 0b8b 01       		.byte	1
 2985 0b8c 2E       		.byte	46
 2986 0b8d 08       		.byte	8
 2987 0b8e 30       		.byte	48
 2988 0b8f 10       		.byte	16
 2989 0b90 31       		.byte	49
 2990 0b91 10       		.byte	16
 2991 0b92 32       		.byte	50
 2992 0b93 88       		.byte	-120
 2993 0b94 36       		.byte	54
 2994 0b95 04       		.byte	4
 2995 0b96 37       		.byte	55
 2996 0b97 12       		.byte	18
 2997 0b98 38       		.byte	56
 2998 0b99 02       		.byte	2
 2999 0b9a 39       		.byte	57
 3000 0b9b 08       		.byte	8
 3001 0b9c 3C       		.byte	60
 3002 0b9d 04       		.byte	4
 3003 0b9e 3D       		.byte	61
 3004 0b9f 40       		.byte	64
 3005 0ba0 3E       		.byte	62
 3006 0ba1 92       		.byte	-110
 3007 0ba2 5C       		.byte	92
 3008 0ba3 A0       		.byte	-96
 3009 0ba4 5D       		.byte	93
 3010 0ba5 04       		.byte	4
 3011 0ba6 5E       		.byte	94
 3012 0ba7 02       		.byte	2
 3013 0ba8 62       		.byte	98
 3014 0ba9 80       		.byte	-128
 3015 0baa 65       		.byte	101
 3016 0bab 40       		.byte	64
 3017 0bac 68       		.byte	104
 3018 0bad 0A       		.byte	10
 3019 0bae 69       		.byte	105
 3020 0baf 01       		.byte	1
 3021 0bb0 6A       		.byte	106
ARM GAS  C:\Users\cronos\AppData\Local\Temp\ccFFdJaf.s 			page 54


 3022 0bb1 10       		.byte	16
 3023 0bb2 6B       		.byte	107
 3024 0bb3 59       		.byte	89
 3025 0bb4 72       		.byte	114
 3026 0bb5 02       		.byte	2
 3027 0bb6 7A       		.byte	122
 3028 0bb7 01       		.byte	1
 3029 0bb8 7B       		.byte	123
 3030 0bb9 02       		.byte	2
 3031 0bba 80       		.byte	-128
 3032 0bbb 20       		.byte	32
 3033 0bbc 81       		.byte	-127
 3034 0bbd 40       		.byte	64
 3035 0bbe 83       		.byte	-125
 3036 0bbf 01       		.byte	1
 3037 0bc0 84       		.byte	-124
 3038 0bc1 84       		.byte	-124
 3039 0bc2 85       		.byte	-123
 3040 0bc3 04       		.byte	4
 3041 0bc4 86       		.byte	-122
 3042 0bc5 10       		.byte	16
 3043 0bc6 89       		.byte	-119
 3044 0bc7 02       		.byte	2
 3045 0bc8 8F       		.byte	-113
 3046 0bc9 20       		.byte	32
 3047 0bca 91       		.byte	-111
 3048 0bcb 04       		.byte	4
 3049 0bcc 97       		.byte	-105
 3050 0bcd 01       		.byte	1
 3051 0bce 99       		.byte	-103
 3052 0bcf 10       		.byte	16
 3053 0bd0 9A       		.byte	-102
 3054 0bd1 80       		.byte	-128
 3055 0bd2 9D       		.byte	-99
 3056 0bd3 02       		.byte	2
 3057 0bd4 9F       		.byte	-97
 3058 0bd5 02       		.byte	2
 3059 0bd6 A0       		.byte	-96
 3060 0bd7 20       		.byte	32
 3061 0bd8 A3       		.byte	-93
 3062 0bd9 01       		.byte	1
 3063 0bda A6       		.byte	-90
 3064 0bdb 08       		.byte	8
 3065 0bdc A7       		.byte	-89
 3066 0bdd 32       		.byte	50
 3067 0bde A8       		.byte	-88
 3068 0bdf 10       		.byte	16
 3069 0be0 AC       		.byte	-84
 3070 0be1 88       		.byte	-120
 3071 0be2 C0       		.byte	-64
 3072 0be3 FF       		.byte	-1
 3073 0be4 C2       		.byte	-62
 3074 0be5 FA       		.byte	-6
 3075 0be6 C4       		.byte	-60
 3076 0be7 7F       		.byte	127
 3077 0be8 CA       		.byte	-54
 3078 0be9 D0       		.byte	-48
ARM GAS  C:\Users\cronos\AppData\Local\Temp\ccFFdJaf.s 			page 55


 3079 0bea CC       		.byte	-52
 3080 0beb EE       		.byte	-18
 3081 0bec CE       		.byte	-50
 3082 0bed F3       		.byte	-13
 3083 0bee D6       		.byte	-42
 3084 0bef F0       		.byte	-16
 3085 0bf0 D8       		.byte	-40
 3086 0bf1 18       		.byte	24
 3087 0bf2 E2       		.byte	-30
 3088 0bf3 01       		.byte	1
 3089 0bf4 E4       		.byte	-28
 3090 0bf5 80       		.byte	-128
 3091 0bf6 E8       		.byte	-24
 3092 0bf7 40       		.byte	64
 3093 0bf8 EA       		.byte	-22
 3094 0bf9 06       		.byte	6
 3095 0bfa 87       		.byte	-121
 3096 0bfb 01       		.byte	1
 3097 0bfc 89       		.byte	-119
 3098 0bfd 06       		.byte	6
 3099 0bfe 8B       		.byte	-117
 3100 0bff 08       		.byte	8
 3101 0c00 90       		.byte	-112
 3102 0c01 0E       		.byte	14
 3103 0c02 91       		.byte	-111
 3104 0c03 0C       		.byte	12
 3105 0c04 95       		.byte	-107
 3106 0c05 0A       		.byte	10
 3107 0c06 97       		.byte	-105
 3108 0c07 04       		.byte	4
 3109 0c08 9B       		.byte	-101
 3110 0c09 01       		.byte	1
 3111 0c0a A0       		.byte	-96
 3112 0c0b 13       		.byte	19
 3113 0c0c A2       		.byte	-94
 3114 0c0d 24       		.byte	36
 3115 0c0e A4       		.byte	-92
 3116 0c0f 44       		.byte	68
 3117 0c10 A6       		.byte	-90
 3118 0c11 09       		.byte	9
 3119 0c12 A8       		.byte	-88
 3120 0c13 65       		.byte	101
 3121 0c14 AA       		.byte	-86
 3122 0c15 1A       		.byte	26
 3123 0c16 AC       		.byte	-84
 3124 0c17 40       		.byte	64
 3125 0c18 AF       		.byte	-81
 3126 0c19 02       		.byte	2
 3127 0c1a B0       		.byte	-80
 3128 0c1b 0F       		.byte	15
 3129 0c1c B1       		.byte	-79
 3130 0c1d 0E       		.byte	14
 3131 0c1e B4       		.byte	-76
 3132 0c1f 70       		.byte	112
 3133 0c20 B5       		.byte	-75
 3134 0c21 01       		.byte	1
 3135 0c22 B8       		.byte	-72
ARM GAS  C:\Users\cronos\AppData\Local\Temp\ccFFdJaf.s 			page 56


 3136 0c23 02       		.byte	2
 3137 0c24 B9       		.byte	-71
 3138 0c25 02       		.byte	2
 3139 0c26 BA       		.byte	-70
 3140 0c27 20       		.byte	32
 3141 0c28 BF       		.byte	-65
 3142 0c29 10       		.byte	16
 3143 0c2a D4       		.byte	-44
 3144 0c2b 18       		.byte	24
 3145 0c2c D6       		.byte	-42
 3146 0c2d 04       		.byte	4
 3147 0c2e D8       		.byte	-40
 3148 0c2f 04       		.byte	4
 3149 0c30 D9       		.byte	-39
 3150 0c31 04       		.byte	4
 3151 0c32 DB       		.byte	-37
 3152 0c33 04       		.byte	4
 3153 0c34 DC       		.byte	-36
 3154 0c35 54       		.byte	84
 3155 0c36 DD       		.byte	-35
 3156 0c37 30       		.byte	48
 3157 0c38 DF       		.byte	-33
 3158 0c39 01       		.byte	1
 3159 0c3a 05       		.byte	5
 3160 0c3b 24       		.byte	36
 3161 0c3c 06       		.byte	6
 3162 0c3d 42       		.byte	66
 3163 0c3e 07       		.byte	7
 3164 0c3f 40       		.byte	64
 3165 0c40 0A       		.byte	10
 3166 0c41 40       		.byte	64
 3167 0c42 0E       		.byte	14
 3168 0c43 26       		.byte	38
 3169 0c44 0F       		.byte	15
 3170 0c45 40       		.byte	64
 3171 0c46 11       		.byte	17
 3172 0c47 80       		.byte	-128
 3173 0c48 12       		.byte	18
 3174 0c49 18       		.byte	24
 3175 0c4a 13       		.byte	19
 3176 0c4b 02       		.byte	2
 3177 0c4c 15       		.byte	21
 3178 0c4d 10       		.byte	16
 3179 0c4e 17       		.byte	23
 3180 0c4f 01       		.byte	1
 3181 0c50 19       		.byte	25
 3182 0c51 10       		.byte	16
 3183 0c52 1A       		.byte	26
 3184 0c53 40       		.byte	64
 3185 0c54 1D       		.byte	29
 3186 0c55 20       		.byte	32
 3187 0c56 1E       		.byte	30
 3188 0c57 22       		.byte	34
 3189 0c58 20       		.byte	32
 3190 0c59 04       		.byte	4
 3191 0c5a 21       		.byte	33
 3192 0c5b 02       		.byte	2
ARM GAS  C:\Users\cronos\AppData\Local\Temp\ccFFdJaf.s 			page 57


 3193 0c5c 26       		.byte	38
 3194 0c5d 80       		.byte	-128
 3195 0c5e 28       		.byte	40
 3196 0c5f 02       		.byte	2
 3197 0c60 29       		.byte	41
 3198 0c61 10       		.byte	16
 3199 0c62 2A       		.byte	42
 3200 0c63 10       		.byte	16
 3201 0c64 30       		.byte	48
 3202 0c65 08       		.byte	8
 3203 0c66 31       		.byte	49
 3204 0c67 02       		.byte	2
 3205 0c68 33       		.byte	51
 3206 0c69 20       		.byte	32
 3207 0c6a 35       		.byte	53
 3208 0c6b 64       		.byte	100
 3209 0c6c 36       		.byte	54
 3210 0c6d 80       		.byte	-128
 3211 0c6e 38       		.byte	56
 3212 0c6f 20       		.byte	32
 3213 0c70 3B       		.byte	59
 3214 0c71 04       		.byte	4
 3215 0c72 3F       		.byte	63
 3216 0c73 40       		.byte	64
 3217 0c74 46       		.byte	70
 3218 0c75 10       		.byte	16
 3219 0c76 47       		.byte	71
 3220 0c77 12       		.byte	18
 3221 0c78 4D       		.byte	77
 3222 0c79 84       		.byte	-124
 3223 0c7a 4E       		.byte	78
 3224 0c7b 08       		.byte	8
 3225 0c7c 54       		.byte	84
 3226 0c7d 20       		.byte	32
 3227 0c7e 55       		.byte	85
 3228 0c7f 40       		.byte	64
 3229 0c80 56       		.byte	86
 3230 0c81 80       		.byte	-128
 3231 0c82 57       		.byte	87
 3232 0c83 05       		.byte	5
 3233 0c84 59       		.byte	89
 3234 0c85 02       		.byte	2
 3235 0c86 60       		.byte	96
 3236 0c87 84       		.byte	-124
 3237 0c88 63       		.byte	99
 3238 0c89 01       		.byte	1
 3239 0c8a 65       		.byte	101
 3240 0c8b 40       		.byte	64
 3241 0c8c 6D       		.byte	109
 3242 0c8d 12       		.byte	18
 3243 0c8e 6E       		.byte	110
 3244 0c8f 04       		.byte	4
 3245 0c90 6F       		.byte	111
 3246 0c91 49       		.byte	73
 3247 0c92 76       		.byte	118
 3248 0c93 02       		.byte	2
 3249 0c94 82       		.byte	-126
ARM GAS  C:\Users\cronos\AppData\Local\Temp\ccFFdJaf.s 			page 58


 3250 0c95 01       		.byte	1
 3251 0c96 83       		.byte	-125
 3252 0c97 12       		.byte	18
 3253 0c98 84       		.byte	-124
 3254 0c99 02       		.byte	2
 3255 0c9a 87       		.byte	-121
 3256 0c9b 04       		.byte	4
 3257 0c9c 89       		.byte	-119
 3258 0c9d 80       		.byte	-128
 3259 0c9e 93       		.byte	-109
 3260 0c9f 40       		.byte	64
 3261 0ca0 96       		.byte	-106
 3262 0ca1 04       		.byte	4
 3263 0ca2 99       		.byte	-103
 3264 0ca3 24       		.byte	36
 3265 0ca4 9E       		.byte	-98
 3266 0ca5 42       		.byte	66
 3267 0ca6 9F       		.byte	-97
 3268 0ca7 01       		.byte	1
 3269 0ca8 A4       		.byte	-92
 3270 0ca9 20       		.byte	32
 3271 0caa A5       		.byte	-91
 3272 0cab 21       		.byte	33
 3273 0cac A7       		.byte	-89
 3274 0cad 1C       		.byte	28
 3275 0cae AD       		.byte	-83
 3276 0caf 21       		.byte	33
 3277 0cb0 B4       		.byte	-76
 3278 0cb1 80       		.byte	-128
 3279 0cb2 C0       		.byte	-64
 3280 0cb3 F0       		.byte	-16
 3281 0cb4 C2       		.byte	-62
 3282 0cb5 F8       		.byte	-8
 3283 0cb6 C4       		.byte	-60
 3284 0cb7 5F       		.byte	95
 3285 0cb8 CA       		.byte	-54
 3286 0cb9 08       		.byte	8
 3287 0cba CC       		.byte	-52
 3288 0cbb 77       		.byte	119
 3289 0cbc CE       		.byte	-50
 3290 0cbd 16       		.byte	22
 3291 0cbe D0       		.byte	-48
 3292 0cbf E0       		.byte	-32
 3293 0cc0 D2       		.byte	-46
 3294 0cc1 30       		.byte	48
 3295 0cc2 D6       		.byte	-42
 3296 0cc3 01       		.byte	1
 3297 0cc4 D8       		.byte	-40
 3298 0cc5 1D       		.byte	29
 3299 0cc6 E2       		.byte	-30
 3300 0cc7 02       		.byte	2
 3301 0cc8 E4       		.byte	-28
 3302 0cc9 80       		.byte	-128
 3303 0cca E6       		.byte	-26
 3304 0ccb 06       		.byte	6
 3305 0ccc E8       		.byte	-24
 3306 0ccd 10       		.byte	16
ARM GAS  C:\Users\cronos\AppData\Local\Temp\ccFFdJaf.s 			page 59


 3307 0cce 80       		.byte	-128
 3308 0ccf 01       		.byte	1
 3309 0cd0 82       		.byte	-126
 3310 0cd1 06       		.byte	6
 3311 0cd2 85       		.byte	-123
 3312 0cd3 29       		.byte	41
 3313 0cd4 87       		.byte	-121
 3314 0cd5 10       		.byte	16
 3315 0cd6 8F       		.byte	-113
 3316 0cd7 20       		.byte	32
 3317 0cd8 90       		.byte	-112
 3318 0cd9 0A       		.byte	10
 3319 0cda 92       		.byte	-110
 3320 0cdb 11       		.byte	17
 3321 0cdc 93       		.byte	-109
 3322 0cdd 18       		.byte	24
 3323 0cde 95       		.byte	-107
 3324 0cdf 10       		.byte	16
 3325 0ce0 97       		.byte	-105
 3326 0ce1 21       		.byte	33
 3327 0ce2 98       		.byte	-104
 3328 0ce3 3F       		.byte	63
 3329 0ce4 9B       		.byte	-101
 3330 0ce5 02       		.byte	2
 3331 0ce6 9D       		.byte	-99
 3332 0ce7 31       		.byte	49
 3333 0ce8 9F       		.byte	-97
 3334 0ce9 08       		.byte	8
 3335 0cea A3       		.byte	-93
 3336 0ceb 04       		.byte	4
 3337 0cec A4       		.byte	-92
 3338 0ced 3F       		.byte	63
 3339 0cee A8       		.byte	-88
 3340 0cef 14       		.byte	20
 3341 0cf0 AA       		.byte	-86
 3342 0cf1 49       		.byte	73
 3343 0cf2 AB       		.byte	-85
 3344 0cf3 04       		.byte	4
 3345 0cf4 AC       		.byte	-84
 3346 0cf5 20       		.byte	32
 3347 0cf6 B0       		.byte	-80
 3348 0cf7 18       		.byte	24
 3349 0cf8 B1       		.byte	-79
 3350 0cf9 38       		.byte	56
 3351 0cfa B2       		.byte	-78
 3352 0cfb 20       		.byte	32
 3353 0cfc B3       		.byte	-77
 3354 0cfd 01       		.byte	1
 3355 0cfe B4       		.byte	-76
 3356 0cff 07       		.byte	7
 3357 0d00 B5       		.byte	-75
 3358 0d01 06       		.byte	6
 3359 0d02 B6       		.byte	-74
 3360 0d03 40       		.byte	64
 3361 0d04 B9       		.byte	-71
 3362 0d05 08       		.byte	8
 3363 0d06 BF       		.byte	-65
ARM GAS  C:\Users\cronos\AppData\Local\Temp\ccFFdJaf.s 			page 60


 3364 0d07 10       		.byte	16
 3365 0d08 C0       		.byte	-64
 3366 0d09 63       		.byte	99
 3367 0d0a C1       		.byte	-63
 3368 0d0b 04       		.byte	4
 3369 0d0c C2       		.byte	-62
 3370 0d0d 05       		.byte	5
 3371 0d0e C4       		.byte	-60
 3372 0d0f 02       		.byte	2
 3373 0d10 C5       		.byte	-59
 3374 0d11 0C       		.byte	12
 3375 0d12 C7       		.byte	-57
 3376 0d13 0E       		.byte	14
 3377 0d14 C8       		.byte	-56
 3378 0d15 11       		.byte	17
 3379 0d16 C9       		.byte	-55
 3380 0d17 FF       		.byte	-1
 3381 0d18 CA       		.byte	-54
 3382 0d19 FF       		.byte	-1
 3383 0d1a CB       		.byte	-53
 3384 0d1b FF       		.byte	-1
 3385 0d1c CC       		.byte	-52
 3386 0d1d 62       		.byte	98
 3387 0d1e CD       		.byte	-51
 3388 0d1f A0       		.byte	-96
 3389 0d20 CE       		.byte	-50
 3390 0d21 F0       		.byte	-16
 3391 0d22 CF       		.byte	-49
 3392 0d23 41       		.byte	65
 3393 0d24 D0       		.byte	-48
 3394 0d25 0C       		.byte	12
 3395 0d26 D6       		.byte	-42
 3396 0d27 08       		.byte	8
 3397 0d28 D8       		.byte	-40
 3398 0d29 04       		.byte	4
 3399 0d2a D9       		.byte	-39
 3400 0d2b 04       		.byte	4
 3401 0d2c DA       		.byte	-38
 3402 0d2d 04       		.byte	4
 3403 0d2e DB       		.byte	-37
 3404 0d2f 04       		.byte	4
 3405 0d30 DC       		.byte	-36
 3406 0d31 52       		.byte	82
 3407 0d32 DD       		.byte	-35
 3408 0d33 92       		.byte	-110
 3409 0d34 DF       		.byte	-33
 3410 0d35 01       		.byte	1
 3411 0d36 E6       		.byte	-26
 3412 0d37 40       		.byte	64
 3413 0d38 E7       		.byte	-25
 3414 0d39 02       		.byte	2
 3415 0d3a E9       		.byte	-23
 3416 0d3b 10       		.byte	16
 3417 0d3c EA       		.byte	-22
 3418 0d3d 30       		.byte	48
 3419 0d3e EB       		.byte	-21
 3420 0d3f 10       		.byte	16
ARM GAS  C:\Users\cronos\AppData\Local\Temp\ccFFdJaf.s 			page 61


 3421 0d40 ED       		.byte	-19
 3422 0d41 10       		.byte	16
 3423 0d42 EE       		.byte	-18
 3424 0d43 10       		.byte	16
 3425 0d44 EF       		.byte	-17
 3426 0d45 12       		.byte	18
 3427 0d46 01       		.byte	1
 3428 0d47 02       		.byte	2
 3429 0d48 04       		.byte	4
 3430 0d49 0A       		.byte	10
 3431 0d4a 05       		.byte	5
 3432 0d4b 80       		.byte	-128
 3433 0d4c 06       		.byte	6
 3434 0d4d 08       		.byte	8
 3435 0d4e 0A       		.byte	10
 3436 0d4f 48       		.byte	72
 3437 0d50 0C       		.byte	12
 3438 0d51 40       		.byte	64
 3439 0d52 0D       		.byte	13
 3440 0d53 08       		.byte	8
 3441 0d54 0E       		.byte	14
 3442 0d55 04       		.byte	4
 3443 0d56 0F       		.byte	15
 3444 0d57 80       		.byte	-128
 3445 0d58 10       		.byte	16
 3446 0d59 06       		.byte	6
 3447 0d5a 13       		.byte	19
 3448 0d5b 08       		.byte	8
 3449 0d5c 15       		.byte	21
 3450 0d5d 01       		.byte	1
 3451 0d5e 18       		.byte	24
 3452 0d5f 10       		.byte	16
 3453 0d60 19       		.byte	25
 3454 0d61 11       		.byte	17
 3455 0d62 1A       		.byte	26
 3456 0d63 40       		.byte	64
 3457 0d64 1B       		.byte	27
 3458 0d65 80       		.byte	-128
 3459 0d66 1D       		.byte	29
 3460 0d67 28       		.byte	40
 3461 0d68 1E       		.byte	30
 3462 0d69 20       		.byte	32
 3463 0d6a 1F       		.byte	31
 3464 0d6b 10       		.byte	16
 3465 0d6c 20       		.byte	32
 3466 0d6d 04       		.byte	4
 3467 0d6e 22       		.byte	34
 3468 0d6f 01       		.byte	1
 3469 0d70 23       		.byte	35
 3470 0d71 20       		.byte	32
 3471 0d72 25       		.byte	37
 3472 0d73 10       		.byte	16
 3473 0d74 27       		.byte	39
 3474 0d75 02       		.byte	2
 3475 0d76 28       		.byte	40
 3476 0d77 04       		.byte	4
 3477 0d78 29       		.byte	41
ARM GAS  C:\Users\cronos\AppData\Local\Temp\ccFFdJaf.s 			page 62


 3478 0d79 01       		.byte	1
 3479 0d7a 2C       		.byte	44
 3480 0d7b 40       		.byte	64
 3481 0d7c 2F       		.byte	47
 3482 0d7d 19       		.byte	25
 3483 0d7e 30       		.byte	48
 3484 0d7f 40       		.byte	64
 3485 0d80 31       		.byte	49
 3486 0d81 18       		.byte	24
 3487 0d82 32       		.byte	50
 3488 0d83 01       		.byte	1
 3489 0d84 36       		.byte	54
 3490 0d85 10       		.byte	16
 3491 0d86 37       		.byte	55
 3492 0d87 01       		.byte	1
 3493 0d88 38       		.byte	56
 3494 0d89 80       		.byte	-128
 3495 0d8a 39       		.byte	57
 3496 0d8b 01       		.byte	1
 3497 0d8c 3A       		.byte	58
 3498 0d8d 08       		.byte	8
 3499 0d8e 3B       		.byte	59
 3500 0d8f 02       		.byte	2
 3501 0d90 3D       		.byte	61
 3502 0d91 20       		.byte	32
 3503 0d92 3E       		.byte	62
 3504 0d93 06       		.byte	6
 3505 0d94 3F       		.byte	63
 3506 0d95 80       		.byte	-128
 3507 0d96 40       		.byte	64
 3508 0d97 54       		.byte	84
 3509 0d98 44       		.byte	68
 3510 0d99 42       		.byte	66
 3511 0d9a 45       		.byte	69
 3512 0d9b 28       		.byte	40
 3513 0d9c 46       		.byte	70
 3514 0d9d 08       		.byte	8
 3515 0d9e 47       		.byte	71
 3516 0d9f 02       		.byte	2
 3517 0da0 48       		.byte	72
 3518 0da1 14       		.byte	20
 3519 0da2 4A       		.byte	74
 3520 0da3 01       		.byte	1
 3521 0da4 4C       		.byte	76
 3522 0da5 40       		.byte	64
 3523 0da6 4F       		.byte	79
 3524 0da7 44       		.byte	68
 3525 0da8 53       		.byte	83
 3526 0da9 04       		.byte	4
 3527 0daa 54       		.byte	84
 3528 0dab 80       		.byte	-128
 3529 0dac 56       		.byte	86
 3530 0dad 14       		.byte	20
 3531 0dae 57       		.byte	87
 3532 0daf 40       		.byte	64
 3533 0db0 58       		.byte	88
 3534 0db1 80       		.byte	-128
ARM GAS  C:\Users\cronos\AppData\Local\Temp\ccFFdJaf.s 			page 63


 3535 0db2 62       		.byte	98
 3536 0db3 40       		.byte	64
 3537 0db4 65       		.byte	101
 3538 0db5 20       		.byte	32
 3539 0db6 6C       		.byte	108
 3540 0db7 05       		.byte	5
 3541 0db8 6D       		.byte	109
 3542 0db9 81       		.byte	-127
 3543 0dba 6E       		.byte	110
 3544 0dbb 04       		.byte	4
 3545 0dbc 6F       		.byte	111
 3546 0dbd 09       		.byte	9
 3547 0dbe 75       		.byte	117
 3548 0dbf 80       		.byte	-128
 3549 0dc0 76       		.byte	118
 3550 0dc1 02       		.byte	2
 3551 0dc2 84       		.byte	-124
 3552 0dc3 40       		.byte	64
 3553 0dc4 87       		.byte	-121
 3554 0dc5 02       		.byte	2
 3555 0dc6 8A       		.byte	-118
 3556 0dc7 01       		.byte	1
 3557 0dc8 8D       		.byte	-115
 3558 0dc9 12       		.byte	18
 3559 0dca 90       		.byte	-112
 3560 0dcb 40       		.byte	64
 3561 0dcc 92       		.byte	-110
 3562 0dcd 08       		.byte	8
 3563 0dce 94       		.byte	-108
 3564 0dcf 1A       		.byte	26
 3565 0dd0 95       		.byte	-107
 3566 0dd1 99       		.byte	-103
 3567 0dd2 96       		.byte	-106
 3568 0dd3 04       		.byte	4
 3569 0dd4 97       		.byte	-105
 3570 0dd5 3C       		.byte	60
 3571 0dd6 98       		.byte	-104
 3572 0dd7 82       		.byte	-126
 3573 0dd8 99       		.byte	-103
 3574 0dd9 20       		.byte	32
 3575 0dda 9B       		.byte	-101
 3576 0ddb 08       		.byte	8
 3577 0ddc 9C       		.byte	-100
 3578 0ddd 04       		.byte	4
 3579 0dde 9D       		.byte	-99
 3580 0ddf 83       		.byte	-125
 3581 0de0 9E       		.byte	-98
 3582 0de1 54       		.byte	84
 3583 0de2 9F       		.byte	-97
 3584 0de3 02       		.byte	2
 3585 0de4 A0       		.byte	-96
 3586 0de5 06       		.byte	6
 3587 0de6 A1       		.byte	-95
 3588 0de7 02       		.byte	2
 3589 0de8 A2       		.byte	-94
 3590 0de9 01       		.byte	1
 3591 0dea A4       		.byte	-92
ARM GAS  C:\Users\cronos\AppData\Local\Temp\ccFFdJaf.s 			page 64


 3592 0deb 10       		.byte	16
 3593 0dec A5       		.byte	-91
 3594 0ded 40       		.byte	64
 3595 0dee A6       		.byte	-90
 3596 0def 10       		.byte	16
 3597 0df0 A7       		.byte	-89
 3598 0df1 88       		.byte	-120
 3599 0df2 B2       		.byte	-78
 3600 0df3 20       		.byte	32
 3601 0df4 B3       		.byte	-77
 3602 0df5 40       		.byte	64
 3603 0df6 B5       		.byte	-75
 3604 0df7 04       		.byte	4
 3605 0df8 B6       		.byte	-74
 3606 0df9 81       		.byte	-127
 3607 0dfa B7       		.byte	-73
 3608 0dfb 01       		.byte	1
 3609 0dfc C0       		.byte	-64
 3610 0dfd F8       		.byte	-8
 3611 0dfe C2       		.byte	-62
 3612 0dff FA       		.byte	-6
 3613 0e00 C4       		.byte	-60
 3614 0e01 17       		.byte	23
 3615 0e02 CA       		.byte	-54
 3616 0e03 F5       		.byte	-11
 3617 0e04 CC       		.byte	-52
 3618 0e05 AF       		.byte	-81
 3619 0e06 CE       		.byte	-50
 3620 0e07 FA       		.byte	-6
 3621 0e08 D0       		.byte	-48
 3622 0e09 F7       		.byte	-9
 3623 0e0a D2       		.byte	-46
 3624 0e0b 1C       		.byte	28
 3625 0e0c D6       		.byte	-42
 3626 0e0d 08       		.byte	8
 3627 0e0e D8       		.byte	-40
 3628 0e0f 28       		.byte	40
 3629 0e10 E6       		.byte	-26
 3630 0e11 04       		.byte	4
 3631 0e12 00       		.byte	0
 3632 0e13 01       		.byte	1
 3633 0e14 01       		.byte	1
 3634 0e15 20       		.byte	32
 3635 0e16 05       		.byte	5
 3636 0e17 30       		.byte	48
 3637 0e18 06       		.byte	6
 3638 0e19 40       		.byte	64
 3639 0e1a 08       		.byte	8
 3640 0e1b 4F       		.byte	79
 3641 0e1c 09       		.byte	9
 3642 0e1d 10       		.byte	16
 3643 0e1e 0A       		.byte	10
 3644 0e1f 90       		.byte	-112
 3645 0e20 0C       		.byte	12
 3646 0e21 F3       		.byte	-13
 3647 0e22 0E       		.byte	14
 3648 0e23 0C       		.byte	12
ARM GAS  C:\Users\cronos\AppData\Local\Temp\ccFFdJaf.s 			page 65


 3649 0e24 0F       		.byte	15
 3650 0e25 0B       		.byte	11
 3651 0e26 11       		.byte	17
 3652 0e27 02       		.byte	2
 3653 0e28 12       		.byte	18
 3654 0e29 B3       		.byte	-77
 3655 0e2a 14       		.byte	20
 3656 0e2b FF       		.byte	-1
 3657 0e2c 15       		.byte	21
 3658 0e2d 70       		.byte	112
 3659 0e2e 17       		.byte	23
 3660 0e2f 0F       		.byte	15
 3661 0e30 18       		.byte	24
 3662 0e31 04       		.byte	4
 3663 0e32 19       		.byte	25
 3664 0e33 78       		.byte	120
 3665 0e34 1B       		.byte	27
 3666 0e35 07       		.byte	7
 3667 0e36 1C       		.byte	28
 3668 0e37 42       		.byte	66
 3669 0e38 1D       		.byte	29
 3670 0e39 03       		.byte	3
 3671 0e3a 20       		.byte	32
 3672 0e3b 08       		.byte	8
 3673 0e3c 21       		.byte	33
 3674 0e3d 4F       		.byte	79
 3675 0e3e 23       		.byte	35
 3676 0e3f 30       		.byte	48
 3677 0e40 24       		.byte	36
 3678 0e41 4C       		.byte	76
 3679 0e42 26       		.byte	38
 3680 0e43 A3       		.byte	-93
 3681 0e44 28       		.byte	40
 3682 0e45 0C       		.byte	12
 3683 0e46 29       		.byte	41
 3684 0e47 7F       		.byte	127
 3685 0e48 2C       		.byte	44
 3686 0e49 03       		.byte	3
 3687 0e4a 2D       		.byte	45
 3688 0e4b 01       		.byte	1
 3689 0e4c 30       		.byte	48
 3690 0e4d 0F       		.byte	15
 3691 0e4e 31       		.byte	49
 3692 0e4f 04       		.byte	4
 3693 0e50 32       		.byte	50
 3694 0e51 8C       		.byte	-116
 3695 0e52 33       		.byte	51
 3696 0e53 40       		.byte	64
 3697 0e54 34       		.byte	52
 3698 0e55 7C       		.byte	124
 3699 0e56 35       		.byte	53
 3700 0e57 38       		.byte	56
 3701 0e58 37       		.byte	55
 3702 0e59 03       		.byte	3
 3703 0e5a 39       		.byte	57
 3704 0e5b 02       		.byte	2
 3705 0e5c 3A       		.byte	58
ARM GAS  C:\Users\cronos\AppData\Local\Temp\ccFFdJaf.s 			page 66


 3706 0e5d 2A       		.byte	42
 3707 0e5e 3F       		.byte	63
 3708 0e5f 04       		.byte	4
 3709 0e60 56       		.byte	86
 3710 0e61 02       		.byte	2
 3711 0e62 57       		.byte	87
 3712 0e63 12       		.byte	18
 3713 0e64 58       		.byte	88
 3714 0e65 04       		.byte	4
 3715 0e66 59       		.byte	89
 3716 0e67 04       		.byte	4
 3717 0e68 5B       		.byte	91
 3718 0e69 04       		.byte	4
 3719 0e6a 5C       		.byte	92
 3720 0e6b 33       		.byte	51
 3721 0e6c 5D       		.byte	93
 3722 0e6d 30       		.byte	48
 3723 0e6e 5F       		.byte	95
 3724 0e6f 01       		.byte	1
 3725 0e70 81       		.byte	-127
 3726 0e71 10       		.byte	16
 3727 0e72 83       		.byte	-125
 3728 0e73 06       		.byte	6
 3729 0e74 85       		.byte	-123
 3730 0e75 1C       		.byte	28
 3731 0e76 89       		.byte	-119
 3732 0e77 1C       		.byte	28
 3733 0e78 9B       		.byte	-101
 3734 0e79 20       		.byte	32
 3735 0e7a 9C       		.byte	-100
 3736 0e7b 02       		.byte	2
 3737 0e7c 9D       		.byte	-99
 3738 0e7d 04       		.byte	4
 3739 0e7e 9E       		.byte	-98
 3740 0e7f 05       		.byte	5
 3741 0e80 9F       		.byte	-97
 3742 0e81 19       		.byte	25
 3743 0e82 A0       		.byte	-96
 3744 0e83 01       		.byte	1
 3745 0e84 A2       		.byte	-94
 3746 0e85 02       		.byte	2
 3747 0e86 A4       		.byte	-92
 3748 0e87 03       		.byte	3
 3749 0e88 A7       		.byte	-89
 3750 0e89 20       		.byte	32
 3751 0e8a A8       		.byte	-88
 3752 0e8b 03       		.byte	3
 3753 0e8c AD       		.byte	-83
 3754 0e8d 08       		.byte	8
 3755 0e8e AF       		.byte	-81
 3756 0e8f 06       		.byte	6
 3757 0e90 B0       		.byte	-80
 3758 0e91 03       		.byte	3
 3759 0e92 B3       		.byte	-77
 3760 0e93 20       		.byte	32
 3761 0e94 B4       		.byte	-76
 3762 0e95 04       		.byte	4
ARM GAS  C:\Users\cronos\AppData\Local\Temp\ccFFdJaf.s 			page 67


 3763 0e96 B5       		.byte	-75
 3764 0e97 03       		.byte	3
 3765 0e98 B7       		.byte	-73
 3766 0e99 1C       		.byte	28
 3767 0e9a BA       		.byte	-70
 3768 0e9b 08       		.byte	8
 3769 0e9c BF       		.byte	-65
 3770 0e9d 14       		.byte	20
 3771 0e9e C0       		.byte	-64
 3772 0e9f 54       		.byte	84
 3773 0ea0 C1       		.byte	-63
 3774 0ea1 02       		.byte	2
 3775 0ea2 C2       		.byte	-62
 3776 0ea3 06       		.byte	6
 3777 0ea4 C4       		.byte	-60
 3778 0ea5 03       		.byte	3
 3779 0ea6 C5       		.byte	-59
 3780 0ea7 0E       		.byte	14
 3781 0ea8 C6       		.byte	-58
 3782 0ea9 C0       		.byte	-64
 3783 0eaa C8       		.byte	-56
 3784 0eab 09       		.byte	9
 3785 0eac C9       		.byte	-55
 3786 0ead FF       		.byte	-1
 3787 0eae CA       		.byte	-54
 3788 0eaf FF       		.byte	-1
 3789 0eb0 CB       		.byte	-53
 3790 0eb1 FF       		.byte	-1
 3791 0eb2 CC       		.byte	-52
 3792 0eb3 62       		.byte	98
 3793 0eb4 CD       		.byte	-51
 3794 0eb5 A0       		.byte	-96
 3795 0eb6 CE       		.byte	-50
 3796 0eb7 F0       		.byte	-16
 3797 0eb8 CF       		.byte	-49
 3798 0eb9 41       		.byte	65
 3799 0eba D0       		.byte	-48
 3800 0ebb 0C       		.byte	12
 3801 0ebc D6       		.byte	-42
 3802 0ebd 08       		.byte	8
 3803 0ebe D8       		.byte	-40
 3804 0ebf 04       		.byte	4
 3805 0ec0 D9       		.byte	-39
 3806 0ec1 04       		.byte	4
 3807 0ec2 DA       		.byte	-38
 3808 0ec3 04       		.byte	4
 3809 0ec4 DB       		.byte	-37
 3810 0ec5 04       		.byte	4
 3811 0ec6 DC       		.byte	-36
 3812 0ec7 33       		.byte	51
 3813 0ec8 DD       		.byte	-35
 3814 0ec9 93       		.byte	-109
 3815 0eca DF       		.byte	-33
 3816 0ecb 01       		.byte	1
 3817 0ecc E6       		.byte	-26
 3818 0ecd 40       		.byte	64
 3819 0ece E7       		.byte	-25
ARM GAS  C:\Users\cronos\AppData\Local\Temp\ccFFdJaf.s 			page 68


 3820 0ecf 02       		.byte	2
 3821 0ed0 E9       		.byte	-23
 3822 0ed1 10       		.byte	16
 3823 0ed2 EA       		.byte	-22
 3824 0ed3 30       		.byte	48
 3825 0ed4 EB       		.byte	-21
 3826 0ed5 10       		.byte	16
 3827 0ed6 ED       		.byte	-19
 3828 0ed7 10       		.byte	16
 3829 0ed8 EE       		.byte	-18
 3830 0ed9 10       		.byte	16
 3831 0eda EF       		.byte	-17
 3832 0edb 12       		.byte	18
 3833 0edc 00       		.byte	0
 3834 0edd 48       		.byte	72
 3835 0ede 02       		.byte	2
 3836 0edf 48       		.byte	72
 3837 0ee0 08       		.byte	8
 3838 0ee1 08       		.byte	8
 3839 0ee2 09       		.byte	9
 3840 0ee3 22       		.byte	34
 3841 0ee4 0B       		.byte	11
 3842 0ee5 01       		.byte	1
 3843 0ee6 0F       		.byte	15
 3844 0ee7 01       		.byte	1
 3845 0ee8 10       		.byte	16
 3846 0ee9 90       		.byte	-112
 3847 0eea 11       		.byte	17
 3848 0eeb 80       		.byte	-128
 3849 0eec 13       		.byte	19
 3850 0eed 20       		.byte	32
 3851 0eee 15       		.byte	21
 3852 0eef 18       		.byte	24
 3853 0ef0 16       		.byte	22
 3854 0ef1 40       		.byte	64
 3855 0ef2 18       		.byte	24
 3856 0ef3 40       		.byte	64
 3857 0ef4 19       		.byte	25
 3858 0ef5 15       		.byte	21
 3859 0ef6 1C       		.byte	28
 3860 0ef7 08       		.byte	8
 3861 0ef8 1F       		.byte	31
 3862 0ef9 0A       		.byte	10
 3863 0efa 20       		.byte	32
 3864 0efb 82       		.byte	-126
 3865 0efc 22       		.byte	34
 3866 0efd 24       		.byte	36
 3867 0efe 25       		.byte	37
 3868 0eff 48       		.byte	72
 3869 0f00 26       		.byte	38
 3870 0f01 C0       		.byte	-64
 3871 0f02 27       		.byte	39
 3872 0f03 08       		.byte	8
 3873 0f04 28       		.byte	40
 3874 0f05 08       		.byte	8
 3875 0f06 29       		.byte	41
 3876 0f07 01       		.byte	1
ARM GAS  C:\Users\cronos\AppData\Local\Temp\ccFFdJaf.s 			page 69


 3877 0f08 2A       		.byte	42
 3878 0f09 40       		.byte	64
 3879 0f0a 2B       		.byte	43
 3880 0f0b 4A       		.byte	74
 3881 0f0c 2F       		.byte	47
 3882 0f0d 22       		.byte	34
 3883 0f0e 30       		.byte	48
 3884 0f0f 11       		.byte	17
 3885 0f10 31       		.byte	49
 3886 0f11 14       		.byte	20
 3887 0f12 32       		.byte	50
 3888 0f13 88       		.byte	-120
 3889 0f14 35       		.byte	53
 3890 0f15 20       		.byte	32
 3891 0f16 36       		.byte	54
 3892 0f17 60       		.byte	96
 3893 0f18 38       		.byte	56
 3894 0f19 28       		.byte	40
 3895 0f1a 3A       		.byte	58
 3896 0f1b 82       		.byte	-126
 3897 0f1c 3D       		.byte	61
 3898 0f1d 10       		.byte	16
 3899 0f1e 3E       		.byte	62
 3900 0f1f 04       		.byte	4
 3901 0f20 3F       		.byte	63
 3902 0f21 01       		.byte	1
 3903 0f22 44       		.byte	68
 3904 0f23 08       		.byte	8
 3905 0f24 45       		.byte	69
 3906 0f25 02       		.byte	2
 3907 0f26 46       		.byte	70
 3908 0f27 80       		.byte	-128
 3909 0f28 47       		.byte	71
 3910 0f29 08       		.byte	8
 3911 0f2a 4D       		.byte	77
 3912 0f2b 20       		.byte	32
 3913 0f2c 4E       		.byte	78
 3914 0f2d 10       		.byte	16
 3915 0f2e 4F       		.byte	79
 3916 0f2f 80       		.byte	-128
 3917 0f30 57       		.byte	87
 3918 0f31 20       		.byte	32
 3919 0f32 5A       		.byte	90
 3920 0f33 08       		.byte	8
 3921 0f34 5C       		.byte	92
 3922 0f35 20       		.byte	32
 3923 0f36 5D       		.byte	93
 3924 0f37 80       		.byte	-128
 3925 0f38 64       		.byte	100
 3926 0f39 05       		.byte	5
 3927 0f3a 67       		.byte	103
 3928 0f3b 01       		.byte	1
 3929 0f3c 69       		.byte	105
 3930 0f3d 98       		.byte	-104
 3931 0f3e 6A       		.byte	106
 3932 0f3f 04       		.byte	4
 3933 0f40 70       		.byte	112
ARM GAS  C:\Users\cronos\AppData\Local\Temp\ccFFdJaf.s 			page 70


 3934 0f41 94       		.byte	-108
 3935 0f42 71       		.byte	113
 3936 0f43 20       		.byte	32
 3937 0f44 72       		.byte	114
 3938 0f45 02       		.byte	2
 3939 0f46 73       		.byte	115
 3940 0f47 20       		.byte	32
 3941 0f48 81       		.byte	-127
 3942 0f49 08       		.byte	8
 3943 0f4a 88       		.byte	-120
 3944 0f4b 01       		.byte	1
 3945 0f4c 89       		.byte	-119
 3946 0f4d 80       		.byte	-128
 3947 0f4e 8E       		.byte	-114
 3948 0f4f 10       		.byte	16
 3949 0f50 95       		.byte	-107
 3950 0f51 98       		.byte	-104
 3951 0f52 98       		.byte	-104
 3952 0f53 20       		.byte	32
 3953 0f54 9C       		.byte	-100
 3954 0f55 04       		.byte	4
 3955 0f56 A1       		.byte	-95
 3956 0f57 02       		.byte	2
 3957 0f58 A4       		.byte	-92
 3958 0f59 40       		.byte	64
 3959 0f5a A9       		.byte	-87
 3960 0f5b 20       		.byte	32
 3961 0f5c AC       		.byte	-84
 3962 0f5d 80       		.byte	-128
 3963 0f5e AD       		.byte	-83
 3964 0f5f 08       		.byte	8
 3965 0f60 AF       		.byte	-81
 3966 0f61 50       		.byte	80
 3967 0f62 B3       		.byte	-77
 3968 0f63 20       		.byte	32
 3969 0f64 B4       		.byte	-76
 3970 0f65 20       		.byte	32
 3971 0f66 C0       		.byte	-64
 3972 0f67 0F       		.byte	15
 3973 0f68 C2       		.byte	-62
 3974 0f69 8F       		.byte	-113
 3975 0f6a C4       		.byte	-60
 3976 0f6b 7F       		.byte	127
 3977 0f6c CA       		.byte	-54
 3978 0f6d 5D       		.byte	93
 3979 0f6e CC       		.byte	-52
 3980 0f6f 3F       		.byte	63
 3981 0f70 CE       		.byte	-50
 3982 0f71 EF       		.byte	-17
 3983 0f72 D0       		.byte	-48
 3984 0f73 E0       		.byte	-32
 3985 0f74 D2       		.byte	-46
 3986 0f75 30       		.byte	48
 3987 0f76 D6       		.byte	-42
 3988 0f77 32       		.byte	50
 3989 0f78 D8       		.byte	-40
 3990 0f79 30       		.byte	48
ARM GAS  C:\Users\cronos\AppData\Local\Temp\ccFFdJaf.s 			page 71


 3991 0f7a E2       		.byte	-30
 3992 0f7b C0       		.byte	-64
 3993 0f7c E4       		.byte	-28
 3994 0f7d 80       		.byte	-128
 3995 0f7e E8       		.byte	-24
 3996 0f7f 40       		.byte	64
 3997 0f80 EE       		.byte	-18
 3998 0f81 02       		.byte	2
 3999 0f82 30       		.byte	48
 4000 0f83 12       		.byte	18
 4001 0f84 35       		.byte	53
 4002 0f85 08       		.byte	8
 4003 0f86 36       		.byte	54
 4004 0f87 20       		.byte	32
 4005 0f88 38       		.byte	56
 4006 0f89 40       		.byte	64
 4007 0f8a CC       		.byte	-52
 4008 0f8b F0       		.byte	-16
 4009 0f8c CE       		.byte	-50
 4010 0f8d 10       		.byte	16
 4011 0f8e 0E       		.byte	14
 4012 0f8f 02       		.byte	2
 4013 0f90 30       		.byte	48
 4014 0f91 12       		.byte	18
 4015 0f92 37       		.byte	55
 4016 0f93 80       		.byte	-128
 4017 0f94 62       		.byte	98
 4018 0f95 08       		.byte	8
 4019 0f96 66       		.byte	102
 4020 0f97 08       		.byte	8
 4021 0f98 83       		.byte	-125
 4022 0f99 80       		.byte	-128
 4023 0f9a 86       		.byte	-122
 4024 0f9b 20       		.byte	32
 4025 0f9c 94       		.byte	-108
 4026 0f9d 40       		.byte	64
 4027 0f9e 9C       		.byte	-100
 4028 0f9f 10       		.byte	16
 4029 0fa0 9D       		.byte	-99
 4030 0fa1 08       		.byte	8
 4031 0fa2 A4       		.byte	-92
 4032 0fa3 02       		.byte	2
 4033 0fa4 A6       		.byte	-90
 4034 0fa5 20       		.byte	32
 4035 0fa6 C2       		.byte	-62
 4036 0fa7 80       		.byte	-128
 4037 0fa8 CC       		.byte	-52
 4038 0fa9 70       		.byte	112
 4039 0faa D8       		.byte	-40
 4040 0fab C0       		.byte	-64
 4041 0fac E2       		.byte	-30
 4042 0fad 80       		.byte	-128
 4043 0fae E6       		.byte	-26
 4044 0faf 40       		.byte	64
 4045 0fb0 06       		.byte	6
 4046 0fb1 20       		.byte	32
 4047 0fb2 57       		.byte	87
ARM GAS  C:\Users\cronos\AppData\Local\Temp\ccFFdJaf.s 			page 72


 4048 0fb3 04       		.byte	4
 4049 0fb4 80       		.byte	-128
 4050 0fb5 02       		.byte	2
 4051 0fb6 83       		.byte	-125
 4052 0fb7 04       		.byte	4
 4053 0fb8 94       		.byte	-108
 4054 0fb9 40       		.byte	64
 4055 0fba 9C       		.byte	-100
 4056 0fbb 10       		.byte	16
 4057 0fbc 9D       		.byte	-99
 4058 0fbd 08       		.byte	8
 4059 0fbe 9E       		.byte	-98
 4060 0fbf 08       		.byte	8
 4061 0fc0 A2       		.byte	-94
 4062 0fc1 01       		.byte	1
 4063 0fc2 A4       		.byte	-92
 4064 0fc3 02       		.byte	2
 4065 0fc4 A6       		.byte	-90
 4066 0fc5 08       		.byte	8
 4067 0fc6 C0       		.byte	-64
 4068 0fc7 20       		.byte	32
 4069 0fc8 D4       		.byte	-44
 4070 0fc9 40       		.byte	64
 4071 0fca E2       		.byte	-30
 4072 0fcb 20       		.byte	32
 4073 0fcc E6       		.byte	-26
 4074 0fcd 20       		.byte	32
 4075 0fce 91       		.byte	-111
 4076 0fcf 08       		.byte	8
 4077 0fd0 94       		.byte	-108
 4078 0fd1 40       		.byte	64
 4079 0fd2 9A       		.byte	-102
 4080 0fd3 20       		.byte	32
 4081 0fd4 9C       		.byte	-100
 4082 0fd5 10       		.byte	16
 4083 0fd6 9D       		.byte	-99
 4084 0fd7 08       		.byte	8
 4085 0fd8 9E       		.byte	-98
 4086 0fd9 08       		.byte	8
 4087 0fda A2       		.byte	-94
 4088 0fdb 01       		.byte	1
 4089 0fdc AE       		.byte	-82
 4090 0fdd 08       		.byte	8
 4091 0fde B1       		.byte	-79
 4092 0fdf 04       		.byte	4
 4093 0fe0 EA       		.byte	-22
 4094 0fe1 10       		.byte	16
 4095 0fe2 10       		.byte	16
 4096 0fe3 10       		.byte	16
 4097 0fe4 70       		.byte	112
 4098 0fe5 02       		.byte	2
 4099 0fe6 8C       		.byte	-116
 4100 0fe7 02       		.byte	2
 4101 0fe8 C4       		.byte	-60
 4102 0fe9 08       		.byte	8
 4103 0fea DC       		.byte	-36
 4104 0feb 01       		.byte	1
ARM GAS  C:\Users\cronos\AppData\Local\Temp\ccFFdJaf.s 			page 73


 4105 0fec E4       		.byte	-28
 4106 0fed 02       		.byte	2
 4107 0fee B0       		.byte	-80
 4108 0fef 10       		.byte	16
 4109 0ff0 EA       		.byte	-22
 4110 0ff1 04       		.byte	4
 4111 0ff2 06       		.byte	6
 4112 0ff3 02       		.byte	2
 4113 0ff4 51       		.byte	81
 4114 0ff5 04       		.byte	4
 4115 0ff6 81       		.byte	-127
 4116 0ff7 08       		.byte	8
 4117 0ff8 82       		.byte	-126
 4118 0ff9 08       		.byte	8
 4119 0ffa 88       		.byte	-120
 4120 0ffb 04       		.byte	4
 4121 0ffc 91       		.byte	-111
 4122 0ffd 08       		.byte	8
 4123 0ffe 94       		.byte	-108
 4124 0fff 40       		.byte	64
 4125 1000 9A       		.byte	-102
 4126 1001 20       		.byte	32
 4127 1002 9C       		.byte	-100
 4128 1003 10       		.byte	16
 4129 1004 9D       		.byte	-99
 4130 1005 08       		.byte	8
 4131 1006 9E       		.byte	-98
 4132 1007 08       		.byte	8
 4133 1008 B6       		.byte	-74
 4134 1009 01       		.byte	1
 4135 100a C0       		.byte	-64
 4136 100b 80       		.byte	-128
 4137 100c D4       		.byte	-44
 4138 100d 20       		.byte	32
 4139 100e E6       		.byte	-26
 4140 100f A0       		.byte	-96
 4141 1010 0C       		.byte	12
 4142 1011 04       		.byte	4
 4143 1012 20       		.byte	32
 4144 1013 40       		.byte	64
 4145 1014 5D       		.byte	93
 4146 1015 01       		.byte	1
 4147 1016 64       		.byte	100
 4148 1017 08       		.byte	8
 4149 1018 84       		.byte	-124
 4150 1019 08       		.byte	8
 4151 101a 85       		.byte	-123
 4152 101b 01       		.byte	1
 4153 101c 8A       		.byte	-118
 4154 101d 20       		.byte	32
 4155 101e 94       		.byte	-108
 4156 101f 40       		.byte	64
 4157 1020 9A       		.byte	-102
 4158 1021 20       		.byte	32
 4159 1022 9C       		.byte	-100
 4160 1023 04       		.byte	4
 4161 1024 AC       		.byte	-84
ARM GAS  C:\Users\cronos\AppData\Local\Temp\ccFFdJaf.s 			page 74


 4162 1025 10       		.byte	16
 4163 1026 B6       		.byte	-74
 4164 1027 02       		.byte	2
 4165 1028 C2       		.byte	-62
 4166 1029 20       		.byte	32
 4167 102a C8       		.byte	-56
 4168 102b 40       		.byte	64
 4169 102c D6       		.byte	-42
 4170 102d 80       		.byte	-128
 4171 102e D8       		.byte	-40
 4172 102f 80       		.byte	-128
 4173 1030 E2       		.byte	-30
 4174 1031 10       		.byte	16
 4175 1032 E6       		.byte	-26
 4176 1033 10       		.byte	16
 4177 1034 EE       		.byte	-18
 4178 1035 40       		.byte	64
 4179 1036 01       		.byte	1
 4180 1037 20       		.byte	32
 4181 1038 0E       		.byte	14
 4182 1039 08       		.byte	8
 4183 103a 53       		.byte	83
 4184 103b 10       		.byte	16
 4185 103c 62       		.byte	98
 4186 103d 02       		.byte	2
 4187 103e 82       		.byte	-126
 4188 103f 04       		.byte	4
 4189 1040 8B       		.byte	-117
 4190 1041 10       		.byte	16
 4191 1042 C0       		.byte	-64
 4192 1043 02       		.byte	2
 4193 1044 C2       		.byte	-62
 4194 1045 01       		.byte	1
 4195 1046 D4       		.byte	-44
 4196 1047 04       		.byte	4
 4197 1048 D8       		.byte	-40
 4198 1049 02       		.byte	2
 4199 104a E0       		.byte	-32
 4200 104b 04       		.byte	4
 4201 104c AD       		.byte	-83
 4202 104d 20       		.byte	32
 4203 104e B2       		.byte	-78
 4204 104f 02       		.byte	2
 4205 1050 EC       		.byte	-20
 4206 1051 04       		.byte	4
 4207 1052 00       		.byte	0
 4208 1053 7F       		.byte	127
 4209 1054 08       		.byte	8
 4210 1055 02       		.byte	2
 4211 1056 0A       		.byte	10
 4212 1057 1B       		.byte	27
 4213 1058 0C       		.byte	12
 4214 1059 6C       		.byte	108
 4215 105a 0E       		.byte	14
 4216 105b 6C       		.byte	108
 4217 105c 10       		.byte	16
 4218 105d 3D       		.byte	61
ARM GAS  C:\Users\cronos\AppData\Local\Temp\ccFFdJaf.s 			page 75


 4219 105e 11       		.byte	17
 4220 105f 01       		.byte	1
 4221 1060 1A       		.byte	26
 4222 1061 39       		.byte	57
 4223 1062 1C       		.byte	28
 4224 1063 2C       		.byte	44
 4225 1064 1D       		.byte	29
 4226 1065 01       		.byte	1
 4227 1066 00       		.byte	0
 4228 1067 FF       		.byte	-1
 4229 1068 01       		.byte	1
 4230 1069 FF       		.byte	-1
 4231 106a 00       		.byte	0
 4232 106b 00       		.byte	0
 4233 106c 00       		.byte	0
 4234 106d 00       		.byte	0
 4235 106e 22       		.byte	34
 4236 106f 4E       		.byte	78
 4237 1070 22       		.byte	34
 4238 1071 00       		.byte	0
 4239 1072 00       		.byte	0
 4240 1073 7E       		.byte	126
 4241 1074 01       		.byte	1
 4242 1075 00       		.byte	0
 4243 1076 E0       		.byte	-32
 4244 1077 0E       		.byte	14
 4245 1078 00       		.byte	0
 4246 1079 00       		.byte	0
 4247 107a 22       		.byte	34
 4248 107b 6E       		.byte	110
 4249 107c 00       		.byte	0
 4250 107d 0A       		.byte	10
 4251 107e 22       		.byte	34
 4252 107f 74       		.byte	116
 4253 1080 00       		.byte	0
 4254 1081 0E       		.byte	14
 4255 1082 22       		.byte	34
 4256 1083 70       		.byte	112
 4257 1084 00       		.byte	0
 4258 1085 01       		.byte	1
 4259 1086 A2       		.byte	-94
 4260 1087 7C       		.byte	124
 4261 1088 22       		.byte	34
 4262 1089 03       		.byte	3
 4263 108a 00       		.byte	0
 4264 108b 04       		.byte	4
 4265 108c 00       		.byte	0
 4266 108d 00       		.byte	0
 4267 108e C0       		.byte	-64
 4268 108f 7E       		.byte	126
 4269 1090 08       		.byte	8
 4270 1091 00       		.byte	0
 4271 1092 20       		.byte	32
 4272 1093 0E       		.byte	14
 4273 1094 04       		.byte	4
 4274 1095 04       		.byte	4
 4275 1096 20       		.byte	32
ARM GAS  C:\Users\cronos\AppData\Local\Temp\ccFFdJaf.s 			page 76


 4276 1097 7A       		.byte	122
 4277 1098 10       		.byte	16
 4278 1099 04       		.byte	4
 4279 109a 20       		.byte	32
 4280 109b 0A       		.byte	10
 4281 109c A0       		.byte	-96
 4282 109d 07       		.byte	7
 4283 109e 1F       		.byte	31
 4284 109f 48       		.byte	72
 4285 10a0 60       		.byte	96
 4286 10a1 18       		.byte	24
 4287 10a2 00       		.byte	0
 4288 10a3 28       		.byte	40
 4289 10a4 00       		.byte	0
 4290 10a5 00       		.byte	0
 4291 10a6 2E       		.byte	46
 4292 10a7 AA       		.byte	-86
 4293 10a8 00       		.byte	0
 4294 10a9 00       		.byte	0
 4295 10aa 00       		.byte	0
 4296 10ab 00       		.byte	0
 4297 10ac 36       		.byte	54
 4298 10ad 00       		.byte	0
 4299 10ae 00       		.byte	0
 4300 10af 00       		.byte	0
 4301 10b0 00       		.byte	0
 4302 10b1 20       		.byte	32
 4303 10b2 E0       		.byte	-32
 4304 10b3 5C       		.byte	92
 4305 10b4 3A       		.byte	58
 4306 10b5 FF       		.byte	-1
 4307 10b6 FF       		.byte	-1
 4308 10b7 FF       		.byte	-1
 4309 10b8 00       		.byte	0
 4310 10b9 AF       		.byte	-81
 4311 10ba 07       		.byte	7
 4312 10bb 01       		.byte	1
 4313 10bc 18       		.byte	24
 4314 10bd 00       		.byte	0
 4315 10be 80       		.byte	-128
 4316 10bf 00       		.byte	0
 4317 10c0 00       		.byte	0
 4318 10c1 00       		.byte	0
 4319 10c2 00       		.byte	0
 4320 10c3 00       		.byte	0
 4321 10c4 04       		.byte	4
 4322 10c5 04       		.byte	4
 4323 10c6 04       		.byte	4
 4324 10c7 04       		.byte	4
 4325 10c8 11       		.byte	17
 4326 10c9 11       		.byte	17
 4327 10ca 00       		.byte	0
 4328 10cb 01       		.byte	1
 4329 10cc 40       		.byte	64
 4330 10cd 00       		.byte	0
 4331 10ce 80       		.byte	-128
 4332 10cf 00       		.byte	0
ARM GAS  C:\Users\cronos\AppData\Local\Temp\ccFFdJaf.s 			page 77


 4333 10d0 40       		.byte	64
 4334 10d1 40       		.byte	64
 4335 10d2 80       		.byte	-128
 4336 10d3 00       		.byte	0
 4337 10d4 40       		.byte	64
 4338 10d5 00       		.byte	0
 4339 10d6 50       		.byte	80
 4340 10d7 A8       		.byte	-88
 4341 10d8 40       		.byte	64
 4342 10d9 20       		.byte	32
 4343 10da 50       		.byte	80
 4344 10db A8       		.byte	-88
 4345 10dc 00       		.byte	0
 4346 10dd 00       		.byte	0
 4347 10de 00       		.byte	0
 4348 10df 00       		.byte	0
 4349 10e0 00       		.byte	0
 4350 10e1 00       		.byte	0
 4351 10e2 00       		.byte	0
 4352 10e3 00       		.byte	0
 4353 10e4 00       		.byte	0
 4354 10e5 00       		.byte	0
 4355 10e6 00       		.byte	0
 4356 10e7 00       		.byte	0
 4357 10e8 00       		.byte	0
 4358 10e9 00       		.byte	0
 4359 10ea 00       		.byte	0
 4360 10eb 00       		.byte	0
 4361 10ec B0       		.byte	-80
 4362 10ed C0       		.byte	-64
 4363 10ee 00       		.byte	0
 4364 10ef 02       		.byte	2
 4365 10f0 80       		.byte	-128
 4366 10f1 80       		.byte	-128
 4367 10f2 30       		.byte	48
 4368 10f3 00       		.byte	0
 4369 10f4 0A       		.byte	10
 4370 10f5 7F       		.byte	127
 4371 10f6 71       		.byte	113
 4372 10f7 80       		.byte	-128
 4373 10f8 39       		.byte	57
 4374 10f9 1F       		.byte	31
 4375 10fa 42       		.byte	66
 4376 10fb 20       		.byte	32
 4377 10fc 06       		.byte	6
 4378 10fd 90       		.byte	-112
 4379 10fe 00       		.byte	0
 4380 10ff 40       		.byte	64
 4381 1100 49       		.byte	73
 4382 1101 00       		.byte	0
 4383 1102 34       		.byte	52
 4384 1103 FF       		.byte	-1
 4385 1104 90       		.byte	-112
 4386 1105 00       		.byte	0
 4387 1106 20       		.byte	32
 4388 1107 00       		.byte	0
 4389 1108 B0       		.byte	-80
ARM GAS  C:\Users\cronos\AppData\Local\Temp\ccFFdJaf.s 			page 78


 4390 1109 00       		.byte	0
 4391 110a 00       		.byte	0
 4392 110b 60       		.byte	96
 4393 110c 30       		.byte	48
 4394 110d C0       		.byte	-64
 4395 110e 80       		.byte	-128
 4396 110f 01       		.byte	1
 4397 1110 10       		.byte	16
 4398 1111 C0       		.byte	-64
 4399 1112 00       		.byte	0
 4400 1113 04       		.byte	4
 4401 1114 20       		.byte	32
 4402 1115 C0       		.byte	-64
 4403 1116 00       		.byte	0
 4404 1117 08       		.byte	8
 4405 1118 00       		.byte	0
 4406 1119 00       		.byte	0
 4407 111a 80       		.byte	-128
 4408 111b 9F       		.byte	-97
 4409 111c 07       		.byte	7
 4410 111d 00       		.byte	0
 4411 111e 78       		.byte	120
 4412 111f 00       		.byte	0
 4413 1120 80       		.byte	-128
 4414 1121 FF       		.byte	-1
 4415 1122 00       		.byte	0
 4416 1123 00       		.byte	0
 4417 1124 0A       		.byte	10
 4418 1125 08       		.byte	8
 4419 1126 00       		.byte	0
 4420 1127 00       		.byte	0
 4421 1128 00       		.byte	0
 4422 1129 00       		.byte	0
 4423 112a 10       		.byte	16
 4424 112b 10       		.byte	16
 4425 112c 36       		.byte	54
 4426 112d 05       		.byte	5
 4427 112e 20       		.byte	32
 4428 112f 00       		.byte	0
 4429 1130 04       		.byte	4
 4430 1131 0E       		.byte	14
 4431 1132 FB       		.byte	-5
 4432 1133 DC       		.byte	-36
 4433 1134 3D       		.byte	61
 4434 1135 FF       		.byte	-1
 4435 1136 FF       		.byte	-1
 4436 1137 FF       		.byte	-1
 4437 1138 22       		.byte	34
 4438 1139 00       		.byte	0
 4439 113a F0       		.byte	-16
 4440 113b 08       		.byte	8
 4441 113c 04       		.byte	4
 4442 113d 00       		.byte	0
 4443 113e 00       		.byte	0
 4444 113f 00       		.byte	0
 4445 1140 40       		.byte	64
 4446 1141 00       		.byte	0
ARM GAS  C:\Users\cronos\AppData\Local\Temp\ccFFdJaf.s 			page 79


 4447 1142 00       		.byte	0
 4448 1143 00       		.byte	0
 4449 1144 04       		.byte	4
 4450 1145 04       		.byte	4
 4451 1146 04       		.byte	4
 4452 1147 04       		.byte	4
 4453 1148 10       		.byte	16
 4454 1149 00       		.byte	0
 4455 114a 00       		.byte	0
 4456 114b 01       		.byte	1
 4457 114c 00       		.byte	0
 4458 114d 00       		.byte	0
 4459 114e C0       		.byte	-64
 4460 114f 00       		.byte	0
 4461 1150 40       		.byte	64
 4462 1151 01       		.byte	1
 4463 1152 10       		.byte	16
 4464 1153 11       		.byte	17
 4465 1154 C0       		.byte	-64
 4466 1155 01       		.byte	1
 4467 1156 00       		.byte	0
 4468 1157 11       		.byte	17
 4469 1158 40       		.byte	64
 4470 1159 01       		.byte	1
 4471 115a 40       		.byte	64
 4472 115b 01       		.byte	1
 4473 115c 00       		.byte	0
 4474 115d 00       		.byte	0
 4475 115e 00       		.byte	0
 4476 115f 00       		.byte	0
 4477 1160 00       		.byte	0
 4478 1161 00       		.byte	0
 4479 1162 00       		.byte	0
 4480 1163 00       		.byte	0
 4481 1164 00       		.byte	0
 4482 1165 00       		.byte	0
 4483 1166 00       		.byte	0
 4484 1167 00       		.byte	0
 4485 1168 00       		.byte	0
 4486 1169 00       		.byte	0
 4487 116a 00       		.byte	0
 4488 116b 00       		.byte	0
 4489 116c 1D       		.byte	29
 4490 116d 00       		.byte	0
 4491 116e 00       		.byte	0
 4492 116f 00       		.byte	0
 4493 1170 02       		.byte	2
 4494 1171 00       		.byte	0
 4495 1172 A4       		.byte	-92
 4496 1173 00       		.byte	0
 4497 1174 C2       		.byte	-62
 4498 1175 00       		.byte	0
 4499 1176 08       		.byte	8
 4500 1177 00       		.byte	0
 4501 1178 1D       		.byte	29
 4502 1179 01       		.byte	1
 4503 117a 00       		.byte	0
ARM GAS  C:\Users\cronos\AppData\Local\Temp\ccFFdJaf.s 			page 80


 4504 117b 06       		.byte	6
 4505 117c 01       		.byte	1
 4506 117d 00       		.byte	0
 4507 117e 62       		.byte	98
 4508 117f 00       		.byte	0
 4509 1180 02       		.byte	2
 4510 1181 03       		.byte	3
 4511 1182 0D       		.byte	13
 4512 1183 04       		.byte	4
 4513 1184 1D       		.byte	29
 4514 1185 05       		.byte	5
 4515 1186 00       		.byte	0
 4516 1187 02       		.byte	2
 4517 1188 00       		.byte	0
 4518 1189 04       		.byte	4
 4519 118a 20       		.byte	32
 4520 118b 03       		.byte	3
 4521 118c 0D       		.byte	13
 4522 118d 00       		.byte	0
 4523 118e 10       		.byte	16
 4524 118f 00       		.byte	0
 4525 1190 00       		.byte	0
 4526 1191 00       		.byte	0
 4527 1192 00       		.byte	0
 4528 1193 00       		.byte	0
 4529 1194 1D       		.byte	29
 4530 1195 00       		.byte	0
 4531 1196 00       		.byte	0
 4532 1197 00       		.byte	0
 4533 1198 00       		.byte	0
 4534 1199 00       		.byte	0
 4535 119a 00       		.byte	0
 4536 119b 00       		.byte	0
 4537 119c 00       		.byte	0
 4538 119d 00       		.byte	0
 4539 119e 0F       		.byte	15
 4540 119f 00       		.byte	0
 4541 11a0 10       		.byte	16
 4542 11a1 00       		.byte	0
 4543 11a2 E0       		.byte	-32
 4544 11a3 07       		.byte	7
 4545 11a4 00       		.byte	0
 4546 11a5 00       		.byte	0
 4547 11a6 08       		.byte	8
 4548 11a7 80       		.byte	-128
 4549 11a8 00       		.byte	0
 4550 11a9 00       		.byte	0
 4551 11aa 10       		.byte	16
 4552 11ab 00       		.byte	0
 4553 11ac 63       		.byte	99
 4554 11ad 04       		.byte	4
 4555 11ae 20       		.byte	32
 4556 11af 00       		.byte	0
 4557 11b0 05       		.byte	5
 4558 11b1 0E       		.byte	14
 4559 11b2 DC       		.byte	-36
 4560 11b3 BF       		.byte	-65
ARM GAS  C:\Users\cronos\AppData\Local\Temp\ccFFdJaf.s 			page 81


 4561 11b4 3D       		.byte	61
 4562 11b5 FF       		.byte	-1
 4563 11b6 FF       		.byte	-1
 4564 11b7 FF       		.byte	-1
 4565 11b8 22       		.byte	34
 4566 11b9 00       		.byte	0
 4567 11ba F0       		.byte	-16
 4568 11bb 08       		.byte	8
 4569 11bc 04       		.byte	4
 4570 11bd 00       		.byte	0
 4571 11be 00       		.byte	0
 4572 11bf 00       		.byte	0
 4573 11c0 00       		.byte	0
 4574 11c1 00       		.byte	0
 4575 11c2 02       		.byte	2
 4576 11c3 20       		.byte	32
 4577 11c4 04       		.byte	4
 4578 11c5 04       		.byte	4
 4579 11c6 04       		.byte	4
 4580 11c7 04       		.byte	4
 4581 11c8 00       		.byte	0
 4582 11c9 04       		.byte	4
 4583 11ca 00       		.byte	0
 4584 11cb 01       		.byte	1
 4585 11cc 00       		.byte	0
 4586 11cd 00       		.byte	0
 4587 11ce C0       		.byte	-64
 4588 11cf 00       		.byte	0
 4589 11d0 40       		.byte	64
 4590 11d1 01       		.byte	1
 4591 11d2 10       		.byte	16
 4592 11d3 11       		.byte	17
 4593 11d4 C0       		.byte	-64
 4594 11d5 01       		.byte	1
 4595 11d6 00       		.byte	0
 4596 11d7 11       		.byte	17
 4597 11d8 40       		.byte	64
 4598 11d9 01       		.byte	1
 4599 11da 40       		.byte	64
 4600 11db 01       		.byte	1
 4601 11dc 00       		.byte	0
 4602 11dd 00       		.byte	0
 4603 11de 00       		.byte	0
 4604 11df 00       		.byte	0
 4605 11e0 00       		.byte	0
 4606 11e1 00       		.byte	0
 4607 11e2 00       		.byte	0
 4608 11e3 00       		.byte	0
 4609 11e4 00       		.byte	0
 4610 11e5 00       		.byte	0
 4611 11e6 00       		.byte	0
 4612 11e7 00       		.byte	0
 4613 11e8 00       		.byte	0
 4614 11e9 00       		.byte	0
 4615 11ea 00       		.byte	0
 4616 11eb 00       		.byte	0
 4617 11ec 22       		.byte	34
ARM GAS  C:\Users\cronos\AppData\Local\Temp\ccFFdJaf.s 			page 82


 4618 11ed D9       		.byte	-39
 4619 11ee 50       		.byte	80
 4620 11ef 00       		.byte	0
 4621 11f0 50       		.byte	80
 4622 11f1 D9       		.byte	-39
 4623 11f2 22       		.byte	34
 4624 11f3 00       		.byte	0
 4625 11f4 63       		.byte	99
 4626 11f5 20       		.byte	32
 4627 11f6 0C       		.byte	12
 4628 11f7 D0       		.byte	-48
 4629 11f8 72       		.byte	114
 4630 11f9 08       		.byte	8
 4631 11fa 00       		.byte	0
 4632 11fb 04       		.byte	4
 4633 11fc 22       		.byte	34
 4634 11fd D8       		.byte	-40
 4635 11fe 00       		.byte	0
 4636 11ff 01       		.byte	1
 4637 1200 01       		.byte	1
 4638 1201 00       		.byte	0
 4639 1202 74       		.byte	116
 4640 1203 00       		.byte	0
 4641 1204 72       		.byte	114
 4642 1205 24       		.byte	36
 4643 1206 00       		.byte	0
 4644 1207 49       		.byte	73
 4645 1208 23       		.byte	35
 4646 1209 00       		.byte	0
 4647 120a 58       		.byte	88
 4648 120b 00       		.byte	0
 4649 120c 72       		.byte	114
 4650 120d 2E       		.byte	46
 4651 120e 00       		.byte	0
 4652 120f 81       		.byte	-127
 4653 1210 00       		.byte	0
 4654 1211 11       		.byte	17
 4655 1212 00       		.byte	0
 4656 1213 22       		.byte	34
 4657 1214 00       		.byte	0
 4658 1215 D1       		.byte	-47
 4659 1216 00       		.byte	0
 4660 1217 08       		.byte	8
 4661 1218 00       		.byte	0
 4662 1219 D9       		.byte	-39
 4663 121a 00       		.byte	0
 4664 121b 00       		.byte	0
 4665 121c 00       		.byte	0
 4666 121d 00       		.byte	0
 4667 121e 1F       		.byte	31
 4668 121f 00       		.byte	0
 4669 1220 60       		.byte	96
 4670 1221 F0       		.byte	-16
 4671 1222 00       		.byte	0
 4672 1223 0F       		.byte	15
 4673 1224 08       		.byte	8
 4674 1225 00       		.byte	0
ARM GAS  C:\Users\cronos\AppData\Local\Temp\ccFFdJaf.s 			page 83


 4675 1226 00       		.byte	0
 4676 1227 E0       		.byte	-32
 4677 1228 00       		.byte	0
 4678 1229 00       		.byte	0
 4679 122a 00       		.byte	0
 4680 122b 00       		.byte	0
 4681 122c 34       		.byte	52
 4682 122d 02       		.byte	2
 4683 122e 10       		.byte	16
 4684 122f 00       		.byte	0
 4685 1230 05       		.byte	5
 4686 1231 BE       		.byte	-66
 4687 1232 FC       		.byte	-4
 4688 1233 0D       		.byte	13
 4689 1234 1F       		.byte	31
 4690 1235 FF       		.byte	-1
 4691 1236 FF       		.byte	-1
 4692 1237 FF       		.byte	-1
 4693 1238 22       		.byte	34
 4694 1239 00       		.byte	0
 4695 123a F0       		.byte	-16
 4696 123b 0C       		.byte	12
 4697 123c 04       		.byte	4
 4698 123d 00       		.byte	0
 4699 123e 00       		.byte	0
 4700 123f 00       		.byte	0
 4701 1240 00       		.byte	0
 4702 1241 00       		.byte	0
 4703 1242 02       		.byte	2
 4704 1243 24       		.byte	36
 4705 1244 04       		.byte	4
 4706 1245 04       		.byte	4
 4707 1246 04       		.byte	4
 4708 1247 04       		.byte	4
 4709 1248 55       		.byte	85
 4710 1249 55       		.byte	85
 4711 124a 00       		.byte	0
 4712 124b 01       		.byte	1
 4713 124c 00       		.byte	0
 4714 124d 00       		.byte	0
 4715 124e C0       		.byte	-64
 4716 124f 00       		.byte	0
 4717 1250 40       		.byte	64
 4718 1251 01       		.byte	1
 4719 1252 10       		.byte	16
 4720 1253 11       		.byte	17
 4721 1254 C0       		.byte	-64
 4722 1255 01       		.byte	1
 4723 1256 00       		.byte	0
 4724 1257 11       		.byte	17
 4725 1258 40       		.byte	64
 4726 1259 01       		.byte	1
 4727 125a 40       		.byte	64
 4728 125b 01       		.byte	1
 4729 125c 00       		.byte	0
 4730 125d 00       		.byte	0
 4731 125e 00       		.byte	0
ARM GAS  C:\Users\cronos\AppData\Local\Temp\ccFFdJaf.s 			page 84


 4732 125f 00       		.byte	0
 4733 1260 00       		.byte	0
 4734 1261 00       		.byte	0
 4735 1262 00       		.byte	0
 4736 1263 00       		.byte	0
 4737 1264 00       		.byte	0
 4738 1265 00       		.byte	0
 4739 1266 00       		.byte	0
 4740 1267 00       		.byte	0
 4741 1268 00       		.byte	0
 4742 1269 00       		.byte	0
 4743 126a 00       		.byte	0
 4744 126b 00       		.byte	0
 4745 126c 02       		.byte	2
 4746 126d 00       		.byte	0
 4747 126e 80       		.byte	-128
 4748 126f 62       		.byte	98
 4749 1270 62       		.byte	98
 4750 1271 00       		.byte	0
 4751 1272 60       		.byte	96
 4752 1273 00       		.byte	0
 4753 1274 00       		.byte	0
 4754 1275 00       		.byte	0
 4755 1276 00       		.byte	0
 4756 1277 00       		.byte	0
 4757 1278 3C       		.byte	60
 4758 1279 00       		.byte	0
 4759 127a 00       		.byte	0
 4760 127b 3C       		.byte	60
 4761 127c 24       		.byte	36
 4762 127d 00       		.byte	0
 4763 127e 24       		.byte	36
 4764 127f 00       		.byte	0
 4765 1280 00       		.byte	0
 4766 1281 00       		.byte	0
 4767 1282 00       		.byte	0
 4768 1283 00       		.byte	0
 4769 1284 0C       		.byte	12
 4770 1285 00       		.byte	0
 4771 1286 00       		.byte	0
 4772 1287 0C       		.byte	12
 4773 1288 04       		.byte	4
 4774 1289 00       		.byte	0
 4775 128a 04       		.byte	4
 4776 128b 00       		.byte	0
 4777 128c 00       		.byte	0
 4778 128d 00       		.byte	0
 4779 128e 00       		.byte	0
 4780 128f 00       		.byte	0
 4781 1290 E0       		.byte	-32
 4782 1291 00       		.byte	0
 4783 1292 04       		.byte	4
 4784 1293 FB       		.byte	-5
 4785 1294 7B       		.byte	123
 4786 1295 00       		.byte	0
 4787 1296 18       		.byte	24
 4788 1297 00       		.byte	0
ARM GAS  C:\Users\cronos\AppData\Local\Temp\ccFFdJaf.s 			page 85


 4789 1298 00       		.byte	0
 4790 1299 00       		.byte	0
 4791 129a 00       		.byte	0
 4792 129b 00       		.byte	0
 4793 129c 00       		.byte	0
 4794 129d 02       		.byte	2
 4795 129e 02       		.byte	2
 4796 129f 00       		.byte	0
 4797 12a0 00       		.byte	0
 4798 12a1 00       		.byte	0
 4799 12a2 00       		.byte	0
 4800 12a3 00       		.byte	0
 4801 12a4 18       		.byte	24
 4802 12a5 00       		.byte	0
 4803 12a6 20       		.byte	32
 4804 12a7 DC       		.byte	-36
 4805 12a8 D4       		.byte	-44
 4806 12a9 00       		.byte	0
 4807 12aa C0       		.byte	-64
 4808 12ab 00       		.byte	0
 4809 12ac 00       		.byte	0
 4810 12ad 00       		.byte	0
 4811 12ae 00       		.byte	0
 4812 12af 00       		.byte	0
 4813              		.section	.cywolatch,"a",%progbits
 4814              		.align	2
 4815              		.type	cy_meta_wonvl, %object
 4816              		.size	cy_meta_wonvl, 4
 4817              	cy_meta_wonvl:
 4818 0000 BC       		.byte	-68
 4819 0001 90       		.byte	-112
 4820 0002 AC       		.byte	-84
 4821 0003 AF       		.byte	-81
 4822              		.section	.cycustnvl,"a",%progbits
 4823              		.align	2
 4824              		.type	cy_meta_custnvl, %object
 4825              		.size	cy_meta_custnvl, 4
 4826              	cy_meta_custnvl:
 4827 0000 00       		.byte	0
 4828 0001 00       		.byte	0
 4829 0002 40       		.byte	64
 4830 0003 05       		.byte	5
 4831              		.section	.cymeta,"a",%progbits
 4832              		.align	2
 4833              		.type	cy_metadata, %object
 4834              		.size	cy_metadata, 12
 4835              	cy_metadata:
 4836 0000 00       		.byte	0
 4837 0001 01       		.byte	1
 4838 0002 2E       		.byte	46
 4839 0003 16       		.byte	22
 4840 0004 10       		.byte	16
 4841 0005 69       		.byte	105
 4842 0006 00       		.byte	0
 4843 0007 01       		.byte	1
 4844 0008 00       		.byte	0
 4845 0009 00       		.byte	0
ARM GAS  C:\Users\cronos\AppData\Local\Temp\ccFFdJaf.s 			page 86


 4846 000a 00       		.byte	0
 4847 000b 00       		.byte	0
 4848              		.section	.cyflashprotect,"a",%progbits
 4849              		.align	2
 4850              		.type	cy_meta_flashprotect, %object
 4851              		.size	cy_meta_flashprotect, 256
 4852              	cy_meta_flashprotect:
 4853 0000 00000000 		.space	256
 4853      00000000 
 4853      00000000 
 4853      00000000 
 4853      00000000 
 4854              		.text
 4855              	.Letext0:
 4856              		.file 1 "c:\\program files (x86)\\cypress\\psoc creator\\4.2\\psoc creator\\import\\gnu\\arm\\5.4.
 4857              		.file 2 "c:\\program files (x86)\\cypress\\psoc creator\\4.2\\psoc creator\\import\\gnu\\arm\\5.4.
 4858              		.file 3 "Generated_Source\\PSoC5\\cymetadata.c"
