ARM GAS  C:\Users\cronos\AppData\Local\Temp\ccEnU7Jv.s 			page 1


   1              		.syntax unified
   2              		.cpu cortex-m3
   3              		.fpu softvfp
   4              		.eabi_attribute 20, 1
   5              		.eabi_attribute 21, 1
   6              		.eabi_attribute 23, 3
   7              		.eabi_attribute 24, 1
   8              		.eabi_attribute 25, 1
   9              		.eabi_attribute 26, 1
  10              		.eabi_attribute 30, 1
  11              		.eabi_attribute 34, 1
  12              		.eabi_attribute 18, 4
  13              		.thumb
  14              		.syntax unified
  15              		.file	"UART_GPS_BOOT.c"
  16              		.text
  17              	.Ltext0:
  18              		.cfi_sections	.debug_frame
  19              	.Letext0:
  20              		.section	.debug_info,"",%progbits
  21              	.Ldebug_info0:
  22 0000 83000000 		.4byte	0x83
  23 0004 0400     		.2byte	0x4
  24 0006 00000000 		.4byte	.Ldebug_abbrev0
  25 000a 04       		.byte	0x4
  26 000b 01       		.uleb128 0x1
  27 000c 7D000000 		.4byte	.LASF14
  28 0010 0C       		.byte	0xc
  29 0011 56000000 		.4byte	.LASF15
  30 0015 1B000000 		.4byte	.LASF16
  31 0019 00000000 		.4byte	.Ldebug_line0
  32 001d 02       		.uleb128 0x2
  33 001e 01       		.byte	0x1
  34 001f 06       		.byte	0x6
  35 0020 70010000 		.4byte	.LASF0
  36 0024 02       		.uleb128 0x2
  37 0025 01       		.byte	0x1
  38 0026 08       		.byte	0x8
  39 0027 3A010000 		.4byte	.LASF1
  40 002b 02       		.uleb128 0x2
  41 002c 02       		.byte	0x2
  42 002d 05       		.byte	0x5
  43 002e 88010000 		.4byte	.LASF2
  44 0032 02       		.uleb128 0x2
  45 0033 02       		.byte	0x2
  46 0034 07       		.byte	0x7
  47 0035 5D010000 		.4byte	.LASF3
  48 0039 02       		.uleb128 0x2
  49 003a 04       		.byte	0x4
  50 003b 05       		.byte	0x5
  51 003c 4D010000 		.4byte	.LASF4
  52 0040 02       		.uleb128 0x2
  53 0041 04       		.byte	0x4
  54 0042 07       		.byte	0x7
  55 0043 0B010000 		.4byte	.LASF5
  56 0047 02       		.uleb128 0x2
  57 0048 08       		.byte	0x8
ARM GAS  C:\Users\cronos\AppData\Local\Temp\ccEnU7Jv.s 			page 2


  58 0049 05       		.byte	0x5
  59 004a 00000000 		.4byte	.LASF6
  60 004e 02       		.uleb128 0x2
  61 004f 08       		.byte	0x8
  62 0050 07       		.byte	0x7
  63 0051 1D010000 		.4byte	.LASF7
  64 0055 03       		.uleb128 0x3
  65 0056 04       		.byte	0x4
  66 0057 05       		.byte	0x5
  67 0058 696E7400 		.ascii	"int\000"
  68 005c 02       		.uleb128 0x2
  69 005d 04       		.byte	0x4
  70 005e 07       		.byte	0x7
  71 005f 0E000000 		.4byte	.LASF8
  72 0063 02       		.uleb128 0x2
  73 0064 04       		.byte	0x4
  74 0065 04       		.byte	0x4
  75 0066 34010000 		.4byte	.LASF9
  76 006a 02       		.uleb128 0x2
  77 006b 08       		.byte	0x8
  78 006c 04       		.byte	0x4
  79 006d 56010000 		.4byte	.LASF10
  80 0071 02       		.uleb128 0x2
  81 0072 01       		.byte	0x1
  82 0073 08       		.byte	0x8
  83 0074 48010000 		.4byte	.LASF11
  84 0078 02       		.uleb128 0x2
  85 0079 08       		.byte	0x8
  86 007a 04       		.byte	0x4
  87 007b 7C010000 		.4byte	.LASF12
  88 007f 02       		.uleb128 0x2
  89 0080 04       		.byte	0x4
  90 0081 07       		.byte	0x7
  91 0082 92010000 		.4byte	.LASF13
  92 0086 00       		.byte	0
  93              		.section	.debug_abbrev,"",%progbits
  94              	.Ldebug_abbrev0:
  95 0000 01       		.uleb128 0x1
  96 0001 11       		.uleb128 0x11
  97 0002 01       		.byte	0x1
  98 0003 25       		.uleb128 0x25
  99 0004 0E       		.uleb128 0xe
 100 0005 13       		.uleb128 0x13
 101 0006 0B       		.uleb128 0xb
 102 0007 03       		.uleb128 0x3
 103 0008 0E       		.uleb128 0xe
 104 0009 1B       		.uleb128 0x1b
 105 000a 0E       		.uleb128 0xe
 106 000b 10       		.uleb128 0x10
 107 000c 17       		.uleb128 0x17
 108 000d 00       		.byte	0
 109 000e 00       		.byte	0
 110 000f 02       		.uleb128 0x2
 111 0010 24       		.uleb128 0x24
 112 0011 00       		.byte	0
 113 0012 0B       		.uleb128 0xb
 114 0013 0B       		.uleb128 0xb
ARM GAS  C:\Users\cronos\AppData\Local\Temp\ccEnU7Jv.s 			page 3


 115 0014 3E       		.uleb128 0x3e
 116 0015 0B       		.uleb128 0xb
 117 0016 03       		.uleb128 0x3
 118 0017 0E       		.uleb128 0xe
 119 0018 00       		.byte	0
 120 0019 00       		.byte	0
 121 001a 03       		.uleb128 0x3
 122 001b 24       		.uleb128 0x24
 123 001c 00       		.byte	0
 124 001d 0B       		.uleb128 0xb
 125 001e 0B       		.uleb128 0xb
 126 001f 3E       		.uleb128 0x3e
 127 0020 0B       		.uleb128 0xb
 128 0021 03       		.uleb128 0x3
 129 0022 08       		.uleb128 0x8
 130 0023 00       		.byte	0
 131 0024 00       		.byte	0
 132 0025 00       		.byte	0
 133              		.section	.debug_aranges,"",%progbits
 134 0000 14000000 		.4byte	0x14
 135 0004 0200     		.2byte	0x2
 136 0006 00000000 		.4byte	.Ldebug_info0
 137 000a 04       		.byte	0x4
 138 000b 00       		.byte	0
 139 000c 0000     		.2byte	0
 140 000e 0000     		.2byte	0
 141 0010 00000000 		.4byte	0
 142 0014 00000000 		.4byte	0
 143              		.section	.debug_line,"",%progbits
 144              	.Ldebug_line0:
 145 0000 19000000 		.section	.debug_str,"MS",%progbits,1
 145      02001300 
 145      00000201 
 145      FB0E0D00 
 145      01010101 
 146              	.LASF6:
 147 0000 6C6F6E67 		.ascii	"long long int\000"
 147      206C6F6E 
 147      6720696E 
 147      7400
 148              	.LASF8:
 149 000e 756E7369 		.ascii	"unsigned int\000"
 149      676E6564 
 149      20696E74 
 149      00
 150              	.LASF16:
 151 001b 443A5C44 		.ascii	"D:\\Dropbox\\Public\\PSoC_Creator\\GPS_Logger\\GPS_"
 151      726F7062 
 151      6F785C50 
 151      75626C69 
 151      635C5053 
 152 0049 4C6F6767 		.ascii	"Logger.cydsn\000"
 152      65722E63 
 152      7964736E 
 152      00
 153              	.LASF15:
 154 0056 47656E65 		.ascii	"Generated_Source\\PSoC5\\UART_GPS_BOOT.c\000"
ARM GAS  C:\Users\cronos\AppData\Local\Temp\ccEnU7Jv.s 			page 4


 154      72617465 
 154      645F536F 
 154      75726365 
 154      5C50536F 
 155              	.LASF14:
 156 007d 474E5520 		.ascii	"GNU C11 5.4.1 20160609 (release) [ARM/embedded-5-br"
 156      43313120 
 156      352E342E 
 156      31203230 
 156      31363036 
 157 00b0 616E6368 		.ascii	"anch revision 237715] -mcpu=cortex-m3 -mthumb -g -O"
 157      20726576 
 157      6973696F 
 157      6E203233 
 157      37373135 
 158 00e3 67202D66 		.ascii	"g -ffunction-sections -ffat-lto-objects\000"
 158      66756E63 
 158      74696F6E 
 158      2D736563 
 158      74696F6E 
 159              	.LASF5:
 160 010b 6C6F6E67 		.ascii	"long unsigned int\000"
 160      20756E73 
 160      69676E65 
 160      6420696E 
 160      7400
 161              	.LASF7:
 162 011d 6C6F6E67 		.ascii	"long long unsigned int\000"
 162      206C6F6E 
 162      6720756E 
 162      7369676E 
 162      65642069 
 163              	.LASF9:
 164 0134 666C6F61 		.ascii	"float\000"
 164      7400
 165              	.LASF1:
 166 013a 756E7369 		.ascii	"unsigned char\000"
 166      676E6564 
 166      20636861 
 166      7200
 167              	.LASF11:
 168 0148 63686172 		.ascii	"char\000"
 168      00
 169              	.LASF4:
 170 014d 6C6F6E67 		.ascii	"long int\000"
 170      20696E74 
 170      00
 171              	.LASF10:
 172 0156 646F7562 		.ascii	"double\000"
 172      6C6500
 173              	.LASF3:
 174 015d 73686F72 		.ascii	"short unsigned int\000"
 174      7420756E 
 174      7369676E 
 174      65642069 
 174      6E7400
 175              	.LASF0:
ARM GAS  C:\Users\cronos\AppData\Local\Temp\ccEnU7Jv.s 			page 5


 176 0170 7369676E 		.ascii	"signed char\000"
 176      65642063 
 176      68617200 
 177              	.LASF12:
 178 017c 6C6F6E67 		.ascii	"long double\000"
 178      20646F75 
 178      626C6500 
 179              	.LASF2:
 180 0188 73686F72 		.ascii	"short int\000"
 180      7420696E 
 180      7400
 181              	.LASF13:
 182 0192 73697A65 		.ascii	"sizetype\000"
 182      74797065 
 182      00
 183              		.ident	"GCC: (GNU Tools for ARM Embedded Processors) 5.4.1 20160609 (release) [ARM/embedded-5-bran
