ARM GAS  C:\Users\cronos\AppData\Local\Temp\ccrntx0f.s 			page 1


   1              		.syntax unified
   2              		.cpu cortex-m3
   3              		.fpu softvfp
   4              		.eabi_attribute 20, 1
   5              		.eabi_attribute 21, 1
   6              		.eabi_attribute 23, 3
   7              		.eabi_attribute 24, 1
   8              		.eabi_attribute 25, 1
   9              		.eabi_attribute 26, 1
  10              		.eabi_attribute 30, 1
  11              		.eabi_attribute 34, 1
  12              		.eabi_attribute 18, 4
  13              		.thumb
  14              		.syntax unified
  15              		.file	"UART_GPS.c"
  16              		.text
  17              	.Ltext0:
  18              		.cfi_sections	.debug_frame
  19              		.section	.text.UART_GPS_Init,"ax",%progbits
  20              		.align	2
  21              		.global	UART_GPS_Init
  22              		.thumb
  23              		.thumb_func
  24              		.type	UART_GPS_Init, %function
  25              	UART_GPS_Init:
  26              	.LFB1:
  27              		.file 1 "Generated_Source\\PSoC5\\UART_GPS.c"
   1:Generated_Source\PSoC5/UART_GPS.c **** /*******************************************************************************
   2:Generated_Source\PSoC5/UART_GPS.c **** * File Name: UART_GPS.c
   3:Generated_Source\PSoC5/UART_GPS.c **** * Version 2.50
   4:Generated_Source\PSoC5/UART_GPS.c **** *
   5:Generated_Source\PSoC5/UART_GPS.c **** * Description:
   6:Generated_Source\PSoC5/UART_GPS.c **** *  This file provides all API functionality of the UART component
   7:Generated_Source\PSoC5/UART_GPS.c **** *
   8:Generated_Source\PSoC5/UART_GPS.c **** * Note:
   9:Generated_Source\PSoC5/UART_GPS.c **** *
  10:Generated_Source\PSoC5/UART_GPS.c **** ********************************************************************************
  11:Generated_Source\PSoC5/UART_GPS.c **** * Copyright 2008-2015, Cypress Semiconductor Corporation.  All rights reserved.
  12:Generated_Source\PSoC5/UART_GPS.c **** * You may use this file only in accordance with the license, terms, conditions,
  13:Generated_Source\PSoC5/UART_GPS.c **** * disclaimers, and limitations in the end user license agreement accompanying
  14:Generated_Source\PSoC5/UART_GPS.c **** * the software package with which this file was provided.
  15:Generated_Source\PSoC5/UART_GPS.c **** *******************************************************************************/
  16:Generated_Source\PSoC5/UART_GPS.c **** 
  17:Generated_Source\PSoC5/UART_GPS.c **** #include "UART_GPS.h"
  18:Generated_Source\PSoC5/UART_GPS.c **** #if (UART_GPS_INTERNAL_CLOCK_USED)
  19:Generated_Source\PSoC5/UART_GPS.c ****     #include "UART_GPS_IntClock.h"
  20:Generated_Source\PSoC5/UART_GPS.c **** #endif /* End UART_GPS_INTERNAL_CLOCK_USED */
  21:Generated_Source\PSoC5/UART_GPS.c **** 
  22:Generated_Source\PSoC5/UART_GPS.c **** 
  23:Generated_Source\PSoC5/UART_GPS.c **** /***************************************
  24:Generated_Source\PSoC5/UART_GPS.c **** * Global data allocation
  25:Generated_Source\PSoC5/UART_GPS.c **** ***************************************/
  26:Generated_Source\PSoC5/UART_GPS.c **** 
  27:Generated_Source\PSoC5/UART_GPS.c **** uint8 UART_GPS_initVar = 0u;
  28:Generated_Source\PSoC5/UART_GPS.c **** 
  29:Generated_Source\PSoC5/UART_GPS.c **** #if (UART_GPS_TX_INTERRUPT_ENABLED && UART_GPS_TX_ENABLED)
  30:Generated_Source\PSoC5/UART_GPS.c ****     volatile uint8 UART_GPS_txBuffer[UART_GPS_TX_BUFFER_SIZE];
ARM GAS  C:\Users\cronos\AppData\Local\Temp\ccrntx0f.s 			page 2


  31:Generated_Source\PSoC5/UART_GPS.c ****     volatile uint8 UART_GPS_txBufferRead = 0u;
  32:Generated_Source\PSoC5/UART_GPS.c ****     uint8 UART_GPS_txBufferWrite = 0u;
  33:Generated_Source\PSoC5/UART_GPS.c **** #endif /* (UART_GPS_TX_INTERRUPT_ENABLED && UART_GPS_TX_ENABLED) */
  34:Generated_Source\PSoC5/UART_GPS.c **** 
  35:Generated_Source\PSoC5/UART_GPS.c **** #if (UART_GPS_RX_INTERRUPT_ENABLED && (UART_GPS_RX_ENABLED || UART_GPS_HD_ENABLED))
  36:Generated_Source\PSoC5/UART_GPS.c ****     uint8 UART_GPS_errorStatus = 0u;
  37:Generated_Source\PSoC5/UART_GPS.c ****     volatile uint8 UART_GPS_rxBuffer[UART_GPS_RX_BUFFER_SIZE];
  38:Generated_Source\PSoC5/UART_GPS.c ****     volatile uint8 UART_GPS_rxBufferRead  = 0u;
  39:Generated_Source\PSoC5/UART_GPS.c ****     volatile uint8 UART_GPS_rxBufferWrite = 0u;
  40:Generated_Source\PSoC5/UART_GPS.c ****     volatile uint8 UART_GPS_rxBufferLoopDetect = 0u;
  41:Generated_Source\PSoC5/UART_GPS.c ****     volatile uint8 UART_GPS_rxBufferOverflow   = 0u;
  42:Generated_Source\PSoC5/UART_GPS.c ****     #if (UART_GPS_RXHW_ADDRESS_ENABLED)
  43:Generated_Source\PSoC5/UART_GPS.c ****         volatile uint8 UART_GPS_rxAddressMode = UART_GPS_RX_ADDRESS_MODE;
  44:Generated_Source\PSoC5/UART_GPS.c ****         volatile uint8 UART_GPS_rxAddressDetected = 0u;
  45:Generated_Source\PSoC5/UART_GPS.c ****     #endif /* (UART_GPS_RXHW_ADDRESS_ENABLED) */
  46:Generated_Source\PSoC5/UART_GPS.c **** #endif /* (UART_GPS_RX_INTERRUPT_ENABLED && (UART_GPS_RX_ENABLED || UART_GPS_HD_ENABLED)) */
  47:Generated_Source\PSoC5/UART_GPS.c **** 
  48:Generated_Source\PSoC5/UART_GPS.c **** 
  49:Generated_Source\PSoC5/UART_GPS.c **** /*******************************************************************************
  50:Generated_Source\PSoC5/UART_GPS.c **** * Function Name: UART_GPS_Start
  51:Generated_Source\PSoC5/UART_GPS.c **** ********************************************************************************
  52:Generated_Source\PSoC5/UART_GPS.c **** *
  53:Generated_Source\PSoC5/UART_GPS.c **** * Summary:
  54:Generated_Source\PSoC5/UART_GPS.c **** *  This is the preferred method to begin component operation.
  55:Generated_Source\PSoC5/UART_GPS.c **** *  UART_GPS_Start() sets the initVar variable, calls the
  56:Generated_Source\PSoC5/UART_GPS.c **** *  UART_GPS_Init() function, and then calls the
  57:Generated_Source\PSoC5/UART_GPS.c **** *  UART_GPS_Enable() function.
  58:Generated_Source\PSoC5/UART_GPS.c **** *
  59:Generated_Source\PSoC5/UART_GPS.c **** * Parameters:
  60:Generated_Source\PSoC5/UART_GPS.c **** *  None.
  61:Generated_Source\PSoC5/UART_GPS.c **** *
  62:Generated_Source\PSoC5/UART_GPS.c **** * Return:
  63:Generated_Source\PSoC5/UART_GPS.c **** *  None.
  64:Generated_Source\PSoC5/UART_GPS.c **** *
  65:Generated_Source\PSoC5/UART_GPS.c **** * Global variables:
  66:Generated_Source\PSoC5/UART_GPS.c **** *  The UART_GPS_intiVar variable is used to indicate initial
  67:Generated_Source\PSoC5/UART_GPS.c **** *  configuration of this component. The variable is initialized to zero (0u)
  68:Generated_Source\PSoC5/UART_GPS.c **** *  and set to one (1u) the first time UART_GPS_Start() is called. This
  69:Generated_Source\PSoC5/UART_GPS.c **** *  allows for component initialization without re-initialization in all
  70:Generated_Source\PSoC5/UART_GPS.c **** *  subsequent calls to the UART_GPS_Start() routine.
  71:Generated_Source\PSoC5/UART_GPS.c **** *
  72:Generated_Source\PSoC5/UART_GPS.c **** * Reentrant:
  73:Generated_Source\PSoC5/UART_GPS.c **** *  No.
  74:Generated_Source\PSoC5/UART_GPS.c **** *
  75:Generated_Source\PSoC5/UART_GPS.c **** *******************************************************************************/
  76:Generated_Source\PSoC5/UART_GPS.c **** void UART_GPS_Start(void) 
  77:Generated_Source\PSoC5/UART_GPS.c **** {
  78:Generated_Source\PSoC5/UART_GPS.c ****     /* If not initialized then initialize all required hardware and software */
  79:Generated_Source\PSoC5/UART_GPS.c ****     if(UART_GPS_initVar == 0u)
  80:Generated_Source\PSoC5/UART_GPS.c ****     {
  81:Generated_Source\PSoC5/UART_GPS.c ****         UART_GPS_Init();
  82:Generated_Source\PSoC5/UART_GPS.c ****         UART_GPS_initVar = 1u;
  83:Generated_Source\PSoC5/UART_GPS.c ****     }
  84:Generated_Source\PSoC5/UART_GPS.c **** 
  85:Generated_Source\PSoC5/UART_GPS.c ****     UART_GPS_Enable();
  86:Generated_Source\PSoC5/UART_GPS.c **** }
  87:Generated_Source\PSoC5/UART_GPS.c **** 
ARM GAS  C:\Users\cronos\AppData\Local\Temp\ccrntx0f.s 			page 3


  88:Generated_Source\PSoC5/UART_GPS.c **** 
  89:Generated_Source\PSoC5/UART_GPS.c **** /*******************************************************************************
  90:Generated_Source\PSoC5/UART_GPS.c **** * Function Name: UART_GPS_Init
  91:Generated_Source\PSoC5/UART_GPS.c **** ********************************************************************************
  92:Generated_Source\PSoC5/UART_GPS.c **** *
  93:Generated_Source\PSoC5/UART_GPS.c **** * Summary:
  94:Generated_Source\PSoC5/UART_GPS.c **** *  Initializes or restores the component according to the customizer Configure
  95:Generated_Source\PSoC5/UART_GPS.c **** *  dialog settings. It is not necessary to call UART_GPS_Init() because
  96:Generated_Source\PSoC5/UART_GPS.c **** *  the UART_GPS_Start() API calls this function and is the preferred
  97:Generated_Source\PSoC5/UART_GPS.c **** *  method to begin component operation.
  98:Generated_Source\PSoC5/UART_GPS.c **** *
  99:Generated_Source\PSoC5/UART_GPS.c **** * Parameters:
 100:Generated_Source\PSoC5/UART_GPS.c **** *  None.
 101:Generated_Source\PSoC5/UART_GPS.c **** *
 102:Generated_Source\PSoC5/UART_GPS.c **** * Return:
 103:Generated_Source\PSoC5/UART_GPS.c **** *  None.
 104:Generated_Source\PSoC5/UART_GPS.c **** *
 105:Generated_Source\PSoC5/UART_GPS.c **** *******************************************************************************/
 106:Generated_Source\PSoC5/UART_GPS.c **** void UART_GPS_Init(void) 
 107:Generated_Source\PSoC5/UART_GPS.c **** {
  28              		.loc 1 107 0
  29              		.cfi_startproc
  30              		@ args = 0, pretend = 0, frame = 0
  31              		@ frame_needed = 0, uses_anonymous_args = 0
  32 0000 08B5     		push	{r3, lr}
  33              		.cfi_def_cfa_offset 8
  34              		.cfi_offset 3, -8
  35              		.cfi_offset 14, -4
 108:Generated_Source\PSoC5/UART_GPS.c ****     #if(UART_GPS_RX_ENABLED || UART_GPS_HD_ENABLED)
 109:Generated_Source\PSoC5/UART_GPS.c **** 
 110:Generated_Source\PSoC5/UART_GPS.c ****         #if (UART_GPS_RX_INTERRUPT_ENABLED)
 111:Generated_Source\PSoC5/UART_GPS.c ****             /* Set RX interrupt vector and priority */
 112:Generated_Source\PSoC5/UART_GPS.c ****             (void) CyIntSetVector(UART_GPS_RX_VECT_NUM, &UART_GPS_RXISR);
  36              		.loc 1 112 0
  37 0002 0D49     		ldr	r1, .L3
  38 0004 0120     		movs	r0, #1
  39 0006 FFF7FEFF 		bl	CyIntSetVector
  40              	.LVL0:
 113:Generated_Source\PSoC5/UART_GPS.c ****             CyIntSetPriority(UART_GPS_RX_VECT_NUM, UART_GPS_RX_PRIOR_NUM);
  41              		.loc 1 113 0
  42 000a 0721     		movs	r1, #7
  43 000c 0120     		movs	r0, #1
  44 000e FFF7FEFF 		bl	CyIntSetPriority
  45              	.LVL1:
 114:Generated_Source\PSoC5/UART_GPS.c ****             UART_GPS_errorStatus = 0u;
  46              		.loc 1 114 0
  47 0012 0023     		movs	r3, #0
  48 0014 094A     		ldr	r2, .L3+4
  49 0016 1370     		strb	r3, [r2]
 115:Generated_Source\PSoC5/UART_GPS.c ****         #endif /* (UART_GPS_RX_INTERRUPT_ENABLED) */
 116:Generated_Source\PSoC5/UART_GPS.c **** 
 117:Generated_Source\PSoC5/UART_GPS.c ****         #if (UART_GPS_RXHW_ADDRESS_ENABLED)
 118:Generated_Source\PSoC5/UART_GPS.c ****             UART_GPS_SetRxAddressMode(UART_GPS_RX_ADDRESS_MODE);
 119:Generated_Source\PSoC5/UART_GPS.c ****             UART_GPS_SetRxAddress1(UART_GPS_RX_HW_ADDRESS1);
 120:Generated_Source\PSoC5/UART_GPS.c ****             UART_GPS_SetRxAddress2(UART_GPS_RX_HW_ADDRESS2);
 121:Generated_Source\PSoC5/UART_GPS.c ****         #endif /* End UART_GPS_RXHW_ADDRESS_ENABLED */
 122:Generated_Source\PSoC5/UART_GPS.c **** 
ARM GAS  C:\Users\cronos\AppData\Local\Temp\ccrntx0f.s 			page 4


 123:Generated_Source\PSoC5/UART_GPS.c ****         /* Init Count7 period */
 124:Generated_Source\PSoC5/UART_GPS.c ****         UART_GPS_RXBITCTR_PERIOD_REG = UART_GPS_RXBITCTR_INIT;
  50              		.loc 1 124 0
  51 0018 7221     		movs	r1, #114
  52 001a 094A     		ldr	r2, .L3+8
  53 001c 1170     		strb	r1, [r2]
 125:Generated_Source\PSoC5/UART_GPS.c ****         /* Configure the Initial RX interrupt mask */
 126:Generated_Source\PSoC5/UART_GPS.c ****         UART_GPS_RXSTATUS_MASK_REG  = UART_GPS_INIT_RX_INTERRUPTS_MASK;
  54              		.loc 1 126 0
  55 001e 2021     		movs	r1, #32
  56 0020 0232     		adds	r2, r2, #2
  57 0022 1170     		strb	r1, [r2]
 127:Generated_Source\PSoC5/UART_GPS.c ****     #endif /* End UART_GPS_RX_ENABLED || UART_GPS_HD_ENABLED*/
 128:Generated_Source\PSoC5/UART_GPS.c **** 
 129:Generated_Source\PSoC5/UART_GPS.c ****     #if(UART_GPS_TX_ENABLED)
 130:Generated_Source\PSoC5/UART_GPS.c ****         #if (UART_GPS_TX_INTERRUPT_ENABLED)
 131:Generated_Source\PSoC5/UART_GPS.c ****             /* Set TX interrupt vector and priority */
 132:Generated_Source\PSoC5/UART_GPS.c ****             (void) CyIntSetVector(UART_GPS_TX_VECT_NUM, &UART_GPS_TXISR);
 133:Generated_Source\PSoC5/UART_GPS.c ****             CyIntSetPriority(UART_GPS_TX_VECT_NUM, UART_GPS_TX_PRIOR_NUM);
 134:Generated_Source\PSoC5/UART_GPS.c ****         #endif /* (UART_GPS_TX_INTERRUPT_ENABLED) */
 135:Generated_Source\PSoC5/UART_GPS.c **** 
 136:Generated_Source\PSoC5/UART_GPS.c ****         /* Write Counter Value for TX Bit Clk Generator*/
 137:Generated_Source\PSoC5/UART_GPS.c ****         #if (UART_GPS_TXCLKGEN_DP)
 138:Generated_Source\PSoC5/UART_GPS.c ****             UART_GPS_TXBITCLKGEN_CTR_REG = UART_GPS_BIT_CENTER;
  58              		.loc 1 138 0
  59 0024 0621     		movs	r1, #6
  60 0026 613A     		subs	r2, r2, #97
  61 0028 1170     		strb	r1, [r2]
 139:Generated_Source\PSoC5/UART_GPS.c ****             UART_GPS_TXBITCLKTX_COMPLETE_REG = ((UART_GPS_NUMBER_OF_DATA_BITS +
  62              		.loc 1 139 0
  63 002a 4721     		movs	r1, #71
  64 002c 1032     		adds	r2, r2, #16
  65 002e 1170     		strb	r1, [r2]
 140:Generated_Source\PSoC5/UART_GPS.c ****                         UART_GPS_NUMBER_OF_START_BIT) * UART_GPS_OVER_SAMPLE_COUNT) - 1u;
 141:Generated_Source\PSoC5/UART_GPS.c ****         #else
 142:Generated_Source\PSoC5/UART_GPS.c ****             UART_GPS_TXBITCTR_PERIOD_REG = ((UART_GPS_NUMBER_OF_DATA_BITS +
 143:Generated_Source\PSoC5/UART_GPS.c ****                         UART_GPS_NUMBER_OF_START_BIT) * UART_GPS_OVER_SAMPLE_8) - 1u;
 144:Generated_Source\PSoC5/UART_GPS.c ****         #endif /* End UART_GPS_TXCLKGEN_DP */
 145:Generated_Source\PSoC5/UART_GPS.c **** 
 146:Generated_Source\PSoC5/UART_GPS.c ****         /* Configure the Initial TX interrupt mask */
 147:Generated_Source\PSoC5/UART_GPS.c ****         #if (UART_GPS_TX_INTERRUPT_ENABLED)
 148:Generated_Source\PSoC5/UART_GPS.c ****             UART_GPS_TXSTATUS_MASK_REG = UART_GPS_TX_STS_FIFO_EMPTY;
 149:Generated_Source\PSoC5/UART_GPS.c ****         #else
 150:Generated_Source\PSoC5/UART_GPS.c ****             UART_GPS_TXSTATUS_MASK_REG = UART_GPS_INIT_TX_INTERRUPTS_MASK;
  66              		.loc 1 150 0
  67 0030 5232     		adds	r2, r2, #82
  68 0032 1370     		strb	r3, [r2]
  69 0034 08BD     		pop	{r3, pc}
  70              	.L4:
  71 0036 00BF     		.align	2
  72              	.L3:
  73 0038 00000000 		.word	UART_GPS_RXISR
  74 003c 00000000 		.word	.LANCHOR0
  75 0040 8B640040 		.word	1073767563
  76              		.cfi_endproc
  77              	.LFE1:
  78              		.size	UART_GPS_Init, .-UART_GPS_Init
ARM GAS  C:\Users\cronos\AppData\Local\Temp\ccrntx0f.s 			page 5


  79              		.section	.text.UART_GPS_Enable,"ax",%progbits
  80              		.align	2
  81              		.global	UART_GPS_Enable
  82              		.thumb
  83              		.thumb_func
  84              		.type	UART_GPS_Enable, %function
  85              	UART_GPS_Enable:
  86              	.LFB2:
 151:Generated_Source\PSoC5/UART_GPS.c ****         #endif /*End UART_GPS_TX_INTERRUPT_ENABLED*/
 152:Generated_Source\PSoC5/UART_GPS.c **** 
 153:Generated_Source\PSoC5/UART_GPS.c ****     #endif /* End UART_GPS_TX_ENABLED */
 154:Generated_Source\PSoC5/UART_GPS.c **** 
 155:Generated_Source\PSoC5/UART_GPS.c ****     #if(UART_GPS_PARITY_TYPE_SW)  /* Write Parity to Control Register */
 156:Generated_Source\PSoC5/UART_GPS.c ****         UART_GPS_WriteControlRegister( \
 157:Generated_Source\PSoC5/UART_GPS.c ****             (UART_GPS_ReadControlRegister() & (uint8)~UART_GPS_CTRL_PARITY_TYPE_MASK) | \
 158:Generated_Source\PSoC5/UART_GPS.c ****             (uint8)(UART_GPS_PARITY_TYPE << UART_GPS_CTRL_PARITY_TYPE0_SHIFT) );
 159:Generated_Source\PSoC5/UART_GPS.c ****     #endif /* End UART_GPS_PARITY_TYPE_SW */
 160:Generated_Source\PSoC5/UART_GPS.c **** }
 161:Generated_Source\PSoC5/UART_GPS.c **** 
 162:Generated_Source\PSoC5/UART_GPS.c **** 
 163:Generated_Source\PSoC5/UART_GPS.c **** /*******************************************************************************
 164:Generated_Source\PSoC5/UART_GPS.c **** * Function Name: UART_GPS_Enable
 165:Generated_Source\PSoC5/UART_GPS.c **** ********************************************************************************
 166:Generated_Source\PSoC5/UART_GPS.c **** *
 167:Generated_Source\PSoC5/UART_GPS.c **** * Summary:
 168:Generated_Source\PSoC5/UART_GPS.c **** *  Activates the hardware and begins component operation. It is not necessary
 169:Generated_Source\PSoC5/UART_GPS.c **** *  to call UART_GPS_Enable() because the UART_GPS_Start() API
 170:Generated_Source\PSoC5/UART_GPS.c **** *  calls this function, which is the preferred method to begin component
 171:Generated_Source\PSoC5/UART_GPS.c **** *  operation.
 172:Generated_Source\PSoC5/UART_GPS.c **** 
 173:Generated_Source\PSoC5/UART_GPS.c **** * Parameters:
 174:Generated_Source\PSoC5/UART_GPS.c **** *  None.
 175:Generated_Source\PSoC5/UART_GPS.c **** *
 176:Generated_Source\PSoC5/UART_GPS.c **** * Return:
 177:Generated_Source\PSoC5/UART_GPS.c **** *  None.
 178:Generated_Source\PSoC5/UART_GPS.c **** *
 179:Generated_Source\PSoC5/UART_GPS.c **** * Global Variables:
 180:Generated_Source\PSoC5/UART_GPS.c **** *  UART_GPS_rxAddressDetected - set to initial state (0).
 181:Generated_Source\PSoC5/UART_GPS.c **** *
 182:Generated_Source\PSoC5/UART_GPS.c **** *******************************************************************************/
 183:Generated_Source\PSoC5/UART_GPS.c **** void UART_GPS_Enable(void) 
 184:Generated_Source\PSoC5/UART_GPS.c **** {
  87              		.loc 1 184 0
  88              		.cfi_startproc
  89              		@ args = 0, pretend = 0, frame = 0
  90              		@ frame_needed = 0, uses_anonymous_args = 0
  91 0000 10B5     		push	{r4, lr}
  92              		.cfi_def_cfa_offset 8
  93              		.cfi_offset 4, -8
  94              		.cfi_offset 14, -4
 185:Generated_Source\PSoC5/UART_GPS.c ****     uint8 enableInterrupts;
 186:Generated_Source\PSoC5/UART_GPS.c ****     enableInterrupts = CyEnterCriticalSection();
  95              		.loc 1 186 0
  96 0002 FFF7FEFF 		bl	CyEnterCriticalSection
  97              	.LVL2:
  98 0006 0446     		mov	r4, r0
  99              	.LVL3:
ARM GAS  C:\Users\cronos\AppData\Local\Temp\ccrntx0f.s 			page 6


 187:Generated_Source\PSoC5/UART_GPS.c **** 
 188:Generated_Source\PSoC5/UART_GPS.c ****     #if (UART_GPS_RX_ENABLED || UART_GPS_HD_ENABLED)
 189:Generated_Source\PSoC5/UART_GPS.c ****         /* RX Counter (Count7) Enable */
 190:Generated_Source\PSoC5/UART_GPS.c ****         UART_GPS_RXBITCTR_CONTROL_REG |= UART_GPS_CNTR_ENABLE;
 100              		.loc 1 190 0
 101 0008 0B4A     		ldr	r2, .L7
 102 000a 1378     		ldrb	r3, [r2]	@ zero_extendqisi2
 103 000c 43F02003 		orr	r3, r3, #32
 104 0010 1370     		strb	r3, [r2]
 191:Generated_Source\PSoC5/UART_GPS.c **** 
 192:Generated_Source\PSoC5/UART_GPS.c ****         /* Enable the RX Interrupt */
 193:Generated_Source\PSoC5/UART_GPS.c ****         UART_GPS_RXSTATUS_ACTL_REG  |= UART_GPS_INT_ENABLE;
 105              		.loc 1 193 0
 106 0012 0232     		adds	r2, r2, #2
 107 0014 1378     		ldrb	r3, [r2]	@ zero_extendqisi2
 108 0016 43F01003 		orr	r3, r3, #16
 109 001a 1370     		strb	r3, [r2]
 194:Generated_Source\PSoC5/UART_GPS.c **** 
 195:Generated_Source\PSoC5/UART_GPS.c ****         #if (UART_GPS_RX_INTERRUPT_ENABLED)
 196:Generated_Source\PSoC5/UART_GPS.c ****             UART_GPS_EnableRxInt();
 110              		.loc 1 196 0
 111 001c 0222     		movs	r2, #2
 112 001e 074B     		ldr	r3, .L7+4
 113 0020 1A60     		str	r2, [r3]
 197:Generated_Source\PSoC5/UART_GPS.c **** 
 198:Generated_Source\PSoC5/UART_GPS.c ****             #if (UART_GPS_RXHW_ADDRESS_ENABLED)
 199:Generated_Source\PSoC5/UART_GPS.c ****                 UART_GPS_rxAddressDetected = 0u;
 200:Generated_Source\PSoC5/UART_GPS.c ****             #endif /* (UART_GPS_RXHW_ADDRESS_ENABLED) */
 201:Generated_Source\PSoC5/UART_GPS.c ****         #endif /* (UART_GPS_RX_INTERRUPT_ENABLED) */
 202:Generated_Source\PSoC5/UART_GPS.c ****     #endif /* (UART_GPS_RX_ENABLED || UART_GPS_HD_ENABLED) */
 203:Generated_Source\PSoC5/UART_GPS.c **** 
 204:Generated_Source\PSoC5/UART_GPS.c ****     #if(UART_GPS_TX_ENABLED)
 205:Generated_Source\PSoC5/UART_GPS.c ****         /* TX Counter (DP/Count7) Enable */
 206:Generated_Source\PSoC5/UART_GPS.c ****         #if(!UART_GPS_TXCLKGEN_DP)
 207:Generated_Source\PSoC5/UART_GPS.c ****             UART_GPS_TXBITCTR_CONTROL_REG |= UART_GPS_CNTR_ENABLE;
 208:Generated_Source\PSoC5/UART_GPS.c ****         #endif /* End UART_GPS_TXCLKGEN_DP */
 209:Generated_Source\PSoC5/UART_GPS.c **** 
 210:Generated_Source\PSoC5/UART_GPS.c ****         /* Enable the TX Interrupt */
 211:Generated_Source\PSoC5/UART_GPS.c ****         UART_GPS_TXSTATUS_ACTL_REG |= UART_GPS_INT_ENABLE;
 114              		.loc 1 211 0
 115 0022 074A     		ldr	r2, .L7+8
 116 0024 1378     		ldrb	r3, [r2]	@ zero_extendqisi2
 117 0026 43F01003 		orr	r3, r3, #16
 118 002a 1370     		strb	r3, [r2]
 212:Generated_Source\PSoC5/UART_GPS.c ****         #if (UART_GPS_TX_INTERRUPT_ENABLED)
 213:Generated_Source\PSoC5/UART_GPS.c ****             UART_GPS_ClearPendingTxInt(); /* Clear history of TX_NOT_EMPTY */
 214:Generated_Source\PSoC5/UART_GPS.c ****             UART_GPS_EnableTxInt();
 215:Generated_Source\PSoC5/UART_GPS.c ****         #endif /* (UART_GPS_TX_INTERRUPT_ENABLED) */
 216:Generated_Source\PSoC5/UART_GPS.c ****      #endif /* (UART_GPS_TX_INTERRUPT_ENABLED) */
 217:Generated_Source\PSoC5/UART_GPS.c **** 
 218:Generated_Source\PSoC5/UART_GPS.c ****     #if (UART_GPS_INTERNAL_CLOCK_USED)
 219:Generated_Source\PSoC5/UART_GPS.c ****         UART_GPS_IntClock_Start();  /* Enable the clock */
 119              		.loc 1 219 0
 120 002c FFF7FEFF 		bl	UART_GPS_IntClock_Start
 121              	.LVL4:
 220:Generated_Source\PSoC5/UART_GPS.c ****     #endif /* (UART_GPS_INTERNAL_CLOCK_USED) */
 221:Generated_Source\PSoC5/UART_GPS.c **** 
ARM GAS  C:\Users\cronos\AppData\Local\Temp\ccrntx0f.s 			page 7


 222:Generated_Source\PSoC5/UART_GPS.c ****     CyExitCriticalSection(enableInterrupts);
 122              		.loc 1 222 0
 123 0030 2046     		mov	r0, r4
 124 0032 FFF7FEFF 		bl	CyExitCriticalSection
 125              	.LVL5:
 126 0036 10BD     		pop	{r4, pc}
 127              	.LVL6:
 128              	.L8:
 129              		.align	2
 130              	.L7:
 131 0038 9B640040 		.word	1073767579
 132 003c 00E100E0 		.word	-536813312
 133 0040 9E640040 		.word	1073767582
 134              		.cfi_endproc
 135              	.LFE2:
 136              		.size	UART_GPS_Enable, .-UART_GPS_Enable
 137              		.section	.text.UART_GPS_Start,"ax",%progbits
 138              		.align	2
 139              		.global	UART_GPS_Start
 140              		.thumb
 141              		.thumb_func
 142              		.type	UART_GPS_Start, %function
 143              	UART_GPS_Start:
 144              	.LFB0:
  77:Generated_Source\PSoC5/UART_GPS.c ****     /* If not initialized then initialize all required hardware and software */
 145              		.loc 1 77 0
 146              		.cfi_startproc
 147              		@ args = 0, pretend = 0, frame = 0
 148              		@ frame_needed = 0, uses_anonymous_args = 0
 149 0000 08B5     		push	{r3, lr}
 150              		.cfi_def_cfa_offset 8
 151              		.cfi_offset 3, -8
 152              		.cfi_offset 14, -4
  79:Generated_Source\PSoC5/UART_GPS.c ****     {
 153              		.loc 1 79 0
 154 0002 054B     		ldr	r3, .L12
 155 0004 5B78     		ldrb	r3, [r3, #1]	@ zero_extendqisi2
 156 0006 23B9     		cbnz	r3, .L10
  81:Generated_Source\PSoC5/UART_GPS.c ****         UART_GPS_initVar = 1u;
 157              		.loc 1 81 0
 158 0008 FFF7FEFF 		bl	UART_GPS_Init
 159              	.LVL7:
  82:Generated_Source\PSoC5/UART_GPS.c ****     }
 160              		.loc 1 82 0
 161 000c 0122     		movs	r2, #1
 162 000e 024B     		ldr	r3, .L12
 163 0010 5A70     		strb	r2, [r3, #1]
 164              	.L10:
  85:Generated_Source\PSoC5/UART_GPS.c **** }
 165              		.loc 1 85 0
 166 0012 FFF7FEFF 		bl	UART_GPS_Enable
 167              	.LVL8:
 168 0016 08BD     		pop	{r3, pc}
 169              	.L13:
 170              		.align	2
 171              	.L12:
 172 0018 00000000 		.word	.LANCHOR0
ARM GAS  C:\Users\cronos\AppData\Local\Temp\ccrntx0f.s 			page 8


 173              		.cfi_endproc
 174              	.LFE0:
 175              		.size	UART_GPS_Start, .-UART_GPS_Start
 176              		.section	.text.UART_GPS_Stop,"ax",%progbits
 177              		.align	2
 178              		.global	UART_GPS_Stop
 179              		.thumb
 180              		.thumb_func
 181              		.type	UART_GPS_Stop, %function
 182              	UART_GPS_Stop:
 183              	.LFB3:
 223:Generated_Source\PSoC5/UART_GPS.c **** }
 224:Generated_Source\PSoC5/UART_GPS.c **** 
 225:Generated_Source\PSoC5/UART_GPS.c **** 
 226:Generated_Source\PSoC5/UART_GPS.c **** /*******************************************************************************
 227:Generated_Source\PSoC5/UART_GPS.c **** * Function Name: UART_GPS_Stop
 228:Generated_Source\PSoC5/UART_GPS.c **** ********************************************************************************
 229:Generated_Source\PSoC5/UART_GPS.c **** *
 230:Generated_Source\PSoC5/UART_GPS.c **** * Summary:
 231:Generated_Source\PSoC5/UART_GPS.c **** *  Disables the UART operation.
 232:Generated_Source\PSoC5/UART_GPS.c **** *
 233:Generated_Source\PSoC5/UART_GPS.c **** * Parameters:
 234:Generated_Source\PSoC5/UART_GPS.c **** *  None.
 235:Generated_Source\PSoC5/UART_GPS.c **** *
 236:Generated_Source\PSoC5/UART_GPS.c **** * Return:
 237:Generated_Source\PSoC5/UART_GPS.c **** *  None.
 238:Generated_Source\PSoC5/UART_GPS.c **** *
 239:Generated_Source\PSoC5/UART_GPS.c **** *******************************************************************************/
 240:Generated_Source\PSoC5/UART_GPS.c **** void UART_GPS_Stop(void) 
 241:Generated_Source\PSoC5/UART_GPS.c **** {
 184              		.loc 1 241 0
 185              		.cfi_startproc
 186              		@ args = 0, pretend = 0, frame = 0
 187              		@ frame_needed = 0, uses_anonymous_args = 0
 188 0000 10B5     		push	{r4, lr}
 189              		.cfi_def_cfa_offset 8
 190              		.cfi_offset 4, -8
 191              		.cfi_offset 14, -4
 242:Generated_Source\PSoC5/UART_GPS.c ****     uint8 enableInterrupts;
 243:Generated_Source\PSoC5/UART_GPS.c ****     enableInterrupts = CyEnterCriticalSection();
 192              		.loc 1 243 0
 193 0002 FFF7FEFF 		bl	CyEnterCriticalSection
 194              	.LVL9:
 195 0006 0446     		mov	r4, r0
 196              	.LVL10:
 244:Generated_Source\PSoC5/UART_GPS.c **** 
 245:Generated_Source\PSoC5/UART_GPS.c ****     /* Write Bit Counter Disable */
 246:Generated_Source\PSoC5/UART_GPS.c ****     #if (UART_GPS_RX_ENABLED || UART_GPS_HD_ENABLED)
 247:Generated_Source\PSoC5/UART_GPS.c ****         UART_GPS_RXBITCTR_CONTROL_REG &= (uint8) ~UART_GPS_CNTR_ENABLE;
 197              		.loc 1 247 0
 198 0008 0B4A     		ldr	r2, .L16
 199 000a 1378     		ldrb	r3, [r2]	@ zero_extendqisi2
 200 000c 03F0DF03 		and	r3, r3, #223
 201 0010 1370     		strb	r3, [r2]
 248:Generated_Source\PSoC5/UART_GPS.c ****     #endif /* (UART_GPS_RX_ENABLED || UART_GPS_HD_ENABLED) */
 249:Generated_Source\PSoC5/UART_GPS.c **** 
 250:Generated_Source\PSoC5/UART_GPS.c ****     #if (UART_GPS_TX_ENABLED)
ARM GAS  C:\Users\cronos\AppData\Local\Temp\ccrntx0f.s 			page 9


 251:Generated_Source\PSoC5/UART_GPS.c ****         #if(!UART_GPS_TXCLKGEN_DP)
 252:Generated_Source\PSoC5/UART_GPS.c ****             UART_GPS_TXBITCTR_CONTROL_REG &= (uint8) ~UART_GPS_CNTR_ENABLE;
 253:Generated_Source\PSoC5/UART_GPS.c ****         #endif /* (!UART_GPS_TXCLKGEN_DP) */
 254:Generated_Source\PSoC5/UART_GPS.c ****     #endif /* (UART_GPS_TX_ENABLED) */
 255:Generated_Source\PSoC5/UART_GPS.c **** 
 256:Generated_Source\PSoC5/UART_GPS.c ****     #if (UART_GPS_INTERNAL_CLOCK_USED)
 257:Generated_Source\PSoC5/UART_GPS.c ****         UART_GPS_IntClock_Stop();   /* Disable the clock */
 202              		.loc 1 257 0
 203 0012 FFF7FEFF 		bl	UART_GPS_IntClock_Stop
 204              	.LVL11:
 258:Generated_Source\PSoC5/UART_GPS.c ****     #endif /* (UART_GPS_INTERNAL_CLOCK_USED) */
 259:Generated_Source\PSoC5/UART_GPS.c **** 
 260:Generated_Source\PSoC5/UART_GPS.c ****     /* Disable internal interrupt component */
 261:Generated_Source\PSoC5/UART_GPS.c ****     #if (UART_GPS_RX_ENABLED || UART_GPS_HD_ENABLED)
 262:Generated_Source\PSoC5/UART_GPS.c ****         UART_GPS_RXSTATUS_ACTL_REG  &= (uint8) ~UART_GPS_INT_ENABLE;
 205              		.loc 1 262 0
 206 0016 094A     		ldr	r2, .L16+4
 207 0018 1378     		ldrb	r3, [r2]	@ zero_extendqisi2
 208 001a 03F0EF03 		and	r3, r3, #239
 209 001e 1370     		strb	r3, [r2]
 263:Generated_Source\PSoC5/UART_GPS.c **** 
 264:Generated_Source\PSoC5/UART_GPS.c ****         #if (UART_GPS_RX_INTERRUPT_ENABLED)
 265:Generated_Source\PSoC5/UART_GPS.c ****             UART_GPS_DisableRxInt();
 210              		.loc 1 265 0
 211 0020 0222     		movs	r2, #2
 212 0022 074B     		ldr	r3, .L16+8
 213 0024 1A60     		str	r2, [r3]
 266:Generated_Source\PSoC5/UART_GPS.c ****         #endif /* (UART_GPS_RX_INTERRUPT_ENABLED) */
 267:Generated_Source\PSoC5/UART_GPS.c ****     #endif /* (UART_GPS_RX_ENABLED || UART_GPS_HD_ENABLED) */
 268:Generated_Source\PSoC5/UART_GPS.c **** 
 269:Generated_Source\PSoC5/UART_GPS.c ****     #if (UART_GPS_TX_ENABLED)
 270:Generated_Source\PSoC5/UART_GPS.c ****         UART_GPS_TXSTATUS_ACTL_REG &= (uint8) ~UART_GPS_INT_ENABLE;
 214              		.loc 1 270 0
 215 0026 074A     		ldr	r2, .L16+12
 216 0028 1378     		ldrb	r3, [r2]	@ zero_extendqisi2
 217 002a 03F0EF03 		and	r3, r3, #239
 218 002e 1370     		strb	r3, [r2]
 271:Generated_Source\PSoC5/UART_GPS.c **** 
 272:Generated_Source\PSoC5/UART_GPS.c ****         #if (UART_GPS_TX_INTERRUPT_ENABLED)
 273:Generated_Source\PSoC5/UART_GPS.c ****             UART_GPS_DisableTxInt();
 274:Generated_Source\PSoC5/UART_GPS.c ****         #endif /* (UART_GPS_TX_INTERRUPT_ENABLED) */
 275:Generated_Source\PSoC5/UART_GPS.c ****     #endif /* (UART_GPS_TX_ENABLED) */
 276:Generated_Source\PSoC5/UART_GPS.c **** 
 277:Generated_Source\PSoC5/UART_GPS.c ****     CyExitCriticalSection(enableInterrupts);
 219              		.loc 1 277 0
 220 0030 2046     		mov	r0, r4
 221 0032 FFF7FEFF 		bl	CyExitCriticalSection
 222              	.LVL12:
 223 0036 10BD     		pop	{r4, pc}
 224              	.LVL13:
 225              	.L17:
 226              		.align	2
 227              	.L16:
 228 0038 9B640040 		.word	1073767579
 229 003c 9D640040 		.word	1073767581
 230 0040 80E100E0 		.word	-536813184
 231 0044 9E640040 		.word	1073767582
ARM GAS  C:\Users\cronos\AppData\Local\Temp\ccrntx0f.s 			page 10


 232              		.cfi_endproc
 233              	.LFE3:
 234              		.size	UART_GPS_Stop, .-UART_GPS_Stop
 235              		.section	.text.UART_GPS_ReadControlRegister,"ax",%progbits
 236              		.align	2
 237              		.global	UART_GPS_ReadControlRegister
 238              		.thumb
 239              		.thumb_func
 240              		.type	UART_GPS_ReadControlRegister, %function
 241              	UART_GPS_ReadControlRegister:
 242              	.LFB4:
 278:Generated_Source\PSoC5/UART_GPS.c **** }
 279:Generated_Source\PSoC5/UART_GPS.c **** 
 280:Generated_Source\PSoC5/UART_GPS.c **** 
 281:Generated_Source\PSoC5/UART_GPS.c **** /*******************************************************************************
 282:Generated_Source\PSoC5/UART_GPS.c **** * Function Name: UART_GPS_ReadControlRegister
 283:Generated_Source\PSoC5/UART_GPS.c **** ********************************************************************************
 284:Generated_Source\PSoC5/UART_GPS.c **** *
 285:Generated_Source\PSoC5/UART_GPS.c **** * Summary:
 286:Generated_Source\PSoC5/UART_GPS.c **** *  Returns the current value of the control register.
 287:Generated_Source\PSoC5/UART_GPS.c **** *
 288:Generated_Source\PSoC5/UART_GPS.c **** * Parameters:
 289:Generated_Source\PSoC5/UART_GPS.c **** *  None.
 290:Generated_Source\PSoC5/UART_GPS.c **** *
 291:Generated_Source\PSoC5/UART_GPS.c **** * Return:
 292:Generated_Source\PSoC5/UART_GPS.c **** *  Contents of the control register.
 293:Generated_Source\PSoC5/UART_GPS.c **** *
 294:Generated_Source\PSoC5/UART_GPS.c **** *******************************************************************************/
 295:Generated_Source\PSoC5/UART_GPS.c **** uint8 UART_GPS_ReadControlRegister(void) 
 296:Generated_Source\PSoC5/UART_GPS.c **** {
 243              		.loc 1 296 0
 244              		.cfi_startproc
 245              		@ args = 0, pretend = 0, frame = 0
 246              		@ frame_needed = 0, uses_anonymous_args = 0
 247              		@ link register save eliminated.
 297:Generated_Source\PSoC5/UART_GPS.c ****     #if (UART_GPS_CONTROL_REG_REMOVED)
 298:Generated_Source\PSoC5/UART_GPS.c ****         return(0u);
 299:Generated_Source\PSoC5/UART_GPS.c ****     #else
 300:Generated_Source\PSoC5/UART_GPS.c ****         return(UART_GPS_CONTROL_REG);
 301:Generated_Source\PSoC5/UART_GPS.c ****     #endif /* (UART_GPS_CONTROL_REG_REMOVED) */
 302:Generated_Source\PSoC5/UART_GPS.c **** }
 248              		.loc 1 302 0
 249 0000 0020     		movs	r0, #0
 250 0002 7047     		bx	lr
 251              		.cfi_endproc
 252              	.LFE4:
 253              		.size	UART_GPS_ReadControlRegister, .-UART_GPS_ReadControlRegister
 254              		.section	.text.UART_GPS_WriteControlRegister,"ax",%progbits
 255              		.align	2
 256              		.global	UART_GPS_WriteControlRegister
 257              		.thumb
 258              		.thumb_func
 259              		.type	UART_GPS_WriteControlRegister, %function
 260              	UART_GPS_WriteControlRegister:
 261              	.LFB5:
 303:Generated_Source\PSoC5/UART_GPS.c **** 
 304:Generated_Source\PSoC5/UART_GPS.c **** 
ARM GAS  C:\Users\cronos\AppData\Local\Temp\ccrntx0f.s 			page 11


 305:Generated_Source\PSoC5/UART_GPS.c **** /*******************************************************************************
 306:Generated_Source\PSoC5/UART_GPS.c **** * Function Name: UART_GPS_WriteControlRegister
 307:Generated_Source\PSoC5/UART_GPS.c **** ********************************************************************************
 308:Generated_Source\PSoC5/UART_GPS.c **** *
 309:Generated_Source\PSoC5/UART_GPS.c **** * Summary:
 310:Generated_Source\PSoC5/UART_GPS.c **** *  Writes an 8-bit value into the control register
 311:Generated_Source\PSoC5/UART_GPS.c **** *
 312:Generated_Source\PSoC5/UART_GPS.c **** * Parameters:
 313:Generated_Source\PSoC5/UART_GPS.c **** *  control:  control register value
 314:Generated_Source\PSoC5/UART_GPS.c **** *
 315:Generated_Source\PSoC5/UART_GPS.c **** * Return:
 316:Generated_Source\PSoC5/UART_GPS.c **** *  None.
 317:Generated_Source\PSoC5/UART_GPS.c **** *
 318:Generated_Source\PSoC5/UART_GPS.c **** *******************************************************************************/
 319:Generated_Source\PSoC5/UART_GPS.c **** void  UART_GPS_WriteControlRegister(uint8 control) 
 320:Generated_Source\PSoC5/UART_GPS.c **** {
 262              		.loc 1 320 0
 263              		.cfi_startproc
 264              		@ args = 0, pretend = 0, frame = 0
 265              		@ frame_needed = 0, uses_anonymous_args = 0
 266              		@ link register save eliminated.
 267              	.LVL14:
 268 0000 7047     		bx	lr
 269              		.cfi_endproc
 270              	.LFE5:
 271              		.size	UART_GPS_WriteControlRegister, .-UART_GPS_WriteControlRegister
 272 0002 00BF     		.section	.text.UART_GPS_SetRxInterruptMode,"ax",%progbits
 273              		.align	2
 274              		.global	UART_GPS_SetRxInterruptMode
 275              		.thumb
 276              		.thumb_func
 277              		.type	UART_GPS_SetRxInterruptMode, %function
 278              	UART_GPS_SetRxInterruptMode:
 279              	.LFB6:
 321:Generated_Source\PSoC5/UART_GPS.c ****     #if (UART_GPS_CONTROL_REG_REMOVED)
 322:Generated_Source\PSoC5/UART_GPS.c ****         if(0u != control)
 323:Generated_Source\PSoC5/UART_GPS.c ****         {
 324:Generated_Source\PSoC5/UART_GPS.c ****             /* Suppress compiler warning */
 325:Generated_Source\PSoC5/UART_GPS.c ****         }
 326:Generated_Source\PSoC5/UART_GPS.c ****     #else
 327:Generated_Source\PSoC5/UART_GPS.c ****        UART_GPS_CONTROL_REG = control;
 328:Generated_Source\PSoC5/UART_GPS.c ****     #endif /* (UART_GPS_CONTROL_REG_REMOVED) */
 329:Generated_Source\PSoC5/UART_GPS.c **** }
 330:Generated_Source\PSoC5/UART_GPS.c **** 
 331:Generated_Source\PSoC5/UART_GPS.c **** 
 332:Generated_Source\PSoC5/UART_GPS.c **** #if(UART_GPS_RX_ENABLED || UART_GPS_HD_ENABLED)
 333:Generated_Source\PSoC5/UART_GPS.c ****     /*******************************************************************************
 334:Generated_Source\PSoC5/UART_GPS.c ****     * Function Name: UART_GPS_SetRxInterruptMode
 335:Generated_Source\PSoC5/UART_GPS.c ****     ********************************************************************************
 336:Generated_Source\PSoC5/UART_GPS.c ****     *
 337:Generated_Source\PSoC5/UART_GPS.c ****     * Summary:
 338:Generated_Source\PSoC5/UART_GPS.c ****     *  Configures the RX interrupt sources enabled.
 339:Generated_Source\PSoC5/UART_GPS.c ****     *
 340:Generated_Source\PSoC5/UART_GPS.c ****     * Parameters:
 341:Generated_Source\PSoC5/UART_GPS.c ****     *  IntSrc:  Bit field containing the RX interrupts to enable. Based on the 
 342:Generated_Source\PSoC5/UART_GPS.c ****     *  bit-field arrangement of the status register. This value must be a 
 343:Generated_Source\PSoC5/UART_GPS.c ****     *  combination of status register bit-masks shown below:
ARM GAS  C:\Users\cronos\AppData\Local\Temp\ccrntx0f.s 			page 12


 344:Generated_Source\PSoC5/UART_GPS.c ****     *      UART_GPS_RX_STS_FIFO_NOTEMPTY    Interrupt on byte received.
 345:Generated_Source\PSoC5/UART_GPS.c ****     *      UART_GPS_RX_STS_PAR_ERROR        Interrupt on parity error.
 346:Generated_Source\PSoC5/UART_GPS.c ****     *      UART_GPS_RX_STS_STOP_ERROR       Interrupt on stop error.
 347:Generated_Source\PSoC5/UART_GPS.c ****     *      UART_GPS_RX_STS_BREAK            Interrupt on break.
 348:Generated_Source\PSoC5/UART_GPS.c ****     *      UART_GPS_RX_STS_OVERRUN          Interrupt on overrun error.
 349:Generated_Source\PSoC5/UART_GPS.c ****     *      UART_GPS_RX_STS_ADDR_MATCH       Interrupt on address match.
 350:Generated_Source\PSoC5/UART_GPS.c ****     *      UART_GPS_RX_STS_MRKSPC           Interrupt on address detect.
 351:Generated_Source\PSoC5/UART_GPS.c ****     *
 352:Generated_Source\PSoC5/UART_GPS.c ****     * Return:
 353:Generated_Source\PSoC5/UART_GPS.c ****     *  None.
 354:Generated_Source\PSoC5/UART_GPS.c ****     *
 355:Generated_Source\PSoC5/UART_GPS.c ****     * Theory:
 356:Generated_Source\PSoC5/UART_GPS.c ****     *  Enables the output of specific status bits to the interrupt controller
 357:Generated_Source\PSoC5/UART_GPS.c ****     *
 358:Generated_Source\PSoC5/UART_GPS.c ****     *******************************************************************************/
 359:Generated_Source\PSoC5/UART_GPS.c ****     void UART_GPS_SetRxInterruptMode(uint8 intSrc) 
 360:Generated_Source\PSoC5/UART_GPS.c ****     {
 280              		.loc 1 360 0
 281              		.cfi_startproc
 282              		@ args = 0, pretend = 0, frame = 0
 283              		@ frame_needed = 0, uses_anonymous_args = 0
 284              		@ link register save eliminated.
 285              	.LVL15:
 361:Generated_Source\PSoC5/UART_GPS.c ****         UART_GPS_RXSTATUS_MASK_REG  = intSrc;
 286              		.loc 1 361 0
 287 0000 014B     		ldr	r3, .L21
 288 0002 1870     		strb	r0, [r3]
 289 0004 7047     		bx	lr
 290              	.L22:
 291 0006 00BF     		.align	2
 292              	.L21:
 293 0008 8D640040 		.word	1073767565
 294              		.cfi_endproc
 295              	.LFE6:
 296              		.size	UART_GPS_SetRxInterruptMode, .-UART_GPS_SetRxInterruptMode
 297              		.section	.text.UART_GPS_ReadRxData,"ax",%progbits
 298              		.align	2
 299              		.global	UART_GPS_ReadRxData
 300              		.thumb
 301              		.thumb_func
 302              		.type	UART_GPS_ReadRxData, %function
 303              	UART_GPS_ReadRxData:
 304              	.LFB7:
 362:Generated_Source\PSoC5/UART_GPS.c ****     }
 363:Generated_Source\PSoC5/UART_GPS.c **** 
 364:Generated_Source\PSoC5/UART_GPS.c **** 
 365:Generated_Source\PSoC5/UART_GPS.c ****     /*******************************************************************************
 366:Generated_Source\PSoC5/UART_GPS.c ****     * Function Name: UART_GPS_ReadRxData
 367:Generated_Source\PSoC5/UART_GPS.c ****     ********************************************************************************
 368:Generated_Source\PSoC5/UART_GPS.c ****     *
 369:Generated_Source\PSoC5/UART_GPS.c ****     * Summary:
 370:Generated_Source\PSoC5/UART_GPS.c ****     *  Returns the next byte of received data. This function returns data without
 371:Generated_Source\PSoC5/UART_GPS.c ****     *  checking the status. You must check the status separately.
 372:Generated_Source\PSoC5/UART_GPS.c ****     *
 373:Generated_Source\PSoC5/UART_GPS.c ****     * Parameters:
 374:Generated_Source\PSoC5/UART_GPS.c ****     *  None.
 375:Generated_Source\PSoC5/UART_GPS.c ****     *
ARM GAS  C:\Users\cronos\AppData\Local\Temp\ccrntx0f.s 			page 13


 376:Generated_Source\PSoC5/UART_GPS.c ****     * Return:
 377:Generated_Source\PSoC5/UART_GPS.c ****     *  Received data from RX register
 378:Generated_Source\PSoC5/UART_GPS.c ****     *
 379:Generated_Source\PSoC5/UART_GPS.c ****     * Global Variables:
 380:Generated_Source\PSoC5/UART_GPS.c ****     *  UART_GPS_rxBuffer - RAM buffer pointer for save received data.
 381:Generated_Source\PSoC5/UART_GPS.c ****     *  UART_GPS_rxBufferWrite - cyclic index for write to rxBuffer,
 382:Generated_Source\PSoC5/UART_GPS.c ****     *     checked to identify new data.
 383:Generated_Source\PSoC5/UART_GPS.c ****     *  UART_GPS_rxBufferRead - cyclic index for read from rxBuffer,
 384:Generated_Source\PSoC5/UART_GPS.c ****     *     incremented after each byte has been read from buffer.
 385:Generated_Source\PSoC5/UART_GPS.c ****     *  UART_GPS_rxBufferLoopDetect - cleared if loop condition was detected
 386:Generated_Source\PSoC5/UART_GPS.c ****     *     in RX ISR.
 387:Generated_Source\PSoC5/UART_GPS.c ****     *
 388:Generated_Source\PSoC5/UART_GPS.c ****     * Reentrant:
 389:Generated_Source\PSoC5/UART_GPS.c ****     *  No.
 390:Generated_Source\PSoC5/UART_GPS.c ****     *
 391:Generated_Source\PSoC5/UART_GPS.c ****     *******************************************************************************/
 392:Generated_Source\PSoC5/UART_GPS.c ****     uint8 UART_GPS_ReadRxData(void) 
 393:Generated_Source\PSoC5/UART_GPS.c ****     {
 305              		.loc 1 393 0
 306              		.cfi_startproc
 307              		@ args = 0, pretend = 0, frame = 0
 308              		@ frame_needed = 0, uses_anonymous_args = 0
 309              		@ link register save eliminated.
 394:Generated_Source\PSoC5/UART_GPS.c ****         uint8 rxData;
 395:Generated_Source\PSoC5/UART_GPS.c **** 
 396:Generated_Source\PSoC5/UART_GPS.c ****     #if (UART_GPS_RX_INTERRUPT_ENABLED)
 397:Generated_Source\PSoC5/UART_GPS.c **** 
 398:Generated_Source\PSoC5/UART_GPS.c ****         uint8 locRxBufferRead;
 399:Generated_Source\PSoC5/UART_GPS.c ****         uint8 locRxBufferWrite;
 400:Generated_Source\PSoC5/UART_GPS.c **** 
 401:Generated_Source\PSoC5/UART_GPS.c ****         /* Protect variables that could change on interrupt */
 402:Generated_Source\PSoC5/UART_GPS.c ****         UART_GPS_DisableRxInt();
 310              		.loc 1 402 0
 311 0000 0222     		movs	r2, #2
 312 0002 134B     		ldr	r3, .L29
 313 0004 1A60     		str	r2, [r3]
 403:Generated_Source\PSoC5/UART_GPS.c **** 
 404:Generated_Source\PSoC5/UART_GPS.c ****         locRxBufferRead  = UART_GPS_rxBufferRead;
 314              		.loc 1 404 0
 315 0006 134A     		ldr	r2, .L29+4
 316 0008 9378     		ldrb	r3, [r2, #2]	@ zero_extendqisi2
 317 000a DBB2     		uxtb	r3, r3
 318              	.LVL16:
 405:Generated_Source\PSoC5/UART_GPS.c ****         locRxBufferWrite = UART_GPS_rxBufferWrite;
 319              		.loc 1 405 0
 320 000c D178     		ldrb	r1, [r2, #3]	@ zero_extendqisi2
 321 000e C9B2     		uxtb	r1, r1
 322              	.LVL17:
 406:Generated_Source\PSoC5/UART_GPS.c **** 
 407:Generated_Source\PSoC5/UART_GPS.c ****         if( (UART_GPS_rxBufferLoopDetect != 0u) || (locRxBufferRead != locRxBufferWrite) )
 323              		.loc 1 407 0
 324 0010 1279     		ldrb	r2, [r2, #4]	@ zero_extendqisi2
 325 0012 12F0FF0F 		tst	r2, #255
 326 0016 01D1     		bne	.L24
 327              		.loc 1 407 0 is_stmt 0 discriminator 1
 328 0018 8B42     		cmp	r3, r1
 329 001a 11D0     		beq	.L25
ARM GAS  C:\Users\cronos\AppData\Local\Temp\ccrntx0f.s 			page 14


 330              	.L24:
 408:Generated_Source\PSoC5/UART_GPS.c ****         {
 409:Generated_Source\PSoC5/UART_GPS.c ****             rxData = UART_GPS_rxBuffer[locRxBufferRead];
 331              		.loc 1 409 0 is_stmt 1
 332 001c 0E4A     		ldr	r2, .L29+8
 333 001e D05C     		ldrb	r0, [r2, r3]	@ zero_extendqisi2
 334 0020 C0B2     		uxtb	r0, r0
 335              	.LVL18:
 410:Generated_Source\PSoC5/UART_GPS.c ****             locRxBufferRead++;
 336              		.loc 1 410 0
 337 0022 0133     		adds	r3, r3, #1
 338              	.LVL19:
 339 0024 DBB2     		uxtb	r3, r3
 340              	.LVL20:
 411:Generated_Source\PSoC5/UART_GPS.c **** 
 412:Generated_Source\PSoC5/UART_GPS.c ****             if(locRxBufferRead >= UART_GPS_RX_BUFFER_SIZE)
 341              		.loc 1 412 0
 342 0026 072B     		cmp	r3, #7
 343 0028 00D9     		bls	.L26
 413:Generated_Source\PSoC5/UART_GPS.c ****             {
 414:Generated_Source\PSoC5/UART_GPS.c ****                 locRxBufferRead = 0u;
 344              		.loc 1 414 0
 345 002a 0023     		movs	r3, #0
 346              	.LVL21:
 347              	.L26:
 415:Generated_Source\PSoC5/UART_GPS.c ****             }
 416:Generated_Source\PSoC5/UART_GPS.c ****             /* Update the real pointer */
 417:Generated_Source\PSoC5/UART_GPS.c ****             UART_GPS_rxBufferRead = locRxBufferRead;
 348              		.loc 1 417 0
 349 002c 094A     		ldr	r2, .L29+4
 350 002e 9370     		strb	r3, [r2, #2]
 418:Generated_Source\PSoC5/UART_GPS.c **** 
 419:Generated_Source\PSoC5/UART_GPS.c ****             if(UART_GPS_rxBufferLoopDetect != 0u)
 351              		.loc 1 419 0
 352 0030 1379     		ldrb	r3, [r2, #4]	@ zero_extendqisi2
 353              	.LVL22:
 354 0032 13F0FF0F 		tst	r3, #255
 355 0036 06D0     		beq	.L27
 420:Generated_Source\PSoC5/UART_GPS.c ****             {
 421:Generated_Source\PSoC5/UART_GPS.c ****                 UART_GPS_rxBufferLoopDetect = 0u;
 356              		.loc 1 421 0
 357 0038 0022     		movs	r2, #0
 358 003a 064B     		ldr	r3, .L29+4
 359 003c 1A71     		strb	r2, [r3, #4]
 360              	.LVL23:
 361 003e 02E0     		b	.L27
 362              	.LVL24:
 363              	.L25:
 422:Generated_Source\PSoC5/UART_GPS.c ****                 #if ((UART_GPS_RX_INTERRUPT_ENABLED) && (UART_GPS_FLOW_CONTROL != 0u))
 423:Generated_Source\PSoC5/UART_GPS.c ****                     /* When Hardware Flow Control selected - return RX mask */
 424:Generated_Source\PSoC5/UART_GPS.c ****                     #if( UART_GPS_HD_ENABLED )
 425:Generated_Source\PSoC5/UART_GPS.c ****                         if((UART_GPS_CONTROL_REG & UART_GPS_CTRL_HD_SEND) == 0u)
 426:Generated_Source\PSoC5/UART_GPS.c ****                         {   /* In Half duplex mode return RX mask only in RX
 427:Generated_Source\PSoC5/UART_GPS.c ****                             *  configuration set, otherwise
 428:Generated_Source\PSoC5/UART_GPS.c ****                             *  mask will be returned in LoadRxConfig() API.
 429:Generated_Source\PSoC5/UART_GPS.c ****                             */
 430:Generated_Source\PSoC5/UART_GPS.c ****                             UART_GPS_RXSTATUS_MASK_REG  |= UART_GPS_RX_STS_FIFO_NOTEMPTY;
ARM GAS  C:\Users\cronos\AppData\Local\Temp\ccrntx0f.s 			page 15


 431:Generated_Source\PSoC5/UART_GPS.c ****                         }
 432:Generated_Source\PSoC5/UART_GPS.c ****                     #else
 433:Generated_Source\PSoC5/UART_GPS.c ****                         UART_GPS_RXSTATUS_MASK_REG  |= UART_GPS_RX_STS_FIFO_NOTEMPTY;
 434:Generated_Source\PSoC5/UART_GPS.c ****                     #endif /* end UART_GPS_HD_ENABLED */
 435:Generated_Source\PSoC5/UART_GPS.c ****                 #endif /* ((UART_GPS_RX_INTERRUPT_ENABLED) && (UART_GPS_FLOW_CONTROL != 0u)) */
 436:Generated_Source\PSoC5/UART_GPS.c ****             }
 437:Generated_Source\PSoC5/UART_GPS.c ****         }
 438:Generated_Source\PSoC5/UART_GPS.c ****         else
 439:Generated_Source\PSoC5/UART_GPS.c ****         {   /* Needs to check status for RX_STS_FIFO_NOTEMPTY bit */
 440:Generated_Source\PSoC5/UART_GPS.c ****             rxData = UART_GPS_RXDATA_REG;
 364              		.loc 1 440 0
 365 0040 064B     		ldr	r3, .L29+12
 366              	.LVL25:
 367 0042 1878     		ldrb	r0, [r3]	@ zero_extendqisi2
 368 0044 C0B2     		uxtb	r0, r0
 369              	.LVL26:
 370              	.L27:
 441:Generated_Source\PSoC5/UART_GPS.c ****         }
 442:Generated_Source\PSoC5/UART_GPS.c **** 
 443:Generated_Source\PSoC5/UART_GPS.c ****         UART_GPS_EnableRxInt();
 371              		.loc 1 443 0
 372 0046 0222     		movs	r2, #2
 373 0048 054B     		ldr	r3, .L29+16
 374 004a 1A60     		str	r2, [r3]
 444:Generated_Source\PSoC5/UART_GPS.c **** 
 445:Generated_Source\PSoC5/UART_GPS.c ****     #else
 446:Generated_Source\PSoC5/UART_GPS.c **** 
 447:Generated_Source\PSoC5/UART_GPS.c ****         /* Needs to check status for RX_STS_FIFO_NOTEMPTY bit */
 448:Generated_Source\PSoC5/UART_GPS.c ****         rxData = UART_GPS_RXDATA_REG;
 449:Generated_Source\PSoC5/UART_GPS.c **** 
 450:Generated_Source\PSoC5/UART_GPS.c ****     #endif /* (UART_GPS_RX_INTERRUPT_ENABLED) */
 451:Generated_Source\PSoC5/UART_GPS.c **** 
 452:Generated_Source\PSoC5/UART_GPS.c ****         return(rxData);
 453:Generated_Source\PSoC5/UART_GPS.c ****     }
 375              		.loc 1 453 0
 376 004c 7047     		bx	lr
 377              	.L30:
 378 004e 00BF     		.align	2
 379              	.L29:
 380 0050 80E100E0 		.word	-536813184
 381 0054 00000000 		.word	.LANCHOR0
 382 0058 00000000 		.word	UART_GPS_rxBuffer
 383 005c 48640040 		.word	1073767496
 384 0060 00E100E0 		.word	-536813312
 385              		.cfi_endproc
 386              	.LFE7:
 387              		.size	UART_GPS_ReadRxData, .-UART_GPS_ReadRxData
 388              		.section	.text.UART_GPS_ReadRxStatus,"ax",%progbits
 389              		.align	2
 390              		.global	UART_GPS_ReadRxStatus
 391              		.thumb
 392              		.thumb_func
 393              		.type	UART_GPS_ReadRxStatus, %function
 394              	UART_GPS_ReadRxStatus:
 395              	.LFB8:
 454:Generated_Source\PSoC5/UART_GPS.c **** 
 455:Generated_Source\PSoC5/UART_GPS.c **** 
ARM GAS  C:\Users\cronos\AppData\Local\Temp\ccrntx0f.s 			page 16


 456:Generated_Source\PSoC5/UART_GPS.c ****     /*******************************************************************************
 457:Generated_Source\PSoC5/UART_GPS.c ****     * Function Name: UART_GPS_ReadRxStatus
 458:Generated_Source\PSoC5/UART_GPS.c ****     ********************************************************************************
 459:Generated_Source\PSoC5/UART_GPS.c ****     *
 460:Generated_Source\PSoC5/UART_GPS.c ****     * Summary:
 461:Generated_Source\PSoC5/UART_GPS.c ****     *  Returns the current state of the receiver status register and the software
 462:Generated_Source\PSoC5/UART_GPS.c ****     *  buffer overflow status.
 463:Generated_Source\PSoC5/UART_GPS.c ****     *
 464:Generated_Source\PSoC5/UART_GPS.c ****     * Parameters:
 465:Generated_Source\PSoC5/UART_GPS.c ****     *  None.
 466:Generated_Source\PSoC5/UART_GPS.c ****     *
 467:Generated_Source\PSoC5/UART_GPS.c ****     * Return:
 468:Generated_Source\PSoC5/UART_GPS.c ****     *  Current state of the status register.
 469:Generated_Source\PSoC5/UART_GPS.c ****     *
 470:Generated_Source\PSoC5/UART_GPS.c ****     * Side Effect:
 471:Generated_Source\PSoC5/UART_GPS.c ****     *  All status register bits are clear-on-read except
 472:Generated_Source\PSoC5/UART_GPS.c ****     *  UART_GPS_RX_STS_FIFO_NOTEMPTY.
 473:Generated_Source\PSoC5/UART_GPS.c ****     *  UART_GPS_RX_STS_FIFO_NOTEMPTY clears immediately after RX data
 474:Generated_Source\PSoC5/UART_GPS.c ****     *  register read.
 475:Generated_Source\PSoC5/UART_GPS.c ****     *
 476:Generated_Source\PSoC5/UART_GPS.c ****     * Global Variables:
 477:Generated_Source\PSoC5/UART_GPS.c ****     *  UART_GPS_rxBufferOverflow - used to indicate overload condition.
 478:Generated_Source\PSoC5/UART_GPS.c ****     *   It set to one in RX interrupt when there isn't free space in
 479:Generated_Source\PSoC5/UART_GPS.c ****     *   UART_GPS_rxBufferRead to write new data. This condition returned
 480:Generated_Source\PSoC5/UART_GPS.c ****     *   and cleared to zero by this API as an
 481:Generated_Source\PSoC5/UART_GPS.c ****     *   UART_GPS_RX_STS_SOFT_BUFF_OVER bit along with RX Status register
 482:Generated_Source\PSoC5/UART_GPS.c ****     *   bits.
 483:Generated_Source\PSoC5/UART_GPS.c ****     *
 484:Generated_Source\PSoC5/UART_GPS.c ****     *******************************************************************************/
 485:Generated_Source\PSoC5/UART_GPS.c ****     uint8 UART_GPS_ReadRxStatus(void) 
 486:Generated_Source\PSoC5/UART_GPS.c ****     {
 396              		.loc 1 486 0
 397              		.cfi_startproc
 398              		@ args = 0, pretend = 0, frame = 0
 399              		@ frame_needed = 0, uses_anonymous_args = 0
 400              		@ link register save eliminated.
 487:Generated_Source\PSoC5/UART_GPS.c ****         uint8 status;
 488:Generated_Source\PSoC5/UART_GPS.c **** 
 489:Generated_Source\PSoC5/UART_GPS.c ****         status = UART_GPS_RXSTATUS_REG & UART_GPS_RX_HW_MASK;
 401              		.loc 1 489 0
 402 0000 074B     		ldr	r3, .L33
 403 0002 1878     		ldrb	r0, [r3]	@ zero_extendqisi2
 404 0004 00F07F00 		and	r0, r0, #127
 405              	.LVL27:
 490:Generated_Source\PSoC5/UART_GPS.c **** 
 491:Generated_Source\PSoC5/UART_GPS.c ****     #if (UART_GPS_RX_INTERRUPT_ENABLED)
 492:Generated_Source\PSoC5/UART_GPS.c ****         if(UART_GPS_rxBufferOverflow != 0u)
 406              		.loc 1 492 0
 407 0008 064B     		ldr	r3, .L33+4
 408 000a 5B79     		ldrb	r3, [r3, #5]	@ zero_extendqisi2
 409 000c 13F0FF0F 		tst	r3, #255
 410 0010 04D0     		beq	.L32
 493:Generated_Source\PSoC5/UART_GPS.c ****         {
 494:Generated_Source\PSoC5/UART_GPS.c ****             status |= UART_GPS_RX_STS_SOFT_BUFF_OVER;
 411              		.loc 1 494 0
 412 0012 40F08000 		orr	r0, r0, #128
 413              	.LVL28:
ARM GAS  C:\Users\cronos\AppData\Local\Temp\ccrntx0f.s 			page 17


 495:Generated_Source\PSoC5/UART_GPS.c ****             UART_GPS_rxBufferOverflow = 0u;
 414              		.loc 1 495 0
 415 0016 0022     		movs	r2, #0
 416 0018 024B     		ldr	r3, .L33+4
 417 001a 5A71     		strb	r2, [r3, #5]
 418              	.L32:
 496:Generated_Source\PSoC5/UART_GPS.c ****         }
 497:Generated_Source\PSoC5/UART_GPS.c ****     #endif /* (UART_GPS_RX_INTERRUPT_ENABLED) */
 498:Generated_Source\PSoC5/UART_GPS.c **** 
 499:Generated_Source\PSoC5/UART_GPS.c ****         return(status);
 500:Generated_Source\PSoC5/UART_GPS.c ****     }
 419              		.loc 1 500 0
 420 001c 7047     		bx	lr
 421              	.L34:
 422 001e 00BF     		.align	2
 423              	.L33:
 424 0020 6D640040 		.word	1073767533
 425 0024 00000000 		.word	.LANCHOR0
 426              		.cfi_endproc
 427              	.LFE8:
 428              		.size	UART_GPS_ReadRxStatus, .-UART_GPS_ReadRxStatus
 429              		.section	.text.UART_GPS_GetChar,"ax",%progbits
 430              		.align	2
 431              		.global	UART_GPS_GetChar
 432              		.thumb
 433              		.thumb_func
 434              		.type	UART_GPS_GetChar, %function
 435              	UART_GPS_GetChar:
 436              	.LFB9:
 501:Generated_Source\PSoC5/UART_GPS.c **** 
 502:Generated_Source\PSoC5/UART_GPS.c **** 
 503:Generated_Source\PSoC5/UART_GPS.c ****     /*******************************************************************************
 504:Generated_Source\PSoC5/UART_GPS.c ****     * Function Name: UART_GPS_GetChar
 505:Generated_Source\PSoC5/UART_GPS.c ****     ********************************************************************************
 506:Generated_Source\PSoC5/UART_GPS.c ****     *
 507:Generated_Source\PSoC5/UART_GPS.c ****     * Summary:
 508:Generated_Source\PSoC5/UART_GPS.c ****     *  Returns the last received byte of data. UART_GPS_GetChar() is
 509:Generated_Source\PSoC5/UART_GPS.c ****     *  designed for ASCII characters and returns a uint8 where 1 to 255 are values
 510:Generated_Source\PSoC5/UART_GPS.c ****     *  for valid characters and 0 indicates an error occurred or no data is present.
 511:Generated_Source\PSoC5/UART_GPS.c ****     *
 512:Generated_Source\PSoC5/UART_GPS.c ****     * Parameters:
 513:Generated_Source\PSoC5/UART_GPS.c ****     *  None.
 514:Generated_Source\PSoC5/UART_GPS.c ****     *
 515:Generated_Source\PSoC5/UART_GPS.c ****     * Return:
 516:Generated_Source\PSoC5/UART_GPS.c ****     *  Character read from UART RX buffer. ASCII characters from 1 to 255 are valid.
 517:Generated_Source\PSoC5/UART_GPS.c ****     *  A returned zero signifies an error condition or no data available.
 518:Generated_Source\PSoC5/UART_GPS.c ****     *
 519:Generated_Source\PSoC5/UART_GPS.c ****     * Global Variables:
 520:Generated_Source\PSoC5/UART_GPS.c ****     *  UART_GPS_rxBuffer - RAM buffer pointer for save received data.
 521:Generated_Source\PSoC5/UART_GPS.c ****     *  UART_GPS_rxBufferWrite - cyclic index for write to rxBuffer,
 522:Generated_Source\PSoC5/UART_GPS.c ****     *     checked to identify new data.
 523:Generated_Source\PSoC5/UART_GPS.c ****     *  UART_GPS_rxBufferRead - cyclic index for read from rxBuffer,
 524:Generated_Source\PSoC5/UART_GPS.c ****     *     incremented after each byte has been read from buffer.
 525:Generated_Source\PSoC5/UART_GPS.c ****     *  UART_GPS_rxBufferLoopDetect - cleared if loop condition was detected
 526:Generated_Source\PSoC5/UART_GPS.c ****     *     in RX ISR.
 527:Generated_Source\PSoC5/UART_GPS.c ****     *
 528:Generated_Source\PSoC5/UART_GPS.c ****     * Reentrant:
ARM GAS  C:\Users\cronos\AppData\Local\Temp\ccrntx0f.s 			page 18


 529:Generated_Source\PSoC5/UART_GPS.c ****     *  No.
 530:Generated_Source\PSoC5/UART_GPS.c ****     *
 531:Generated_Source\PSoC5/UART_GPS.c ****     *******************************************************************************/
 532:Generated_Source\PSoC5/UART_GPS.c ****     uint8 UART_GPS_GetChar(void) 
 533:Generated_Source\PSoC5/UART_GPS.c ****     {
 437              		.loc 1 533 0
 438              		.cfi_startproc
 439              		@ args = 0, pretend = 0, frame = 0
 440              		@ frame_needed = 0, uses_anonymous_args = 0
 441              		@ link register save eliminated.
 442              	.LVL29:
 534:Generated_Source\PSoC5/UART_GPS.c ****         uint8 rxData = 0u;
 535:Generated_Source\PSoC5/UART_GPS.c ****         uint8 rxStatus;
 536:Generated_Source\PSoC5/UART_GPS.c **** 
 537:Generated_Source\PSoC5/UART_GPS.c ****     #if (UART_GPS_RX_INTERRUPT_ENABLED)
 538:Generated_Source\PSoC5/UART_GPS.c ****         uint8 locRxBufferRead;
 539:Generated_Source\PSoC5/UART_GPS.c ****         uint8 locRxBufferWrite;
 540:Generated_Source\PSoC5/UART_GPS.c **** 
 541:Generated_Source\PSoC5/UART_GPS.c ****         /* Protect variables that could change on interrupt */
 542:Generated_Source\PSoC5/UART_GPS.c ****         UART_GPS_DisableRxInt();
 443              		.loc 1 542 0
 444 0000 0222     		movs	r2, #2
 445 0002 194B     		ldr	r3, .L43
 446 0004 1A60     		str	r2, [r3]
 543:Generated_Source\PSoC5/UART_GPS.c **** 
 544:Generated_Source\PSoC5/UART_GPS.c ****         locRxBufferRead  = UART_GPS_rxBufferRead;
 447              		.loc 1 544 0
 448 0006 194A     		ldr	r2, .L43+4
 449 0008 9378     		ldrb	r3, [r2, #2]	@ zero_extendqisi2
 450 000a DBB2     		uxtb	r3, r3
 451              	.LVL30:
 545:Generated_Source\PSoC5/UART_GPS.c ****         locRxBufferWrite = UART_GPS_rxBufferWrite;
 452              		.loc 1 545 0
 453 000c D178     		ldrb	r1, [r2, #3]	@ zero_extendqisi2
 454 000e C9B2     		uxtb	r1, r1
 455              	.LVL31:
 546:Generated_Source\PSoC5/UART_GPS.c **** 
 547:Generated_Source\PSoC5/UART_GPS.c ****         if( (UART_GPS_rxBufferLoopDetect != 0u) || (locRxBufferRead != locRxBufferWrite) )
 456              		.loc 1 547 0
 457 0010 1279     		ldrb	r2, [r2, #4]	@ zero_extendqisi2
 458 0012 12F0FF0F 		tst	r2, #255
 459 0016 01D1     		bne	.L36
 460              		.loc 1 547 0 is_stmt 0 discriminator 1
 461 0018 8B42     		cmp	r3, r1
 462 001a 11D0     		beq	.L37
 463              	.L36:
 548:Generated_Source\PSoC5/UART_GPS.c ****         {
 549:Generated_Source\PSoC5/UART_GPS.c ****             rxData = UART_GPS_rxBuffer[locRxBufferRead];
 464              		.loc 1 549 0 is_stmt 1
 465 001c 144A     		ldr	r2, .L43+8
 466 001e D05C     		ldrb	r0, [r2, r3]	@ zero_extendqisi2
 467 0020 C0B2     		uxtb	r0, r0
 468              	.LVL32:
 550:Generated_Source\PSoC5/UART_GPS.c ****             locRxBufferRead++;
 469              		.loc 1 550 0
 470 0022 0133     		adds	r3, r3, #1
 471              	.LVL33:
ARM GAS  C:\Users\cronos\AppData\Local\Temp\ccrntx0f.s 			page 19


 472 0024 DBB2     		uxtb	r3, r3
 473              	.LVL34:
 551:Generated_Source\PSoC5/UART_GPS.c ****             if(locRxBufferRead >= UART_GPS_RX_BUFFER_SIZE)
 474              		.loc 1 551 0
 475 0026 072B     		cmp	r3, #7
 476 0028 00D9     		bls	.L38
 552:Generated_Source\PSoC5/UART_GPS.c ****             {
 553:Generated_Source\PSoC5/UART_GPS.c ****                 locRxBufferRead = 0u;
 477              		.loc 1 553 0
 478 002a 0023     		movs	r3, #0
 479              	.LVL35:
 480              	.L38:
 554:Generated_Source\PSoC5/UART_GPS.c ****             }
 555:Generated_Source\PSoC5/UART_GPS.c ****             /* Update the real pointer */
 556:Generated_Source\PSoC5/UART_GPS.c ****             UART_GPS_rxBufferRead = locRxBufferRead;
 481              		.loc 1 556 0
 482 002c 0F4A     		ldr	r2, .L43+4
 483 002e 9370     		strb	r3, [r2, #2]
 557:Generated_Source\PSoC5/UART_GPS.c **** 
 558:Generated_Source\PSoC5/UART_GPS.c ****             if(UART_GPS_rxBufferLoopDetect != 0u)
 484              		.loc 1 558 0
 485 0030 1379     		ldrb	r3, [r2, #4]	@ zero_extendqisi2
 486              	.LVL36:
 487 0032 13F0FF0F 		tst	r3, #255
 488 0036 13D0     		beq	.L39
 559:Generated_Source\PSoC5/UART_GPS.c ****             {
 560:Generated_Source\PSoC5/UART_GPS.c ****                 UART_GPS_rxBufferLoopDetect = 0u;
 489              		.loc 1 560 0
 490 0038 0022     		movs	r2, #0
 491 003a 0C4B     		ldr	r3, .L43+4
 492 003c 1A71     		strb	r2, [r3, #4]
 493              	.LVL37:
 494 003e 0FE0     		b	.L39
 495              	.LVL38:
 496              	.L37:
 561:Generated_Source\PSoC5/UART_GPS.c ****                 #if( (UART_GPS_RX_INTERRUPT_ENABLED) && (UART_GPS_FLOW_CONTROL != 0u) )
 562:Generated_Source\PSoC5/UART_GPS.c ****                     /* When Hardware Flow Control selected - return RX mask */
 563:Generated_Source\PSoC5/UART_GPS.c ****                     #if( UART_GPS_HD_ENABLED )
 564:Generated_Source\PSoC5/UART_GPS.c ****                         if((UART_GPS_CONTROL_REG & UART_GPS_CTRL_HD_SEND) == 0u)
 565:Generated_Source\PSoC5/UART_GPS.c ****                         {   /* In Half duplex mode return RX mask only if
 566:Generated_Source\PSoC5/UART_GPS.c ****                             *  RX configuration set, otherwise
 567:Generated_Source\PSoC5/UART_GPS.c ****                             *  mask will be returned in LoadRxConfig() API.
 568:Generated_Source\PSoC5/UART_GPS.c ****                             */
 569:Generated_Source\PSoC5/UART_GPS.c ****                             UART_GPS_RXSTATUS_MASK_REG |= UART_GPS_RX_STS_FIFO_NOTEMPTY;
 570:Generated_Source\PSoC5/UART_GPS.c ****                         }
 571:Generated_Source\PSoC5/UART_GPS.c ****                     #else
 572:Generated_Source\PSoC5/UART_GPS.c ****                         UART_GPS_RXSTATUS_MASK_REG |= UART_GPS_RX_STS_FIFO_NOTEMPTY;
 573:Generated_Source\PSoC5/UART_GPS.c ****                     #endif /* end UART_GPS_HD_ENABLED */
 574:Generated_Source\PSoC5/UART_GPS.c ****                 #endif /* UART_GPS_RX_INTERRUPT_ENABLED and Hardware flow control*/
 575:Generated_Source\PSoC5/UART_GPS.c ****             }
 576:Generated_Source\PSoC5/UART_GPS.c **** 
 577:Generated_Source\PSoC5/UART_GPS.c ****         }
 578:Generated_Source\PSoC5/UART_GPS.c ****         else
 579:Generated_Source\PSoC5/UART_GPS.c ****         {   rxStatus = UART_GPS_RXSTATUS_REG;
 497              		.loc 1 579 0
 498 0040 0C4B     		ldr	r3, .L43+12
 499              	.LVL39:
ARM GAS  C:\Users\cronos\AppData\Local\Temp\ccrntx0f.s 			page 20


 500 0042 1B78     		ldrb	r3, [r3]	@ zero_extendqisi2
 501 0044 DBB2     		uxtb	r3, r3
 502              	.LVL40:
 580:Generated_Source\PSoC5/UART_GPS.c ****             if((rxStatus & UART_GPS_RX_STS_FIFO_NOTEMPTY) != 0u)
 503              		.loc 1 580 0
 504 0046 13F0200F 		tst	r3, #32
 505 004a 06D0     		beq	.L41
 581:Generated_Source\PSoC5/UART_GPS.c ****             {   /* Read received data from FIFO */
 582:Generated_Source\PSoC5/UART_GPS.c ****                 rxData = UART_GPS_RXDATA_REG;
 506              		.loc 1 582 0
 507 004c 0A4A     		ldr	r2, .L43+16
 508 004e 1078     		ldrb	r0, [r2]	@ zero_extendqisi2
 509 0050 C0B2     		uxtb	r0, r0
 510              	.LVL41:
 583:Generated_Source\PSoC5/UART_GPS.c ****                 /*Check status on error*/
 584:Generated_Source\PSoC5/UART_GPS.c ****                 if((rxStatus & (UART_GPS_RX_STS_BREAK | UART_GPS_RX_STS_PAR_ERROR |
 511              		.loc 1 584 0
 512 0052 13F01E0F 		tst	r3, #30
 513 0056 02D1     		bne	.L42
 514 0058 02E0     		b	.L39
 515              	.LVL42:
 516              	.L41:
 534:Generated_Source\PSoC5/UART_GPS.c ****         uint8 rxStatus;
 517              		.loc 1 534 0
 518 005a 0020     		movs	r0, #0
 519 005c 00E0     		b	.L39
 520              	.LVL43:
 521              	.L42:
 585:Generated_Source\PSoC5/UART_GPS.c ****                                 UART_GPS_RX_STS_STOP_ERROR | UART_GPS_RX_STS_OVERRUN)) != 0u)
 586:Generated_Source\PSoC5/UART_GPS.c ****                 {
 587:Generated_Source\PSoC5/UART_GPS.c ****                     rxData = 0u;
 522              		.loc 1 587 0
 523 005e 0020     		movs	r0, #0
 524              	.LVL44:
 525              	.L39:
 588:Generated_Source\PSoC5/UART_GPS.c ****                 }
 589:Generated_Source\PSoC5/UART_GPS.c ****             }
 590:Generated_Source\PSoC5/UART_GPS.c ****         }
 591:Generated_Source\PSoC5/UART_GPS.c **** 
 592:Generated_Source\PSoC5/UART_GPS.c ****         UART_GPS_EnableRxInt();
 526              		.loc 1 592 0
 527 0060 0222     		movs	r2, #2
 528 0062 064B     		ldr	r3, .L43+20
 529 0064 1A60     		str	r2, [r3]
 593:Generated_Source\PSoC5/UART_GPS.c **** 
 594:Generated_Source\PSoC5/UART_GPS.c ****     #else
 595:Generated_Source\PSoC5/UART_GPS.c **** 
 596:Generated_Source\PSoC5/UART_GPS.c ****         rxStatus =UART_GPS_RXSTATUS_REG;
 597:Generated_Source\PSoC5/UART_GPS.c ****         if((rxStatus & UART_GPS_RX_STS_FIFO_NOTEMPTY) != 0u)
 598:Generated_Source\PSoC5/UART_GPS.c ****         {
 599:Generated_Source\PSoC5/UART_GPS.c ****             /* Read received data from FIFO */
 600:Generated_Source\PSoC5/UART_GPS.c ****             rxData = UART_GPS_RXDATA_REG;
 601:Generated_Source\PSoC5/UART_GPS.c **** 
 602:Generated_Source\PSoC5/UART_GPS.c ****             /*Check status on error*/
 603:Generated_Source\PSoC5/UART_GPS.c ****             if((rxStatus & (UART_GPS_RX_STS_BREAK | UART_GPS_RX_STS_PAR_ERROR |
 604:Generated_Source\PSoC5/UART_GPS.c ****                             UART_GPS_RX_STS_STOP_ERROR | UART_GPS_RX_STS_OVERRUN)) != 0u)
 605:Generated_Source\PSoC5/UART_GPS.c ****             {
ARM GAS  C:\Users\cronos\AppData\Local\Temp\ccrntx0f.s 			page 21


 606:Generated_Source\PSoC5/UART_GPS.c ****                 rxData = 0u;
 607:Generated_Source\PSoC5/UART_GPS.c ****             }
 608:Generated_Source\PSoC5/UART_GPS.c ****         }
 609:Generated_Source\PSoC5/UART_GPS.c ****     #endif /* (UART_GPS_RX_INTERRUPT_ENABLED) */
 610:Generated_Source\PSoC5/UART_GPS.c **** 
 611:Generated_Source\PSoC5/UART_GPS.c ****         return(rxData);
 612:Generated_Source\PSoC5/UART_GPS.c ****     }
 530              		.loc 1 612 0
 531 0066 7047     		bx	lr
 532              	.L44:
 533              		.align	2
 534              	.L43:
 535 0068 80E100E0 		.word	-536813184
 536 006c 00000000 		.word	.LANCHOR0
 537 0070 00000000 		.word	UART_GPS_rxBuffer
 538 0074 6D640040 		.word	1073767533
 539 0078 48640040 		.word	1073767496
 540 007c 00E100E0 		.word	-536813312
 541              		.cfi_endproc
 542              	.LFE9:
 543              		.size	UART_GPS_GetChar, .-UART_GPS_GetChar
 544              		.section	.text.UART_GPS_GetByte,"ax",%progbits
 545              		.align	2
 546              		.global	UART_GPS_GetByte
 547              		.thumb
 548              		.thumb_func
 549              		.type	UART_GPS_GetByte, %function
 550              	UART_GPS_GetByte:
 551              	.LFB10:
 613:Generated_Source\PSoC5/UART_GPS.c **** 
 614:Generated_Source\PSoC5/UART_GPS.c **** 
 615:Generated_Source\PSoC5/UART_GPS.c ****     /*******************************************************************************
 616:Generated_Source\PSoC5/UART_GPS.c ****     * Function Name: UART_GPS_GetByte
 617:Generated_Source\PSoC5/UART_GPS.c ****     ********************************************************************************
 618:Generated_Source\PSoC5/UART_GPS.c ****     *
 619:Generated_Source\PSoC5/UART_GPS.c ****     * Summary:
 620:Generated_Source\PSoC5/UART_GPS.c ****     *  Reads UART RX buffer immediately, returns received character and error
 621:Generated_Source\PSoC5/UART_GPS.c ****     *  condition.
 622:Generated_Source\PSoC5/UART_GPS.c ****     *
 623:Generated_Source\PSoC5/UART_GPS.c ****     * Parameters:
 624:Generated_Source\PSoC5/UART_GPS.c ****     *  None.
 625:Generated_Source\PSoC5/UART_GPS.c ****     *
 626:Generated_Source\PSoC5/UART_GPS.c ****     * Return:
 627:Generated_Source\PSoC5/UART_GPS.c ****     *  MSB contains status and LSB contains UART RX data. If the MSB is nonzero,
 628:Generated_Source\PSoC5/UART_GPS.c ****     *  an error has occurred.
 629:Generated_Source\PSoC5/UART_GPS.c ****     *
 630:Generated_Source\PSoC5/UART_GPS.c ****     * Reentrant:
 631:Generated_Source\PSoC5/UART_GPS.c ****     *  No.
 632:Generated_Source\PSoC5/UART_GPS.c ****     *
 633:Generated_Source\PSoC5/UART_GPS.c ****     *******************************************************************************/
 634:Generated_Source\PSoC5/UART_GPS.c ****     uint16 UART_GPS_GetByte(void) 
 635:Generated_Source\PSoC5/UART_GPS.c ****     {
 552              		.loc 1 635 0
 553              		.cfi_startproc
 554              		@ args = 0, pretend = 0, frame = 0
 555              		@ frame_needed = 0, uses_anonymous_args = 0
 556 0000 10B5     		push	{r4, lr}
ARM GAS  C:\Users\cronos\AppData\Local\Temp\ccrntx0f.s 			page 22


 557              		.cfi_def_cfa_offset 8
 558              		.cfi_offset 4, -8
 559              		.cfi_offset 14, -4
 636:Generated_Source\PSoC5/UART_GPS.c ****         
 637:Generated_Source\PSoC5/UART_GPS.c ****     #if (UART_GPS_RX_INTERRUPT_ENABLED)
 638:Generated_Source\PSoC5/UART_GPS.c ****         uint16 locErrorStatus;
 639:Generated_Source\PSoC5/UART_GPS.c ****         /* Protect variables that could change on interrupt */
 640:Generated_Source\PSoC5/UART_GPS.c ****         UART_GPS_DisableRxInt();
 560              		.loc 1 640 0
 561 0002 0223     		movs	r3, #2
 562 0004 064A     		ldr	r2, .L47
 563 0006 1360     		str	r3, [r2]
 641:Generated_Source\PSoC5/UART_GPS.c ****         locErrorStatus = (uint16)UART_GPS_errorStatus;
 564              		.loc 1 641 0
 565 0008 064A     		ldr	r2, .L47+4
 566 000a 1478     		ldrb	r4, [r2]	@ zero_extendqisi2
 567              	.LVL45:
 642:Generated_Source\PSoC5/UART_GPS.c ****         UART_GPS_errorStatus = 0u;
 568              		.loc 1 642 0
 569 000c 0021     		movs	r1, #0
 570 000e 1170     		strb	r1, [r2]
 643:Generated_Source\PSoC5/UART_GPS.c ****         UART_GPS_EnableRxInt();
 571              		.loc 1 643 0
 572 0010 054A     		ldr	r2, .L47+8
 573 0012 1360     		str	r3, [r2]
 644:Generated_Source\PSoC5/UART_GPS.c ****         return ( (uint16)(locErrorStatus << 8u) | UART_GPS_ReadRxData() );
 574              		.loc 1 644 0
 575 0014 2402     		lsls	r4, r4, #8
 576              	.LVL46:
 577 0016 FFF7FEFF 		bl	UART_GPS_ReadRxData
 578              	.LVL47:
 579 001a 2043     		orrs	r0, r0, r4
 645:Generated_Source\PSoC5/UART_GPS.c ****     #else
 646:Generated_Source\PSoC5/UART_GPS.c ****         return ( ((uint16)UART_GPS_ReadRxStatus() << 8u) | UART_GPS_ReadRxData() );
 647:Generated_Source\PSoC5/UART_GPS.c ****     #endif /* UART_GPS_RX_INTERRUPT_ENABLED */
 648:Generated_Source\PSoC5/UART_GPS.c ****         
 649:Generated_Source\PSoC5/UART_GPS.c ****     }
 580              		.loc 1 649 0
 581 001c 80B2     		uxth	r0, r0
 582 001e 10BD     		pop	{r4, pc}
 583              	.L48:
 584              		.align	2
 585              	.L47:
 586 0020 80E100E0 		.word	-536813184
 587 0024 00000000 		.word	.LANCHOR0
 588 0028 00E100E0 		.word	-536813312
 589              		.cfi_endproc
 590              	.LFE10:
 591              		.size	UART_GPS_GetByte, .-UART_GPS_GetByte
 592              		.section	.text.UART_GPS_GetRxBufferSize,"ax",%progbits
 593              		.align	2
 594              		.global	UART_GPS_GetRxBufferSize
 595              		.thumb
 596              		.thumb_func
 597              		.type	UART_GPS_GetRxBufferSize, %function
 598              	UART_GPS_GetRxBufferSize:
 599              	.LFB11:
ARM GAS  C:\Users\cronos\AppData\Local\Temp\ccrntx0f.s 			page 23


 650:Generated_Source\PSoC5/UART_GPS.c **** 
 651:Generated_Source\PSoC5/UART_GPS.c **** 
 652:Generated_Source\PSoC5/UART_GPS.c ****     /*******************************************************************************
 653:Generated_Source\PSoC5/UART_GPS.c ****     * Function Name: UART_GPS_GetRxBufferSize
 654:Generated_Source\PSoC5/UART_GPS.c ****     ********************************************************************************
 655:Generated_Source\PSoC5/UART_GPS.c ****     *
 656:Generated_Source\PSoC5/UART_GPS.c ****     * Summary:
 657:Generated_Source\PSoC5/UART_GPS.c ****     *  Returns the number of received bytes available in the RX buffer.
 658:Generated_Source\PSoC5/UART_GPS.c ****     *  * RX software buffer is disabled (RX Buffer Size parameter is equal to 4): 
 659:Generated_Source\PSoC5/UART_GPS.c ****     *    returns 0 for empty RX FIFO or 1 for not empty RX FIFO.
 660:Generated_Source\PSoC5/UART_GPS.c ****     *  * RX software buffer is enabled: returns the number of bytes available in 
 661:Generated_Source\PSoC5/UART_GPS.c ****     *    the RX software buffer. Bytes available in the RX FIFO do not take to 
 662:Generated_Source\PSoC5/UART_GPS.c ****     *    account.
 663:Generated_Source\PSoC5/UART_GPS.c ****     *
 664:Generated_Source\PSoC5/UART_GPS.c ****     * Parameters:
 665:Generated_Source\PSoC5/UART_GPS.c ****     *  None.
 666:Generated_Source\PSoC5/UART_GPS.c ****     *
 667:Generated_Source\PSoC5/UART_GPS.c ****     * Return:
 668:Generated_Source\PSoC5/UART_GPS.c ****     *  uint8: Number of bytes in the RX buffer. 
 669:Generated_Source\PSoC5/UART_GPS.c ****     *    Return value type depends on RX Buffer Size parameter.
 670:Generated_Source\PSoC5/UART_GPS.c ****     *
 671:Generated_Source\PSoC5/UART_GPS.c ****     * Global Variables:
 672:Generated_Source\PSoC5/UART_GPS.c ****     *  UART_GPS_rxBufferWrite - used to calculate left bytes.
 673:Generated_Source\PSoC5/UART_GPS.c ****     *  UART_GPS_rxBufferRead - used to calculate left bytes.
 674:Generated_Source\PSoC5/UART_GPS.c ****     *  UART_GPS_rxBufferLoopDetect - checked to decide left bytes amount.
 675:Generated_Source\PSoC5/UART_GPS.c ****     *
 676:Generated_Source\PSoC5/UART_GPS.c ****     * Reentrant:
 677:Generated_Source\PSoC5/UART_GPS.c ****     *  No.
 678:Generated_Source\PSoC5/UART_GPS.c ****     *
 679:Generated_Source\PSoC5/UART_GPS.c ****     * Theory:
 680:Generated_Source\PSoC5/UART_GPS.c ****     *  Allows the user to find out how full the RX Buffer is.
 681:Generated_Source\PSoC5/UART_GPS.c ****     *
 682:Generated_Source\PSoC5/UART_GPS.c ****     *******************************************************************************/
 683:Generated_Source\PSoC5/UART_GPS.c ****     uint8 UART_GPS_GetRxBufferSize(void)
 684:Generated_Source\PSoC5/UART_GPS.c ****                                                             
 685:Generated_Source\PSoC5/UART_GPS.c ****     {
 600              		.loc 1 685 0
 601              		.cfi_startproc
 602              		@ args = 0, pretend = 0, frame = 0
 603              		@ frame_needed = 0, uses_anonymous_args = 0
 604              		@ link register save eliminated.
 686:Generated_Source\PSoC5/UART_GPS.c ****         uint8 size;
 687:Generated_Source\PSoC5/UART_GPS.c **** 
 688:Generated_Source\PSoC5/UART_GPS.c ****     #if (UART_GPS_RX_INTERRUPT_ENABLED)
 689:Generated_Source\PSoC5/UART_GPS.c **** 
 690:Generated_Source\PSoC5/UART_GPS.c ****         /* Protect variables that could change on interrupt */
 691:Generated_Source\PSoC5/UART_GPS.c ****         UART_GPS_DisableRxInt();
 605              		.loc 1 691 0
 606 0000 0222     		movs	r2, #2
 607 0002 144B     		ldr	r3, .L54
 608 0004 1A60     		str	r2, [r3]
 692:Generated_Source\PSoC5/UART_GPS.c **** 
 693:Generated_Source\PSoC5/UART_GPS.c ****         if(UART_GPS_rxBufferRead == UART_GPS_rxBufferWrite)
 609              		.loc 1 693 0
 610 0006 144B     		ldr	r3, .L54+4
 611 0008 9A78     		ldrb	r2, [r3, #2]	@ zero_extendqisi2
 612 000a D2B2     		uxtb	r2, r2
ARM GAS  C:\Users\cronos\AppData\Local\Temp\ccrntx0f.s 			page 24


 613 000c DB78     		ldrb	r3, [r3, #3]	@ zero_extendqisi2
 614 000e DBB2     		uxtb	r3, r3
 615 0010 9A42     		cmp	r2, r3
 616 0012 06D1     		bne	.L50
 694:Generated_Source\PSoC5/UART_GPS.c ****         {
 695:Generated_Source\PSoC5/UART_GPS.c ****             if(UART_GPS_rxBufferLoopDetect != 0u)
 617              		.loc 1 695 0
 618 0014 104B     		ldr	r3, .L54+4
 619 0016 1B79     		ldrb	r3, [r3, #4]	@ zero_extendqisi2
 620 0018 13F0FF0F 		tst	r3, #255
 621 001c 15D0     		beq	.L53
 696:Generated_Source\PSoC5/UART_GPS.c ****             {
 697:Generated_Source\PSoC5/UART_GPS.c ****                 size = UART_GPS_RX_BUFFER_SIZE;
 622              		.loc 1 697 0
 623 001e 0820     		movs	r0, #8
 624 0020 14E0     		b	.L51
 625              	.L50:
 698:Generated_Source\PSoC5/UART_GPS.c ****             }
 699:Generated_Source\PSoC5/UART_GPS.c ****             else
 700:Generated_Source\PSoC5/UART_GPS.c ****             {
 701:Generated_Source\PSoC5/UART_GPS.c ****                 size = 0u;
 702:Generated_Source\PSoC5/UART_GPS.c ****             }
 703:Generated_Source\PSoC5/UART_GPS.c ****         }
 704:Generated_Source\PSoC5/UART_GPS.c ****         else if(UART_GPS_rxBufferRead < UART_GPS_rxBufferWrite)
 626              		.loc 1 704 0
 627 0022 0D4B     		ldr	r3, .L54+4
 628 0024 9A78     		ldrb	r2, [r3, #2]	@ zero_extendqisi2
 629 0026 D2B2     		uxtb	r2, r2
 630 0028 DB78     		ldrb	r3, [r3, #3]	@ zero_extendqisi2
 631 002a DBB2     		uxtb	r3, r3
 632 002c 9A42     		cmp	r2, r3
 633 002e 05D2     		bcs	.L52
 705:Generated_Source\PSoC5/UART_GPS.c ****         {
 706:Generated_Source\PSoC5/UART_GPS.c ****             size = (UART_GPS_rxBufferWrite - UART_GPS_rxBufferRead);
 634              		.loc 1 706 0
 635 0030 094A     		ldr	r2, .L54+4
 636 0032 D378     		ldrb	r3, [r2, #3]	@ zero_extendqisi2
 637 0034 9078     		ldrb	r0, [r2, #2]	@ zero_extendqisi2
 638 0036 181A     		subs	r0, r3, r0
 639 0038 C0B2     		uxtb	r0, r0
 640              	.LVL48:
 641 003a 07E0     		b	.L51
 642              	.LVL49:
 643              	.L52:
 707:Generated_Source\PSoC5/UART_GPS.c ****         }
 708:Generated_Source\PSoC5/UART_GPS.c ****         else
 709:Generated_Source\PSoC5/UART_GPS.c ****         {
 710:Generated_Source\PSoC5/UART_GPS.c ****             size = (UART_GPS_RX_BUFFER_SIZE - UART_GPS_rxBufferRead) + UART_GPS_rxBufferWrite;
 644              		.loc 1 710 0
 645 003c 064A     		ldr	r2, .L54+4
 646 003e D378     		ldrb	r3, [r2, #3]	@ zero_extendqisi2
 647 0040 9078     		ldrb	r0, [r2, #2]	@ zero_extendqisi2
 648 0042 181A     		subs	r0, r3, r0
 649 0044 0830     		adds	r0, r0, #8
 650 0046 C0B2     		uxtb	r0, r0
 651              	.LVL50:
 652 0048 00E0     		b	.L51
ARM GAS  C:\Users\cronos\AppData\Local\Temp\ccrntx0f.s 			page 25


 653              	.LVL51:
 654              	.L53:
 701:Generated_Source\PSoC5/UART_GPS.c ****             }
 655              		.loc 1 701 0
 656 004a 0020     		movs	r0, #0
 657              	.L51:
 658              	.LVL52:
 711:Generated_Source\PSoC5/UART_GPS.c ****         }
 712:Generated_Source\PSoC5/UART_GPS.c **** 
 713:Generated_Source\PSoC5/UART_GPS.c ****         UART_GPS_EnableRxInt();
 659              		.loc 1 713 0
 660 004c 0222     		movs	r2, #2
 661 004e 034B     		ldr	r3, .L54+8
 662 0050 1A60     		str	r2, [r3]
 714:Generated_Source\PSoC5/UART_GPS.c **** 
 715:Generated_Source\PSoC5/UART_GPS.c ****     #else
 716:Generated_Source\PSoC5/UART_GPS.c **** 
 717:Generated_Source\PSoC5/UART_GPS.c ****         /* We can only know if there is data in the fifo. */
 718:Generated_Source\PSoC5/UART_GPS.c ****         size = ((UART_GPS_RXSTATUS_REG & UART_GPS_RX_STS_FIFO_NOTEMPTY) != 0u) ? 1u : 0u;
 719:Generated_Source\PSoC5/UART_GPS.c **** 
 720:Generated_Source\PSoC5/UART_GPS.c ****     #endif /* (UART_GPS_RX_INTERRUPT_ENABLED) */
 721:Generated_Source\PSoC5/UART_GPS.c **** 
 722:Generated_Source\PSoC5/UART_GPS.c ****         return(size);
 723:Generated_Source\PSoC5/UART_GPS.c ****     }
 663              		.loc 1 723 0
 664 0052 7047     		bx	lr
 665              	.L55:
 666              		.align	2
 667              	.L54:
 668 0054 80E100E0 		.word	-536813184
 669 0058 00000000 		.word	.LANCHOR0
 670 005c 00E100E0 		.word	-536813312
 671              		.cfi_endproc
 672              	.LFE11:
 673              		.size	UART_GPS_GetRxBufferSize, .-UART_GPS_GetRxBufferSize
 674              		.section	.text.UART_GPS_ClearRxBuffer,"ax",%progbits
 675              		.align	2
 676              		.global	UART_GPS_ClearRxBuffer
 677              		.thumb
 678              		.thumb_func
 679              		.type	UART_GPS_ClearRxBuffer, %function
 680              	UART_GPS_ClearRxBuffer:
 681              	.LFB12:
 724:Generated_Source\PSoC5/UART_GPS.c **** 
 725:Generated_Source\PSoC5/UART_GPS.c **** 
 726:Generated_Source\PSoC5/UART_GPS.c ****     /*******************************************************************************
 727:Generated_Source\PSoC5/UART_GPS.c ****     * Function Name: UART_GPS_ClearRxBuffer
 728:Generated_Source\PSoC5/UART_GPS.c ****     ********************************************************************************
 729:Generated_Source\PSoC5/UART_GPS.c ****     *
 730:Generated_Source\PSoC5/UART_GPS.c ****     * Summary:
 731:Generated_Source\PSoC5/UART_GPS.c ****     *  Clears the receiver memory buffer and hardware RX FIFO of all received data.
 732:Generated_Source\PSoC5/UART_GPS.c ****     *
 733:Generated_Source\PSoC5/UART_GPS.c ****     * Parameters:
 734:Generated_Source\PSoC5/UART_GPS.c ****     *  None.
 735:Generated_Source\PSoC5/UART_GPS.c ****     *
 736:Generated_Source\PSoC5/UART_GPS.c ****     * Return:
 737:Generated_Source\PSoC5/UART_GPS.c ****     *  None.
ARM GAS  C:\Users\cronos\AppData\Local\Temp\ccrntx0f.s 			page 26


 738:Generated_Source\PSoC5/UART_GPS.c ****     *
 739:Generated_Source\PSoC5/UART_GPS.c ****     * Global Variables:
 740:Generated_Source\PSoC5/UART_GPS.c ****     *  UART_GPS_rxBufferWrite - cleared to zero.
 741:Generated_Source\PSoC5/UART_GPS.c ****     *  UART_GPS_rxBufferRead - cleared to zero.
 742:Generated_Source\PSoC5/UART_GPS.c ****     *  UART_GPS_rxBufferLoopDetect - cleared to zero.
 743:Generated_Source\PSoC5/UART_GPS.c ****     *  UART_GPS_rxBufferOverflow - cleared to zero.
 744:Generated_Source\PSoC5/UART_GPS.c ****     *
 745:Generated_Source\PSoC5/UART_GPS.c ****     * Reentrant:
 746:Generated_Source\PSoC5/UART_GPS.c ****     *  No.
 747:Generated_Source\PSoC5/UART_GPS.c ****     *
 748:Generated_Source\PSoC5/UART_GPS.c ****     * Theory:
 749:Generated_Source\PSoC5/UART_GPS.c ****     *  Setting the pointers to zero makes the system believe there is no data to
 750:Generated_Source\PSoC5/UART_GPS.c ****     *  read and writing will resume at address 0 overwriting any data that may
 751:Generated_Source\PSoC5/UART_GPS.c ****     *  have remained in the RAM.
 752:Generated_Source\PSoC5/UART_GPS.c ****     *
 753:Generated_Source\PSoC5/UART_GPS.c ****     * Side Effects:
 754:Generated_Source\PSoC5/UART_GPS.c ****     *  Any received data not read from the RAM or FIFO buffer will be lost.
 755:Generated_Source\PSoC5/UART_GPS.c ****     *
 756:Generated_Source\PSoC5/UART_GPS.c ****     *******************************************************************************/
 757:Generated_Source\PSoC5/UART_GPS.c ****     void UART_GPS_ClearRxBuffer(void) 
 758:Generated_Source\PSoC5/UART_GPS.c ****     {
 682              		.loc 1 758 0
 683              		.cfi_startproc
 684              		@ args = 0, pretend = 0, frame = 0
 685              		@ frame_needed = 0, uses_anonymous_args = 0
 686 0000 08B5     		push	{r3, lr}
 687              		.cfi_def_cfa_offset 8
 688              		.cfi_offset 3, -8
 689              		.cfi_offset 14, -4
 759:Generated_Source\PSoC5/UART_GPS.c ****         uint8 enableInterrupts;
 760:Generated_Source\PSoC5/UART_GPS.c **** 
 761:Generated_Source\PSoC5/UART_GPS.c ****         /* Clear the HW FIFO */
 762:Generated_Source\PSoC5/UART_GPS.c ****         enableInterrupts = CyEnterCriticalSection();
 690              		.loc 1 762 0
 691 0002 FFF7FEFF 		bl	CyEnterCriticalSection
 692              	.LVL53:
 763:Generated_Source\PSoC5/UART_GPS.c ****         UART_GPS_RXDATA_AUX_CTL_REG |= (uint8)  UART_GPS_RX_FIFO_CLR;
 693              		.loc 1 763 0
 694 0006 0B4B     		ldr	r3, .L58
 695 0008 1A78     		ldrb	r2, [r3]	@ zero_extendqisi2
 696 000a 42F00102 		orr	r2, r2, #1
 697 000e 1A70     		strb	r2, [r3]
 764:Generated_Source\PSoC5/UART_GPS.c ****         UART_GPS_RXDATA_AUX_CTL_REG &= (uint8) ~UART_GPS_RX_FIFO_CLR;
 698              		.loc 1 764 0
 699 0010 1A78     		ldrb	r2, [r3]	@ zero_extendqisi2
 700 0012 02F0FE02 		and	r2, r2, #254
 701 0016 1A70     		strb	r2, [r3]
 765:Generated_Source\PSoC5/UART_GPS.c ****         CyExitCriticalSection(enableInterrupts);
 702              		.loc 1 765 0
 703 0018 FFF7FEFF 		bl	CyExitCriticalSection
 704              	.LVL54:
 766:Generated_Source\PSoC5/UART_GPS.c **** 
 767:Generated_Source\PSoC5/UART_GPS.c ****     #if (UART_GPS_RX_INTERRUPT_ENABLED)
 768:Generated_Source\PSoC5/UART_GPS.c **** 
 769:Generated_Source\PSoC5/UART_GPS.c ****         /* Protect variables that could change on interrupt. */
 770:Generated_Source\PSoC5/UART_GPS.c ****         UART_GPS_DisableRxInt();
 705              		.loc 1 770 0
ARM GAS  C:\Users\cronos\AppData\Local\Temp\ccrntx0f.s 			page 27


 706 001c 0221     		movs	r1, #2
 707 001e 064B     		ldr	r3, .L58+4
 708 0020 1960     		str	r1, [r3]
 771:Generated_Source\PSoC5/UART_GPS.c **** 
 772:Generated_Source\PSoC5/UART_GPS.c ****         UART_GPS_rxBufferRead = 0u;
 709              		.loc 1 772 0
 710 0022 064B     		ldr	r3, .L58+8
 711 0024 0022     		movs	r2, #0
 712 0026 9A70     		strb	r2, [r3, #2]
 773:Generated_Source\PSoC5/UART_GPS.c ****         UART_GPS_rxBufferWrite = 0u;
 713              		.loc 1 773 0
 714 0028 DA70     		strb	r2, [r3, #3]
 774:Generated_Source\PSoC5/UART_GPS.c ****         UART_GPS_rxBufferLoopDetect = 0u;
 715              		.loc 1 774 0
 716 002a 1A71     		strb	r2, [r3, #4]
 775:Generated_Source\PSoC5/UART_GPS.c ****         UART_GPS_rxBufferOverflow = 0u;
 717              		.loc 1 775 0
 718 002c 5A71     		strb	r2, [r3, #5]
 776:Generated_Source\PSoC5/UART_GPS.c **** 
 777:Generated_Source\PSoC5/UART_GPS.c ****         UART_GPS_EnableRxInt();
 719              		.loc 1 777 0
 720 002e 044B     		ldr	r3, .L58+12
 721 0030 1960     		str	r1, [r3]
 722 0032 08BD     		pop	{r3, pc}
 723              	.L59:
 724              		.align	2
 725              	.L58:
 726 0034 98640040 		.word	1073767576
 727 0038 80E100E0 		.word	-536813184
 728 003c 00000000 		.word	.LANCHOR0
 729 0040 00E100E0 		.word	-536813312
 730              		.cfi_endproc
 731              	.LFE12:
 732              		.size	UART_GPS_ClearRxBuffer, .-UART_GPS_ClearRxBuffer
 733              		.section	.text.UART_GPS_SetRxAddressMode,"ax",%progbits
 734              		.align	2
 735              		.global	UART_GPS_SetRxAddressMode
 736              		.thumb
 737              		.thumb_func
 738              		.type	UART_GPS_SetRxAddressMode, %function
 739              	UART_GPS_SetRxAddressMode:
 740              	.LFB13:
 778:Generated_Source\PSoC5/UART_GPS.c **** 
 779:Generated_Source\PSoC5/UART_GPS.c ****     #endif /* (UART_GPS_RX_INTERRUPT_ENABLED) */
 780:Generated_Source\PSoC5/UART_GPS.c **** 
 781:Generated_Source\PSoC5/UART_GPS.c ****     }
 782:Generated_Source\PSoC5/UART_GPS.c **** 
 783:Generated_Source\PSoC5/UART_GPS.c **** 
 784:Generated_Source\PSoC5/UART_GPS.c ****     /*******************************************************************************
 785:Generated_Source\PSoC5/UART_GPS.c ****     * Function Name: UART_GPS_SetRxAddressMode
 786:Generated_Source\PSoC5/UART_GPS.c ****     ********************************************************************************
 787:Generated_Source\PSoC5/UART_GPS.c ****     *
 788:Generated_Source\PSoC5/UART_GPS.c ****     * Summary:
 789:Generated_Source\PSoC5/UART_GPS.c ****     *  Sets the software controlled Addressing mode used by the RX portion of the
 790:Generated_Source\PSoC5/UART_GPS.c ****     *  UART.
 791:Generated_Source\PSoC5/UART_GPS.c ****     *
 792:Generated_Source\PSoC5/UART_GPS.c ****     * Parameters:
ARM GAS  C:\Users\cronos\AppData\Local\Temp\ccrntx0f.s 			page 28


 793:Generated_Source\PSoC5/UART_GPS.c ****     *  addressMode: Enumerated value indicating the mode of RX addressing
 794:Generated_Source\PSoC5/UART_GPS.c ****     *  UART_GPS__B_UART__AM_SW_BYTE_BYTE -  Software Byte-by-Byte address
 795:Generated_Source\PSoC5/UART_GPS.c ****     *                                               detection
 796:Generated_Source\PSoC5/UART_GPS.c ****     *  UART_GPS__B_UART__AM_SW_DETECT_TO_BUFFER - Software Detect to Buffer
 797:Generated_Source\PSoC5/UART_GPS.c ****     *                                               address detection
 798:Generated_Source\PSoC5/UART_GPS.c ****     *  UART_GPS__B_UART__AM_HW_BYTE_BY_BYTE - Hardware Byte-by-Byte address
 799:Generated_Source\PSoC5/UART_GPS.c ****     *                                               detection
 800:Generated_Source\PSoC5/UART_GPS.c ****     *  UART_GPS__B_UART__AM_HW_DETECT_TO_BUFFER - Hardware Detect to Buffer
 801:Generated_Source\PSoC5/UART_GPS.c ****     *                                               address detection
 802:Generated_Source\PSoC5/UART_GPS.c ****     *  UART_GPS__B_UART__AM_NONE - No address detection
 803:Generated_Source\PSoC5/UART_GPS.c ****     *
 804:Generated_Source\PSoC5/UART_GPS.c ****     * Return:
 805:Generated_Source\PSoC5/UART_GPS.c ****     *  None.
 806:Generated_Source\PSoC5/UART_GPS.c ****     *
 807:Generated_Source\PSoC5/UART_GPS.c ****     * Global Variables:
 808:Generated_Source\PSoC5/UART_GPS.c ****     *  UART_GPS_rxAddressMode - the parameter stored in this variable for
 809:Generated_Source\PSoC5/UART_GPS.c ****     *   the farther usage in RX ISR.
 810:Generated_Source\PSoC5/UART_GPS.c ****     *  UART_GPS_rxAddressDetected - set to initial state (0).
 811:Generated_Source\PSoC5/UART_GPS.c ****     *
 812:Generated_Source\PSoC5/UART_GPS.c ****     *******************************************************************************/
 813:Generated_Source\PSoC5/UART_GPS.c ****     void UART_GPS_SetRxAddressMode(uint8 addressMode)
 814:Generated_Source\PSoC5/UART_GPS.c ****                                                         
 815:Generated_Source\PSoC5/UART_GPS.c ****     {
 741              		.loc 1 815 0
 742              		.cfi_startproc
 743              		@ args = 0, pretend = 0, frame = 0
 744              		@ frame_needed = 0, uses_anonymous_args = 0
 745              		@ link register save eliminated.
 746              	.LVL55:
 747 0000 7047     		bx	lr
 748              		.cfi_endproc
 749              	.LFE13:
 750              		.size	UART_GPS_SetRxAddressMode, .-UART_GPS_SetRxAddressMode
 751 0002 00BF     		.section	.text.UART_GPS_SetRxAddress1,"ax",%progbits
 752              		.align	2
 753              		.global	UART_GPS_SetRxAddress1
 754              		.thumb
 755              		.thumb_func
 756              		.type	UART_GPS_SetRxAddress1, %function
 757              	UART_GPS_SetRxAddress1:
 758              	.LFB14:
 816:Generated_Source\PSoC5/UART_GPS.c ****         #if(UART_GPS_RXHW_ADDRESS_ENABLED)
 817:Generated_Source\PSoC5/UART_GPS.c ****             #if(UART_GPS_CONTROL_REG_REMOVED)
 818:Generated_Source\PSoC5/UART_GPS.c ****                 if(0u != addressMode)
 819:Generated_Source\PSoC5/UART_GPS.c ****                 {
 820:Generated_Source\PSoC5/UART_GPS.c ****                     /* Suppress compiler warning */
 821:Generated_Source\PSoC5/UART_GPS.c ****                 }
 822:Generated_Source\PSoC5/UART_GPS.c ****             #else /* UART_GPS_CONTROL_REG_REMOVED */
 823:Generated_Source\PSoC5/UART_GPS.c ****                 uint8 tmpCtrl;
 824:Generated_Source\PSoC5/UART_GPS.c ****                 tmpCtrl = UART_GPS_CONTROL_REG & (uint8)~UART_GPS_CTRL_RXADDR_MODE_MASK;
 825:Generated_Source\PSoC5/UART_GPS.c ****                 tmpCtrl |= (uint8)(addressMode << UART_GPS_CTRL_RXADDR_MODE0_SHIFT);
 826:Generated_Source\PSoC5/UART_GPS.c ****                 UART_GPS_CONTROL_REG = tmpCtrl;
 827:Generated_Source\PSoC5/UART_GPS.c **** 
 828:Generated_Source\PSoC5/UART_GPS.c ****                 #if(UART_GPS_RX_INTERRUPT_ENABLED && \
 829:Generated_Source\PSoC5/UART_GPS.c ****                    (UART_GPS_RXBUFFERSIZE > UART_GPS_FIFO_LENGTH) )
 830:Generated_Source\PSoC5/UART_GPS.c ****                     UART_GPS_rxAddressMode = addressMode;
 831:Generated_Source\PSoC5/UART_GPS.c ****                     UART_GPS_rxAddressDetected = 0u;
ARM GAS  C:\Users\cronos\AppData\Local\Temp\ccrntx0f.s 			page 29


 832:Generated_Source\PSoC5/UART_GPS.c ****                 #endif /* End UART_GPS_RXBUFFERSIZE > UART_GPS_FIFO_LENGTH*/
 833:Generated_Source\PSoC5/UART_GPS.c ****             #endif /* End UART_GPS_CONTROL_REG_REMOVED */
 834:Generated_Source\PSoC5/UART_GPS.c ****         #else /* UART_GPS_RXHW_ADDRESS_ENABLED */
 835:Generated_Source\PSoC5/UART_GPS.c ****             if(0u != addressMode)
 836:Generated_Source\PSoC5/UART_GPS.c ****             {
 837:Generated_Source\PSoC5/UART_GPS.c ****                 /* Suppress compiler warning */
 838:Generated_Source\PSoC5/UART_GPS.c ****             }
 839:Generated_Source\PSoC5/UART_GPS.c ****         #endif /* End UART_GPS_RXHW_ADDRESS_ENABLED */
 840:Generated_Source\PSoC5/UART_GPS.c ****     }
 841:Generated_Source\PSoC5/UART_GPS.c **** 
 842:Generated_Source\PSoC5/UART_GPS.c **** 
 843:Generated_Source\PSoC5/UART_GPS.c ****     /*******************************************************************************
 844:Generated_Source\PSoC5/UART_GPS.c ****     * Function Name: UART_GPS_SetRxAddress1
 845:Generated_Source\PSoC5/UART_GPS.c ****     ********************************************************************************
 846:Generated_Source\PSoC5/UART_GPS.c ****     *
 847:Generated_Source\PSoC5/UART_GPS.c ****     * Summary:
 848:Generated_Source\PSoC5/UART_GPS.c ****     *  Sets the first of two hardware-detectable receiver addresses.
 849:Generated_Source\PSoC5/UART_GPS.c ****     *
 850:Generated_Source\PSoC5/UART_GPS.c ****     * Parameters:
 851:Generated_Source\PSoC5/UART_GPS.c ****     *  address: Address #1 for hardware address detection.
 852:Generated_Source\PSoC5/UART_GPS.c ****     *
 853:Generated_Source\PSoC5/UART_GPS.c ****     * Return:
 854:Generated_Source\PSoC5/UART_GPS.c ****     *  None.
 855:Generated_Source\PSoC5/UART_GPS.c ****     *
 856:Generated_Source\PSoC5/UART_GPS.c ****     *******************************************************************************/
 857:Generated_Source\PSoC5/UART_GPS.c ****     void UART_GPS_SetRxAddress1(uint8 address) 
 858:Generated_Source\PSoC5/UART_GPS.c ****     {
 759              		.loc 1 858 0
 760              		.cfi_startproc
 761              		@ args = 0, pretend = 0, frame = 0
 762              		@ frame_needed = 0, uses_anonymous_args = 0
 763              		@ link register save eliminated.
 764              	.LVL56:
 859:Generated_Source\PSoC5/UART_GPS.c ****         UART_GPS_RXADDRESS1_REG = address;
 765              		.loc 1 859 0
 766 0000 014B     		ldr	r3, .L62
 767 0002 1870     		strb	r0, [r3]
 768 0004 7047     		bx	lr
 769              	.L63:
 770 0006 00BF     		.align	2
 771              	.L62:
 772 0008 28640040 		.word	1073767464
 773              		.cfi_endproc
 774              	.LFE14:
 775              		.size	UART_GPS_SetRxAddress1, .-UART_GPS_SetRxAddress1
 776              		.section	.text.UART_GPS_SetRxAddress2,"ax",%progbits
 777              		.align	2
 778              		.global	UART_GPS_SetRxAddress2
 779              		.thumb
 780              		.thumb_func
 781              		.type	UART_GPS_SetRxAddress2, %function
 782              	UART_GPS_SetRxAddress2:
 783              	.LFB15:
 860:Generated_Source\PSoC5/UART_GPS.c ****     }
 861:Generated_Source\PSoC5/UART_GPS.c **** 
 862:Generated_Source\PSoC5/UART_GPS.c **** 
 863:Generated_Source\PSoC5/UART_GPS.c ****     /*******************************************************************************
ARM GAS  C:\Users\cronos\AppData\Local\Temp\ccrntx0f.s 			page 30


 864:Generated_Source\PSoC5/UART_GPS.c ****     * Function Name: UART_GPS_SetRxAddress2
 865:Generated_Source\PSoC5/UART_GPS.c ****     ********************************************************************************
 866:Generated_Source\PSoC5/UART_GPS.c ****     *
 867:Generated_Source\PSoC5/UART_GPS.c ****     * Summary:
 868:Generated_Source\PSoC5/UART_GPS.c ****     *  Sets the second of two hardware-detectable receiver addresses.
 869:Generated_Source\PSoC5/UART_GPS.c ****     *
 870:Generated_Source\PSoC5/UART_GPS.c ****     * Parameters:
 871:Generated_Source\PSoC5/UART_GPS.c ****     *  address: Address #2 for hardware address detection.
 872:Generated_Source\PSoC5/UART_GPS.c ****     *
 873:Generated_Source\PSoC5/UART_GPS.c ****     * Return:
 874:Generated_Source\PSoC5/UART_GPS.c ****     *  None.
 875:Generated_Source\PSoC5/UART_GPS.c ****     *
 876:Generated_Source\PSoC5/UART_GPS.c ****     *******************************************************************************/
 877:Generated_Source\PSoC5/UART_GPS.c ****     void UART_GPS_SetRxAddress2(uint8 address) 
 878:Generated_Source\PSoC5/UART_GPS.c ****     {
 784              		.loc 1 878 0
 785              		.cfi_startproc
 786              		@ args = 0, pretend = 0, frame = 0
 787              		@ frame_needed = 0, uses_anonymous_args = 0
 788              		@ link register save eliminated.
 789              	.LVL57:
 879:Generated_Source\PSoC5/UART_GPS.c ****         UART_GPS_RXADDRESS2_REG = address;
 790              		.loc 1 879 0
 791 0000 014B     		ldr	r3, .L65
 792 0002 1870     		strb	r0, [r3]
 793 0004 7047     		bx	lr
 794              	.L66:
 795 0006 00BF     		.align	2
 796              	.L65:
 797 0008 38640040 		.word	1073767480
 798              		.cfi_endproc
 799              	.LFE15:
 800              		.size	UART_GPS_SetRxAddress2, .-UART_GPS_SetRxAddress2
 801              		.section	.text.UART_GPS_SetTxInterruptMode,"ax",%progbits
 802              		.align	2
 803              		.global	UART_GPS_SetTxInterruptMode
 804              		.thumb
 805              		.thumb_func
 806              		.type	UART_GPS_SetTxInterruptMode, %function
 807              	UART_GPS_SetTxInterruptMode:
 808              	.LFB16:
 880:Generated_Source\PSoC5/UART_GPS.c ****     }
 881:Generated_Source\PSoC5/UART_GPS.c **** 
 882:Generated_Source\PSoC5/UART_GPS.c **** #endif  /* UART_GPS_RX_ENABLED || UART_GPS_HD_ENABLED*/
 883:Generated_Source\PSoC5/UART_GPS.c **** 
 884:Generated_Source\PSoC5/UART_GPS.c **** 
 885:Generated_Source\PSoC5/UART_GPS.c **** #if( (UART_GPS_TX_ENABLED) || (UART_GPS_HD_ENABLED) )
 886:Generated_Source\PSoC5/UART_GPS.c ****     /*******************************************************************************
 887:Generated_Source\PSoC5/UART_GPS.c ****     * Function Name: UART_GPS_SetTxInterruptMode
 888:Generated_Source\PSoC5/UART_GPS.c ****     ********************************************************************************
 889:Generated_Source\PSoC5/UART_GPS.c ****     *
 890:Generated_Source\PSoC5/UART_GPS.c ****     * Summary:
 891:Generated_Source\PSoC5/UART_GPS.c ****     *  Configures the TX interrupt sources to be enabled, but does not enable the
 892:Generated_Source\PSoC5/UART_GPS.c ****     *  interrupt.
 893:Generated_Source\PSoC5/UART_GPS.c ****     *
 894:Generated_Source\PSoC5/UART_GPS.c ****     * Parameters:
 895:Generated_Source\PSoC5/UART_GPS.c ****     *  intSrc: Bit field containing the TX interrupt sources to enable
ARM GAS  C:\Users\cronos\AppData\Local\Temp\ccrntx0f.s 			page 31


 896:Generated_Source\PSoC5/UART_GPS.c ****     *   UART_GPS_TX_STS_COMPLETE        Interrupt on TX byte complete
 897:Generated_Source\PSoC5/UART_GPS.c ****     *   UART_GPS_TX_STS_FIFO_EMPTY      Interrupt when TX FIFO is empty
 898:Generated_Source\PSoC5/UART_GPS.c ****     *   UART_GPS_TX_STS_FIFO_FULL       Interrupt when TX FIFO is full
 899:Generated_Source\PSoC5/UART_GPS.c ****     *   UART_GPS_TX_STS_FIFO_NOT_FULL   Interrupt when TX FIFO is not full
 900:Generated_Source\PSoC5/UART_GPS.c ****     *
 901:Generated_Source\PSoC5/UART_GPS.c ****     * Return:
 902:Generated_Source\PSoC5/UART_GPS.c ****     *  None.
 903:Generated_Source\PSoC5/UART_GPS.c ****     *
 904:Generated_Source\PSoC5/UART_GPS.c ****     * Theory:
 905:Generated_Source\PSoC5/UART_GPS.c ****     *  Enables the output of specific status bits to the interrupt controller
 906:Generated_Source\PSoC5/UART_GPS.c ****     *
 907:Generated_Source\PSoC5/UART_GPS.c ****     *******************************************************************************/
 908:Generated_Source\PSoC5/UART_GPS.c ****     void UART_GPS_SetTxInterruptMode(uint8 intSrc) 
 909:Generated_Source\PSoC5/UART_GPS.c ****     {
 809              		.loc 1 909 0
 810              		.cfi_startproc
 811              		@ args = 0, pretend = 0, frame = 0
 812              		@ frame_needed = 0, uses_anonymous_args = 0
 813              		@ link register save eliminated.
 814              	.LVL58:
 910:Generated_Source\PSoC5/UART_GPS.c ****         UART_GPS_TXSTATUS_MASK_REG = intSrc;
 815              		.loc 1 910 0
 816 0000 014B     		ldr	r3, .L68
 817 0002 1870     		strb	r0, [r3]
 818 0004 7047     		bx	lr
 819              	.L69:
 820 0006 00BF     		.align	2
 821              	.L68:
 822 0008 8E640040 		.word	1073767566
 823              		.cfi_endproc
 824              	.LFE16:
 825              		.size	UART_GPS_SetTxInterruptMode, .-UART_GPS_SetTxInterruptMode
 826              		.section	.text.UART_GPS_WriteTxData,"ax",%progbits
 827              		.align	2
 828              		.global	UART_GPS_WriteTxData
 829              		.thumb
 830              		.thumb_func
 831              		.type	UART_GPS_WriteTxData, %function
 832              	UART_GPS_WriteTxData:
 833              	.LFB17:
 911:Generated_Source\PSoC5/UART_GPS.c ****     }
 912:Generated_Source\PSoC5/UART_GPS.c **** 
 913:Generated_Source\PSoC5/UART_GPS.c **** 
 914:Generated_Source\PSoC5/UART_GPS.c ****     /*******************************************************************************
 915:Generated_Source\PSoC5/UART_GPS.c ****     * Function Name: UART_GPS_WriteTxData
 916:Generated_Source\PSoC5/UART_GPS.c ****     ********************************************************************************
 917:Generated_Source\PSoC5/UART_GPS.c ****     *
 918:Generated_Source\PSoC5/UART_GPS.c ****     * Summary:
 919:Generated_Source\PSoC5/UART_GPS.c ****     *  Places a byte of data into the transmit buffer to be sent when the bus is
 920:Generated_Source\PSoC5/UART_GPS.c ****     *  available without checking the TX status register. You must check status
 921:Generated_Source\PSoC5/UART_GPS.c ****     *  separately.
 922:Generated_Source\PSoC5/UART_GPS.c ****     *
 923:Generated_Source\PSoC5/UART_GPS.c ****     * Parameters:
 924:Generated_Source\PSoC5/UART_GPS.c ****     *  txDataByte: data byte
 925:Generated_Source\PSoC5/UART_GPS.c ****     *
 926:Generated_Source\PSoC5/UART_GPS.c ****     * Return:
 927:Generated_Source\PSoC5/UART_GPS.c ****     * None.
ARM GAS  C:\Users\cronos\AppData\Local\Temp\ccrntx0f.s 			page 32


 928:Generated_Source\PSoC5/UART_GPS.c ****     *
 929:Generated_Source\PSoC5/UART_GPS.c ****     * Global Variables:
 930:Generated_Source\PSoC5/UART_GPS.c ****     *  UART_GPS_txBuffer - RAM buffer pointer for save data for transmission
 931:Generated_Source\PSoC5/UART_GPS.c ****     *  UART_GPS_txBufferWrite - cyclic index for write to txBuffer,
 932:Generated_Source\PSoC5/UART_GPS.c ****     *    incremented after each byte saved to buffer.
 933:Generated_Source\PSoC5/UART_GPS.c ****     *  UART_GPS_txBufferRead - cyclic index for read from txBuffer,
 934:Generated_Source\PSoC5/UART_GPS.c ****     *    checked to identify the condition to write to FIFO directly or to TX buffer
 935:Generated_Source\PSoC5/UART_GPS.c ****     *  UART_GPS_initVar - checked to identify that the component has been
 936:Generated_Source\PSoC5/UART_GPS.c ****     *    initialized.
 937:Generated_Source\PSoC5/UART_GPS.c ****     *
 938:Generated_Source\PSoC5/UART_GPS.c ****     * Reentrant:
 939:Generated_Source\PSoC5/UART_GPS.c ****     *  No.
 940:Generated_Source\PSoC5/UART_GPS.c ****     *
 941:Generated_Source\PSoC5/UART_GPS.c ****     *******************************************************************************/
 942:Generated_Source\PSoC5/UART_GPS.c ****     void UART_GPS_WriteTxData(uint8 txDataByte) 
 943:Generated_Source\PSoC5/UART_GPS.c ****     {
 834              		.loc 1 943 0
 835              		.cfi_startproc
 836              		@ args = 0, pretend = 0, frame = 0
 837              		@ frame_needed = 0, uses_anonymous_args = 0
 838              		@ link register save eliminated.
 839              	.LVL59:
 944:Generated_Source\PSoC5/UART_GPS.c ****         /* If not Initialized then skip this function*/
 945:Generated_Source\PSoC5/UART_GPS.c ****         if(UART_GPS_initVar != 0u)
 840              		.loc 1 945 0
 841 0000 024B     		ldr	r3, .L72
 842 0002 5B78     		ldrb	r3, [r3, #1]	@ zero_extendqisi2
 843 0004 0BB1     		cbz	r3, .L70
 946:Generated_Source\PSoC5/UART_GPS.c ****         {
 947:Generated_Source\PSoC5/UART_GPS.c ****         #if (UART_GPS_TX_INTERRUPT_ENABLED)
 948:Generated_Source\PSoC5/UART_GPS.c **** 
 949:Generated_Source\PSoC5/UART_GPS.c ****             /* Protect variables that could change on interrupt. */
 950:Generated_Source\PSoC5/UART_GPS.c ****             UART_GPS_DisableTxInt();
 951:Generated_Source\PSoC5/UART_GPS.c **** 
 952:Generated_Source\PSoC5/UART_GPS.c ****             if( (UART_GPS_txBufferRead == UART_GPS_txBufferWrite) &&
 953:Generated_Source\PSoC5/UART_GPS.c ****                 ((UART_GPS_TXSTATUS_REG & UART_GPS_TX_STS_FIFO_FULL) == 0u) )
 954:Generated_Source\PSoC5/UART_GPS.c ****             {
 955:Generated_Source\PSoC5/UART_GPS.c ****                 /* Add directly to the FIFO. */
 956:Generated_Source\PSoC5/UART_GPS.c ****                 UART_GPS_TXDATA_REG = txDataByte;
 957:Generated_Source\PSoC5/UART_GPS.c ****             }
 958:Generated_Source\PSoC5/UART_GPS.c ****             else
 959:Generated_Source\PSoC5/UART_GPS.c ****             {
 960:Generated_Source\PSoC5/UART_GPS.c ****                 if(UART_GPS_txBufferWrite >= UART_GPS_TX_BUFFER_SIZE)
 961:Generated_Source\PSoC5/UART_GPS.c ****                 {
 962:Generated_Source\PSoC5/UART_GPS.c ****                     UART_GPS_txBufferWrite = 0u;
 963:Generated_Source\PSoC5/UART_GPS.c ****                 }
 964:Generated_Source\PSoC5/UART_GPS.c **** 
 965:Generated_Source\PSoC5/UART_GPS.c ****                 UART_GPS_txBuffer[UART_GPS_txBufferWrite] = txDataByte;
 966:Generated_Source\PSoC5/UART_GPS.c **** 
 967:Generated_Source\PSoC5/UART_GPS.c ****                 /* Add to the software buffer. */
 968:Generated_Source\PSoC5/UART_GPS.c ****                 UART_GPS_txBufferWrite++;
 969:Generated_Source\PSoC5/UART_GPS.c ****             }
 970:Generated_Source\PSoC5/UART_GPS.c **** 
 971:Generated_Source\PSoC5/UART_GPS.c ****             UART_GPS_EnableTxInt();
 972:Generated_Source\PSoC5/UART_GPS.c **** 
 973:Generated_Source\PSoC5/UART_GPS.c ****         #else
 974:Generated_Source\PSoC5/UART_GPS.c **** 
ARM GAS  C:\Users\cronos\AppData\Local\Temp\ccrntx0f.s 			page 33


 975:Generated_Source\PSoC5/UART_GPS.c ****             /* Add directly to the FIFO. */
 976:Generated_Source\PSoC5/UART_GPS.c ****             UART_GPS_TXDATA_REG = txDataByte;
 844              		.loc 1 976 0
 845 0006 024B     		ldr	r3, .L72+4
 846 0008 1870     		strb	r0, [r3]
 847              	.L70:
 848 000a 7047     		bx	lr
 849              	.L73:
 850              		.align	2
 851              	.L72:
 852 000c 00000000 		.word	.LANCHOR0
 853 0010 4D640040 		.word	1073767501
 854              		.cfi_endproc
 855              	.LFE17:
 856              		.size	UART_GPS_WriteTxData, .-UART_GPS_WriteTxData
 857              		.section	.text.UART_GPS_ReadTxStatus,"ax",%progbits
 858              		.align	2
 859              		.global	UART_GPS_ReadTxStatus
 860              		.thumb
 861              		.thumb_func
 862              		.type	UART_GPS_ReadTxStatus, %function
 863              	UART_GPS_ReadTxStatus:
 864              	.LFB18:
 977:Generated_Source\PSoC5/UART_GPS.c **** 
 978:Generated_Source\PSoC5/UART_GPS.c ****         #endif /*(UART_GPS_TX_INTERRUPT_ENABLED) */
 979:Generated_Source\PSoC5/UART_GPS.c ****         }
 980:Generated_Source\PSoC5/UART_GPS.c ****     }
 981:Generated_Source\PSoC5/UART_GPS.c **** 
 982:Generated_Source\PSoC5/UART_GPS.c **** 
 983:Generated_Source\PSoC5/UART_GPS.c ****     /*******************************************************************************
 984:Generated_Source\PSoC5/UART_GPS.c ****     * Function Name: UART_GPS_ReadTxStatus
 985:Generated_Source\PSoC5/UART_GPS.c ****     ********************************************************************************
 986:Generated_Source\PSoC5/UART_GPS.c ****     *
 987:Generated_Source\PSoC5/UART_GPS.c ****     * Summary:
 988:Generated_Source\PSoC5/UART_GPS.c ****     *  Reads the status register for the TX portion of the UART.
 989:Generated_Source\PSoC5/UART_GPS.c ****     *
 990:Generated_Source\PSoC5/UART_GPS.c ****     * Parameters:
 991:Generated_Source\PSoC5/UART_GPS.c ****     *  None.
 992:Generated_Source\PSoC5/UART_GPS.c ****     *
 993:Generated_Source\PSoC5/UART_GPS.c ****     * Return:
 994:Generated_Source\PSoC5/UART_GPS.c ****     *  Contents of the status register
 995:Generated_Source\PSoC5/UART_GPS.c ****     *
 996:Generated_Source\PSoC5/UART_GPS.c ****     * Theory:
 997:Generated_Source\PSoC5/UART_GPS.c ****     *  This function reads the TX status register, which is cleared on read.
 998:Generated_Source\PSoC5/UART_GPS.c ****     *  It is up to the user to handle all bits in this return value accordingly,
 999:Generated_Source\PSoC5/UART_GPS.c ****     *  even if the bit was not enabled as an interrupt source the event happened
1000:Generated_Source\PSoC5/UART_GPS.c ****     *  and must be handled accordingly.
1001:Generated_Source\PSoC5/UART_GPS.c ****     *
1002:Generated_Source\PSoC5/UART_GPS.c ****     *******************************************************************************/
1003:Generated_Source\PSoC5/UART_GPS.c ****     uint8 UART_GPS_ReadTxStatus(void) 
1004:Generated_Source\PSoC5/UART_GPS.c ****     {
 865              		.loc 1 1004 0
 866              		.cfi_startproc
 867              		@ args = 0, pretend = 0, frame = 0
 868              		@ frame_needed = 0, uses_anonymous_args = 0
 869              		@ link register save eliminated.
1005:Generated_Source\PSoC5/UART_GPS.c ****         return(UART_GPS_TXSTATUS_REG);
ARM GAS  C:\Users\cronos\AppData\Local\Temp\ccrntx0f.s 			page 34


 870              		.loc 1 1005 0
 871 0000 014B     		ldr	r3, .L75
 872 0002 1878     		ldrb	r0, [r3]	@ zero_extendqisi2
1006:Generated_Source\PSoC5/UART_GPS.c ****     }
 873              		.loc 1 1006 0
 874 0004 7047     		bx	lr
 875              	.L76:
 876 0006 00BF     		.align	2
 877              	.L75:
 878 0008 6E640040 		.word	1073767534
 879              		.cfi_endproc
 880              	.LFE18:
 881              		.size	UART_GPS_ReadTxStatus, .-UART_GPS_ReadTxStatus
 882              		.section	.text.UART_GPS_PutChar,"ax",%progbits
 883              		.align	2
 884              		.global	UART_GPS_PutChar
 885              		.thumb
 886              		.thumb_func
 887              		.type	UART_GPS_PutChar, %function
 888              	UART_GPS_PutChar:
 889              	.LFB19:
1007:Generated_Source\PSoC5/UART_GPS.c **** 
1008:Generated_Source\PSoC5/UART_GPS.c **** 
1009:Generated_Source\PSoC5/UART_GPS.c ****     /*******************************************************************************
1010:Generated_Source\PSoC5/UART_GPS.c ****     * Function Name: UART_GPS_PutChar
1011:Generated_Source\PSoC5/UART_GPS.c ****     ********************************************************************************
1012:Generated_Source\PSoC5/UART_GPS.c ****     *
1013:Generated_Source\PSoC5/UART_GPS.c ****     * Summary:
1014:Generated_Source\PSoC5/UART_GPS.c ****     *  Puts a byte of data into the transmit buffer to be sent when the bus is
1015:Generated_Source\PSoC5/UART_GPS.c ****     *  available. This is a blocking API that waits until the TX buffer has room to
1016:Generated_Source\PSoC5/UART_GPS.c ****     *  hold the data.
1017:Generated_Source\PSoC5/UART_GPS.c ****     *
1018:Generated_Source\PSoC5/UART_GPS.c ****     * Parameters:
1019:Generated_Source\PSoC5/UART_GPS.c ****     *  txDataByte: Byte containing the data to transmit
1020:Generated_Source\PSoC5/UART_GPS.c ****     *
1021:Generated_Source\PSoC5/UART_GPS.c ****     * Return:
1022:Generated_Source\PSoC5/UART_GPS.c ****     *  None.
1023:Generated_Source\PSoC5/UART_GPS.c ****     *
1024:Generated_Source\PSoC5/UART_GPS.c ****     * Global Variables:
1025:Generated_Source\PSoC5/UART_GPS.c ****     *  UART_GPS_txBuffer - RAM buffer pointer for save data for transmission
1026:Generated_Source\PSoC5/UART_GPS.c ****     *  UART_GPS_txBufferWrite - cyclic index for write to txBuffer,
1027:Generated_Source\PSoC5/UART_GPS.c ****     *     checked to identify free space in txBuffer and incremented after each byte
1028:Generated_Source\PSoC5/UART_GPS.c ****     *     saved to buffer.
1029:Generated_Source\PSoC5/UART_GPS.c ****     *  UART_GPS_txBufferRead - cyclic index for read from txBuffer,
1030:Generated_Source\PSoC5/UART_GPS.c ****     *     checked to identify free space in txBuffer.
1031:Generated_Source\PSoC5/UART_GPS.c ****     *  UART_GPS_initVar - checked to identify that the component has been
1032:Generated_Source\PSoC5/UART_GPS.c ****     *     initialized.
1033:Generated_Source\PSoC5/UART_GPS.c ****     *
1034:Generated_Source\PSoC5/UART_GPS.c ****     * Reentrant:
1035:Generated_Source\PSoC5/UART_GPS.c ****     *  No.
1036:Generated_Source\PSoC5/UART_GPS.c ****     *
1037:Generated_Source\PSoC5/UART_GPS.c ****     * Theory:
1038:Generated_Source\PSoC5/UART_GPS.c ****     *  Allows the user to transmit any byte of data in a single transfer
1039:Generated_Source\PSoC5/UART_GPS.c ****     *
1040:Generated_Source\PSoC5/UART_GPS.c ****     *******************************************************************************/
1041:Generated_Source\PSoC5/UART_GPS.c ****     void UART_GPS_PutChar(uint8 txDataByte) 
1042:Generated_Source\PSoC5/UART_GPS.c ****     {
ARM GAS  C:\Users\cronos\AppData\Local\Temp\ccrntx0f.s 			page 35


 890              		.loc 1 1042 0
 891              		.cfi_startproc
 892              		@ args = 0, pretend = 0, frame = 0
 893              		@ frame_needed = 0, uses_anonymous_args = 0
 894              		@ link register save eliminated.
 895              	.LVL60:
 896              	.L78:
1043:Generated_Source\PSoC5/UART_GPS.c ****     #if (UART_GPS_TX_INTERRUPT_ENABLED)
1044:Generated_Source\PSoC5/UART_GPS.c ****         /* The temporary output pointer is used since it takes two instructions
1045:Generated_Source\PSoC5/UART_GPS.c ****         *  to increment with a wrap, and we can't risk doing that with the real
1046:Generated_Source\PSoC5/UART_GPS.c ****         *  pointer and getting an interrupt in between instructions.
1047:Generated_Source\PSoC5/UART_GPS.c ****         */
1048:Generated_Source\PSoC5/UART_GPS.c ****         uint8 locTxBufferWrite;
1049:Generated_Source\PSoC5/UART_GPS.c ****         uint8 locTxBufferRead;
1050:Generated_Source\PSoC5/UART_GPS.c **** 
1051:Generated_Source\PSoC5/UART_GPS.c ****         do
1052:Generated_Source\PSoC5/UART_GPS.c ****         { /* Block if software buffer is full, so we don't overwrite. */
1053:Generated_Source\PSoC5/UART_GPS.c **** 
1054:Generated_Source\PSoC5/UART_GPS.c ****         #if ((UART_GPS_TX_BUFFER_SIZE > UART_GPS_MAX_BYTE_VALUE) && (CY_PSOC3))
1055:Generated_Source\PSoC5/UART_GPS.c ****             /* Disable TX interrupt to protect variables from modification */
1056:Generated_Source\PSoC5/UART_GPS.c ****             UART_GPS_DisableTxInt();
1057:Generated_Source\PSoC5/UART_GPS.c ****         #endif /* (UART_GPS_TX_BUFFER_SIZE > UART_GPS_MAX_BYTE_VALUE) && (CY_PSOC3) */
1058:Generated_Source\PSoC5/UART_GPS.c **** 
1059:Generated_Source\PSoC5/UART_GPS.c ****             locTxBufferWrite = UART_GPS_txBufferWrite;
1060:Generated_Source\PSoC5/UART_GPS.c ****             locTxBufferRead  = UART_GPS_txBufferRead;
1061:Generated_Source\PSoC5/UART_GPS.c **** 
1062:Generated_Source\PSoC5/UART_GPS.c ****         #if ((UART_GPS_TX_BUFFER_SIZE > UART_GPS_MAX_BYTE_VALUE) && (CY_PSOC3))
1063:Generated_Source\PSoC5/UART_GPS.c ****             /* Enable interrupt to continue transmission */
1064:Generated_Source\PSoC5/UART_GPS.c ****             UART_GPS_EnableTxInt();
1065:Generated_Source\PSoC5/UART_GPS.c ****         #endif /* (UART_GPS_TX_BUFFER_SIZE > UART_GPS_MAX_BYTE_VALUE) && (CY_PSOC3) */
1066:Generated_Source\PSoC5/UART_GPS.c ****         }
1067:Generated_Source\PSoC5/UART_GPS.c ****         while( (locTxBufferWrite < locTxBufferRead) ? (locTxBufferWrite == (locTxBufferRead - 1u)) 
1068:Generated_Source\PSoC5/UART_GPS.c ****                                 ((locTxBufferWrite - locTxBufferRead) ==
1069:Generated_Source\PSoC5/UART_GPS.c ****                                 (uint8)(UART_GPS_TX_BUFFER_SIZE - 1u)) );
1070:Generated_Source\PSoC5/UART_GPS.c **** 
1071:Generated_Source\PSoC5/UART_GPS.c ****         if( (locTxBufferRead == locTxBufferWrite) &&
1072:Generated_Source\PSoC5/UART_GPS.c ****             ((UART_GPS_TXSTATUS_REG & UART_GPS_TX_STS_FIFO_FULL) == 0u) )
1073:Generated_Source\PSoC5/UART_GPS.c ****         {
1074:Generated_Source\PSoC5/UART_GPS.c ****             /* Add directly to the FIFO */
1075:Generated_Source\PSoC5/UART_GPS.c ****             UART_GPS_TXDATA_REG = txDataByte;
1076:Generated_Source\PSoC5/UART_GPS.c ****         }
1077:Generated_Source\PSoC5/UART_GPS.c ****         else
1078:Generated_Source\PSoC5/UART_GPS.c ****         {
1079:Generated_Source\PSoC5/UART_GPS.c ****             if(locTxBufferWrite >= UART_GPS_TX_BUFFER_SIZE)
1080:Generated_Source\PSoC5/UART_GPS.c ****             {
1081:Generated_Source\PSoC5/UART_GPS.c ****                 locTxBufferWrite = 0u;
1082:Generated_Source\PSoC5/UART_GPS.c ****             }
1083:Generated_Source\PSoC5/UART_GPS.c ****             /* Add to the software buffer. */
1084:Generated_Source\PSoC5/UART_GPS.c ****             UART_GPS_txBuffer[locTxBufferWrite] = txDataByte;
1085:Generated_Source\PSoC5/UART_GPS.c ****             locTxBufferWrite++;
1086:Generated_Source\PSoC5/UART_GPS.c **** 
1087:Generated_Source\PSoC5/UART_GPS.c ****             /* Finally, update the real output pointer */
1088:Generated_Source\PSoC5/UART_GPS.c ****         #if ((UART_GPS_TX_BUFFER_SIZE > UART_GPS_MAX_BYTE_VALUE) && (CY_PSOC3))
1089:Generated_Source\PSoC5/UART_GPS.c ****             UART_GPS_DisableTxInt();
1090:Generated_Source\PSoC5/UART_GPS.c ****         #endif /* (UART_GPS_TX_BUFFER_SIZE > UART_GPS_MAX_BYTE_VALUE) && (CY_PSOC3) */
1091:Generated_Source\PSoC5/UART_GPS.c **** 
1092:Generated_Source\PSoC5/UART_GPS.c ****             UART_GPS_txBufferWrite = locTxBufferWrite;
ARM GAS  C:\Users\cronos\AppData\Local\Temp\ccrntx0f.s 			page 36


1093:Generated_Source\PSoC5/UART_GPS.c **** 
1094:Generated_Source\PSoC5/UART_GPS.c ****         #if ((UART_GPS_TX_BUFFER_SIZE > UART_GPS_MAX_BYTE_VALUE) && (CY_PSOC3))
1095:Generated_Source\PSoC5/UART_GPS.c ****             UART_GPS_EnableTxInt();
1096:Generated_Source\PSoC5/UART_GPS.c ****         #endif /* (UART_GPS_TX_BUFFER_SIZE > UART_GPS_MAX_BYTE_VALUE) && (CY_PSOC3) */
1097:Generated_Source\PSoC5/UART_GPS.c **** 
1098:Generated_Source\PSoC5/UART_GPS.c ****             if(0u != (UART_GPS_TXSTATUS_REG & UART_GPS_TX_STS_FIFO_EMPTY))
1099:Generated_Source\PSoC5/UART_GPS.c ****             {
1100:Generated_Source\PSoC5/UART_GPS.c ****                 /* Trigger TX interrupt to send software buffer */
1101:Generated_Source\PSoC5/UART_GPS.c ****                 UART_GPS_SetPendingTxInt();
1102:Generated_Source\PSoC5/UART_GPS.c ****             }
1103:Generated_Source\PSoC5/UART_GPS.c ****         }
1104:Generated_Source\PSoC5/UART_GPS.c **** 
1105:Generated_Source\PSoC5/UART_GPS.c ****     #else
1106:Generated_Source\PSoC5/UART_GPS.c **** 
1107:Generated_Source\PSoC5/UART_GPS.c ****         while((UART_GPS_TXSTATUS_REG & UART_GPS_TX_STS_FIFO_FULL) != 0u)
 897              		.loc 1 1107 0 discriminator 1
 898 0000 034B     		ldr	r3, .L79
 899 0002 1B78     		ldrb	r3, [r3]	@ zero_extendqisi2
 900 0004 13F0040F 		tst	r3, #4
 901 0008 FAD1     		bne	.L78
1108:Generated_Source\PSoC5/UART_GPS.c ****         {
1109:Generated_Source\PSoC5/UART_GPS.c ****             /* Wait for room in the FIFO */
1110:Generated_Source\PSoC5/UART_GPS.c ****         }
1111:Generated_Source\PSoC5/UART_GPS.c **** 
1112:Generated_Source\PSoC5/UART_GPS.c ****         /* Add directly to the FIFO */
1113:Generated_Source\PSoC5/UART_GPS.c ****         UART_GPS_TXDATA_REG = txDataByte;
 902              		.loc 1 1113 0
 903 000a 024B     		ldr	r3, .L79+4
 904 000c 1870     		strb	r0, [r3]
 905 000e 7047     		bx	lr
 906              	.L80:
 907              		.align	2
 908              	.L79:
 909 0010 6E640040 		.word	1073767534
 910 0014 4D640040 		.word	1073767501
 911              		.cfi_endproc
 912              	.LFE19:
 913              		.size	UART_GPS_PutChar, .-UART_GPS_PutChar
 914              		.section	.text.UART_GPS_PutString,"ax",%progbits
 915              		.align	2
 916              		.global	UART_GPS_PutString
 917              		.thumb
 918              		.thumb_func
 919              		.type	UART_GPS_PutString, %function
 920              	UART_GPS_PutString:
 921              	.LFB20:
1114:Generated_Source\PSoC5/UART_GPS.c **** 
1115:Generated_Source\PSoC5/UART_GPS.c ****     #endif /* UART_GPS_TX_INTERRUPT_ENABLED */
1116:Generated_Source\PSoC5/UART_GPS.c ****     }
1117:Generated_Source\PSoC5/UART_GPS.c **** 
1118:Generated_Source\PSoC5/UART_GPS.c **** 
1119:Generated_Source\PSoC5/UART_GPS.c ****     /*******************************************************************************
1120:Generated_Source\PSoC5/UART_GPS.c ****     * Function Name: UART_GPS_PutString
1121:Generated_Source\PSoC5/UART_GPS.c ****     ********************************************************************************
1122:Generated_Source\PSoC5/UART_GPS.c ****     *
1123:Generated_Source\PSoC5/UART_GPS.c ****     * Summary:
1124:Generated_Source\PSoC5/UART_GPS.c ****     *  Sends a NULL terminated string to the TX buffer for transmission.
ARM GAS  C:\Users\cronos\AppData\Local\Temp\ccrntx0f.s 			page 37


1125:Generated_Source\PSoC5/UART_GPS.c ****     *
1126:Generated_Source\PSoC5/UART_GPS.c ****     * Parameters:
1127:Generated_Source\PSoC5/UART_GPS.c ****     *  string[]: Pointer to the null terminated string array residing in RAM or ROM
1128:Generated_Source\PSoC5/UART_GPS.c ****     *
1129:Generated_Source\PSoC5/UART_GPS.c ****     * Return:
1130:Generated_Source\PSoC5/UART_GPS.c ****     *  None.
1131:Generated_Source\PSoC5/UART_GPS.c ****     *
1132:Generated_Source\PSoC5/UART_GPS.c ****     * Global Variables:
1133:Generated_Source\PSoC5/UART_GPS.c ****     *  UART_GPS_initVar - checked to identify that the component has been
1134:Generated_Source\PSoC5/UART_GPS.c ****     *     initialized.
1135:Generated_Source\PSoC5/UART_GPS.c ****     *
1136:Generated_Source\PSoC5/UART_GPS.c ****     * Reentrant:
1137:Generated_Source\PSoC5/UART_GPS.c ****     *  No.
1138:Generated_Source\PSoC5/UART_GPS.c ****     *
1139:Generated_Source\PSoC5/UART_GPS.c ****     * Theory:
1140:Generated_Source\PSoC5/UART_GPS.c ****     *  If there is not enough memory in the TX buffer for the entire string, this
1141:Generated_Source\PSoC5/UART_GPS.c ****     *  function blocks until the last character of the string is loaded into the
1142:Generated_Source\PSoC5/UART_GPS.c ****     *  TX buffer.
1143:Generated_Source\PSoC5/UART_GPS.c ****     *
1144:Generated_Source\PSoC5/UART_GPS.c ****     *******************************************************************************/
1145:Generated_Source\PSoC5/UART_GPS.c ****     void UART_GPS_PutString(const char8 string[]) 
1146:Generated_Source\PSoC5/UART_GPS.c ****     {
 922              		.loc 1 1146 0
 923              		.cfi_startproc
 924              		@ args = 0, pretend = 0, frame = 0
 925              		@ frame_needed = 0, uses_anonymous_args = 0
 926              	.LVL61:
 927 0000 38B5     		push	{r3, r4, r5, lr}
 928              		.cfi_def_cfa_offset 16
 929              		.cfi_offset 3, -16
 930              		.cfi_offset 4, -12
 931              		.cfi_offset 5, -8
 932              		.cfi_offset 14, -4
 933              	.LVL62:
1147:Generated_Source\PSoC5/UART_GPS.c ****         uint16 bufIndex = 0u;
1148:Generated_Source\PSoC5/UART_GPS.c **** 
1149:Generated_Source\PSoC5/UART_GPS.c ****         /* If not Initialized then skip this function */
1150:Generated_Source\PSoC5/UART_GPS.c ****         if(UART_GPS_initVar != 0u)
 934              		.loc 1 1150 0
 935 0002 074B     		ldr	r3, .L87
 936 0004 5B78     		ldrb	r3, [r3, #1]	@ zero_extendqisi2
 937 0006 2BB9     		cbnz	r3, .L85
 938 0008 38BD     		pop	{r3, r4, r5, pc}
 939              	.LVL63:
 940              	.L84:
1151:Generated_Source\PSoC5/UART_GPS.c ****         {
1152:Generated_Source\PSoC5/UART_GPS.c ****             /* This is a blocking function, it will not exit until all data is sent */
1153:Generated_Source\PSoC5/UART_GPS.c ****             while(string[bufIndex] != (char8) 0)
1154:Generated_Source\PSoC5/UART_GPS.c ****             {
1155:Generated_Source\PSoC5/UART_GPS.c ****                 UART_GPS_PutChar((uint8)string[bufIndex]);
 941              		.loc 1 1155 0
 942 000a FFF7FEFF 		bl	UART_GPS_PutChar
 943              	.LVL64:
1156:Generated_Source\PSoC5/UART_GPS.c ****                 bufIndex++;
 944              		.loc 1 1156 0
 945 000e 0134     		adds	r4, r4, #1
 946              	.LVL65:
ARM GAS  C:\Users\cronos\AppData\Local\Temp\ccrntx0f.s 			page 38


 947 0010 A4B2     		uxth	r4, r4
 948              	.LVL66:
 949 0012 01E0     		b	.L82
 950              	.LVL67:
 951              	.L85:
 952 0014 0546     		mov	r5, r0
 953 0016 0024     		movs	r4, #0
 954              	.LVL68:
 955              	.L82:
1153:Generated_Source\PSoC5/UART_GPS.c ****             {
 956              		.loc 1 1153 0
 957 0018 285D     		ldrb	r0, [r5, r4]	@ zero_extendqisi2
 958 001a 0028     		cmp	r0, #0
 959 001c F5D1     		bne	.L84
 960 001e 38BD     		pop	{r3, r4, r5, pc}
 961              	.LVL69:
 962              	.L88:
 963              		.align	2
 964              	.L87:
 965 0020 00000000 		.word	.LANCHOR0
 966              		.cfi_endproc
 967              	.LFE20:
 968              		.size	UART_GPS_PutString, .-UART_GPS_PutString
 969              		.section	.text.UART_GPS_PutArray,"ax",%progbits
 970              		.align	2
 971              		.global	UART_GPS_PutArray
 972              		.thumb
 973              		.thumb_func
 974              		.type	UART_GPS_PutArray, %function
 975              	UART_GPS_PutArray:
 976              	.LFB21:
1157:Generated_Source\PSoC5/UART_GPS.c ****             }
1158:Generated_Source\PSoC5/UART_GPS.c ****         }
1159:Generated_Source\PSoC5/UART_GPS.c ****     }
1160:Generated_Source\PSoC5/UART_GPS.c **** 
1161:Generated_Source\PSoC5/UART_GPS.c **** 
1162:Generated_Source\PSoC5/UART_GPS.c ****     /*******************************************************************************
1163:Generated_Source\PSoC5/UART_GPS.c ****     * Function Name: UART_GPS_PutArray
1164:Generated_Source\PSoC5/UART_GPS.c ****     ********************************************************************************
1165:Generated_Source\PSoC5/UART_GPS.c ****     *
1166:Generated_Source\PSoC5/UART_GPS.c ****     * Summary:
1167:Generated_Source\PSoC5/UART_GPS.c ****     *  Places N bytes of data from a memory array into the TX buffer for
1168:Generated_Source\PSoC5/UART_GPS.c ****     *  transmission.
1169:Generated_Source\PSoC5/UART_GPS.c ****     *
1170:Generated_Source\PSoC5/UART_GPS.c ****     * Parameters:
1171:Generated_Source\PSoC5/UART_GPS.c ****     *  string[]: Address of the memory array residing in RAM or ROM.
1172:Generated_Source\PSoC5/UART_GPS.c ****     *  byteCount: Number of bytes to be transmitted. The type depends on TX Buffer
1173:Generated_Source\PSoC5/UART_GPS.c ****     *             Size parameter.
1174:Generated_Source\PSoC5/UART_GPS.c ****     *
1175:Generated_Source\PSoC5/UART_GPS.c ****     * Return:
1176:Generated_Source\PSoC5/UART_GPS.c ****     *  None.
1177:Generated_Source\PSoC5/UART_GPS.c ****     *
1178:Generated_Source\PSoC5/UART_GPS.c ****     * Global Variables:
1179:Generated_Source\PSoC5/UART_GPS.c ****     *  UART_GPS_initVar - checked to identify that the component has been
1180:Generated_Source\PSoC5/UART_GPS.c ****     *     initialized.
1181:Generated_Source\PSoC5/UART_GPS.c ****     *
1182:Generated_Source\PSoC5/UART_GPS.c ****     * Reentrant:
ARM GAS  C:\Users\cronos\AppData\Local\Temp\ccrntx0f.s 			page 39


1183:Generated_Source\PSoC5/UART_GPS.c ****     *  No.
1184:Generated_Source\PSoC5/UART_GPS.c ****     *
1185:Generated_Source\PSoC5/UART_GPS.c ****     * Theory:
1186:Generated_Source\PSoC5/UART_GPS.c ****     *  If there is not enough memory in the TX buffer for the entire string, this
1187:Generated_Source\PSoC5/UART_GPS.c ****     *  function blocks until the last character of the string is loaded into the
1188:Generated_Source\PSoC5/UART_GPS.c ****     *  TX buffer.
1189:Generated_Source\PSoC5/UART_GPS.c ****     *
1190:Generated_Source\PSoC5/UART_GPS.c ****     *******************************************************************************/
1191:Generated_Source\PSoC5/UART_GPS.c ****     void UART_GPS_PutArray(const uint8 string[], uint8 byteCount)
1192:Generated_Source\PSoC5/UART_GPS.c ****                                                                     
1193:Generated_Source\PSoC5/UART_GPS.c ****     {
 977              		.loc 1 1193 0
 978              		.cfi_startproc
 979              		@ args = 0, pretend = 0, frame = 0
 980              		@ frame_needed = 0, uses_anonymous_args = 0
 981              	.LVL70:
1194:Generated_Source\PSoC5/UART_GPS.c ****         uint8 bufIndex = 0u;
1195:Generated_Source\PSoC5/UART_GPS.c **** 
1196:Generated_Source\PSoC5/UART_GPS.c ****         /* If not Initialized then skip this function */
1197:Generated_Source\PSoC5/UART_GPS.c ****         if(UART_GPS_initVar != 0u)
 982              		.loc 1 1197 0
 983 0000 084B     		ldr	r3, .L95
 984 0002 5B78     		ldrb	r3, [r3, #1]	@ zero_extendqisi2
 985 0004 33B9     		cbnz	r3, .L93
 986 0006 7047     		bx	lr
 987              	.LVL71:
 988              	.L92:
 989              		.cfi_def_cfa_offset 16
 990              		.cfi_offset 4, -16
 991              		.cfi_offset 5, -12
 992              		.cfi_offset 6, -8
 993              		.cfi_offset 14, -4
1198:Generated_Source\PSoC5/UART_GPS.c ****         {
1199:Generated_Source\PSoC5/UART_GPS.c ****             while(bufIndex < byteCount)
1200:Generated_Source\PSoC5/UART_GPS.c ****             {
1201:Generated_Source\PSoC5/UART_GPS.c ****                 UART_GPS_PutChar(string[bufIndex]);
 994              		.loc 1 1201 0
 995 0008 305D     		ldrb	r0, [r6, r4]	@ zero_extendqisi2
 996 000a FFF7FEFF 		bl	UART_GPS_PutChar
 997              	.LVL72:
1202:Generated_Source\PSoC5/UART_GPS.c ****                 bufIndex++;
 998              		.loc 1 1202 0
 999 000e 0134     		adds	r4, r4, #1
 1000              	.LVL73:
 1001 0010 E4B2     		uxtb	r4, r4
 1002              	.LVL74:
 1003 0012 03E0     		b	.L90
 1004              	.LVL75:
 1005              	.L93:
 1006              		.cfi_def_cfa_offset 0
 1007              		.cfi_restore 4
 1008              		.cfi_restore 5
 1009              		.cfi_restore 6
 1010              		.cfi_restore 14
1193:Generated_Source\PSoC5/UART_GPS.c ****         uint8 bufIndex = 0u;
 1011              		.loc 1 1193 0
 1012 0014 70B5     		push	{r4, r5, r6, lr}
ARM GAS  C:\Users\cronos\AppData\Local\Temp\ccrntx0f.s 			page 40


 1013              		.cfi_def_cfa_offset 16
 1014              		.cfi_offset 4, -16
 1015              		.cfi_offset 5, -12
 1016              		.cfi_offset 6, -8
 1017              		.cfi_offset 14, -4
 1018 0016 0D46     		mov	r5, r1
 1019 0018 0646     		mov	r6, r0
 1020 001a 0024     		movs	r4, #0
 1021              	.LVL76:
 1022              	.L90:
1199:Generated_Source\PSoC5/UART_GPS.c ****             {
 1023              		.loc 1 1199 0
 1024 001c AC42     		cmp	r4, r5
 1025 001e F3D3     		bcc	.L92
 1026 0020 70BD     		pop	{r4, r5, r6, pc}
 1027              	.LVL77:
 1028              	.L96:
 1029 0022 00BF     		.align	2
 1030              	.L95:
 1031 0024 00000000 		.word	.LANCHOR0
 1032              		.cfi_endproc
 1033              	.LFE21:
 1034              		.size	UART_GPS_PutArray, .-UART_GPS_PutArray
 1035              		.section	.text.UART_GPS_PutCRLF,"ax",%progbits
 1036              		.align	2
 1037              		.global	UART_GPS_PutCRLF
 1038              		.thumb
 1039              		.thumb_func
 1040              		.type	UART_GPS_PutCRLF, %function
 1041              	UART_GPS_PutCRLF:
 1042              	.LFB22:
1203:Generated_Source\PSoC5/UART_GPS.c ****             }
1204:Generated_Source\PSoC5/UART_GPS.c ****         }
1205:Generated_Source\PSoC5/UART_GPS.c ****     }
1206:Generated_Source\PSoC5/UART_GPS.c **** 
1207:Generated_Source\PSoC5/UART_GPS.c **** 
1208:Generated_Source\PSoC5/UART_GPS.c ****     /*******************************************************************************
1209:Generated_Source\PSoC5/UART_GPS.c ****     * Function Name: UART_GPS_PutCRLF
1210:Generated_Source\PSoC5/UART_GPS.c ****     ********************************************************************************
1211:Generated_Source\PSoC5/UART_GPS.c ****     *
1212:Generated_Source\PSoC5/UART_GPS.c ****     * Summary:
1213:Generated_Source\PSoC5/UART_GPS.c ****     *  Writes a byte of data followed by a carriage return (0x0D) and line feed
1214:Generated_Source\PSoC5/UART_GPS.c ****     *  (0x0A) to the transmit buffer.
1215:Generated_Source\PSoC5/UART_GPS.c ****     *
1216:Generated_Source\PSoC5/UART_GPS.c ****     * Parameters:
1217:Generated_Source\PSoC5/UART_GPS.c ****     *  txDataByte: Data byte to transmit before the carriage return and line feed.
1218:Generated_Source\PSoC5/UART_GPS.c ****     *
1219:Generated_Source\PSoC5/UART_GPS.c ****     * Return:
1220:Generated_Source\PSoC5/UART_GPS.c ****     *  None.
1221:Generated_Source\PSoC5/UART_GPS.c ****     *
1222:Generated_Source\PSoC5/UART_GPS.c ****     * Global Variables:
1223:Generated_Source\PSoC5/UART_GPS.c ****     *  UART_GPS_initVar - checked to identify that the component has been
1224:Generated_Source\PSoC5/UART_GPS.c ****     *     initialized.
1225:Generated_Source\PSoC5/UART_GPS.c ****     *
1226:Generated_Source\PSoC5/UART_GPS.c ****     * Reentrant:
1227:Generated_Source\PSoC5/UART_GPS.c ****     *  No.
1228:Generated_Source\PSoC5/UART_GPS.c ****     *
ARM GAS  C:\Users\cronos\AppData\Local\Temp\ccrntx0f.s 			page 41


1229:Generated_Source\PSoC5/UART_GPS.c ****     *******************************************************************************/
1230:Generated_Source\PSoC5/UART_GPS.c ****     void UART_GPS_PutCRLF(uint8 txDataByte) 
1231:Generated_Source\PSoC5/UART_GPS.c ****     {
 1043              		.loc 1 1231 0
 1044              		.cfi_startproc
 1045              		@ args = 0, pretend = 0, frame = 0
 1046              		@ frame_needed = 0, uses_anonymous_args = 0
 1047              	.LVL78:
 1048 0000 08B5     		push	{r3, lr}
 1049              		.cfi_def_cfa_offset 8
 1050              		.cfi_offset 3, -8
 1051              		.cfi_offset 14, -4
1232:Generated_Source\PSoC5/UART_GPS.c ****         /* If not Initialized then skip this function */
1233:Generated_Source\PSoC5/UART_GPS.c ****         if(UART_GPS_initVar != 0u)
 1052              		.loc 1 1233 0
 1053 0002 064B     		ldr	r3, .L100
 1054 0004 5B78     		ldrb	r3, [r3, #1]	@ zero_extendqisi2
 1055 0006 3BB1     		cbz	r3, .L97
1234:Generated_Source\PSoC5/UART_GPS.c ****         {
1235:Generated_Source\PSoC5/UART_GPS.c ****             UART_GPS_PutChar(txDataByte);
 1056              		.loc 1 1235 0
 1057 0008 FFF7FEFF 		bl	UART_GPS_PutChar
 1058              	.LVL79:
1236:Generated_Source\PSoC5/UART_GPS.c ****             UART_GPS_PutChar(0x0Du);
 1059              		.loc 1 1236 0
 1060 000c 0D20     		movs	r0, #13
 1061 000e FFF7FEFF 		bl	UART_GPS_PutChar
 1062              	.LVL80:
1237:Generated_Source\PSoC5/UART_GPS.c ****             UART_GPS_PutChar(0x0Au);
 1063              		.loc 1 1237 0
 1064 0012 0A20     		movs	r0, #10
 1065 0014 FFF7FEFF 		bl	UART_GPS_PutChar
 1066              	.LVL81:
 1067              	.L97:
 1068 0018 08BD     		pop	{r3, pc}
 1069              	.L101:
 1070 001a 00BF     		.align	2
 1071              	.L100:
 1072 001c 00000000 		.word	.LANCHOR0
 1073              		.cfi_endproc
 1074              	.LFE22:
 1075              		.size	UART_GPS_PutCRLF, .-UART_GPS_PutCRLF
 1076              		.section	.text.UART_GPS_GetTxBufferSize,"ax",%progbits
 1077              		.align	2
 1078              		.global	UART_GPS_GetTxBufferSize
 1079              		.thumb
 1080              		.thumb_func
 1081              		.type	UART_GPS_GetTxBufferSize, %function
 1082              	UART_GPS_GetTxBufferSize:
 1083              	.LFB23:
1238:Generated_Source\PSoC5/UART_GPS.c ****         }
1239:Generated_Source\PSoC5/UART_GPS.c ****     }
1240:Generated_Source\PSoC5/UART_GPS.c **** 
1241:Generated_Source\PSoC5/UART_GPS.c **** 
1242:Generated_Source\PSoC5/UART_GPS.c ****     /*******************************************************************************
1243:Generated_Source\PSoC5/UART_GPS.c ****     * Function Name: UART_GPS_GetTxBufferSize
1244:Generated_Source\PSoC5/UART_GPS.c ****     ********************************************************************************
ARM GAS  C:\Users\cronos\AppData\Local\Temp\ccrntx0f.s 			page 42


1245:Generated_Source\PSoC5/UART_GPS.c ****     *
1246:Generated_Source\PSoC5/UART_GPS.c ****     * Summary:
1247:Generated_Source\PSoC5/UART_GPS.c ****     *  Returns the number of bytes in the TX buffer which are waiting to be 
1248:Generated_Source\PSoC5/UART_GPS.c ****     *  transmitted.
1249:Generated_Source\PSoC5/UART_GPS.c ****     *  * TX software buffer is disabled (TX Buffer Size parameter is equal to 4): 
1250:Generated_Source\PSoC5/UART_GPS.c ****     *    returns 0 for empty TX FIFO, 1 for not full TX FIFO or 4 for full TX FIFO.
1251:Generated_Source\PSoC5/UART_GPS.c ****     *  * TX software buffer is enabled: returns the number of bytes in the TX 
1252:Generated_Source\PSoC5/UART_GPS.c ****     *    software buffer which are waiting to be transmitted. Bytes available in the
1253:Generated_Source\PSoC5/UART_GPS.c ****     *    TX FIFO do not count.
1254:Generated_Source\PSoC5/UART_GPS.c ****     *
1255:Generated_Source\PSoC5/UART_GPS.c ****     * Parameters:
1256:Generated_Source\PSoC5/UART_GPS.c ****     *  None.
1257:Generated_Source\PSoC5/UART_GPS.c ****     *
1258:Generated_Source\PSoC5/UART_GPS.c ****     * Return:
1259:Generated_Source\PSoC5/UART_GPS.c ****     *  Number of bytes used in the TX buffer. Return value type depends on the TX 
1260:Generated_Source\PSoC5/UART_GPS.c ****     *  Buffer Size parameter.
1261:Generated_Source\PSoC5/UART_GPS.c ****     *
1262:Generated_Source\PSoC5/UART_GPS.c ****     * Global Variables:
1263:Generated_Source\PSoC5/UART_GPS.c ****     *  UART_GPS_txBufferWrite - used to calculate left space.
1264:Generated_Source\PSoC5/UART_GPS.c ****     *  UART_GPS_txBufferRead - used to calculate left space.
1265:Generated_Source\PSoC5/UART_GPS.c ****     *
1266:Generated_Source\PSoC5/UART_GPS.c ****     * Reentrant:
1267:Generated_Source\PSoC5/UART_GPS.c ****     *  No.
1268:Generated_Source\PSoC5/UART_GPS.c ****     *
1269:Generated_Source\PSoC5/UART_GPS.c ****     * Theory:
1270:Generated_Source\PSoC5/UART_GPS.c ****     *  Allows the user to find out how full the TX Buffer is.
1271:Generated_Source\PSoC5/UART_GPS.c ****     *
1272:Generated_Source\PSoC5/UART_GPS.c ****     *******************************************************************************/
1273:Generated_Source\PSoC5/UART_GPS.c ****     uint8 UART_GPS_GetTxBufferSize(void)
1274:Generated_Source\PSoC5/UART_GPS.c ****                                                             
1275:Generated_Source\PSoC5/UART_GPS.c ****     {
 1084              		.loc 1 1275 0
 1085              		.cfi_startproc
 1086              		@ args = 0, pretend = 0, frame = 0
 1087              		@ frame_needed = 0, uses_anonymous_args = 0
 1088              		@ link register save eliminated.
1276:Generated_Source\PSoC5/UART_GPS.c ****         uint8 size;
1277:Generated_Source\PSoC5/UART_GPS.c **** 
1278:Generated_Source\PSoC5/UART_GPS.c ****     #if (UART_GPS_TX_INTERRUPT_ENABLED)
1279:Generated_Source\PSoC5/UART_GPS.c **** 
1280:Generated_Source\PSoC5/UART_GPS.c ****         /* Protect variables that could change on interrupt. */
1281:Generated_Source\PSoC5/UART_GPS.c ****         UART_GPS_DisableTxInt();
1282:Generated_Source\PSoC5/UART_GPS.c **** 
1283:Generated_Source\PSoC5/UART_GPS.c ****         if(UART_GPS_txBufferRead == UART_GPS_txBufferWrite)
1284:Generated_Source\PSoC5/UART_GPS.c ****         {
1285:Generated_Source\PSoC5/UART_GPS.c ****             size = 0u;
1286:Generated_Source\PSoC5/UART_GPS.c ****         }
1287:Generated_Source\PSoC5/UART_GPS.c ****         else if(UART_GPS_txBufferRead < UART_GPS_txBufferWrite)
1288:Generated_Source\PSoC5/UART_GPS.c ****         {
1289:Generated_Source\PSoC5/UART_GPS.c ****             size = (UART_GPS_txBufferWrite - UART_GPS_txBufferRead);
1290:Generated_Source\PSoC5/UART_GPS.c ****         }
1291:Generated_Source\PSoC5/UART_GPS.c ****         else
1292:Generated_Source\PSoC5/UART_GPS.c ****         {
1293:Generated_Source\PSoC5/UART_GPS.c ****             size = (UART_GPS_TX_BUFFER_SIZE - UART_GPS_txBufferRead) +
1294:Generated_Source\PSoC5/UART_GPS.c ****                     UART_GPS_txBufferWrite;
1295:Generated_Source\PSoC5/UART_GPS.c ****         }
1296:Generated_Source\PSoC5/UART_GPS.c **** 
ARM GAS  C:\Users\cronos\AppData\Local\Temp\ccrntx0f.s 			page 43


1297:Generated_Source\PSoC5/UART_GPS.c ****         UART_GPS_EnableTxInt();
1298:Generated_Source\PSoC5/UART_GPS.c **** 
1299:Generated_Source\PSoC5/UART_GPS.c ****     #else
1300:Generated_Source\PSoC5/UART_GPS.c **** 
1301:Generated_Source\PSoC5/UART_GPS.c ****         size = UART_GPS_TXSTATUS_REG;
 1089              		.loc 1 1301 0
 1090 0000 074B     		ldr	r3, .L106
 1091 0002 1B78     		ldrb	r3, [r3]	@ zero_extendqisi2
 1092 0004 DBB2     		uxtb	r3, r3
 1093              	.LVL82:
1302:Generated_Source\PSoC5/UART_GPS.c **** 
1303:Generated_Source\PSoC5/UART_GPS.c ****         /* Is the fifo is full. */
1304:Generated_Source\PSoC5/UART_GPS.c ****         if((size & UART_GPS_TX_STS_FIFO_FULL) != 0u)
 1094              		.loc 1 1304 0
 1095 0006 13F0040F 		tst	r3, #4
 1096 000a 04D1     		bne	.L104
1305:Generated_Source\PSoC5/UART_GPS.c ****         {
1306:Generated_Source\PSoC5/UART_GPS.c ****             size = UART_GPS_FIFO_LENGTH;
1307:Generated_Source\PSoC5/UART_GPS.c ****         }
1308:Generated_Source\PSoC5/UART_GPS.c ****         else if((size & UART_GPS_TX_STS_FIFO_EMPTY) != 0u)
 1097              		.loc 1 1308 0
 1098 000c 13F0020F 		tst	r3, #2
 1099 0010 03D0     		beq	.L105
1309:Generated_Source\PSoC5/UART_GPS.c ****         {
1310:Generated_Source\PSoC5/UART_GPS.c ****             size = 0u;
 1100              		.loc 1 1310 0
 1101 0012 0020     		movs	r0, #0
 1102 0014 7047     		bx	lr
 1103              	.L104:
1306:Generated_Source\PSoC5/UART_GPS.c ****         }
 1104              		.loc 1 1306 0
 1105 0016 0420     		movs	r0, #4
 1106 0018 7047     		bx	lr
 1107              	.L105:
1311:Generated_Source\PSoC5/UART_GPS.c ****         }
1312:Generated_Source\PSoC5/UART_GPS.c ****         else
1313:Generated_Source\PSoC5/UART_GPS.c ****         {
1314:Generated_Source\PSoC5/UART_GPS.c ****             /* We only know there is data in the fifo. */
1315:Generated_Source\PSoC5/UART_GPS.c ****             size = 1u;
 1108              		.loc 1 1315 0
 1109 001a 0120     		movs	r0, #1
 1110              	.LVL83:
1316:Generated_Source\PSoC5/UART_GPS.c ****         }
1317:Generated_Source\PSoC5/UART_GPS.c **** 
1318:Generated_Source\PSoC5/UART_GPS.c ****     #endif /* (UART_GPS_TX_INTERRUPT_ENABLED) */
1319:Generated_Source\PSoC5/UART_GPS.c **** 
1320:Generated_Source\PSoC5/UART_GPS.c ****     return(size);
1321:Generated_Source\PSoC5/UART_GPS.c ****     }
 1111              		.loc 1 1321 0
 1112 001c 7047     		bx	lr
 1113              	.L107:
 1114 001e 00BF     		.align	2
 1115              	.L106:
 1116 0020 6E640040 		.word	1073767534
 1117              		.cfi_endproc
 1118              	.LFE23:
 1119              		.size	UART_GPS_GetTxBufferSize, .-UART_GPS_GetTxBufferSize
ARM GAS  C:\Users\cronos\AppData\Local\Temp\ccrntx0f.s 			page 44


 1120              		.section	.text.UART_GPS_ClearTxBuffer,"ax",%progbits
 1121              		.align	2
 1122              		.global	UART_GPS_ClearTxBuffer
 1123              		.thumb
 1124              		.thumb_func
 1125              		.type	UART_GPS_ClearTxBuffer, %function
 1126              	UART_GPS_ClearTxBuffer:
 1127              	.LFB24:
1322:Generated_Source\PSoC5/UART_GPS.c **** 
1323:Generated_Source\PSoC5/UART_GPS.c **** 
1324:Generated_Source\PSoC5/UART_GPS.c ****     /*******************************************************************************
1325:Generated_Source\PSoC5/UART_GPS.c ****     * Function Name: UART_GPS_ClearTxBuffer
1326:Generated_Source\PSoC5/UART_GPS.c ****     ********************************************************************************
1327:Generated_Source\PSoC5/UART_GPS.c ****     *
1328:Generated_Source\PSoC5/UART_GPS.c ****     * Summary:
1329:Generated_Source\PSoC5/UART_GPS.c ****     *  Clears all data from the TX buffer and hardware TX FIFO.
1330:Generated_Source\PSoC5/UART_GPS.c ****     *
1331:Generated_Source\PSoC5/UART_GPS.c ****     * Parameters:
1332:Generated_Source\PSoC5/UART_GPS.c ****     *  None.
1333:Generated_Source\PSoC5/UART_GPS.c ****     *
1334:Generated_Source\PSoC5/UART_GPS.c ****     * Return:
1335:Generated_Source\PSoC5/UART_GPS.c ****     *  None.
1336:Generated_Source\PSoC5/UART_GPS.c ****     *
1337:Generated_Source\PSoC5/UART_GPS.c ****     * Global Variables:
1338:Generated_Source\PSoC5/UART_GPS.c ****     *  UART_GPS_txBufferWrite - cleared to zero.
1339:Generated_Source\PSoC5/UART_GPS.c ****     *  UART_GPS_txBufferRead - cleared to zero.
1340:Generated_Source\PSoC5/UART_GPS.c ****     *
1341:Generated_Source\PSoC5/UART_GPS.c ****     * Reentrant:
1342:Generated_Source\PSoC5/UART_GPS.c ****     *  No.
1343:Generated_Source\PSoC5/UART_GPS.c ****     *
1344:Generated_Source\PSoC5/UART_GPS.c ****     * Theory:
1345:Generated_Source\PSoC5/UART_GPS.c ****     *  Setting the pointers to zero makes the system believe there is no data to
1346:Generated_Source\PSoC5/UART_GPS.c ****     *  read and writing will resume at address 0 overwriting any data that may have
1347:Generated_Source\PSoC5/UART_GPS.c ****     *  remained in the RAM.
1348:Generated_Source\PSoC5/UART_GPS.c ****     *
1349:Generated_Source\PSoC5/UART_GPS.c ****     * Side Effects:
1350:Generated_Source\PSoC5/UART_GPS.c ****     *  Data waiting in the transmit buffer is not sent; a byte that is currently
1351:Generated_Source\PSoC5/UART_GPS.c ****     *  transmitting finishes transmitting.
1352:Generated_Source\PSoC5/UART_GPS.c ****     *
1353:Generated_Source\PSoC5/UART_GPS.c ****     *******************************************************************************/
1354:Generated_Source\PSoC5/UART_GPS.c ****     void UART_GPS_ClearTxBuffer(void) 
1355:Generated_Source\PSoC5/UART_GPS.c ****     {
 1128              		.loc 1 1355 0
 1129              		.cfi_startproc
 1130              		@ args = 0, pretend = 0, frame = 0
 1131              		@ frame_needed = 0, uses_anonymous_args = 0
 1132 0000 08B5     		push	{r3, lr}
 1133              		.cfi_def_cfa_offset 8
 1134              		.cfi_offset 3, -8
 1135              		.cfi_offset 14, -4
1356:Generated_Source\PSoC5/UART_GPS.c ****         uint8 enableInterrupts;
1357:Generated_Source\PSoC5/UART_GPS.c **** 
1358:Generated_Source\PSoC5/UART_GPS.c ****         enableInterrupts = CyEnterCriticalSection();
 1136              		.loc 1 1358 0
 1137 0002 FFF7FEFF 		bl	CyEnterCriticalSection
 1138              	.LVL84:
1359:Generated_Source\PSoC5/UART_GPS.c ****         /* Clear the HW FIFO */
ARM GAS  C:\Users\cronos\AppData\Local\Temp\ccrntx0f.s 			page 45


1360:Generated_Source\PSoC5/UART_GPS.c ****         UART_GPS_TXDATA_AUX_CTL_REG |= (uint8)  UART_GPS_TX_FIFO_CLR;
 1139              		.loc 1 1360 0
 1140 0006 064B     		ldr	r3, .L110
 1141 0008 1A78     		ldrb	r2, [r3]	@ zero_extendqisi2
 1142 000a 42F00102 		orr	r2, r2, #1
 1143 000e 1A70     		strb	r2, [r3]
1361:Generated_Source\PSoC5/UART_GPS.c ****         UART_GPS_TXDATA_AUX_CTL_REG &= (uint8) ~UART_GPS_TX_FIFO_CLR;
 1144              		.loc 1 1361 0
 1145 0010 1A78     		ldrb	r2, [r3]	@ zero_extendqisi2
 1146 0012 02F0FE02 		and	r2, r2, #254
 1147 0016 1A70     		strb	r2, [r3]
1362:Generated_Source\PSoC5/UART_GPS.c ****         CyExitCriticalSection(enableInterrupts);
 1148              		.loc 1 1362 0
 1149 0018 FFF7FEFF 		bl	CyExitCriticalSection
 1150              	.LVL85:
 1151 001c 08BD     		pop	{r3, pc}
 1152              	.L111:
 1153 001e 00BF     		.align	2
 1154              	.L110:
 1155 0020 9D640040 		.word	1073767581
 1156              		.cfi_endproc
 1157              	.LFE24:
 1158              		.size	UART_GPS_ClearTxBuffer, .-UART_GPS_ClearTxBuffer
 1159              		.section	.text.UART_GPS_SendBreak,"ax",%progbits
 1160              		.align	2
 1161              		.global	UART_GPS_SendBreak
 1162              		.thumb
 1163              		.thumb_func
 1164              		.type	UART_GPS_SendBreak, %function
 1165              	UART_GPS_SendBreak:
 1166              	.LFB25:
1363:Generated_Source\PSoC5/UART_GPS.c **** 
1364:Generated_Source\PSoC5/UART_GPS.c ****     #if (UART_GPS_TX_INTERRUPT_ENABLED)
1365:Generated_Source\PSoC5/UART_GPS.c **** 
1366:Generated_Source\PSoC5/UART_GPS.c ****         /* Protect variables that could change on interrupt. */
1367:Generated_Source\PSoC5/UART_GPS.c ****         UART_GPS_DisableTxInt();
1368:Generated_Source\PSoC5/UART_GPS.c **** 
1369:Generated_Source\PSoC5/UART_GPS.c ****         UART_GPS_txBufferRead = 0u;
1370:Generated_Source\PSoC5/UART_GPS.c ****         UART_GPS_txBufferWrite = 0u;
1371:Generated_Source\PSoC5/UART_GPS.c **** 
1372:Generated_Source\PSoC5/UART_GPS.c ****         /* Enable Tx interrupt. */
1373:Generated_Source\PSoC5/UART_GPS.c ****         UART_GPS_EnableTxInt();
1374:Generated_Source\PSoC5/UART_GPS.c **** 
1375:Generated_Source\PSoC5/UART_GPS.c ****     #endif /* (UART_GPS_TX_INTERRUPT_ENABLED) */
1376:Generated_Source\PSoC5/UART_GPS.c ****     }
1377:Generated_Source\PSoC5/UART_GPS.c **** 
1378:Generated_Source\PSoC5/UART_GPS.c **** 
1379:Generated_Source\PSoC5/UART_GPS.c ****     /*******************************************************************************
1380:Generated_Source\PSoC5/UART_GPS.c ****     * Function Name: UART_GPS_SendBreak
1381:Generated_Source\PSoC5/UART_GPS.c ****     ********************************************************************************
1382:Generated_Source\PSoC5/UART_GPS.c ****     *
1383:Generated_Source\PSoC5/UART_GPS.c ****     * Summary:
1384:Generated_Source\PSoC5/UART_GPS.c ****     *  Transmits a break signal on the bus.
1385:Generated_Source\PSoC5/UART_GPS.c ****     *
1386:Generated_Source\PSoC5/UART_GPS.c ****     * Parameters:
1387:Generated_Source\PSoC5/UART_GPS.c ****     *  uint8 retMode:  Send Break return mode. See the following table for options.
1388:Generated_Source\PSoC5/UART_GPS.c ****     *   UART_GPS_SEND_BREAK - Initialize registers for break, send the Break
ARM GAS  C:\Users\cronos\AppData\Local\Temp\ccrntx0f.s 			page 46


1389:Generated_Source\PSoC5/UART_GPS.c ****     *       signal and return immediately.
1390:Generated_Source\PSoC5/UART_GPS.c ****     *   UART_GPS_WAIT_FOR_COMPLETE_REINIT - Wait until break transmission is
1391:Generated_Source\PSoC5/UART_GPS.c ****     *       complete, reinitialize registers to normal transmission mode then return
1392:Generated_Source\PSoC5/UART_GPS.c ****     *   UART_GPS_REINIT - Reinitialize registers to normal transmission mode
1393:Generated_Source\PSoC5/UART_GPS.c ****     *       then return.
1394:Generated_Source\PSoC5/UART_GPS.c ****     *   UART_GPS_SEND_WAIT_REINIT - Performs both options: 
1395:Generated_Source\PSoC5/UART_GPS.c ****     *      UART_GPS_SEND_BREAK and UART_GPS_WAIT_FOR_COMPLETE_REINIT.
1396:Generated_Source\PSoC5/UART_GPS.c ****     *      This option is recommended for most cases.
1397:Generated_Source\PSoC5/UART_GPS.c ****     *
1398:Generated_Source\PSoC5/UART_GPS.c ****     * Return:
1399:Generated_Source\PSoC5/UART_GPS.c ****     *  None.
1400:Generated_Source\PSoC5/UART_GPS.c ****     *
1401:Generated_Source\PSoC5/UART_GPS.c ****     * Global Variables:
1402:Generated_Source\PSoC5/UART_GPS.c ****     *  UART_GPS_initVar - checked to identify that the component has been
1403:Generated_Source\PSoC5/UART_GPS.c ****     *     initialized.
1404:Generated_Source\PSoC5/UART_GPS.c ****     *  txPeriod - static variable, used for keeping TX period configuration.
1405:Generated_Source\PSoC5/UART_GPS.c ****     *
1406:Generated_Source\PSoC5/UART_GPS.c ****     * Reentrant:
1407:Generated_Source\PSoC5/UART_GPS.c ****     *  No.
1408:Generated_Source\PSoC5/UART_GPS.c ****     *
1409:Generated_Source\PSoC5/UART_GPS.c ****     * Theory:
1410:Generated_Source\PSoC5/UART_GPS.c ****     *  SendBreak function initializes registers to send 13-bit break signal. It is
1411:Generated_Source\PSoC5/UART_GPS.c ****     *  important to return the registers configuration to normal for continue 8-bit
1412:Generated_Source\PSoC5/UART_GPS.c ****     *  operation.
1413:Generated_Source\PSoC5/UART_GPS.c ****     *  There are 3 variants for this API usage:
1414:Generated_Source\PSoC5/UART_GPS.c ****     *  1) SendBreak(3) - function will send the Break signal and take care on the
1415:Generated_Source\PSoC5/UART_GPS.c ****     *     configuration returning. Function will block CPU until transmission
1416:Generated_Source\PSoC5/UART_GPS.c ****     *     complete.
1417:Generated_Source\PSoC5/UART_GPS.c ****     *  2) User may want to use blocking time if UART configured to the low speed
1418:Generated_Source\PSoC5/UART_GPS.c ****     *     operation
1419:Generated_Source\PSoC5/UART_GPS.c ****     *     Example for this case:
1420:Generated_Source\PSoC5/UART_GPS.c ****     *     SendBreak(0);     - initialize Break signal transmission
1421:Generated_Source\PSoC5/UART_GPS.c ****     *         Add your code here to use CPU time
1422:Generated_Source\PSoC5/UART_GPS.c ****     *     SendBreak(1);     - complete Break operation
1423:Generated_Source\PSoC5/UART_GPS.c ****     *  3) Same to 2) but user may want to initialize and use the interrupt to
1424:Generated_Source\PSoC5/UART_GPS.c ****     *     complete break operation.
1425:Generated_Source\PSoC5/UART_GPS.c ****     *     Example for this case:
1426:Generated_Source\PSoC5/UART_GPS.c ****     *     Initialize TX interrupt with "TX - On TX Complete" parameter
1427:Generated_Source\PSoC5/UART_GPS.c ****     *     SendBreak(0);     - initialize Break signal transmission
1428:Generated_Source\PSoC5/UART_GPS.c ****     *         Add your code here to use CPU time
1429:Generated_Source\PSoC5/UART_GPS.c ****     *     When interrupt appear with UART_GPS_TX_STS_COMPLETE status:
1430:Generated_Source\PSoC5/UART_GPS.c ****     *     SendBreak(2);     - complete Break operation
1431:Generated_Source\PSoC5/UART_GPS.c ****     *
1432:Generated_Source\PSoC5/UART_GPS.c ****     * Side Effects:
1433:Generated_Source\PSoC5/UART_GPS.c ****     *  The UART_GPS_SendBreak() function initializes registers to send a
1434:Generated_Source\PSoC5/UART_GPS.c ****     *  break signal.
1435:Generated_Source\PSoC5/UART_GPS.c ****     *  Break signal length depends on the break signal bits configuration.
1436:Generated_Source\PSoC5/UART_GPS.c ****     *  The register configuration should be reinitialized before normal 8-bit
1437:Generated_Source\PSoC5/UART_GPS.c ****     *  communication can continue.
1438:Generated_Source\PSoC5/UART_GPS.c ****     *
1439:Generated_Source\PSoC5/UART_GPS.c ****     *******************************************************************************/
1440:Generated_Source\PSoC5/UART_GPS.c ****     void UART_GPS_SendBreak(uint8 retMode) 
1441:Generated_Source\PSoC5/UART_GPS.c ****     {
 1167              		.loc 1 1441 0
 1168              		.cfi_startproc
 1169              		@ args = 0, pretend = 0, frame = 0
 1170              		@ frame_needed = 0, uses_anonymous_args = 0
ARM GAS  C:\Users\cronos\AppData\Local\Temp\ccrntx0f.s 			page 47


 1171              		@ link register save eliminated.
 1172              	.LVL86:
1442:Generated_Source\PSoC5/UART_GPS.c **** 
1443:Generated_Source\PSoC5/UART_GPS.c ****         /* If not Initialized then skip this function*/
1444:Generated_Source\PSoC5/UART_GPS.c ****         if(UART_GPS_initVar != 0u)
 1173              		.loc 1 1444 0
 1174 0000 124B     		ldr	r3, .L119
 1175 0002 5B78     		ldrb	r3, [r3, #1]	@ zero_extendqisi2
 1176 0004 0BB3     		cbz	r3, .L112
 1177              	.LBB2:
1445:Generated_Source\PSoC5/UART_GPS.c ****         {
1446:Generated_Source\PSoC5/UART_GPS.c ****             /* Set the Counter to 13-bits and transmit a 00 byte */
1447:Generated_Source\PSoC5/UART_GPS.c ****             /* When that is done then reset the counter value back */
1448:Generated_Source\PSoC5/UART_GPS.c ****             uint8 tmpStat;
1449:Generated_Source\PSoC5/UART_GPS.c **** 
1450:Generated_Source\PSoC5/UART_GPS.c ****         #if(UART_GPS_HD_ENABLED) /* Half Duplex mode*/
1451:Generated_Source\PSoC5/UART_GPS.c **** 
1452:Generated_Source\PSoC5/UART_GPS.c ****             if( (retMode == UART_GPS_SEND_BREAK) ||
1453:Generated_Source\PSoC5/UART_GPS.c ****                 (retMode == UART_GPS_SEND_WAIT_REINIT ) )
1454:Generated_Source\PSoC5/UART_GPS.c ****             {
1455:Generated_Source\PSoC5/UART_GPS.c ****                 /* CTRL_HD_SEND_BREAK - sends break bits in HD mode */
1456:Generated_Source\PSoC5/UART_GPS.c ****                 UART_GPS_WriteControlRegister(UART_GPS_ReadControlRegister() |
1457:Generated_Source\PSoC5/UART_GPS.c ****                                                       UART_GPS_CTRL_HD_SEND_BREAK);
1458:Generated_Source\PSoC5/UART_GPS.c ****                 /* Send zeros */
1459:Generated_Source\PSoC5/UART_GPS.c ****                 UART_GPS_TXDATA_REG = 0u;
1460:Generated_Source\PSoC5/UART_GPS.c **** 
1461:Generated_Source\PSoC5/UART_GPS.c ****                 do /* Wait until transmit starts */
1462:Generated_Source\PSoC5/UART_GPS.c ****                 {
1463:Generated_Source\PSoC5/UART_GPS.c ****                     tmpStat = UART_GPS_TXSTATUS_REG;
1464:Generated_Source\PSoC5/UART_GPS.c ****                 }
1465:Generated_Source\PSoC5/UART_GPS.c ****                 while((tmpStat & UART_GPS_TX_STS_FIFO_EMPTY) != 0u);
1466:Generated_Source\PSoC5/UART_GPS.c ****             }
1467:Generated_Source\PSoC5/UART_GPS.c **** 
1468:Generated_Source\PSoC5/UART_GPS.c ****             if( (retMode == UART_GPS_WAIT_FOR_COMPLETE_REINIT) ||
1469:Generated_Source\PSoC5/UART_GPS.c ****                 (retMode == UART_GPS_SEND_WAIT_REINIT) )
1470:Generated_Source\PSoC5/UART_GPS.c ****             {
1471:Generated_Source\PSoC5/UART_GPS.c ****                 do /* Wait until transmit complete */
1472:Generated_Source\PSoC5/UART_GPS.c ****                 {
1473:Generated_Source\PSoC5/UART_GPS.c ****                     tmpStat = UART_GPS_TXSTATUS_REG;
1474:Generated_Source\PSoC5/UART_GPS.c ****                 }
1475:Generated_Source\PSoC5/UART_GPS.c ****                 while(((uint8)~tmpStat & UART_GPS_TX_STS_COMPLETE) != 0u);
1476:Generated_Source\PSoC5/UART_GPS.c ****             }
1477:Generated_Source\PSoC5/UART_GPS.c **** 
1478:Generated_Source\PSoC5/UART_GPS.c ****             if( (retMode == UART_GPS_WAIT_FOR_COMPLETE_REINIT) ||
1479:Generated_Source\PSoC5/UART_GPS.c ****                 (retMode == UART_GPS_REINIT) ||
1480:Generated_Source\PSoC5/UART_GPS.c ****                 (retMode == UART_GPS_SEND_WAIT_REINIT) )
1481:Generated_Source\PSoC5/UART_GPS.c ****             {
1482:Generated_Source\PSoC5/UART_GPS.c ****                 UART_GPS_WriteControlRegister(UART_GPS_ReadControlRegister() &
1483:Generated_Source\PSoC5/UART_GPS.c ****                                               (uint8)~UART_GPS_CTRL_HD_SEND_BREAK);
1484:Generated_Source\PSoC5/UART_GPS.c ****             }
1485:Generated_Source\PSoC5/UART_GPS.c **** 
1486:Generated_Source\PSoC5/UART_GPS.c ****         #else /* UART_GPS_HD_ENABLED Full Duplex mode */
1487:Generated_Source\PSoC5/UART_GPS.c **** 
1488:Generated_Source\PSoC5/UART_GPS.c ****             static uint8 txPeriod;
1489:Generated_Source\PSoC5/UART_GPS.c **** 
1490:Generated_Source\PSoC5/UART_GPS.c ****             if( (retMode == UART_GPS_SEND_BREAK) ||
 1178              		.loc 1 1490 0
ARM GAS  C:\Users\cronos\AppData\Local\Temp\ccrntx0f.s 			page 48


 1179 0006 08B1     		cbz	r0, .L114
 1180              		.loc 1 1490 0 is_stmt 0 discriminator 1
 1181 0008 0328     		cmp	r0, #3
 1182 000a 0DD1     		bne	.L115
 1183              	.L114:
1491:Generated_Source\PSoC5/UART_GPS.c ****                 (retMode == UART_GPS_SEND_WAIT_REINIT) )
1492:Generated_Source\PSoC5/UART_GPS.c ****             {
1493:Generated_Source\PSoC5/UART_GPS.c ****                 /* CTRL_HD_SEND_BREAK - skip to send parity bit at Break signal in Full Duplex mode
1494:Generated_Source\PSoC5/UART_GPS.c ****                 #if( (UART_GPS_PARITY_TYPE != UART_GPS__B_UART__NONE_REVB) || \
1495:Generated_Source\PSoC5/UART_GPS.c ****                                     (UART_GPS_PARITY_TYPE_SW != 0u) )
1496:Generated_Source\PSoC5/UART_GPS.c ****                     UART_GPS_WriteControlRegister(UART_GPS_ReadControlRegister() |
1497:Generated_Source\PSoC5/UART_GPS.c ****                                                           UART_GPS_CTRL_HD_SEND_BREAK);
1498:Generated_Source\PSoC5/UART_GPS.c ****                 #endif /* End UART_GPS_PARITY_TYPE != UART_GPS__B_UART__NONE_REVB  */
1499:Generated_Source\PSoC5/UART_GPS.c **** 
1500:Generated_Source\PSoC5/UART_GPS.c ****                 #if(UART_GPS_TXCLKGEN_DP)
1501:Generated_Source\PSoC5/UART_GPS.c ****                     txPeriod = UART_GPS_TXBITCLKTX_COMPLETE_REG;
 1184              		.loc 1 1501 0 is_stmt 1
 1185 000c 104B     		ldr	r3, .L119+4
 1186 000e 1978     		ldrb	r1, [r3]	@ zero_extendqisi2
 1187 0010 0E4A     		ldr	r2, .L119
 1188 0012 9171     		strb	r1, [r2, #6]
1502:Generated_Source\PSoC5/UART_GPS.c ****                     UART_GPS_TXBITCLKTX_COMPLETE_REG = UART_GPS_TXBITCTR_BREAKBITS;
 1189              		.loc 1 1502 0
 1190 0014 6722     		movs	r2, #103
 1191 0016 1A70     		strb	r2, [r3]
1503:Generated_Source\PSoC5/UART_GPS.c ****                 #else
1504:Generated_Source\PSoC5/UART_GPS.c ****                     txPeriod = UART_GPS_TXBITCTR_PERIOD_REG;
1505:Generated_Source\PSoC5/UART_GPS.c ****                     UART_GPS_TXBITCTR_PERIOD_REG = UART_GPS_TXBITCTR_BREAKBITS8X;
1506:Generated_Source\PSoC5/UART_GPS.c ****                 #endif /* End UART_GPS_TXCLKGEN_DP */
1507:Generated_Source\PSoC5/UART_GPS.c **** 
1508:Generated_Source\PSoC5/UART_GPS.c ****                 /* Send zeros */
1509:Generated_Source\PSoC5/UART_GPS.c ****                 UART_GPS_TXDATA_REG = 0u;
 1192              		.loc 1 1509 0
 1193 0018 0022     		movs	r2, #0
 1194 001a 1133     		adds	r3, r3, #17
 1195 001c 1A70     		strb	r2, [r3]
 1196              	.L116:
1510:Generated_Source\PSoC5/UART_GPS.c **** 
1511:Generated_Source\PSoC5/UART_GPS.c ****                 do /* Wait until transmit starts */
1512:Generated_Source\PSoC5/UART_GPS.c ****                 {
1513:Generated_Source\PSoC5/UART_GPS.c ****                     tmpStat = UART_GPS_TXSTATUS_REG;
 1197              		.loc 1 1513 0 discriminator 1
 1198 001e 0D4B     		ldr	r3, .L119+8
 1199 0020 1B78     		ldrb	r3, [r3]	@ zero_extendqisi2
 1200              	.LVL87:
1514:Generated_Source\PSoC5/UART_GPS.c ****                 }
1515:Generated_Source\PSoC5/UART_GPS.c ****                 while((tmpStat & UART_GPS_TX_STS_FIFO_EMPTY) != 0u);
 1201              		.loc 1 1515 0 discriminator 1
 1202 0022 13F0020F 		tst	r3, #2
 1203 0026 FAD1     		bne	.L116
 1204              	.LVL88:
 1205              	.L115:
1516:Generated_Source\PSoC5/UART_GPS.c ****             }
1517:Generated_Source\PSoC5/UART_GPS.c **** 
1518:Generated_Source\PSoC5/UART_GPS.c ****             if( (retMode == UART_GPS_WAIT_FOR_COMPLETE_REINIT) ||
 1206              		.loc 1 1518 0
 1207 0028 0128     		cmp	r0, #1
ARM GAS  C:\Users\cronos\AppData\Local\Temp\ccrntx0f.s 			page 49


 1208 002a 01D0     		beq	.L117
 1209              		.loc 1 1518 0 is_stmt 0 discriminator 1
 1210 002c 0328     		cmp	r0, #3
 1211 002e 04D1     		bne	.L118
 1212              	.L117:
1519:Generated_Source\PSoC5/UART_GPS.c ****                 (retMode == UART_GPS_SEND_WAIT_REINIT) )
1520:Generated_Source\PSoC5/UART_GPS.c ****             {
1521:Generated_Source\PSoC5/UART_GPS.c ****                 do /* Wait until transmit complete */
1522:Generated_Source\PSoC5/UART_GPS.c ****                 {
1523:Generated_Source\PSoC5/UART_GPS.c ****                     tmpStat = UART_GPS_TXSTATUS_REG;
 1213              		.loc 1 1523 0 is_stmt 1 discriminator 1
 1214 0030 084B     		ldr	r3, .L119+8
 1215 0032 1B78     		ldrb	r3, [r3]	@ zero_extendqisi2
 1216              	.LVL89:
1524:Generated_Source\PSoC5/UART_GPS.c ****                 }
1525:Generated_Source\PSoC5/UART_GPS.c ****                 while(((uint8)~tmpStat & UART_GPS_TX_STS_COMPLETE) != 0u);
 1217              		.loc 1 1525 0 discriminator 1
 1218 0034 13F0010F 		tst	r3, #1
 1219 0038 FAD0     		beq	.L117
 1220              	.LVL90:
 1221              	.L118:
1526:Generated_Source\PSoC5/UART_GPS.c ****             }
1527:Generated_Source\PSoC5/UART_GPS.c **** 
1528:Generated_Source\PSoC5/UART_GPS.c ****             if( (retMode == UART_GPS_WAIT_FOR_COMPLETE_REINIT) ||
1529:Generated_Source\PSoC5/UART_GPS.c ****                 (retMode == UART_GPS_REINIT) ||
 1222              		.loc 1 1529 0
 1223 003a 0138     		subs	r0, r0, #1
 1224              	.LVL91:
 1225 003c C0B2     		uxtb	r0, r0
1528:Generated_Source\PSoC5/UART_GPS.c ****                 (retMode == UART_GPS_REINIT) ||
 1226              		.loc 1 1528 0
 1227 003e 0228     		cmp	r0, #2
 1228 0040 03D8     		bhi	.L112
1530:Generated_Source\PSoC5/UART_GPS.c ****                 (retMode == UART_GPS_SEND_WAIT_REINIT) )
1531:Generated_Source\PSoC5/UART_GPS.c ****             {
1532:Generated_Source\PSoC5/UART_GPS.c **** 
1533:Generated_Source\PSoC5/UART_GPS.c ****             #if(UART_GPS_TXCLKGEN_DP)
1534:Generated_Source\PSoC5/UART_GPS.c ****                 UART_GPS_TXBITCLKTX_COMPLETE_REG = txPeriod;
 1229              		.loc 1 1534 0
 1230 0042 024B     		ldr	r3, .L119
 1231 0044 9A79     		ldrb	r2, [r3, #6]	@ zero_extendqisi2
 1232 0046 024B     		ldr	r3, .L119+4
 1233 0048 1A70     		strb	r2, [r3]
 1234              	.L112:
 1235 004a 7047     		bx	lr
 1236              	.L120:
 1237              		.align	2
 1238              	.L119:
 1239 004c 00000000 		.word	.LANCHOR0
 1240 0050 3C640040 		.word	1073767484
 1241 0054 6E640040 		.word	1073767534
 1242              	.LBE2:
 1243              		.cfi_endproc
 1244              	.LFE25:
 1245              		.size	UART_GPS_SendBreak, .-UART_GPS_SendBreak
 1246              		.section	.text.UART_GPS_SetTxAddressMode,"ax",%progbits
 1247              		.align	2
ARM GAS  C:\Users\cronos\AppData\Local\Temp\ccrntx0f.s 			page 50


 1248              		.global	UART_GPS_SetTxAddressMode
 1249              		.thumb
 1250              		.thumb_func
 1251              		.type	UART_GPS_SetTxAddressMode, %function
 1252              	UART_GPS_SetTxAddressMode:
 1253              	.LFB26:
1535:Generated_Source\PSoC5/UART_GPS.c ****             #else
1536:Generated_Source\PSoC5/UART_GPS.c ****                 UART_GPS_TXBITCTR_PERIOD_REG = txPeriod;
1537:Generated_Source\PSoC5/UART_GPS.c ****             #endif /* End UART_GPS_TXCLKGEN_DP */
1538:Generated_Source\PSoC5/UART_GPS.c **** 
1539:Generated_Source\PSoC5/UART_GPS.c ****             #if( (UART_GPS_PARITY_TYPE != UART_GPS__B_UART__NONE_REVB) || \
1540:Generated_Source\PSoC5/UART_GPS.c ****                  (UART_GPS_PARITY_TYPE_SW != 0u) )
1541:Generated_Source\PSoC5/UART_GPS.c ****                 UART_GPS_WriteControlRegister(UART_GPS_ReadControlRegister() &
1542:Generated_Source\PSoC5/UART_GPS.c ****                                                       (uint8) ~UART_GPS_CTRL_HD_SEND_BREAK);
1543:Generated_Source\PSoC5/UART_GPS.c ****             #endif /* End UART_GPS_PARITY_TYPE != NONE */
1544:Generated_Source\PSoC5/UART_GPS.c ****             }
1545:Generated_Source\PSoC5/UART_GPS.c ****         #endif    /* End UART_GPS_HD_ENABLED */
1546:Generated_Source\PSoC5/UART_GPS.c ****         }
1547:Generated_Source\PSoC5/UART_GPS.c ****     }
1548:Generated_Source\PSoC5/UART_GPS.c **** 
1549:Generated_Source\PSoC5/UART_GPS.c **** 
1550:Generated_Source\PSoC5/UART_GPS.c ****     /*******************************************************************************
1551:Generated_Source\PSoC5/UART_GPS.c ****     * Function Name: UART_GPS_SetTxAddressMode
1552:Generated_Source\PSoC5/UART_GPS.c ****     ********************************************************************************
1553:Generated_Source\PSoC5/UART_GPS.c ****     *
1554:Generated_Source\PSoC5/UART_GPS.c ****     * Summary:
1555:Generated_Source\PSoC5/UART_GPS.c ****     *  Configures the transmitter to signal the next bytes is address or data.
1556:Generated_Source\PSoC5/UART_GPS.c ****     *
1557:Generated_Source\PSoC5/UART_GPS.c ****     * Parameters:
1558:Generated_Source\PSoC5/UART_GPS.c ****     *  addressMode: 
1559:Generated_Source\PSoC5/UART_GPS.c ****     *       UART_GPS_SET_SPACE - Configure the transmitter to send the next
1560:Generated_Source\PSoC5/UART_GPS.c ****     *                                    byte as a data.
1561:Generated_Source\PSoC5/UART_GPS.c ****     *       UART_GPS_SET_MARK  - Configure the transmitter to send the next
1562:Generated_Source\PSoC5/UART_GPS.c ****     *                                    byte as an address.
1563:Generated_Source\PSoC5/UART_GPS.c ****     *
1564:Generated_Source\PSoC5/UART_GPS.c ****     * Return:
1565:Generated_Source\PSoC5/UART_GPS.c ****     *  None.
1566:Generated_Source\PSoC5/UART_GPS.c ****     *
1567:Generated_Source\PSoC5/UART_GPS.c ****     * Side Effects:
1568:Generated_Source\PSoC5/UART_GPS.c ****     *  This function sets and clears UART_GPS_CTRL_MARK bit in the Control
1569:Generated_Source\PSoC5/UART_GPS.c ****     *  register.
1570:Generated_Source\PSoC5/UART_GPS.c ****     *
1571:Generated_Source\PSoC5/UART_GPS.c ****     *******************************************************************************/
1572:Generated_Source\PSoC5/UART_GPS.c ****     void UART_GPS_SetTxAddressMode(uint8 addressMode) 
1573:Generated_Source\PSoC5/UART_GPS.c ****     {
 1254              		.loc 1 1573 0
 1255              		.cfi_startproc
 1256              		@ args = 0, pretend = 0, frame = 0
 1257              		@ frame_needed = 0, uses_anonymous_args = 0
 1258              		@ link register save eliminated.
 1259              	.LVL92:
 1260 0000 7047     		bx	lr
 1261              		.cfi_endproc
 1262              	.LFE26:
 1263              		.size	UART_GPS_SetTxAddressMode, .-UART_GPS_SetTxAddressMode
 1264              		.global	UART_GPS_rxBufferOverflow
 1265              		.global	UART_GPS_rxBufferLoopDetect
ARM GAS  C:\Users\cronos\AppData\Local\Temp\ccrntx0f.s 			page 51


 1266              		.global	UART_GPS_rxBufferWrite
 1267              		.global	UART_GPS_rxBufferRead
 1268              		.comm	UART_GPS_rxBuffer,8,4
 1269              		.global	UART_GPS_errorStatus
 1270              		.global	UART_GPS_initVar
 1271 0002 00BF     		.bss
 1272              		.set	.LANCHOR0,. + 0
 1273              		.type	UART_GPS_errorStatus, %object
 1274              		.size	UART_GPS_errorStatus, 1
 1275              	UART_GPS_errorStatus:
 1276 0000 00       		.space	1
 1277              		.type	UART_GPS_initVar, %object
 1278              		.size	UART_GPS_initVar, 1
 1279              	UART_GPS_initVar:
 1280 0001 00       		.space	1
 1281              		.type	UART_GPS_rxBufferRead, %object
 1282              		.size	UART_GPS_rxBufferRead, 1
 1283              	UART_GPS_rxBufferRead:
 1284 0002 00       		.space	1
 1285              		.type	UART_GPS_rxBufferWrite, %object
 1286              		.size	UART_GPS_rxBufferWrite, 1
 1287              	UART_GPS_rxBufferWrite:
 1288 0003 00       		.space	1
 1289              		.type	UART_GPS_rxBufferLoopDetect, %object
 1290              		.size	UART_GPS_rxBufferLoopDetect, 1
 1291              	UART_GPS_rxBufferLoopDetect:
 1292 0004 00       		.space	1
 1293              		.type	UART_GPS_rxBufferOverflow, %object
 1294              		.size	UART_GPS_rxBufferOverflow, 1
 1295              	UART_GPS_rxBufferOverflow:
 1296 0005 00       		.space	1
 1297              		.type	txPeriod.5141, %object
 1298              		.size	txPeriod.5141, 1
 1299              	txPeriod.5141:
 1300 0006 00       		.space	1
 1301              		.text
 1302              	.Letext0:
 1303              		.file 2 "Generated_Source\\PSoC5\\cytypes.h"
 1304              		.file 3 "Generated_Source\\PSoC5\\CyLib.h"
 1305              		.file 4 "Generated_Source\\PSoC5\\UART_GPS_IntClock.h"
